:100000000C94E5040C942E050C942E050C942E05EE
:100010000C942E050C942E050C942E050C942E0594
:100020000C942E050C942E050C9453470C942A48DE
:100030000C94C73C0C942E050C942E050C942E05A4
:100040000C942E050C948A190C942E050C942E05F4
:100050000C942E050C942F3D0C942E050C942E051B
:100060000C942E050C942E050C942E050C942E0544
:100070000C942E050C942E050C942E050C942E0534
:100080000C943B150C942E050C942E050C942E0507
:100090000C942E050C942E0505A84CCDB2D44EB967
:1000A0003836A9020C50B9918688083CA6AAAA2A1B
:1000B000BE000000803F07634236B79BD8A71A39BD
:1000C000685618AEBAAB558C1D3CB7CC5763BD6DA6
:1000D000EDFD753EF6177231BF000000803F08004D
:1000E0000000BE922449123EABAAAA2ABECDCCCCB7
:1000F0004C3E00000080BEABAAAAAA3E0000000051
:10010000BF000000803F0000000000084178D3BB22
:100110004387D1133D190E3CC3BD4282AD2B3E68CF
:10012000EC8276BED98FE1A93E4C80EFFFBE01C4C0
:10013000FF7F3F00000000006D6F646520737769EA
:10014000746368656420746F205157455254590A8E
:1001500000290014001A000800150017001C0018E0
:10016000000C00120013002A002B000400160007E8
:100170000009000A000B000D000E000F00330034D0
:1001800000E1001D001B0006001900050011001011
:100190000036003700520028000751E000E300E27B
:1001A0000003512C002C0004513800500051004F26
:1001B000002B0014001A00090013000A000D000FA4
:1001C0000018001C0033002A002900040015001646
:1001D00000170007000B00110008000C001200348B
:1001E00000E1001D001B000600190005000E0010B4
:1001F000003600370038002800DF5CE000E200E352
:100200000003512C002C0004515000510052004FAB
:10021000002B0034003600370013001C0009000AD0
:1002200000060015000F002A002900040012000833
:100230000018000C0007000B001700110016003812
:1002400000E100330014000D000E001B000500103B
:10025000001A0019001D002800DF5CE000E200E346
:100260000003512C002C0004515000510052004F4B
:100270000035001E001F0020002100220023002462
:10028000002500260027002A0001000100010001CE
:10029000000100010001002100220023002E022D98
:1002A0000001000100010001000100010001001E29
:1002B000001F002000A9002800010001000100012A
:1002C00000010001000100010027002E00AA00A883
:1002D0000035021E021F02200221022202230224F4
:1002E000022502260227024C0001003A003B003C96
:1002F000003D003E003F002D002E022F0230023153
:100300000201004000410042004300440045002D2E
:100310000264022F003000010001003900010001D9
:1003200000010001000100010001000100010001C5
:10033000001E001E001E001E001E001E001E001ECD
:10034000001E001E001E001E00000014001A0008FF
:1003500000150017001C0018000C00120013002FDD
:1003600000000004001600070009000A000B000D41
:10037000000E000F0033003400E05C0000000006B7
:100380000019000000000011001000000000000033
:10039000000100005C0100010001000100010001FA
:1003A00000C35CC45C0100DB5C01001D5C1E5C01E1
:1003B000000100010001000100C55CC65C0100DC19
:1003C0005C0100245C255C275C0100010001000148
:1003D00000C75CC85C0100DD5C0100295C285C0191
:1003E000000100010001000100C05CC15C0100DEF1
:1003F0005C3A003B003C003D003E003F00400041B5
:1004000000420043004400450001000100010001DA
:1004100000010001000100010001000100010001D4
:1004200000010001000100010001000100010001C4
:1004300000010001000100010001000100010001B4
:1004400000010001000100010001000100010001A4
:100450000044454255473A20656E61626C65642EE2
:100460000A000A002530313662003A200025303279
:1004700058000A722F632030313233343536373822
:10048000394142434445460A00617564696F2070F2
:100490006C6179206E6F746520667265713D2564AC
:1004A00020766F6C3D256400617564696F207374FC
:1004B0006F70206E6F746520667265713D256400F3
:1004C000617564696F2073746F7020616C6C206E4D
:1004D0006F746573007267625F6D61747269785FD3
:1004E000696E69745F64726976657273207267629F
:1004F0005F6D61747269785F636F6E6669672E6D98
:100500006F6465203D20302E205772697465206429
:10051000656661756C742076616C75657320746FA7
:1005200020454550524F4D2E0A007267625F6D6143
:10053000747269785F696E69745F647269766572F6
:1005400073206565636F6E666967206973206E6FDF
:100550007420656E61626C65642E0A007267625F6A
:100560006D61747269785F636F6E6669672E737010
:10057000656564203D2025640A007267625F6D61D5
:10058000747269785F636F6E6669672E76616C203E
:100590003D2025640A007267625F6D61747269783C
:1005A0005F636F6E6669672E736174203D202564FA
:1005B0000A007267625F6D61747269785F636F6E63
:1005C0006669672E687565203D2025640A0072679C
:1005D000625F6D61747269785F636F6E6669672EC2
:1005E0006D6F6465203D2025640A007267625F6D4F
:1005F00061747269785F636F6E6669672E656E619C
:10060000626C65203D2025640A007267625F6D613F
:10061000747269785F636F6E666967206570726F68
:100620006D0A006565636F6E6669675F757064610A
:1006300074655F7267625F6D61747269785F64652B
:100640006661756C740A0000000000000101010180
:10065000010101010102020202020202020203037D
:10066000030303030303040404040404050505054C
:100670000506060606060707070708080808090909
:10068000090A0A0A0A0B0B0B0C0C0C0D0D0D0E0EB1
:100690000F0F0F101011111112121313141415153E
:1006A00016161717181819191A1A1B1C1C1D1D1EAF
:1006B0001F1F202021222223242525262727282901
:1006C0002A2B2B2C2D2E2F2F30313233343536362A
:1006D0003738393A3B3C3D3E3F4041424344464730
:1006E00048494A4B4C4D4F50515253555657585A02
:1006F0005B5C5E5F606263646667696A6C6D6E70A6
:100700007173747678797B7C7E8081838486888A15
:100710008B8D8F91929496989A9B9D9FA1A3A5A74C
:10072000A9ABADAFB1B3B5B7B9BBBDBFC1C4C6C846
:10073000CACCCFD1D3D6D8DADCDFE1E4E6E8EBED02
:10074000F0F2F5F7FAFCFF0A002530325820006B72
:100750006579626F6172645F7265706F72743A205E
:10076000000A0025303258006B6579626F6172644F
:100770005F7365745F6C65643A200064656C5F6BE1
:1007800065795F6269743A2063616E2774206465DD
:100790006C3A20253032580A006164645F6B6579D9
:1007A0005F6269743A2063616E2774206164643A01
:1007B00020253032580A004B6579626F61726420DF
:1007C00073746172742E0A005B575D005B535D00A9
:1007D0005B525D005B445D005B435D0004033000E1
:1007E00000001A0350006C0061006E0063006B0093
:1007F00020004C00690067006800740000000A03D4
:100800004F004C004B0042000000040309040902A1
:10081000D800060100A0FA0904000001030101004C
:100820000921110100012240000705810308000A87
:100830000904010001030000000921110100012247
:1008400036000705820308000A09040200020300BB
:100850000000092111010001222200070583032065
:100860000001070503032000010904030001030040
:10087000000009211101000122390007058403202D
:100880000001080B0402010100000904040000013A
:100890000100000924010001090001050904050007
:1008A00002010300000724010001410006240201A7
:1008B00001000624020202000924030103010201CF
:1008C0000009240302040101010009050602400099
:1008D000050000052501010109058502400005000C
:1008E0000005250101031201100100000008EDFEC2
:1008F000656001000102030105010906A101050768
:1009000019E029E715002501950875018102050800
:10091000190129059505750191029501750391014C
:100920000507190029F71500250195F875018102C1
:10093000C00631FF0974A1010975150026FF009555
:1009400020750881020976150026FF00952075089C
:100950009102C005010980A101850216010026034C
:10096000001A81002A8300751095018100C0050CD2
:100970000901A1018503160100269C021A01002A23
:100980009C02751095018100C005010906A10105B1
:100990000719E029E71500250195087501810295E1
:1009A0000175088101050819012905950575019151
:1009B000029501750391010507190029FF1500260D
:1009C000FF00950675088100C00011241FBECFEFFF
:1009D000D0E2DEBFCDBF04B603FE27C080911F0C5E
:1009E0009091200CA091210CB091220C8730904B5B
:1009F000A740B04BD1F410921F0C1092200C109213
:100A0000210C1092220C14BE84B7877F84BF0FB6CE
:100A1000F894A8958091600088618093600010929E
:100A200060000FBEE0E0F0EF099518E0A0E0B1E053
:100A3000E2EDFFE900E00BBF02C007900D92A83382
:100A4000B107D9F72CE0A8E3B8E001C01D92AF319F
:100A5000B207E1F70E944D440C94E74F0C9400005C
:100A6000FF93EF93E0913808F0913908309709F03F
:100A70000995EF91FF910895FC018591803011F067
:100A8000EFDFFBCF0895FF27E0E230E247FF0CC025
:100A9000419597FF09C0EDE260957095809590951E
:100AA000611D711D811D911D27FF02C0219530E33D
:100AB00050E2AA27660F771F881F991FAA1FA41745
:100AC00010F0A41B63955A95A9F7AA3008F0A95F06
:100AD000A05DAF93F395611571058105910541F70F
:100AE000ED3211F4EF93F395F21718F43F93F39569
:100AF000FBCF8F91B5DFFA95E1F70895E991F99170
:100B00008591803021F0853219F0AADFF9CF089560
:100B100020E0E89455915532C1F3503311F46894B4
:100B200055915A3348F4505390F3220F022E220F5E
:100B3000220F200D250FF4CF0EF421958991999164
:100B4000533619F3533729F1533559F1BC0188272E
:100B50009927E8945C3621F489919991689455918C
:100B6000543639F446EF7EF077FF0DC08FEF9FEFDC
:100B70000AC055374AE039F0583540E121F0523685
:100B800042E009F00895FF93EF937DDFEF91FF912D
:100B9000B7CFFF93EF93FC0181918030B9F360DF11
:100BA000FBCFFF93EF9368DFF1CFDF93CF93CDB708
:100BB000DEB72596A3DFCF91DF910895E82FF0E00F
:100BC000893068F5EA51FA4F0C94D94E2C06EF059E
:100BD000F105F405F805FD05030609060C0681E09C
:100BE000089580914108089580913E08817008958C
:100BF00080913E0886958170089580913E0882FB21
:100C0000882780F9089580913E0883FB882780F922
:100C1000089580914008EACF80914008EBCF399742
:100C200041E050E060E070E004C0440F551F661FD3
:100C3000771FEA95D2F780913A0890913B08A091EE
:100C40003C08B0913D08482359236A237B2381E067
:100C5000452B462B472B09F480E008951F93CF9333
:100C6000DF93809104010E94DE05C82F8091050169
:100C70000E94DE05D82F809106010E94DE05182F04
:100C8000809107010E94DE054091410841114AC050
:100C9000ED2FF0E0EE0FFF1F54E0159F900111249F
:100CA00058E0859FC0011124E45FFE4FEC0FF11D59
:100CB000E20FF31FE80FF91FE08180913F088111D7
:100CC00009C02091400830E02F5F3F4F2370332749
:100CD0002093400890E0019663E070E00E94C54ECA
:100CE00080933F0880913E0890E001968F7099278D
:100CF00080933E0880913A0890913B08A0913C086F
:100D0000B0913D08880F991FAA1FBB1F8E0F911D20
:100D1000A11DB11D80933A0890933B08A0933C0815
:100D2000B0933D084F5F41704093410880910801A6
:100D30000E94DE05C82F809109010E94DE05D82F90
:100D400080910A010E94DE05DD0F880F880FD80F01
:100D5000CD0F80910B010E94DE05880F880F880F50
:100D60008C0FDF91CF911F910895569A5E9A0C9443
:100D700063130C94CA060C943D0780E00E94592529
:100D80000C94BE3C0F9306E024E043E00E94450D26
:100D90000F910895CF93FB018D3D2CE5920789F1CA
:100DA00048F48B3D2CE59207D9F08C3D9C4521F110
:100DB000C1E02BC08F3D2CE5920751F198F1803EA8
:100DC0009C45B1F7C281CC2301F140E066E070E0C0
:100DD0008FE191E00E94941985E00E94DA390AC0FF
:100DE000C281CC2391F088E391E00E943C0580E031
:100DF0000E94250DC0E009C0C281CC2331F081E002
:100E0000F7CFC28182E0C111F3CF8C2FCF9108952B
:100E1000C28185EECC2319F00E949031EBCF0E9465
:100E20008732F3CFC281CC2381F30E94861A40E03F
:100E300066E070E08FE491E00E94941984E00E94E3
:100E4000DA3983E00E94DA3986E00E94DA3985E0F7
:100E50000E94B9390E94F73B811102C00E94D13B28
:100E60000E940F3C90E09093240B8093230B8068AA
:100E70008093230B0E94133CBDCF1F93CF93DF932E
:100E8000CDB7DEB7A3970FB6F894DEBF0FBECDBFC8
:100E9000809145088823E1F18091420890914308B0
:100EA000892B39F583E2E6EEF5E0DE01119601903B
:100EB0000D928A95E1F70E942E0621E030E02C0F7A
:100EC0003D1F280F311DF901108180911E01180F5F
:100ED00080914408811769F00E94D3140E94D71AA8
:100EE000812F0E94D3144FE050E00E94911B109379
:100EF00044088091420890914308019660911C013A
:100F000070911D010E94B14E909343088093420856
:100F1000A3960FB6F894DEBF0FBECDBFDF91CF9181
:100F20001F91089583509145029710F081E0089534
:100F300080E00895DF92EF92FF920F931F93CF937B
:100F4000DF93F82EE62ED42E0CE216E0D0E0C0E0BF
:100F5000F80183810C5F1F4F90819F3F41F080FF1C
:100F600006C02D2D4E2D6F2DCE010E9407252196F6
:100F7000C133D10569F7DF91CF911F910F91FF9098
:100F8000EF90DF9008956091580970915909809110
:100F90005A0990915B090E945F3B843009F4DEC2DC
:100FA000C8F4833009F46FC160915C0970915D09E8
:100FB00080915E0990915F090E945F3B813009F446
:100FC0003AC508F433C5823009F0B4C221E040E0EC
:100FD0006FEF2FC5863009F415C4873029F722E456
:100FE00042E864EF90E080E00E94072522E44CE8AC
:100FF00064EF81E090E00E94072522E446E964EF77
:1010000082E090E00E94072522E440EA64EF83E05A
:1010100090E00E94072522E44AEA64EF84E090E031
:101020000E94072522E444EB64EF85E090E00E94F3
:10103000072522E44EEB64EF86E090E00E9407254E
:1010400022E448EC64EF87E090E00E94072522E468
:1010500042ED64EF88E090E00E94072522E44CED29
:1010600064EF89E090E00E94072522E446EE64EFF9
:101070008AE090E00E94072522E440EF64EF8BE0D5
:1010800090E00E94072520E645EF62E48CE090E0C6
:101090000E94072522E342E362E38DE090E00E9494
:1010A000072522E342E362E38EE090E00E940725F9
:1010B00022E342E362E38FE090E00E94072522E30F
:1010C00042E362E380E190E00E94072522E342E3ED
:1010D00062E381E190E00E94072522E342E362E3BC
:1010E00082E190E00E94072522E342E362E383E18C
:1010F00090E00E94072522E342E362E384E190E06E
:101100000E94072522E342E362E385E190E00E942A
:10111000072522E342E362E386E190E00E9407258F
:1011200020E645EF62E487E190E00E94072520E693
:1011300045EF62E488E190E00E94072522E342E364
:1011400062E389E190E00E94072522E342E362E343
:101150008AE190E00E94072522E342E362E38BE10B
:1011600090E00E94072522E342E362E38CE190E0F5
:101170000E94072522E342E362E38DE190E00E94B2
:10118000072522E342E362E38EE190E00E94072517
:1011900022E342E362E38FE190E00E94072522E32D
:1011A00042E362E380E290E00E94072522E342E30B
:1011B00062E381E290E00E94072522E342E362E3DA
:1011C00082E290E00E94072520E645EF62E483E298
:1011D00090E00E94072520E645EF62E484E290E07B
:1011E0000E94072520E645EF62E485E290E00E9438
:1011F000072520E645EF62E486E290E00E9407259D
:1012000020E645EF62E487E290E00E94072520E6B1
:1012100045EF62E488E290E00E94072520E645EF72
:1012200062E489E290E00E94072520E645EF62E44F
:101230008AE290E00E94072520E040E060E08BE237
:1012400090E00E94072520E645EF62E48CE290E002
:101250000E94072520E645EF62E48DE290E00E94BF
:10126000072520E645EF62E48EE290E00E94072524
:1012700020E645EF62E48FE290E00E94072520E639
:1012800045EF62E453C122E342E362E390E080E091
:101290000E9407252FEF40E060E081E090E00E948F
:1012A00007252FEF40E060E082E090E00E940725F4
:1012B0002FEF40E060E083E090E00E9407252FEFF1
:1012C00040E060E084E090E00E9407252FEF40E0DE
:1012D00060E085E090E00E9407252FEF40E060E0AD
:1012E00086E090E00E9407252FEF40E06EEB87E05C
:1012F00090E00E9407252FEF40E06EEB88E090E041
:101300000E9407252FEF40E06EEB89E090E00E94FD
:1013100007252FEF40E060E08AE090E00E9407257B
:1013200022E342E362E38BE090E00E94072522E3A0
:1013300042E362E38CE090E00E94072522E342E36F
:1013400062E38DE090E00E94072522E342E362E33E
:101350008EE090E00E94072522E342E362E38FE003
:1013600090E00E94072522E342E362E380E190E0FF
:101370000E94072522E342E362E381E190E00E94BC
:10138000072522E342E362E382E190E00E94072521
:101390002FEF40E06EEB83E190E00E9407252FEFF6
:1013A00040E06EEB84E190E00E9407252FEF40E0E3
:1013B0006EEB85E190E00E94072522E342E362E3C1
:1013C00086E190E00E94072522E342E362E387E1A1
:1013D00090E00E94072522E342E362E388E190E087
:1013E0000E94072522E342E362E389E190E00E9444
:1013F000072522E342E362E38AE190E00E940725A9
:1014000022E342E362E38BE190E00E94072522E3BE
:1014100042E362E38CE190E00E94072522E342E38D
:1014200062E38DE190E00E94072522E342E362E35C
:101430008EE190E00E9407252FEF40E06EEB8FE1F8
:1014400090E00E9407252FEF40E06EEB80E290E0F5
:101450000E9407252FEF40E06EEB81E290E00E94B2
:10146000072526E04AEF6AEE82E290E00E94072517
:1014700022E342E362E383E290E00E94072522E355
:1014800042E362E384E290E00E94072522E342E324
:1014900062E385E290E00E94072522E342E362E3F3
:1014A00086E290E00E94072522E342E362E387E2BE
:1014B00090E00E94072522E342E362E388E290E0A5
:1014C0000E94072522E342E362E389E290E00E9462
:1014D000072522E342E362E38AE290E00E940725C7
:1014E00020E040E060E08BE290E00E94072522E3EC
:1014F00042E362E38CE290E00E9407252FEF40E098
:101500006EEB8DE290E00E94072522E342E362E366
:101510008EE290E00E94072526E04AEF6AEE8FE215
:1015200090E00E94072522E342E362E380E390E03B
:101530000E94072560915C0970915D0980915E09A8
:1015400090915F090E945F3B833008F07BC220E0EE
:1015500040E060E08AE290E00C94072520E04FE64E
:101560006FEF90E080E00E94072520E04FEF60E001
:1015700081E090E00E94072520E04FEF60E082E0EC
:1015800090E00E94072520E04FEF60E083E090E0CC
:101590000E94072520E04FEF60E084E090E00E9489
:1015A000072520E04FEF60E085E090E00E940725EE
:1015B00020E04FEF60E086E090E00E94072520E009
:1015C0004FEF60E087E090E00E94072520E04FEFBA
:1015D00060E088E090E00E9407252FEF40E06FEF89
:1015E00089E090E00E9407252FEF40E06FEF8AE04E
:1015F00090E00E94072520E04FE66FEF8BE090E03F
:101600000E94072520E04FE66FEF8CE090E00E94FB
:10161000072520E040E06FEF8DE090E00E94072575
:1016200020E040E06FEF8EE090E00E94072520E090
:1016300040E06FEF8FE090E00E94072520E040E05F
:101640006FEF80E190E00E94072520E040E06FEF1F
:1016500081E190E00E94072520E040E06FEF82E109
:1016600090E00E94072520E04FEF60E083E190E0EA
:101670000E94072520E04FEF60E084E190E00E94A7
:1016800007252FEF40E06FEF85E190E00E940725EE
:101690002FEF40E06FEF86E190E00E94072520E009
:1016A0004FE66FEF87E190E00E94072520E04FE6CC
:1016B0006FEF88E190E00E94072520E040E06FEFA7
:1016C00089E190E00E94072520E040E06FEF8AE189
:1016D00090E00E94072520E040E06FEF8BE190E072
:1016E0000E94072520E040E06FEF8CE190E00E942F
:1016F000072520E040E06FEF8DE190E00E94072594
:1017000020E040E06FEF8EE190E00E94072520E0AE
:101710004FEF60E08FE190E00E94072520E04FEF5F
:1017200060E080E290E00E9407252FEF40E06FEF3D
:1017300081E290E00E9407252FEF40E06FEF82E208
:1017400090E00E94072520E04FE66FEF83E290E0F3
:101750000E94072520E04FE66FEF84E290E00E94B0
:10176000072520E04FE66FEF85E290E00E94072515
:1017700020E04FE66FEF86E290E00E94072520E030
:101780004FE66FEF87E290E00E94072520E04FE6EA
:101790006FEF88E290E00E94072520E040E060E0E3
:1017A00089E290E00E94072520E040E060E08AE2C4
:1017B00090E00E94072520E040E060E08BE290E0AE
:1017C0000E94072520E04FE66FEF8CE290E00E9438
:1017D000072520E04FE66FEF8DE290E00E9407259D
:1017E00020E04FE66FEF8EE290E00E94072520E0B8
:1017F0004FE66FEF8FE290E00E94072520E04FE672
:101800006FEF94CE22E342E362E390E080E00E9437
:10181000072520E040E06FEF81E090E00E9407257F
:1018200022E342E362E382E090E00E94072522E3A4
:1018300042E362E383E090E00E94072522E342E373
:1018400062E384E090E00E94072522E342E362E342
:1018500087E090E00E9407252CEB4FEF60E088E0E6
:1018600090E00E9407252CEB4FEF60E089E090E0CC
:101870000E94072522E342E362E38AE090E00E94AF
:10188000072520E040E06FEF8BE090E00E94072505
:1018900022E342E362E38CE090E00E9407252FEF11
:1018A0004EEB67E08DE090E00E9407252FEF4EEBB6
:1018B00067E08EE090E00E94072522E342E362E3C6
:1018C0008FE090E00E94072522E342E362E380E19B
:1018D00090E00E94072522E342E362E383E190E087
:1018E0000E94072525E54FEF60E084E190E00E942B
:1018F000072525E54FEF60E085E190E00E94072590
:1019000022E342E362E386E190E00E94072520E0C3
:1019100040E06FEF87E190E00E94072522E342E379
:1019200062E388E190E00E9407252FEF4EEB67E02D
:1019300089E190E00E9407252FEF4EEB67E08AE1F6
:1019400090E00E9407252FEF4EEB67E08BE190E0DF
:101950000E94072522E342E362E38CE190E00E94CB
:10196000072522E342E362E38FE190E00E9407252E
:1019700020E04FEF6FE680E290E00E94072520E034
:101980004FEF6FE681E290E00E94072522E342E3F9
:1019900062E382E290E00E94072520E040E06FEFE2
:1019A00083E290E00E94072522E342E362E384E2BF
:1019B00090E00E9407252FEF4EEB67E085E290E074
:1019C0000E9407252FEF4EEB67E086E290E00E9431
:1019D000072522E342E362E387E290E00E940725C5
:1019E00022E342E362E388E290E00E94072522E3DB
:1019F00042E362E38CE290E00E94072520E04FEF93
:101A00006DEC8DE290E00E94072520E04FEF6DEC39
:101A10008EE290E00E94072522E342E362E38FE238
:101A200090E00E94072520E040E0EACE21E048E671
:101A300060E080E004C021E04FEF60E08FEF0E94A3
:101A40009A0778CD089581E00895CF93DF93C82F4A
:101A500020E8829FC001112440E060E170E08158DD
:101A60009E4F0E94941961E070E0CB0102C0880F84
:101A7000991FCA95E2F7EC010E940A3CBE0190E072
:101A800080E0DF91CF910C9459398F929F92AF9261
:101A9000BF92CF92DF92EF92FF920F931F936B0151
:101AA0007C0181E090E0A0E0B0E04C015D0104C069
:101AB000880C991CAA1CBB1C4A95D2F7B501A4013D
:101AC0004C015D0104C0880C991CAA1CBB1C2A9502
:101AD000D2F7482959296A297B2904C0880F991F00
:101AE000AA1FBB1F0A95D2F78A019B010C211D2159
:101AF0002E213F21041715072607370789F48C2963
:101B00009D29AE29BF29BC01CD011F910F91FF90E6
:101B1000EF90DF90CF90BF90AF909F908F900895FF
:101B200080959095A095B0958C219D21AE21BF21E7
:101B3000EACF0E94151A0E946E2E0C94B5060E94E0
:101B4000571F0E94982D80914608811102C00E9463
:101B5000FF248091460890E0019681709927809338
:101B600046080C94BB0608950C94B30D0C94B40D68
:101B70000895CF93DF930E946A350E94EB1E0E9466
:101B80001C1F0E94F93CEC0140E063E070E08FE232
:101B900093E00E9494190E94B80DCE010E94053D69
:101BA0008A3F910530F00E94861ADF91CF910C9404
:101BB000553D8FE99FE00197F1F700C00000EDCFA0
:101BC0000F931F93CF93DF938C01FC01C081D181D0
:101BD000CE010E94553ABE010E94B010EC01B8013E
:101BE0000E94B906882309F40AC1B801CE010E94F7
:101BF0000925882309F403C1B801CE010E94F0141D
:101C0000882309F4FCC0B801CE010E94B31F8823C9
:101C100009F4F5C0B801CE010E941413882309F419
:101C2000EEC0C93CFCE5DF0709F425C108F056C049
:101C3000C13C9CE5D90709F4F6C070F5C531FCE557
:101C4000DF07D0F4C2308CE5D80708F094C1C11585
:101C50009CE5D90709F4CEC0C130DC4509F4D5C0F4
:101C600081E080934C0880934D08C801DF91CF91AB
:101C70001F910F910C94230DC531FCE5DF0709F48A
:101C80004BC2C03CDC4561F7F8018281882309F42E
:101C9000B6C00E94B22EB3C0F8018281C53CFCE5FB
:101CA000DF0709F4D9C068F4C33CECE5DE0709F4AA
:101CB000CEC008F4C3C0882309F4A1C00E94212F1C
:101CC0009EC0C73C9CE5D90709F4D0C008F4C9C040
:101CD000882309F494C00E94892F91C0C13DFCE57E
:101CE000DF0709F418C1F0F5F8018281CD3CFCE56D
:101CF000DF0709F4D5C0D8F4CB3CECE5DE0709F4E6
:101D0000C8C008F4C0C0882309F479C00E94D82F45
:101D1000623071058105910540F00E94D82F653031
:101D200071058105910508F48FC082E0B6C0CF3CF3
:101D30009CE5D90709F4DBC008F4C5C0882309F481
:101D40005EC00E94D82F653171058105910540F074
:101D50000E94D82F673171058105910508F474C080
:101D600085E19BC0C53DFCE5DF0709F4B2C1C0F4C5
:101D7000F8018281C33DFCE5DF0709F4E7C008F400
:101D8000D1C0882309F48EC110924C080E94F93CFE
:101D9000909349088093480882E00E94D6322FC071
:101DA000C93DECE5DE0709F4D6C0CA3DFCE5DF0716
:101DB00009F4DAC0C63DDC4509F052CFF801828152
:101DC00081118BC180914D088111A4C180914A0875
:101DD00090914B080E94053D883C910508F09AC1FE
:101DE00080E20E94DD3288E20E94903188E20E9407
:101DF000873205C0F801828181110E94B90D80E00F
:101E0000DF91CF911F910F910895F801828188236E
:101E1000B1F38091850981608093850981E594E023
:101E20000E943C05ECCFF8018281882341F30E9497
:101E30001B3B827249F00E94D92EE1CF8823F9F230
:101E40000E941B3B8272B9F30E94C02ED8CF882318
:101E5000B1F20E94F52ED3CF882389F20E944B2F36
:101E6000CECF882361F20E94612FC9CF882339F237
:101E70000E94732FC4CFF8018281882309F4BFCF59
:101E80000E949B2FBCCF882309F4B9CF0E94B02FAA
:101E9000B6CF882309F4B3CF81E00E94C92FAFCF1A
:101EA000882309F4ACCF0E94D82F663071058105D4
:101EB000910538F00E94D82F683071058105910591
:101EC00018F286E0EACF882309F499CF0E94D82F30
:101ED000693071058105910540F00E94D82F6E3060
:101EE00071058105910508F4AFCF89E0D6CF88232D
:101EF00009F485CF0E94D82F6F30710581059105B7
:101F000040F00E94D82F643171058105910508F4D5
:101F10009BCF8FE0C2CFF8018281882309F46FCF75
:101F200088E1BBCF882309F46ACF0E94D82F69319A
:101F300071058105910540F00E94D82F623271052C
:101F40008105910508F480CF89E1A7CF882309F4A2
:101F500056CF83E2A2CFF8018281882309F44FCFC4
:101F600080E00E94E3444BCFF8018281882309F48A
:101F700046CF82E0F6CFF8018281882309F475CE3E
:101F80000E94F73B811102C00E94D13B0E940F3C8E
:101F900090E09093240B8093230BFE01E350FC45CB
:101FA000E231F105B0F4E952F04F0C94D94EEF0F45
:101FB000F30FF70FFB0FFF0F031007100B101F108D
:101FC000231027102B102F10331037103B103F1009
:101FD0004B108091230B81608093230B29C080914B
:101FE000230B8260F9CF8091230B8460F5CF809121
:101FF000230B8860F1CF8091230B8061EDCF80911E
:10200000230B8062E9CF8091230B8064E5CF809120
:10201000230B8068E1CF8091230B846088608093DC
:10202000230B40E064E070E08FEF92E00E9494198F
:102030008091230B0E94133C0E946A35E0CE809170
:10204000230B8E7FC9CF8091230B8D7FC5CF8091CD
:10205000230B8B7FC1CF8091230B877FBDCF8091D6
:10206000230B8F7EB9CF8091230B8F7DB5CF8091CD
:10207000230B8F7BB1CF8091230B8F77ADCF8091D6
:10208000230B8B7F877F8093230B40E062E070E01F
:102090008FE193E0CBCF9091230B892F97FB87F9AA
:1020A00080589ACF80914C0881110FC080914808C8
:1020B000909149080E94053D883C910530F486E2E4
:1020C0000E94903186E20E94873282E00E94DD32D7
:1020D00096CEF8018281882351F010924D080E941B
:1020E000F93C90934B0880934A0880E256CE809149
:1020F0004D0881110FC080914A0890914B080E94B1
:10210000053D883C910530F487E20E94903187E2DA
:102110000E94873280E2DACF0E941B3BF801928155
:10212000992381F08A7A91E009F490E0909347082E
:10213000811106C089E20E94A43A0E94E83A5FCE6B
:1021400085E3F9CF80914708811104C089E20E949C
:10215000AB3AF3CF85E3FBCF90E080E0089508959C
:10216000972F70E02CE0929F600D711D1124FB01F0
:1021700090E3899FE00DF11D1124EE0FFF1FEF5A30
:10218000FE4F859194910895FC01EE0FFF1FEE59CB
:10219000FB4F859194910895CF93DF930E94B010E7
:1021A0000E947012EC018115904508F043C0C115E2
:1021B00080E4D80708F00AC1C83ED10528F5C03E22
:1021C000D10508F09EC0C83AD10580F4C53AD105C2
:1021D00008F08DC0C130D10509F493C020F0C4309F
:1021E000D10508F08EC0D0E0C0E08BC0CD3BD1055A
:1021F00008F48BC0CE01805C9109C03CD10598F3F6
:102200000E94C410EC017DC0C11520E2D20750F439
:10221000C11581E0D80708F074C0C03FD10518F39C
:10222000D0656FC0C11520E3D20708F0C5C0CE014C
:102230009F70E6CFC11585E5D80760F5C11524E587
:10224000D20708F0F1C0C11582E5D80750F4C115D6
:1022500021E5D20708F4BDC0DC2FCC27C16FD06ABE
:1022600050C09C2F969596959E0123703327C115DB
:10227000D34508F0CAC0C1E0D0E002C0CC0FDD1FDA
:102280002A95E2F720E2929FC0011124C82BD92B96
:10229000DC6837C0C11529E5D20780F4C11588E58F
:1022A000D80708F0C6C0C11526E5D20708F09BCFB5
:1022B000DC2FCC27CC27DF71D06223C0C1158AE583
:1022C000D80708F4BBC0CE0190568115904208F0A3
:1022D0008ACF8D2F8F710E94F012DD27D06290E09F
:1022E000982F882788279F71C82BD92B0AC0C53AF9
:1022F000D10509F4B0C0C63AD10509F4AFC0C3E8AE
:10230000D0E4CE01DF91CF910895C83AD10509F408
:10231000A8C0C93AD10509F4A7C0CA3AD10509F441
:10232000A6C0CB3AD10509F4A5C0CC3AD10509F431
:10233000A4C0CB3BD10509F4A3C0CC3BD10509F423
:10234000A2C0CD3AD10509F4A1C0C03BD10509F422
:10235000A0C0CE3AD10509F49FC0CF3AD10509F407
:102360009EC0C13BD10509F49DC0C23BD10509F413
:102370009CC0C33BD10509F49BC0C43BD10509F403
:102380009AC0C53BD10509F499C0C63BD10509F4F3
:1023900098C0C73BD10509F497C0C83BD10509F4E3
:1023A00096C0C93BD10509F495C0CA3BD10509F0D7
:1023B00094C0CAE2D6E4A5CFCE019927D3FF03C0CB
:1023C000EC01D86C9ECFEC01D06C9BCFDF70D06A53
:1023D00098CFCE01E4E096958795EA95E1F7837072
:1023E0009C2F937021E030E002C0220F331F9A959A
:1023F000E2F73C68382BC695C695C37080E2C89F4B
:10240000E0011124C22BD32B7CCFC1E0D0E002C06D
:10241000CC0FDD1F2A95E2F720E2929FC001112424
:10242000C82BD92BDA686DCFDC2FCC27C46FD06ACC
:1024300068CFDC2FCC27C06FD06A63CFCE0134E0E9
:10244000969587953A95E1F78F70CF70C06ED0E082
:10245000D06AD82B56CFC1E8D0E453CFC2E8D0E43D
:1024600050CFC2EED4E44DCFC9EED4E44ACFCAEE89
:10247000D4E447CFC5EBD4E444CFC6EBD4E441CF9A
:10248000C3EBD4E43ECFC4EBD4E43BCFC7EBD4E4FE
:1024900038CFCCECD4E435CFCDECD4E432CFC3E8A4
:1024A000D5E42FCFCAE8D5E42CCFC2E9D5E429CFB3
:1024B000C4E9D5E426CFC1E2D6E423CFC3E2D6E413
:1024C00020CFC4E2D6E41DCFC5E2D6E41ACFC6E2DF
:1024D000D6E417CFC7E2D6E414CFC0E0D4E411CFDE
:1024E0008238910549F1B0F48133910509F45CC05B
:1024F00048F48932910509F452C08A32910509F4F1
:1025000058C008958533910509F444C08933910575
:1025100099F00895833E910531F138F4803E91059C
:1025200091F0823E9105B1F00895863E910511F13A
:10253000873E910541F108952091230B2370C9F046
:1025400080EE90E008952091230B20FF12C089E3D4
:1025500090E008952091230B22FF0BC024FF2EC092
:1025600090E080E008952091230B22FD2AC024FDF5
:10257000F7CF08952091230B23FFFBCF24FDF0CF4D
:1025800087EE90E008952091230B23FFF0CF86EE95
:1025900090E008952091230B25FD16C00895209109
:1025A000230B25FD14C008952091230B26FD12C096
:1025B00008952091230B26FD10C0089583EE90E02E
:1025C000089582EE90E0089589E290E0089585E311
:1025D00090E008958AE290E0089581E390E0C9CF09
:1025E0009091230B92FF06C0282F2871283069F4A0
:1025F000877F846093FF06C0282F2871283161F4FB
:10260000877E846194FD877E0895282F247124306D
:1026100089F78B7F8860EECF282F2471243191F7C2
:102620008B7E8861EFCF08950F931F93CF938C011A
:10263000FB018281811106C0C1E08C2FCF911F91D7
:102640000F910895C0915B08C11125C006311C454A
:1026500099F70E94131381E080935B080E94F93C74
:1026600090935A088093590810924E08109250087F
:1026700010924F081092520810925108109254086C
:10268000109253081092560810925508109258084C
:1026900010925708D2CF8091590890915A080E9401
:1026A000053D8C32914040F680914E08E82FF0E0D5
:1026B000EE0FFF1FE15BF74F118300838F5F809365
:1026C0004E08C0E0BACF0895CF93DF93A0ECB7E0F7
:1026D00044EC57E0C1E0D0E08D91E82FE295EF7037
:1026E000F0E061A18F709E0101C0220F8A95EAF788
:1026F000922F9095962391A382A1822B82A34A17B1
:102700005B0751F7A4EBB7E040EC57E0C1E0D0E045
:102710008D91E82FE295EF70F0E061A18F709E013E
:1027200001C0220F8A95EAF7922F9095962391A3E4
:1027300082A1822B82A34A175B0751F7109265088A
:102740001092640810925D0810925C08109267085D
:102750001092660810925F0810925E081092690845
:1027600010926808109261081092600810926B082D
:1027700010926A081092630810926208DF91CF915C
:102780000C94990D4F925F927F928F929F92AF928D
:10279000BF92CF92DF92EF92FF920F931F93CF934E
:1027A000DF93CCE5D8E000EC17E094ECA92E97E09D
:1027B000B92EEE24E394F12C99249394C880D98007
:1027C00019821882D8018D918D01E82FE295EF7062
:1027D000F0E091A18F70970101C0220F8A95EAF76E
:1027E000892F822B81A382A1822E8094882182A3AB
:1027F000B0EABA95F1F784EB482E87E0582E90E0C6
:1028000080E0D2017D912D01472F42954F7050E01D
:10281000DA0190967C90488159817F70D70102C07F
:10282000AA0FBB1F7A95E2F7BD01672109F068C0C6
:10283000B701082E02C0660F771F0A94E2F7462BF5
:10284000572B5983488301968C309105D1F681A18D
:10285000882281A282A1282B22A388819981C8166F
:10286000D90641F090926C080E94F93C90936E0852
:1028700080936D082296A016B10609F09FCF809133
:102880006C08882351F180916D0890916E080E9428
:10289000053D069710F180915C0890915D0890933A
:1028A00065088093640880915E0890915F0890931A
:1028B0006708809366088091600890916108909302
:1028C00069088093680880916208909163089093EA
:1028D0006B0880936A0810926C080E949F0D81E03B
:1028E000DF91CF911F910F91FF90EF90DF90CF90EC
:1028F000BF90AF909F908F907F905F904F90089582
:1029000070E060E09CCFE82FF0E0EE0FFF1FEC5985
:10291000F74F808191810895CF92DF92EF92FF92DD
:102920000F931F93CF93DF9382E794E00E943C05BF
:1029300084E6E82E88E0F82ED0E0C0E09DE6C92EBF
:1029400094E0D92E04E614E0DF93CF93DF92CF9288
:102950000E94D5058AE694E00E943C05F70181912A
:1029600091917F010E94C43B9F938F931F930F937C
:102970000E94D50582E694E00E943C0521968DB721
:102980009EB708960FB6F8949EBF0FBE8DBFC43099
:10299000D105D1F6DF91CF911F910F91FF90EF906C
:1029A000DF90CF9008958554990BBC01990F880B47
:1029B000990B0E94024B20E030E040E451E40E9479
:1029C000584A9B01AC0160E070E080E090E40E9416
:1029D000C54C20E030E04CED53E40E94584C089583
:1029E000FB018D312CE5920739F482818823A1F116
:1029F0000E94221C80E008958E312CE5920731F46C
:102A00008281882349F10E94321CF4CF8F312CE55A
:102A1000920741F482818823F9F00E941E1C8111E3
:102A2000F2CFE6CF88322CE5920769F482818823C1
:102A300099F00E944B1C40E064E070E087E493E072
:102A40000E949419D7CF89329C4531F48281882322
:102A500019F00E94541CEFCF81E008950E94D31416
:102A60004FE050E00C94911B0E94D3140C94D71AA1
:102A70000C94861A08951F920F920FB60F9211248C
:102A80000BB60F924F925F926F927F928F929F92AE
:102A9000AF92BF92CF92DF92EF92FF922F933F932C
:102AA0004F935F936F937F938F939F93AF93BF9356
:102AB000EF93FF9380918208882309F4B1C1E090DD
:102AC000C408F090C5081E141F040CF0A9C121E031
:102AD000E216F10409F4DEC020E030E0A9016091C3
:102AE00072087091730880917408909175080E9423
:102AF0004E4A8111B8C2F701EE0FFF1FEE0FFF1F04
:102B0000E057F74F80809180A280B38080911704B6
:102B1000882309F49FC2C090BA08D090BB08E09007
:102B2000BC08F090BD0820E030E0A901C701B60163
:102B30000E944E4A882309F48DC2A5019401C70161
:102B4000B6010E944E4A87FF4EC2A501940160E083
:102B500070E08CED93EC0E94584A20E030E040E4B5
:102B600051E40E94584A20E030E040E05FE30E94D8
:102B7000584C9B01AC0160E070E080E090E40E9462
:102B8000C54CA50194010E94584C9B01AC01C701A2
:102B9000B6010E944E4A87FF26C2A701960160E057
:102BA00070E08CED93E40E94584A20E030E040E46D
:102BB00051E40E94584A20E030E040E05FE30E9488
:102BC000584C9B01AC0160E070E080E090E40E9412
:102BD000C54C9B01AC01C701B6010E94584C6093E3
:102BE000BA087093BB088093BC089093BD086091AD
:102BF000BA087091BB088091BC089091BD082091E3
:102C00006F08309170082F3F320731F02F5F3F4F30
:102C10003093700820936F080E945D1C6B017C014B
:102C200020E034E244EF51E40E944E4A87FF08C09E
:102C300046EFC42E48E2D42E44EFE42E41E4F42EB5
:102C400020E030E040E051E4C701B6010E94584C5A
:102C50009B01AC0160E074E284E79BE40E94584A67
:102C60006B017C010E94D14A7093870060938600BB
:102C7000209118043091190440911A0450911B04BA
:102C8000C701B6010E94584C0E94D14A7093890036
:102C900060938800409072085090730860907408A8
:102CA00070907508E090C408F090C50820E030E00E
:102CB000A901C301B2010E94534C18160CF0D7C1F0
:102CC00082E0E816F1040CF452C08091C2089091A1
:102CD000C308B7010E94C54E6C019093C30880934E
:102CE000C2088090840890908508A0908608B090D3
:102CF000870820E030E040E85FE3C501B4010E94AE
:102D0000E2496093840870938508809386089093C5
:102D10008708F601EE0FFF1FEE0FFF1FE856F74F73
:102D2000A301920160817181828193810E94584A3E
:102D300020E030E040E05EE30E94584C9B01AC0193
:102D4000C501B4010E94534C18168CF4C6010196BB
:102D5000B7010E94C54E9093C3088093C208109299
:102D60008408109285081092860810928708E091D6
:102D7000C208F091C308EE0FFF1FEE0FFF1FE856C9
:102D8000F74F608171818281938120916F0830912A
:102D900070082F3F320731F02F5F3F4F309370089C
:102DA00020936F080E945D1C6B017C0120E034E2DF
:102DB00044EF51E40E944E4A87FF08C086EFC82EB8
:102DC00088E2D82E84EFE82E81E4F82E20E030E06F
:102DD00040E051E4C701B6010E94584C9B01AC0190
:102DE00060E074E284E79BE40E94584A6B017C0136
:102DF0000E94D14A70939700609396002091180426
:102E00003091190440911A0450911B04C701B60176
:102E10000E94584C0E94D14A709399006093980088
:102E200080918308882309F4F8C1C0907E08D0906F
:102E30007F08E0908008F090810820E030E0A90150
:102E4000C701B6010E94534C18160CF0D5C18091F1
:102E50006F08909170088F3F980729F00196909322
:102E6000700880936F08C701B6010E945D1C20E0C6
:102E700030E040E051E40E94584C9B01AC0160E01E
:102E800074E284E79BE40E94584A6B017C010E9433
:102E9000D14A709397006093960020911804309166
:102EA000190440911A0450911B04C701B6010E94F5
:102EB000584C0E94D14A7093990060939800609199
:102EC0007808709179086F5F7F4F709379086093ED
:102ED0007808E0909600F090970090E080E00E94E3
:102EE000004B4B015C0140907A0850907B08609049
:102EF0007C0870907D08EF2809F487C180917708DD
:102F0000811183C1609196007091970090E080E0FC
:102F10000E94004B9B01AC01C301B2010E94584AC0
:102F200020E03FEF4FE757E40E94584C20E030E0AC
:102F300040E85FE30E94E149A50194010E944E4AE6
:102F400018160CF46AC1809176088F5F809376081A
:102F50002091AD093091AE098217130638F08091A7
:102F6000B409882309F462C110927608E091AF0990
:102F7000F091B009909176088091770881118AC10B
:102F800081E08093770891509093760848E0949F71
:102F900090011124E20FF31FC080D180E280F38002
:102FA0002085318542855385C701B6010E944E4A6E
:102FB000811167C110927E0810927F0810928008DC
:102FC0001092810880E090E0A0E8BFE380937A0847
:102FD00090937B08A0937C08B0937D0810927908A9
:102FE000109278081AC1A5019401C701B6010E9488
:102FF000534C18167CF5A501940160E070E08CED4F
:1030000093E40E94584A20E030E040E451E40E94FA
:10301000584A20E030E040E05FE30E94584C9B01BA
:10302000AC0160E070E080E090E40E94C54CA50136
:1030300094010E94584C9B01AC01C701B6010E944B
:10304000534C18163CF4A701960160E070E08CED3B
:1030500093ECA9CD8092BA089092BB08A092BC08CC
:10306000B092BD08C4CD60E070E0CB01C8CDF701DF
:10307000EE0FFF1FEE0FFF1FEC56F74F8080918081
:10308000A280B38080911704882309F4ACC0C0905B
:10309000BE08D090BF08E090C008F090C10820E0C2
:1030A00030E0A901C701B6010E944E4A882309F405
:1030B0009AC0A5019401C701B6010E944E4A87FF3C
:1030C0005BC0A501940160E070E08CED93EC0E9480
:1030D000584A20E030E040E451E40E94584A20E0A1
:1030E00030E040E05FE30E94584C9B01AC0160E09F
:1030F00070E080E090E40E94C54CA50194010E941C
:10310000584C9B01AC01C701B6010E944E4A87FF93
:1031100033C0A701960160E070E08CED93E40E945B
:10312000584A20E030E040E451E40E94584A20E050
:1031300030E040E05FE30E94584C9B01AC0160E04E
:1031400070E080E090E40E94C54C9B01AC01C70197
:10315000B6010E94584C6093BE087093BF088093DC
:10316000C0089093C1086091BE087091BF0880911B
:10317000C0089091C10809CEA5019401C701B6010C
:103180000E94534C18167CF5A501940160E070E094
:103190008CED93E40E94584A20E030E040E451E492
:1031A0000E94584A20E030E040E05FE30E94584C23
:1031B0009B01AC0160E070E080E090E40E94C54CAF
:1031C000A50194010E94584C9B01AC01C701B601B6
:1031D0000E94534C18163CF4A701960160E070E081
:1031E0008CED93EC9CCF8092BE089092BF08A09289
:1031F000C008B092C108B7CF109297001092960005
:1032000010929900109298005ACEA3019201C50124
:10321000B4010E94534C87FF96CE8091B10980FD86
:1032200011C010928308109282080CC08091710026
:103230008D7F80937100809190008F7380939000B8
:1032400010928308FF91EF91BF91AF919F918F9161
:103250007F916F915F914F913F912F91FF90EF90F0
:10326000DF90CF90BF90AF909F908F907F906F90A6
:103270005F904F900F900BBE0F900FBE0F901F905E
:103280001895C0927E08D0927F08E0928008F09254
:10329000810898CE109277081092700810926F08EB
:1032A00028E0929FC0011124E80FF91F80819181CD
:1032B000A281B38180937E0890937F08A0938008B9
:1032C000B093810820E030E040E85EE364817581DE
:1032D000868197810E94584C6B017C0160911C048F
:1032E00070E090E080E00E94004B20E030E048EC8D
:1032F00052E40E94584A9B01AC01C701B6010E94EA
:10330000584C60937A0870937B0880937C08909364
:103310007D0864CE1F920F920FB60F9211240F906A
:103320000FBE0F901F901895CF92DF92EF92FF92F1
:10333000CF93DF93EC016B01F42E80917108811122
:1033400002C00E94151A8091B10980FF67C0809168
:1033500071008D7F8093710080916F008D7F8093CD
:103360006F008091820881110E94861A81E080930B
:103370008308D093B009C093AF09D092AE09C09230
:10338000AD09F092B4091092840810928508109249
:103390008608109287081092760888819981AA8100
:1033A000BB8180937E0890937F08A0938008B093A0
:1033B000810820E030E040E85EE36C817D818E8111
:1033C0009F810E94584C6B017C0160911C0470E04D
:1033D00090E080E00E94004B20E030E048EC52E4B6
:1033E0000E94584A9B01AC01C701B6010E94584C8B
:1033F00060937A0870937B0880937C0890937D0893
:103400001092790810927808809171008260809300
:10341000710080919000806880939000DF91CF913F
:10342000FF90EF90DF90CF9008950F931F93CF936D
:10343000DF930E94F73B811102C00E94D13B0E94A2
:10344000183C8093B1098091710881114BC03E9A5C
:10345000809171008D7F80937100259A80916F001B
:103460008D7F80936F0002E0009390001AE110932B
:103470009100C1ECD1E1D0939700C093960023EA6C
:103480003BE04EE855E46091180470911904809176
:103490001A0490911B040E94584C0E94D14A7093C8
:1034A0009900609398000093800010938100D0935E
:1034B0008700C093860023EA3BE04EE855E4609124
:1034C00018047091190480911A0490911B040E94B1
:1034D000584C0E94D14A709389006093880081E023
:1034E000809371088091B10980FF0BC040E062E1D8
:1034F00070E087E893E0DF91CF911F910F910C94DA
:103500009419DF91CF911F910F91089580918509B2
:1035100080FF08C080EC94E09F938F930E94D505B4
:103520000F900F9080917108811102C00E94151AAE
:103530001092C5081092C408809171008D7F80930D
:103540007100809190008F738093900080916F0044
:103550008D7F80936F00809180008F7380938000B7
:1035600010928308109282081092BE081092BF0831
:103570001092C0081092C1081092BA081092BB08AD
:103580001092BC081092BD081092B9081092B808A9
:10359000E8E9F8E0A8E8B8E01192119211921192CE
:1035A0001D921D9288E0E83BF807B1F70895CF928D
:1035B000DF92EF92FF920F931F93CF93DF936B01F4
:1035C0007C018091850980FF0FC0C7010E94CA4A13
:1035D0007F936F9388EA94E09F938F930E94D50521
:1035E0000F900F900F900F9080918208882309F41C
:1035F00071C080917108811102C00E94151A08E9FA
:1036000018E0C7E0D0E0A7019601F801648D758D40
:10361000868D978D0E944E4A811176C0FE01EE0F75
:10362000FF1FEE0FFF1FE856F74F10821182128224
:103630001382CC0FDD1FC857D74F1982188288E03C
:10364000E43BF80709F04FC08091C4089091C50889
:10365000019797FD61C09093C5088093C40880913D
:10366000C4089091C5082091C2083091C30828175A
:10367000390724F01092C3081092C208892B51F523
:10368000809171008D7F80937100809190008F7385
:103690008093900080916F008D7F80936F00809168
:1036A00080008F73809380001092BE081092BF0834
:1036B0001092C0081092C1081092BA081092BB086C
:1036C0001092BC081092BD081092B9081092B80868
:1036D00010928208DF91CF911F910F91FF90EF9090
:1036E000DF90CF90089584819581A681B7818193E1
:1036F0009193A193B19310821182128213828A81D5
:103700009B818993999399CF219704501109CF3FB9
:10371000DC0709F078CF98CF1092C5081092C40842
:103720009ECFCF92DF92EF92FF92CF93DF936B0108
:103730007C01D42FC52F8091850980FF13C05F9332
:103740004F93C7010E94CA4A7F936F9389E894E020
:103750009F938F930E94D5050F900F900F900F901D
:103760000F900F9080917108811102C00E94151A6C
:103770008091B10980FF5BC08091C4089091C50819
:1037800008970CF054C0809171008D7F8093710078
:1037900080916F008D7F80936F00809183088111ED
:1037A0000E94861A81E0809382081092700810921D
:1037B0006F0820E030E0A901C701B6010E94534C18
:1037C0001816DCF48091C4089091C508FC01EE0F36
:1037D000FF1FEE0FFF1FE856F74FC082D182E28233
:1037E000F382FC01EE0FFF1FE857F74FD083C18330
:1037F00001969093C5088093C408809171008260FF
:1038000080937100809190008068809390008091F7
:10381000C4089091C508029754F080916F008260AF
:1038200080936F0080918000806880938000DF919A
:10383000CF91FF90EF90DF90CF9008958091B109E4
:10384000817008958091B10981608093B1090E94CF
:103850001C3C0E943A1540E062E070E087E793E08C
:103860000C94941940E062E070E087E693E00E94D7
:1038700094192FEF81EE94E0215080409040E1F7C1
:1038800000C000000E94861A8091B1098E7F80934B
:10389000B1090C941C3C8091C60890E00196877099
:1038A00099278093C60808958091C60890E00796EE
:1038B000877099278093C60808958F929F92AF9240
:1038C000BF92CF92DF92EF92FF92CF93DF936B0183
:1038D0007C01C0916F08D0917008BE0190E080E03B
:1038E0000E94004B4B015C01A701960160E070E073
:1038F0008CE594E40E94584A9B01AC01C501B401D7
:103900000E94584C0E94D14A9B01E091C608E830C1
:1039100018F5F0E0E257F34E0C94D94E961CB91C02
:10392000D21CDA1DAC1C221E531E911E10921704CD
:1039300080E090E0A0E0BFE3809318049093190426
:10394000A0931A04B0931B0410927208109273088B
:103950001092740810927508C701B601DF91CF91DB
:10396000FF90EF90DF90CF90BF90AF909F908F909F
:103970000895109217041092720810927308109212
:103980007408109275086A50710980E090E0A0E810
:10399000BEE36F3B710508F460C080E090E0A0E0FA
:1039A000BEE35BC010921704109272081092730865
:1039B000109274081092750820E030E040EA52E45A
:1039C000C701B6010E944E4A87FDC6CF20E030E015
:1039D00040E253E4C701B6010E944E4A87FF46C049
:1039E0000E942D4F68E270E00E94C54EBC01645CED
:1039F0007F4F072E000C880B990B0E94024B6B0126
:103A00007C0180916F08909170088B30910508F1CE
:103A10008531910508F052C065E170E0681B790BB3
:103A200090E080E00E94004B20E030E040E05FE367
:103A30000E94584C20E030E040E251E40E94584A95
:103A4000609318047093190480931A0490931B04D4
:103A500083CF80E090E0A0E0BFE3809318049093D0
:103A60001904A0931A04B0931B0476CF20E030E031
:103A700040EA53E4C701B6010E944E4A87FF27C0BF
:103A80000E942D4F68EE73E00E94C54EBC01685144
:103A90007C4F072E000C880B990B0E94024B6B0188
:103AA0007C0180916F08909170088630910588F2B2
:103AB00065E170E08531910508F46BC0109218043F
:103AC0001092190410921A0410921B0445CF20E0A2
:103AD00030E040E254E4C701B6010E944E4A87FF3D
:103AE0002FC00E942D4F60ED77E00E94C54EBC01B3
:103AF0006854744F072E000C880B990B0E94024BE0
:103B00006B017C0180916F08909170088031910564
:103B100008F49FCF8531910588F665E170E0681B58
:103B2000790B90E080E00E94004B20E030E040E024
:103B30005FE30E94584C20E030E040EA50E47ECF42
:103B400020E030E040EA54E4C701B6010E944E4A4A
:103B500087FF02CF0E942D4F60ED77E00E94C54E97
:103B6000BC016854744F072E000C880B990B0E94FF
:103B7000024B6B017C0180916F0890917008843238
:103B8000910508F466CF8333910508F097CF63E37E
:103B900070E0681B790B90E080E00E94004B20E011
:103BA00030E040E05FE30E94584C20E030E040E726
:103BB00051E444CF41E040931704109272081092F0
:103BC000730810927408109275086431710540F4FE
:103BD0006A30710560F120E030E040E05FE32BC027
:103BE000693C710508F06ACF90E080E00E94004BCC
:103BF00020E030E040EA51E40E94E14920E030E07A
:103C000044E353E40E94584A9B01AC010E94584C83
:103C100020E030E040E05EE30E94584C9B01AC01A4
:103C200060E070E080E09EE30E94E14909CF20E07F
:103C300030E040E85EE3C701B6010E94584C6B01DA
:103C40007C01ABCE21E020931704109272081092F1
:103C5000730810927408109275084AE0469F90010C
:103C6000479F300D1124C90168EB7BE00E94B14EE3
:103C7000BC016C5D754077FF03C07195619571095A
:103C8000072E000C880B990B0E94024B2EE333EC9D
:103C90004EE259E30E94584C20E030E040EC5EE3F5
:103CA0000E94E249CDCE81E0809317041092720801
:103CB000109273081092740810927508CE018370E8
:103CC0009927892B09F1BE016170772790E080E088
:103CD0000E94004B20E030E040E05EE30E94584C40
:103CE00020E030E040E45FE30E94E2496093180482
:103CF0007093190480931A0490931B04C770DD27F6
:103D0000CD2B09F029CEDACE80E090E0A0E0BFE331
:103D10008093180490931904A0931A04B0931B0481
:103D2000EDCF41E04093170410927208109273088F
:103D30001092740810927508812C912CA12C9FE38D
:103D4000B92E8092180490921904A0921A04B0928D
:103D50001B042739310508F4FFCD90E080E00E9474
:103D6000004B20E030E047E153E40E94E14920E0CD
:103D700030E04AE754E40E94584A20E030E048E44A
:103D800052E40E94584C20E030E040EA51E40E94A6
:103D9000484B0E94CA4A660F771F660F771F6C5305
:103DA000784FFB012081318142815381C701B601E7
:103DB0000E94584C6B017C01CFCD20E8482F60E079
:103DC00085E29BE00C94CF3D20E0482F60E085E247
:103DD0009BE00C94DF3D20E04BE760E085E29BE058
:103DE0000C94BF3D85E29BE00C94CF3FCF93C82F4E
:103DF0008091DF08882319F08C2F0E942E15809166
:103E0000DE08882321F08C2FCF910C94DD1ECF91FA
:103E10000895CF93C82F8091DF08882319F08C2F45
:103E20000E9434158091DE08882321F08C2FCF91D9
:103E30000C94E41ECF9108958091DF0881110E94B7
:103E400038158091DE0881110C94EB1E08950C94B6
:103E500092070E941C1F1092DF0840E068E070E0AB
:103E60008DE994E00C9494190E94EB1E1092DE08E8
:103E700040E068E070E08DE194E00C9494190E94B9
:103E80001C1F2091BF0530E02F5F3F4F2370332769
:103E90002093BF0548E2429FC001439F900D11242B
:103EA00040E065E070E0835E9A4F0C949419CF93E4
:103EB0008091DB088823F1F08091C7089091C808B1
:103EC000009779F40E94F93C9093C8088093C70842
:103ED0008091C908282F30E0882371F0C90101972B
:103EE0000FC00E94053D2091BD053091BE052817E9
:103EF000390740F3CF9108958091CA088150990BFA
:103F00002553374FF901C0818553974FFC018081BC
:103F10000E94091F8C2F0E94F61E8091C90890E014
:103F200001966091CA0870E00E94C54E8093C9084E
:103F3000E1CF089581E08093DF0840E068E070E021
:103F40008DED94E00E9494190C94991F089581E0DE
:103F50008093DE0840E068E070E08DE594E00E9428
:103F600094190C94A61FEF92FF921F93CF93DF93A7
:103F7000CDB7DEB7A3970FB6F894DEBF0FBECDBFA7
:103F80007C0184323CE59307A9F4DB0112968C9105
:103F9000882309F458C00E949A1F80E0A3960FB6A8
:103FA000F894DEBF0FBECDBFDF91CF911F91FF9080
:103FB000EF9008958532BCE59B0741F4FB018281B7
:103FC000882309F440C00E94291FE7CF8632FCE510
:103FD0009F0751F48091DF08DB0112969C91992391
:103FE00091F18111F0CFD7CF8A32BCE59B0739F42C
:103FF000FB018281882339F10E94A71FCECF8B322B
:10400000FCE59F0741F4DB0112968C918823D9F0DF
:104010000E94341FC2CF8C32BCE59B0749F4FB01E0
:104020008281882381F08091DE088111F1CFE4CF75
:1040300087329C4541F4DB0112968C91882319F05C
:104040000E943F1FAACF8091DF08811105C0809197
:10405000DE08882309F4D5C0FB012281222309F45C
:1040600050C0F0EEEF16F10461F40E941C1F81E0D5
:104070008093DD081092DC081092DB081092CA08C9
:104080008CCF32EEE316F10471F40E941C1F809174
:10409000DD08882319F081E08093DC081092DD08A8
:1040A0001092DB087ACF83EEE816F10491F4809148
:1040B000DC08882331F10E941C1F1092DD0881E08A
:1040C0008093DB081092C9081092C8081092C708A4
:1040D00064CF92E5E916F10451F48091BD05909109
:1040E000BE050A979093BE058093BD0556CFA1E506
:1040F000EA16F10431F48091BD059091BE050A964F
:10410000F1CF8091BF051091C205811111C01350EC
:104110008091C005180FFB018081180F318184E068
:1041200090E0831B9109FCE08F9F100D112414C0B7
:10413000813061F5105E8091C005180FDB018C9114
:10414000180F11963C9184E090E0831B9109982F01
:10415000990F990F890F180F812F222309F44EC050
:104160000E94F61E8091DD08882351F08091CA08D4
:10417000E82FF0E0E553F74F10838F5F8093CA0874
:10418000C7010E94271F91E0892708CF823071F470
:10419000105E8091C005180FFB018081180F3181DE
:1041A00084E090E0831B9109F7E0BECF8330A1F655
:1041B00083E2E9E0F6E0DE01119601900D928A9526
:1041C000E1F7DB01EC9181E090E08C0F9D1F8E0FF9
:1041D000911DFC018091C0059091C105E80FF91F68
:1041E00013508081180F11963C9184E090E0831B5E
:1041F0009109ACE08A9F100D1124AECF0E94091FD7
:10420000BFCF81E0CBCEE5EDFAE06083418324E6C9
:1042100030E042E050E0BF01880F0C9466230F931A
:104220001F93CF93DF93082F000FEB0114E210933D
:10423000D50AE6EDFAE0DE018D9181938AE0E63E53
:10424000F807D1F724E630E041E150E065ED7AE08F
:10425000802F0E946623105F6096143B41F7DF9128
:10426000CF911F910F910895CF93DF93C82F4BE00B
:104270006DEF0E94032140E06AE08C2F0E94032131
:104280008FE39CE90197F1F700C0000040E060E097
:104290008C2F0E94032140E061E08C2F0E940321BB
:1042A00040E066E08C2F0E94032140E06DEF8C2FF0
:1042B0000E940321D0E040E06D2F8C2F0E9403214B
:1042C000DF5FD231C1F740E06D2F8C2F0E940321B8
:1042D000DF5FD432C1F740E06D2F8C2F0E940321A5
:1042E000DF5FD43BC1F74BE06DEF8C2F0E940321C1
:1042F00041E06AE08C2F0E94032140E06DEF8C2F9B
:10430000DF91CF910C9403218133910520F5880F23
:10431000991F880F991FFC01E051F94F5281338199
:1043200080818370E18170E9879FC00111248B54E3
:10433000964FE80FF92FF11DB4976083FC01E50F4C
:10434000F11DB4974083830F911DFC01B497208326
:1043500081E0809305090895FF920F931F93CF93F7
:10436000DF93182F062FF42ED0E0C0E02F2D402F22
:10437000612FCE010E9484212196C133D105B1F76E
:10438000DF91CF911F910F91FF9008958F929F928F
:10439000AF92BF92CF92DF92EF92FF920F931F9353
:1043A000CF93DF93862E082F10E0F801EE0FFF1F4A
:1043B000EE0FFF1FE051F94F8181682F6452770B98
:1043C0006B01628170E0CB018497EC0197FD279629
:1043D00073E0D595C7957A95E1F7638170E07B012D
:1043E000A4E2EA1AF108F701F7FC379633E0F595F5
:1043F000E7953A95E1F758E0A52EB12CB5010E945A
:10440000C54E982EC701B5010E94C54E382F000F2A
:10441000111F000F111FD801A051B94F8C9183704B
:10442000E82EF12C8601D7FE02C0095F1F4F83E002
:10443000159507958A95E1F752E15E9DC0015F9D54
:10444000900D11248F51974F080F192F111DD8016E
:10445000BC90C60168E070E00E94C54E61E070E06B
:10446000DB0102C0AA0FBB1F8A95E2F7CD018820AD
:1044700009F43FC08B29D8018C9352E15E9DC001A5
:104480005F9D900D11248F51974FC80FD92FD11DCB
:10449000588181E090E001C0880F9A94EAF74423A4
:1044A00059F1852B888342E14E9DC0014F9D900DAF
:1044B00011248F51974FE80FF92FF11D408181E0B2
:1044C00090E001C0880F3A95EAF72223C1F0842BCF
:1044D000808381E08093E008DF91CF911F910F915D
:1044E000FF90EF90DF90CF90BF90AF909F908F9014
:1044F000089580958B21BFCF80958523D3CF80955C
:104500008423E6CFCF93C62F90910509992349F0D4
:1045100065EB79E00E940F2165E47AE08C2F0E9420
:104520000F2110920509CF910895FF920F931F93C9
:10453000CF93DF93F82ED62F8091E008882399F04F
:1045400001EE18E0C0E0F80141918F016C2F8F2D32
:104550000E940321F80141896C2F8D2F0E940321B5
:10456000CF5FC23181F7DF91CF911F910F91FF9003
:1045700008951092B9008CE08093B8000895EF92EE
:10458000FF920F931F93CF93DF93182FEB0110929D
:10459000BC0084EA8093BC000E94F93C7C018091BD
:1045A000BC0087FF0DC08091B900887F8830D9F0AA
:1045B0008091B900887F8031B1F08FEF9FEF0CC000
:1045C000CF3FDC0761F30E94F93C8E199F098C17DD
:1045D0009D0728F38EEF9FEFDF91CF911F910F91F1
:1045E000FF90EF9008951093BB0084E88093BC0087
:1045F0000E94F93C8C018091BC0087FF0AC0809129
:10460000B900887F883111F08034B9F690E080E0FD
:10461000E3CFCF3FDC0779F30E94F93C801B910B7D
:104620008C179D0740F3D6CF0F931F93CF93DF9343
:10463000EB018093BB0084E88093BC000E94F93CAE
:104640008C018091BC0087FF11C02091B900287FA8
:1046500081E090E0283211F490E080E0919581951E
:104660009109DF91CF911F910F910895CF3FDC0702
:1046700041F30E94F93C801B910B8C179D0708F3B6
:104680008EEF9FEFEECF0F931F93CF93DF93EC014D
:1046900084E98093BC000E94F93C8C018091BC00AD
:1046A00084FD07C090E080E0DF91CF911F910F91D2
:1046B0000895CF3FDC0791F30E94F93C801B910BDA
:1046C0008C179D0758F38EEF9FEFEECFCF92DF92BE
:1046D000EF92FF920F931F93CF93DF936B017A01B9
:1046E0008901B9010E94BF22E601EC0CFD1C009774
:1046F00079F0DF91CF911F910F91FF90EF90DF90B4
:10470000CF900895B80189910E941423009789F7EA
:10471000EC16FD06B9F7C801DF91CF911F910F91FB
:10472000FF90EF90DF90CF900C944323CF92DF92D5
:10473000EF92FF920F931F93CF93DF93E82FF82F01
:1047400071110BC0682F782FDF91CF911F910F91BE
:10475000FF90EF90DF90CF900895062F10E0C72FC5
:10476000D0E0E82EF12CC8016BE270E00E94B14E5F
:104770009B014BE2469FC001479F900D1124081BEF
:10478000190B86E0809FB001819F700D11244FEFBF
:1047900050E0CA018C1B9D0B8E9DD0018F9DB00DEA
:1047A0009E9DB00D11248B2FC69F8001C79F100DB9
:1047B000D69F100D1124012F11276A01C01AD10AAA
:1047C000CE9C8001CF9C100DDE9C100D11246A013F
:1047D000C61AD70ACC9EB001CD9E700DDC9E700D1E
:1047E0001124672F7727461B570B4E9DE0014F9DE5
:1047F000D00D5E9DD00D11247D2F2230310521F189
:1048000048F42115310589F02130310561F07B2F05
:10481000812F0BC023303105D9F024303105B9F791
:10482000ED2F7B2F17C07E2FE12FF0E0E95BF94FD2
:104830006491E72FF0E0E95BF94F7491E82FF0E025
:10484000E95BF94F849180CFEB2F8D2F7F2FEDCF38
:10485000712FEB2F8F2FE9CF88E090E00C94444F1D
:10486000AB01BC0188E090E00C94624F8091850917
:1048700080FF08C083E296E09F938F930E94D50546
:104880000F900F908FE08093E90A1092EA0A8FEF61
:104890008093EB0A8093EC0A1092ED0A6091E90A8A
:1048A0007091EA0A8091EB0A9091EC0A0C94302402
:1048B0008091850980FF08C08AE096E09F938F93DE
:1048C0000E94D5050F900F908091850980FF0FC041
:1048D0008091E90A81701F928F938BEE95E09F93F0
:1048E0008F930E94D5050F900F900F900F9080919D
:1048F000850980FF10C08091E90A86958F731F9209
:104900008F938EEC95E09F938F930E94D5050F9027
:104910000F900F900F908091850980FF1AC09091A1
:10492000E90A292F221F2227221F8091EA0A982FA5
:10493000990F922B87FB882780F98F939F9382EBA7
:1049400095E09F938F930E94D5050F900F900F9045
:104950000F908091850980FF0EC08091EB0A1F9215
:104960008F9386E995E09F938F930E94D5050F90D2
:104970000F900F900F908091850980FF0EC080915D
:10498000EC0A1F928F938AE795E09F938F930E9482
:10499000D5050F900F900F900F908091850980FFA3
:1049A0000EC08091ED0A1F928F938CE595E09F9346
:1049B0008F930E94D5050F900F900F900F90089540
:1049C000CF93DF93F9011082ACE2B6E090E02C9136
:1049D000322F3F7038130CC022952F70261308C059
:1049E000C081C40FD52FD11D988320812F5F2083D4
:1049F0009F5F1496913359F7DF91CF91089566E741
:104A000084E70E94822266E784E70C9495220C9446
:104A100084210F931F93CF93DF93CDB7DEB72997F0
:104A20000FB6F894DEBF0FBECDBFFB018281882395
:104A3000B1F09E01275F3F4F8E010F5F1F4FA8010E
:104A4000608181810E94E0249985911114C01092A7
:104A500008091092090910920A0910920B0981E0C5
:104A600029960FB6F894DEBF0FBECDBFDF91CF9170
:104A70001F910F910895ECECF5E08291818385E020
:104A8000E53CF807D1F789818093C5058091070936
:104A9000883008F087E08F5F80930709D8018A2F5C
:104AA000801B8917A0F6ED91F0E0E251F54F1082DE
:104AB000F6CF80931009089540E060E080E00C9408
:104AC000AC21E9EEFAE06081862F881F8827881FD5
:104AD0006091EA0A660F682B728183810E94962397
:104AE000962F672F482F892F0C94AC21EF92FF92BD
:104AF0000F931F93CF93DF930EEE1AE0D0E0C0E048
:104B000082E8E82EF12CF80181918F01F4E08F9F6B
:104B1000C00111249701281B390B833891050CF033
:104B200020E06091E90A862F881F8827881F6091FE
:104B3000EA0A660F682B620F7FEF8091EC0A0E94F1
:104B40009623472F282FCE010E9484212196C1331E
:104B5000D105C9F6DF91CF911F910F91FF90EF9092
:104B60000895AF92BF92CF92DF92EF92FF920F9390
:104B70001F93CF93DF936091E90A862F881F8827C0
:104B8000881F6091EA0A660F682B7091EB0A80918A
:104B9000EC0A0E949623F62EE72ED82E2091E90AE1
:104BA000221F2227221F3091EA0A432F440F842F0D
:104BB000822B37FB992790F98C549F4F68E671E060
:104BC0000E94C54E7091EB0A682F8091EC0A0E94FA
:104BD0009623C62EB72EA82E0CE216E0D0E0C0E039
:104BE000F80183810C5F1F4F90819F3F59F02A2D60
:104BF0004B2D6C2D80FD03C02D2D4E2D6F2DCE0124
:104C00000E9484212196C133D10551F7DF91CF91C4
:104C10001F910F91FF90EF90DF90CF90BF90AF90DA
:104C20000895DF92EF92FF920F931F93CF93DF933C
:104C30008091E90A881F8827881F9091EA0A492FE6
:104C4000440F242F282B97FB332730F9C9018C54AC
:104C50009F4F68E671E00E94C54E821B930B80381F
:104C600091050CF44BC09A9597FD03969595879501
:104C700095958795C82F8091EB0A281B310937FF3E
:104C800002C02D5F3F4F3595279535952795D22F3B
:104C9000D090EC0A9CE2E92E96E0F92E10E000E0BC
:104CA000F701828182958F706091E90A962F991F92
:104CB0009927991F6091EA0A660F692B8C9F600DF6
:104CC00011247091EB0A8D9F700D11248D2D0E947F
:104CD0009623472F282FC8010E9484210F5F1F4F62
:104CE000F4E0EF0EF11C01331105D1F6DF91CF9105
:104CF0001F910F91FF90EF90DF90089581384FEF53
:104D000094070CF0B1CF9395AFCFBF92CF92DF92C3
:104D1000EF92FF920F931F93CF93DF93F82ED091D2
:104D2000E90ADD1FDD27DD1F8091EA0A982F990F20
:104D3000D92B87FB882780F92D2F382FC9018C5458
:104D40009F4F68E671E00E94C54E821B930B97FD52
:104D500003969595879595958795C82FE090EB0AD2
:104D60006091ED0A8AE090E0A0E0B0E0662349F0AF
:104D700070E08AE090E00E94C54ECB01770FAA0B4D
:104D8000BB0B40910C0950910D0960910E09709177
:104D90000F0984239523A623B723892B8A2B8B2BDA
:104DA000A1F50E942D4F61E370E00E94C54ED12C09
:104DB000C12C082F10E0F11003C00C151D05A1F443
:104DC0000E942D4F8370BD2E8C9FB00C11240E9429
:104DD0002D4F6B2D7E2D8091EC0A0E949623472F3C
:104DE000282FC6010E9484218FEFC81AD80A81E3B8
:104DF000C816D10401F7DF91CF911F910F91FF9059
:104E0000EF90DF90CF90BF9008958FEFD0CFBF92FB
:104E1000CF92DF92EF92FF920F931F93CF93DF9386
:104E20002091ED0A80910C0990910D09A0910E0935
:104E3000B0910F0904C0880F991FAA1FBB1F2A95A4
:104E4000D2F7B82E8CE2E82E86E0F82E0EEE1AE0AD
:104E5000D0E0C0E09FE3C92ED12CF70180818F3FC5
:104E6000C1F0F8018081F4E08F9FC0011124B601E8
:104E7000681B790B803491050CF060E06B0D7FEFBF
:104E80008091EC0A0E949623472F282FCE010E9482
:104E90008421219624E0E20EF11C0F5F1F4FC133E5
:104EA000D105D9F6DF91CF911F910F91FF90EF902F
:104EB000DF90CF90BF900895AF92BF92CF92DF92D4
:104EC000EF92FF920F931F93CF93DF932091ED0A00
:104ED00080910C0990910D09A0910E09B0910F09D4
:104EE00004C0880F991FAA1FBB1F2A95D2F7B82E9E
:104EF000A090EC0A0CE216E08EEEE82E8AE0F82E86
:104F0000D0E0C0E09FE3C92ED12CF80180818F3F13
:104F1000D1F0F7018081F4E08F9FC001112480342B
:104F200091052CF59601281B390BC901F801618107
:104F30006B0D680F7FEF8A2D0E949623472F282F35
:104F4000CE010E94842121960C5F1F4FFFEFEF1AC4
:104F5000FF0AC133D105C9F6DF91CF911F910F919F
:104F6000FF90EF90DF90CF90BF90AF90089580E0DA
:104F7000DDCFAF92BF92CF92DF92EF92FF920F936D
:104F80001F93CF93DF932091ED0A80910C099091AC
:104F90000D09A0910E09B0910F0904C0880F991F47
:104FA000AA1FBB1F2A95D2F7B82EA090EC0A0CE2DC
:104FB00016E08EEEE82E8AE0F82ED0E0C0E09FE307
:104FC000C92ED12CF80180818F3FD1F0F70180816B
:104FD000F4E08F9FC0011124803491052CF59601D7
:104FE000281B390BC901F80162816B0D680F7FEF37
:104FF0008A2D0E949623472F282FCE010E948421BC
:1050000021960C5F1F4FFFEFEF1AFF0AC133D10546
:10501000C9F6DF91CF911F910F91FF90EF90DF9034
:10502000CF90BF90AF90089580E0DDCF4F925F9218
:105030006F927F92AF92BF92CF92DF92EF92FF92E8
:105040000F931F93CF93DF93A090EB0AB090EC0ADD
:105050000CE216E0D0E0C0E060910C0970910D09FF
:1050600080910E0990910F090E94004B2BED3FE0BB
:1050700049E450E40E94584C20E030E040E05CE31A
:105080000E94584C2B013C010E94534A6B017C0149
:10509000C301B2010E94154D2B013C01F801628150
:1050A00070E090E080E00E94024B20E030E040E0C1
:1050B00052E40E94E149A70196010E94584C20E069
:1050C00030E040E05DE30E94584C6B017C01F80148
:1050D000618170E090E080E00E94024B20E030E0CF
:1050E00040EE52E40E94E149A30192010E94584C13
:1050F00020E030E040EE52E40E94584A9B01AC01AF
:10510000C701B6010E94E24920E030E044E353E4E5
:105110000E94584C6B017C018091E90A881F882706
:10512000881F9091EA0A292F220F622F682B97FB84
:10513000772770F9072E000C880B990B0E94024B01
:105140009B01AC01C701B6010E94E2490E94D14A0D
:105150007A2D8B2D0E949623472F282FCE010E9457
:10516000842121960C5F1F4FC133D10509F074CF04
:10517000DF91CF911F910F91FF90EF90DF90CF9033
:10518000BF90AF907F906F905F904F9008952F9257
:105190003F924F925F926F927F928F929F92AF92C7
:1051A000BF92CF92DF92EF92FF920F931F93CF9314
:1051B000DF9300D000D0CDB7DEB78091EB0A8983B2
:1051C0009091EC0A9A83ECE2F6E0FC83EB8310E02A
:1051D00000E0EB81FC81218032806091ED0AC12CDE
:1051E000D12C80ECE82E8FE3F82E662369F070E076
:1051F00090E080E00E94024B20E030E040EC5FE372
:105200000E94584C6B017C0160910C0970910D0952
:1052100080910E0990910F090E94004B2BED3FE009
:1052200049E450E40E94584C20E030E040E05CE368
:105230000E94584C4B015C010E94534A2B013C01D7
:10524000C501B4010E94154D4B015C01632D70E056
:1052500090E080E00E94024B20E030E040E052E429
:105260000E94E149A70196010E94584CA3019201B6
:105270000E94584C2B013C01622D70E090E080E0D0
:105280000E94024B20E030E040EE52E40E94E149EF
:10529000A70196010E94584CA50194010E94584C08
:1052A0009B01AC01C301B2010E94E2496B017C0188
:1052B0008091E90A881F8827881F9091EA0A292F80
:1052C000220F622F682B97FB772770F9072E000CAF
:1052D000880B990B0E94024B9B01AC01C701B601E0
:1052E0000E94E2490E94D14A79818A810E949623D4
:1052F000472F282FC8010E9484210F5F1F4F8B81E9
:105300009C8104969C838B830133110509F061CF46
:105310000F900F900F900F90DF91CF911F910F91F1
:10532000FF90EF90DF90CF90BF90AF909F908F90C5
:105330007F906F905F904F903F902F9008952F92A5
:105340003F924F925F926F927F928F929F92AF9215
:10535000BF92CF92DF92EF92FF920F931F93CF9362
:10536000DF9300D000D01F92CDB7DEB72091EB0ABB
:105370002A838091EC0A8B83ECE2F6E0FD83EC83D8
:1053800010E000E0EC81FD81F181F983EC81FD8189
:1053900022803090ED0A812C912CA12C20E4B22E99
:1053A000332061F0632D70E0660F771F072E000C2D
:1053B000880B990B0E94024B4B015C0160910C0918
:1053C00070910D0980910E0990910F090E94004B78
:1053D0002BED3FE049E450E40E94584C20E030E0DF
:1053E00040E05CE30E94584C6B017C010E94534AF0
:1053F0002B013C01622D70E090E080E00E94024BA6
:1054000020E030E040E052E40E94E149A50194012F
:105410000E94584CA30192010E94584C2B013C0160
:1054200082E0A82EB12C332021F0A32CB12CAA0CA1
:10543000BB1CC701B6010E94154D6B017C01F981AF
:105440006F2F70E090E080E00E94024B20E030E09F
:1054500040EE52E40E94E1490E94CA4A9B0177FF54
:1054600004C022273327261B370B82E490E0821BDF
:10547000930B8A9DB0018B9D700D9A9D700D112428
:10548000072E000C880B990B0E94024BA701960176
:105490000E94584CA30192010E94E2496B017C01D9
:1054A0008091E90A881F8827881F9091EA0A292F8E
:1054B000220F622F682B97FB772770F9072E000CBD
:1054C000880B990B0E94024B9B01AC01C701B601EE
:1054D0000E94E2490E94D14A7A818B810E949623E0
:1054E000472F282FC8010E9484210F5F1F4F8C81F6
:1054F0009D8104969D838C830133110509F042CF71
:105500000F900F900F900F900F90DF91CF911F9100
:105510000F91FF90EF90DF90CF90BF90AF909F9052
:105520008F907F906F905F904F903F902F90089555
:105530002F923F924F925F926F927F928F929F92A3
:10554000AF92BF92CF92DF92EF92FF920F931F9391
:10555000CF93DF932090EB0A3090EC0ACCE2D6E0B8
:1055600010E000E07980BA808091ED0A882309F488
:10557000A4C0682F70E090E080E00E94024B20E021
:1055800030E040EC5FE30E94584C6B017C016B2DD6
:1055900070E090E080E00E94024B20E030E040E0CC
:1055A00052E40E94E1490E94CA4A9B0177FF04C06D
:1055B00022273327261B370BB901330F880B990B92
:1055C0000E94024BA70196010E94584C2EE23DEB2F
:1055D0004BEB53EB0E94584C4B015C01672D70E084
:1055E00090E080E00E94024B2B013C0160910C098D
:1055F00070910D0980910E0990910F090E94004B46
:1056000020E030E040E85BE30E94584C20E030E0CE
:1056100040E653E40E94584C9B01AC01C301B20127
:105620000E94E149A70196010E94584C9B01AC01E0
:10563000C501B4010E94E1496B017C018091E90A36
:10564000881F8827881F9091EA0A292F220F622F2E
:10565000682B97FB772770F9072E000C880B990BA6
:105660000E94024B9B01AC01C701B6010E94E249B6
:105670000E94D14A722D832D0E949623472F282FF6
:10568000C8010E9484210F5F1F4F2496013311052A
:1056900009F068CFDF91CF911F910F91FF90EF90AC
:1056A000DF90CF90BF90AF909F908F907F906F9042
:1056B0005F904F903F902F900895C12CD12C80EC9B
:1056C000E82E8FE3F82E63CFEF92FF920F931F9394
:1056D000CF93DF93F82E6091ED0A8AE090E0A0E08E
:1056E000B0E0662349F070E08AE090E00E94C54E89
:1056F000CB01770FAA0BBB0B40910C0950910D0900
:1057000060910E0970910F0984239523A623B72376
:10571000892B8A2B8B2B59F50E942D4F61E370E06A
:105720000E94C54E10E000E0C82FD0E0F11003C089
:10573000C017D10781F40E942D4FE82E0E942D4FF3
:105740006E2D782F8091EC0A0E949623472F282FE8
:10575000C8010E9484210F5F1F4F0133110531F7EB
:10576000DF91CF911F910F91FF90EF9008958FEFF0
:10577000D9CF2F923F924F925F926F927F928F92EA
:105780009F92AF92BF92CF92DF92EF92FF920F93D0
:105790001F93CF93DF93CDB7DEB72B970FB6F89457
:1057A000DEBF0FBECDBF2091EB0A2D833CE2E32E7E
:1057B00036E0F32E10E000E0F70191818281F09154
:1057C0000709FC8325EC35E03B832A8319821B867D
:1057D0001A86312C212CE92FF0E0FF83EE83282F4D
:1057E00030E0398728872C813981231343C06091A9
:1057F000E90A862F881F8827881F6091EA0A660FAA
:10580000682B620D8A859B85009709F498C08F3FAD
:10581000910529F020F02FEF30E03B872A878A8519
:105820007D810E949623472F282FC8010E94842142
:105830000F5F1F4F34E0E30EF11C0133110509F037
:10584000BBCF2B960FB6F894DEBF0FBECDBFDF9156
:10585000CF911F910F91FF90EF90DF90CF90BF906D
:10586000AF909F908F907F906F905F904F903F9000
:105870002F900895EA81FB818191FB83EA83C82EF2
:10588000D12CC601880F991F880F991F9C01245D98
:10589000394F5901F90181816E817F81681B71093E
:1058A000072E000C880B990B0E94024B2B013C0128
:1058B000F501828168857985681B7109072E000CC6
:1058C000880B990B0E94024B4B015C01A3019201D2
:1058D000C301B2010E94584C2B013C01A501940167
:1058E000C501B4010E94584C9B01AC01C301B20137
:1058F0000E94E2490E94234DF601E251F54FC0801B
:10590000F4E0CF9E600111240E94D14AC601861B9B
:10591000970B8F3F910519F010F08FEF90E0280E54
:10592000391E2FEF30E0281B390BEA85FB85E20F8B
:10593000F31FFB87EA87F981FF5FF98354CF80E08B
:105940006FCF81E090910709911101C080E08093B1
:1059500007090C94B92B2F923F924F925F926F924E
:105960007F928F929F92AF92BF92CF92DF92EF92EF
:10597000FF920F931F93CF93DF93CDB7DEB72A9794
:105980000FB6F894DEBF0FBECDBF9090E90A991C08
:105990009924991C8091EA0A880F982A8090EB0A32
:1059A0002CE236E03A83298310E000E0E981FA81B5
:1059B00091818281A090070925EC35E03C832B83FF
:1059C000B12C1A861986E92FF0E0FE83ED83282F8B
:1059D00030E038872F83AB103CC029853A8580E0C2
:1059E0002115310549F02F3F310529F020F0EFEF67
:1059F000F0E0FA87E9878985692D782D0E94962342
:105A0000472F282FC8010E9484210F5F1F4F298133
:105A10003A812C5F3F4F3A8329830133110531F6D8
:105A20002A960FB6F894DEBF0FBECDBFDF91CF919F
:105A30001F910F91FF90EF90DF90CF90BF90AF90AC
:105A40009F908F907F906F905F904F903F902F909E
:105A50000895EB81FC812190FC83EB83312CC10103
:105A6000880F991F880F991F9C01245D394F690188
:105A7000F90181816D817E81681B7109072E000CFF
:105A8000880B990B0E94024B2B013C01F60182818D
:105A90006F817885681B7109072E000C880B990BA4
:105AA0000E94024B6B017C01A3019201C301B20170
:105AB0000E94584C2B013C01A7019601C701B60179
:105AC0000E94584C9B01AC01C301B2010E94E24903
:105AD0000E94234DF101E251F54FC080F4E0CF9ECA
