:100000000C941E050C9467050C9467050C94670509
:100010000C9467050C9467050C9467050C946705B0
:100020000C9467050C9467050C94C9490C94A14A7B
:100030000C946E3F0C9467050C9467050C9467054F
:100040000C9467050C9478160C9467050C9467055E
:100050000C9467050C94E13F0C9467050C946705BC
:100060000C9467050C9467050C9467050C94670560
:100070000C9467050C9467050C9467050C94670550
:100080000C941F120C9467050C9467050C9467057B
:100090000C9467050C94670507634236B79BD8A795
:1000A0001A39685618AEBAAB558C1D3CB7CC57639D
:1000B000BD6DEDFD753EF6177231BF000000803F4B
:1000C00008000000BE922449123EABAAAA2ABECD67
:1000D000CCCC4C3E00000080BEABAAAAAA3E0000D9
:1000E0000000BF000000803F0000000000084178D1
:1000F000D3BB4387D1133D190E3CC3BD4282AD2B08
:100100003E68EC8276BED98FE1A93E4C80EFFFBEFF
:1001100001C4FF7F3F00000000006D6F6465207325
:100120007769746368656420746F20515745525431
:10013000590A00290014001A000800150017001CB5
:100140000018000C00120013002A002B00040016F7
:1001500000070009000A000B000D000E000F00331D
:10016000003400E1001D001B00060019000500110D
:1001700000100036003700520028000751E000E36D
:1001800000E20003512C002C0004513800500051B3
:10019000004F002B0014001A00090013000A000D84
:1001A000000F0018001C0033002A0029000400156D
:1001B000001600170007000B00110008000C0012C9
:1001C000003400E1001D001B000600190005000EB0
:1001D00000100036003700380028002C5DE000E2F7
:1001E00000E30003512C002C000451500051005238
:1001F000004F002B0034003600370013001C0009AC
:10020000000A00060015000F002A00290004001251
:1002100000080018000C0007000B00170011001662
:10022000003800E100330014000D000E001B000533
:100230000010001A0019001D0028002C5DE000E2EB
:1002400000E30003512C002C0004515000510052D7
:10025000004F0035001E001F002000210022002357
:100260000024002500260027002A000100010001CB
:100270000001000100010001002100220023002EE6
:10028000022D000100010001000100010001000138
:10029000001E001F002000A900280001000100012D
:1002A000000100010001000100010027002E00AA4A
:1002B00000A80035021E021F022002210222022392
:1002C0000224022502260227024C0001003A003BCC
:1002D000003C003D003E003F002D002E022F02306A
:1002E0000231020100400041004200430044004549
:1002F000002D0264022F00300001000100390001CE
:1003000000010001000100010001000100010001E5
:100310000001001E001E001E001E001E001E001E0A
:10032000001E001E001E001E001E00000014001A09
:10033000000800150017001C0018000C0012001324
:10034000002F00000004001600070009000A000B3F
:10035000000D000E000F00330034002D5D00000082
:10036000000600190000000000110010000000004D
:100370000000000100005C0100010001000100011B
:10038000000100C55CC65C0100285D01001D5C1E0B
:100390005C01000100010001000100C75CC85C01B4
:1003A00000295D0100265C275C295C010001000139
:1003B000000100C95CCA5C01002A5D01002B5C2AB7
:1003C0005C01000100010001000100C25CC35C018E
:1003D000002B5D3A003B003C003D003E003F0040EA
:1003E00000410042004300440045000100010001BB
:1003F00000010001000100010001000100010001F5
:1004000000010001000100010001000100010001E4
:1004100000010001000100010001000100010001D4
:1004200000010001000100010001000100010001C4
:1004300000010044454255473A2064697361626C8B
:1004400065642E0A0044454255473A20656E616254
:100450006C65642E0A000A002530313662003A20AD
:100460000025303258000A722F6320303132333485
:1004700035363738394142434445460A0061756490
:10048000696F20706C6179206E6F7465206672658B
:10049000713D256420766F6C3D256400617564694B
:1004A0006F2073746F70206E6F7465206672657153
:1004B0003D256400617564696F2073746F702061FD
:1004C0006C6C206E6F74657300726762206D61746E
:1004D00072697820736574207370656564205B258C
:1004E000735D3A2025750A00726762206D6174722F
:1004F00069782073657420687376205B25735D3A94
:100500002025752C25752C25750A00726762206DD3
:100510006174726978206D6F6465205B25735D3A44
:100520002025750A00726762206D617472697820F7
:10053000746F67676C65205B25735D3A2072676234
:100540005F6D61747269785F636F6E6669672E654F
:100550006E61626C65203D2025750A007267625FDE
:100560006D61747269785F696E69745F64726976CF
:10057000657273207267625F6D61747269785F6320
:100580006F6E6669672E6D6F6465203D20302E208A
:1005900057726974652064656661756C7420766154
:1005A0006C75657320746F20454550524F4D2E0A6F
:1005B000007267625F6D61747269785F696E6974F9
:1005C0005F64726976657273206565636F6E6669D4
:1005D00067206973206E6F7420656E61626C65645C
:1005E0002E0A007267625F6D61747269785F636F73
:1005F0006E6669672E7370656564203D2025640A08
:10060000007267625F6D61747269785F636F6E66B6
:1006100069672E6873762E76203D2025640A007265
:1006200067625F6D61747269785F636F6E66696738
:100630002E6873762E73203D2025640A007267624F
:100640005F6D61747269785F636F6E6669672E684B
:1006500073762E68203D2025640A007267625F6D04
:1006600061747269785F636F6E6669672E6D6F641F
:1006700065203D2025640A007267625F6D617472B7
:1006800069785F636F6E6669672E656E61626C651F
:10069000203D2025640A007267625F6D6174726993
:1006A000785F636F6E66696720454550524F4D0A0B
:1006B000006565636F6E6669675F75706461746518
:1006C0005F7267625F6D61747269785F64656661AD
:1006D000756C740A000001010101010101010102B0
:1006E00002020202020202020303030303030303E2
:1006F00004040404040404050505050506060606AD
:1007000006070707070708080808090909090A0A68
:100710000A0B0B0B0C0C0C0D0D0D0E0E0E0F0F0F0C
:100720001010111111121213131414151516161797
:1007300017181819191A1A1B1B1C1D1D1E1E1F2005
:1007400020212222232424252626272829292A2B52
:100750002C2D2D2E2F303132323334353637383977
:100760003A3B3C3D3E3F4041424344454647484971
:100770004A4C4D4E4F50515354555658595A5B5D43
:100780005E5F616264656668696B6C6D6F707273E1
:100790007577787A7B7D7E8082838587888A8C8E48
:1007A0008F91939596989A9C9EA0A2A3A5A7A9AB7A
:1007B000ADAFB1B3B5B7BABCBEC0C2C4C6C9CBCD6C
:1007C000CFD1D4D6D8DBDDDFE2E4E7E9EBEEF0F31E
:1007D000F5F8FAFDFF0A002530325820006B6579E4
:1007E000626F6172645F7265706F72743A20000AA2
:1007F0000025303258006B6579626F6172645F73F7
:1008000065745F6C65643A200064656C5F6B657944
:100810005F6269743A2063616E27742064656C3A84
:1008200020253032580A006164645F6B65795F622D
:1008300069743A2063616E2774206164643A2025EC
:100840003032580A004B6579626F617264207374AC
:100850006172742E0A005B575D005B535D005B5252
:100860005D005B445D005B435D00040330000000FD
:100870001A0350006C0061006E0063006B002000E2
:100880004C00690067006800740000000A034F0014
:100890004C004B0042000000040309040902BF00A1
:1008A000050100A0FA09040000010301010009216B
:1008B000110100012240000705810308000A090414
:1008C00001000103000000092111010001226D0057
:1008D0000705820320000A09040200020300000049
:1008E00009211101000122220007058303200001D4
:1008F00007050303200001080B03020101000009A2
:1009000004030000010100000924010001090001A5
:10091000040904040002010300000724010001414E
:100920000006240201010006240202020009240339
:10093000010301020100092403020401010100096D
:100940000505024000050000052501010109058497
:1009500002400005000005250101031201100100FD
:10096000000008EDFE65600100010203010631FF91
:100970000974A1010975150026FF009520750881ED
:10098000020976150026FF00952075089102C00522
:10099000010980A101850319012AB700150126B7B5
:1009A00000950175108100C0050C0901A1018504A5
:1009B00019012AA002150126A002950175108100D7
:1009C000C005010906A1018505050719E029E715FC
:1009D0000025019508750181020507190029EF1509
:1009E00000250195F0750181020508190129059579
:1009F0000575019102950175039101C00501090674
:100A0000A101050719E029E71500250195087501E1
:100A100081029501750881010507190029FF15005C
:100A200026FF00950675088100050819012905951E
:100A30000575019102950175039101C011241FBE36
:100A4000CFEFD0E2DEBFCDBF04B603FE27C080915A
:100A5000F90A9091FA0AA091FB0AB091FC0A87303A
:100A6000904BA740B04BD1F41092F90A1092FA0AB9
:100A70001092FB0A1092FC0A14BE84B7877F84BFD1
:100A80000FB6F894A895809160008861809360000B
:100A9000109260000FBEE0E0F0EF099516E0A0E0D4
:100AA000B1E0ECE6F4EA00E00BBF02C007900D9263
:100AB000A43EB107D9F72AE0A4EEB6E001C01D922A
:100AC000A93FB207E1F70E94D3460C94C2510C949F
:100AD0000000FF93EF93E091E406F091E506309774
:100AE00009F00995EF91FF910895FC0185918030FF
:100AF00011F0EFDFFBCF0895FF27E0E230E247FF80
:100B00000CC0419597FF09C0EDE260957095809506
:100B10009095611D711D811D911D27FF02C02195BA
:100B200030E350E2AA27660F771F881F991FAA1F7C
:100B3000A41710F0A41B63955A95A9F7AA3008F0E2
:100B4000A95FA05DAF93F3956115710581059105CE
:100B500041F7ED3211F4EF93F395F21718F43F9348
:100B6000F395FBCF8F91B5DFFA95E1F70895E99101
:100B7000F9918591803021F0853219F0AADFF9CF03
:100B8000089520E0E89455915532C1F3503311F4A3
:100B9000689455915A3348F4505390F3220F022E23
:100BA000220F220F200D250FF4CF0EF421958991ED
:100BB0009991533619F3533729F1533559F1BC0143
:100BC00088279927E8945C3621F489919991689453
:100BD0005591543639F446EF7EF077FF0DC08FEF14
:100BE0009FEF0AC055374AE039F0583540E121F00F
:100BF000523642E009F00895FF93EF937DDFEF91C5
:100C0000FF91B7CFFF93EF93FC0181918030B9F34F
:100C100060DFFBCFFF93EF9368DFF1CFDF93CF93DC
:100C2000CDB7DEB72596A3DFCF91DF910895E82FEA
:100C3000F0E0893020F5EC53FE4A0C94C05081E07E
:100C400008958091ED0608958091EA0681700895D7
:100C50008091EA068695817008958091EA0682FB6C
:100C6000882780F908958091EA0683FB882780F918
:100C700008958091EC06EACF8091EC06EBCF39978E
:100C800041E050E060E070E004C0440F551F661F73
:100C9000771FEA95D2F78091E6069091E706A0913A
:100CA000E806B091E906482359236A237B2381E0B3
:100CB000452B462B472B09F480E008950F931F9393
:100CC000CF93DF93C091ED06C1115FC08091040105
:100CD0000E941706D82F809105010E941706182F31
:100CE000809106010E941706082F809107010E943B
:100CF0001706412F50E0440F551F24E0029F80014A
:100D00001124E8E08E9FC00111249A01245F3E4F18
:100D10002D0F311D200F311F280F391FF901408180
:100D20008091EB06811109C02091EC0630E02F5F25
:100D30003F4F237033272093EC0690E0019663E049
:100D400070E00E948D508093EB068091EA0690E05F
:100D500001968F7099278093EA068091E60690911C
:100D6000E706A091E806B091E906880F991FAA1F2F
:100D7000BB1F840F911DA11DB11D8093E6069093AA
:100D8000E706A093E806B093E906CF5FC170C09371
:100D9000ED06809108010E941706C82F8091090175
:100DA0000E941706D82F80910A010E941706DD0FB6
:100DB000880F880FD80FCD0F80910B010E94170666
:100DC000880F880F880F8C0FDF91CF911F910F91A3
:100DD0000895569A5E9A0C9440100C94090783303B
:100DE00039F4653029F48AE2FA01808381E00895BC
:100DF00080E008950C947D0780E00E94552B0C94B0
:100E0000653F0F9306E024E043E00E94310D0F910F
:100E10000895CF93FB018A322DE5920799F158F49A
:100E200088322DE59207E9F089329D4531F1C1E024
:100E30008C2FCF9108958C322DE5920741F188F1E6
:100E40008D329D45A1F7C281CC2391F340E066E04D
:100E500070E082EE91E00E94791685E00E94453BA9
:100E60000AC0C281CC2321F38AE191E00E9475057A
:100E700080E00E941E0DC0E0DBCFC281CC23C1F216
:100E800081E0F7CFC28182E0CC2391F2F2CFC28120
:100E900085EECC2319F00E94D033EDCF0E945A3456
:100EA000C7CFC281CC2321F20E946D1740E066E0DB
:100EB00070E082E192E00E94791684E00E94453B56
:100EC00083E00E94453B86E00E94453B85E00E940E
:100ED000243B0E94D53D811102C00E94803E0E94A9
:100EE000ED3D9093FE0980688093FD098091FD0996
:100EF0009091FE090E94FB3DBECF1F93CF93DF93DD
:100F0000CDB7DEB7A3970FB6F894DEBF0FBECDBF47
:100F10008091F1068823E1F18091EE069091EF0631
:100F2000892B39F583E2EDEDF4E0DE0111960190B5
:100F30000D928A95E1F70E945E0621E030E02C0FC9
:100F40003D1F280F311DF90110818091E101180F1B
:100F50008091F006811769F00E94B7110E94BE17B8
:100F6000812F0E94B7114FE050E00E947818109333
:100F7000F0068091EE069091EF0601966091DF01F8
:100F80007091E0010E9479509093EF068093EE06F5
:100F9000A3960FB6F894DEBF0FBECDBFDF91CF9101
:100FA0001F9108959C012350314581E02230310585
:100FB00008F480E00895DF92EF92FF920F931F9361
:100FC000CF93DF93F82EE62ED42E0EEA11E0D0E078
:100FD000C0E0F80181918F0180FF06C02D2D4E2DBC
:100FE0006F2DCE010E947C222196C133D10589F755
:100FF000DF91CF911F910F91FF90EF90DF900895B7
:1010000060912708709128088091290890912A08FA
:101010000E945D3D843009F452C2C8F4833009F463
:10102000E3C060912B0870912C0880912D0890915D
:101030002E080E945D3D813009F4ADC4882309F477
:10104000A6C4823009F027C240E06FEFA2C4863008
:1010500009F489C3873029F720E042E864EF90E083
:1010600080E00E947C2220E042E864EF81E090E092
:101070000E947C2220E042E864EF82E090E00E943F
:101080007C2220E042E864EF83E090E00E947C2232
:1010900022E840E064EF84E090E00E947C2222E8B5
:1010A00040E064EF85E090E00E947C2222E840E08E
:1010B00064EF86E090E00E947C2222E840E064EF4A
:1010C00087E090E00E947C2224EF42E860E088E024
:1010D00090E00E947C2224EF42E860E089E090E00A
:1010E0000E947C2224EF42E860E08AE090E00E94C7
:1010F0007C2224EF42E860E08BE090E00E947C22BA
:1011000020E645EF62E48CE090E00E947C2220E63D
:1011100045EF62E487E190E00E947C2220E645EF03
:1011200062E488E190E00E947C2220E645EF62E4E0
:1011300083E290E00E947C2220E645EF62E484E2B4
:1011400090E00E947C2220E645EF62E485E290E098
:101150000E947C2220E645EF62E486E290E00E9455
:101160007C2220E645EF62E487E290E00E947C2248
:1011700020E645EF62E488E290E00E947C2220E6CF
:1011800045EF62E489E290E00E947C2220E645EF90
:1011900062E48AE290E00E947C2220E040E060E08D
:1011A0008BE290E00E947C2220E645EF62E48CE234
:1011B00090E00E947C2220E645EF62E48DE290E020
:1011C0000E947C2220E645EF62E48EE290E00E94DD
:1011D0007C2220E645EF62E48FE290E00E947C22D0
:1011E00020E645EF62E453C122E342E362E390E08C
:1011F00080E00E947C222FEF40E060E081E090E000
:101200000E947C222FEF40E060E082E090E00E94AC
:101210007C222FEF40E060E083E090E00E947C229F
:101220002FEF40E060E084E090E00E947C222FEF0E
:1012300040E060E085E090E00E947C222FEF40E0FB
:1012400060E086E090E00E947C222FEF40E06EEBB1
:1012500087E090E00E947C222FEF40E06EEB88E078
:1012600090E00E947C222FEF40E06EEB89E090E05E
:101270000E947C222FEF40E060E08AE090E00E9434
:101280007C2222E342E362E38BE090E00E947C2236
:1012900022E342E362E38CE090E00E947C2222E3BE
:1012A00042E362E38DE090E00E947C2222E342E38D
:1012B00062E38EE090E00E947C2222E342E362E35C
:1012C0008FE090E00E947C2222E342E362E380E12F
:1012D00090E00E947C2222E342E362E381E190E01D
:1012E0000E947C2222E342E362E382E190E00E94DA
:1012F0007C222FEF40E06EEB83E190E00E947C22A5
:101300002FEF40E06EEB84E190E00E947C222FEF13
:1013100040E06EEB85E190E00E947C2222E342E314
:1013200062E386E190E00E947C2222E342E362E3F2
:1013300087E190E00E947C2222E342E362E388E1BD
:1013400090E00E947C2222E342E362E389E190E0A4
:101350000E947C2222E342E362E38AE190E00E9461
:101360007C2222E342E362E38BE190E00E947C2254
:1013700022E342E362E38CE190E00E947C2222E3DC
:1013800042E362E38DE190E00E947C2222E342E3AB
:1013900062E38EE190E00E947C222FEF40E06EEB52
:1013A0008FE190E00E947C222FEF40E06EEB80E224
:1013B00090E00E947C222FEF40E06EEB81E290E013
:1013C0000E947C2226E04AEF6AEE82E290E00E94D0
:1013D0007C2222E342E362E383E290E00E947C22EB
:1013E00022E342E362E384E290E00E947C2222E373
:1013F00042E362E385E290E00E947C2222E342E342
:1014000062E386E290E00E947C2222E342E362E310
:1014100087E290E00E947C2222E342E362E388E2DA
:1014200090E00E947C2222E342E362E389E290E0C2
:101430000E947C2222E342E362E38AE290E00E947F
:101440007C2220E040E060E08BE290E00E947C2281
:1014500022E342E362E38CE290E00E947C222FEFE1
:1014600040E06EEB8DE290E00E947C2222E342E3BA
:1014700062E38EE290E00E947C2226E04AEF6AEE70
:101480008FE290E00E947C2222E342E362E380E369
:1014900090E00E947C2260912B0870912C08809132
:1014A0002D0890912E080E945D3D833008F079C28E
:1014B00020E040E060E08AE290E00C947C2220E0B2
:1014C0004FE66FEF90E080E00E947C2220E04FEF3B
:1014D00060E081E090E00E947C2220E04FEF60E03D
:1014E00082E090E00E947C2220E04FEF60E083E009
:1014F00090E00E947C2220E04FEF60E084E090E0EA
:101500000E947C2220E04FEF60E085E090E00E94A6
:101510007C2220E04FEF60E086E090E00E947C2299
:1015200020E04FEF60E087E090E00E947C2220E026
:101530004FEF60E088E090E00E947C222FEF40E0D7
:101540006FEF89E090E00E947C222FEF40E06FEF88
:101550008AE090E00E947C2220E04FE66FEF8BE073
:1015600090E00E947C2220E04FE66FEF8CE090E05C
:101570000E947C2220E040E06FEF8DE090E00E942E
:101580007C2220E040E06FEF8EE090E00E947C2221
:1015900020E040E06FEF8FE090E00E947C2220E0AE
:1015A00040E06FEF80E190E00E947C2220E040E08C
:1015B0006FEF81E190E00E947C2220E040E06FEF3D
:1015C00082E190E00E947C2220E04FEF60E083E126
:1015D00090E00E947C2220E04FEF60E084E190E008
:1015E0000E947C222FEF40E06FEF85E190E00E94A7
:1015F0007C222FEF40E06FEF86E190E00E947C229A
:1016000020E04FE66FEF87E190E00E947C2220E02F
:101610004FE66FEF88E190E00E947C2220E040E0FE
:101620006FEF89E190E00E947C2220E040E06FEFC4
:101630008AE190E00E947C2220E040E06FEF8BE1A5
:1016400090E00E947C2220E040E06FEF8CE190E08F
:101650000E947C2220E040E06FEF8DE190E00E944C
:101660007C2220E040E06FEF8EE190E00E947C223F
:1016700020E04FEF60E08FE190E00E947C2220E0CC
:101680004FEF60E080E290E00E947C222FEF40E08C
:101690006FEF81E290E00E947C222FEF40E06FEF3D
:1016A00082E290E00E947C2220E04FE66FEF83E22E
:1016B00090E00E947C2220E04FE66FEF84E290E011
:1016C0000E947C2220E04FE66FEF85E290E00E94CE
:1016D0007C2220E04FE66FEF86E290E00E947C22C1
:1016E00020E04FE66FEF87E290E00E947C2220E04E
:1016F0004FE66FEF88E290E00E947C2220E040E01D
:1017000060E089E290E00E947C2220E040E060E01E
:101710008AE290E00E947C2220E040E060E08BE2E0
:1017200090E00E947C2220E04FE66FEF8CE290E098
:101730000E947C2220E04FE66FEF8DE290E00E9455
:101740007C2220E04FE66FEF8EE290E00E947C2248
:1017500020E04FE66FEF8FE290E00E947C2220E0D5
:101760004FE66FEF94CE22E342E362E390E080E045
:101770000E947C2220E040E06FEF81E090E00E9438
:101780007C2222E342E362E382E090E00E947C223A
:1017900022E342E362E383E090E00E947C2222E3C2
:1017A00042E362E384E090E00E947C2222E342E391
:1017B00062E387E090E00E947C222CEB4FEF60E038
:1017C00088E090E00E947C222CEB4FEF60E089E003
:1017D00090E00E947C2222E342E362E38AE090E010
:1017E0000E947C2220E040E06FEF8BE090E00E94BE
:1017F0007C2222E342E362E38CE090E00E947C22C0
:101800002FEF4EEB67E08DE090E00E947C222FEFFF
:101810004EEB67E08EE090E00E947C2222E342E300
:1018200062E38FE090E00E947C2222E342E362E3E5
:1018300080E190E00E947C2222E342E362E383E1C4
:1018400090E00E947C2225E54FEF60E084E190E08B
:101850000E947C2225E54FEF60E085E190E00E9448
:101860007C2222E342E362E386E190E00E947C2254
:1018700020E040E06FEF87E190E00E947C2222E3CD
:1018800042E362E388E190E00E947C222FEF4EEB7E
:1018900067E089E190E00E947C222FEF4EEB67E049
:1018A0008AE190E00E947C222FEF4EEB67E08BE113
:1018B00090E00E947C2222E342E362E38CE190E02C
:1018C0000E947C2222E342E362E38FE190E00E94E7
:1018D0007C2220E04FEF6FE680E290E00E947C22C5
:1018E00020E04FEF6FE681E290E00E947C2222E34D
:1018F00042E362E382E290E00E947C2220E040E04A
:101900006FEF83E290E00E947C2222E342E362E3F5
:1019100084E290E00E947C222FEF4EEB67E085E2AC
:1019200090E00E947C222FEF4EEB67E086E290E091
:101930000E947C2222E342E362E387E290E00E947D
:101940007C2222E342E362E388E290E00E947C2270
:1019500022E342E362E38CE290E00E947C2220E0FA
:101960004FEF6DEC8DE290E00E947C2220E04FEF83
:101970006DEC8EE290E00E947C2222E342E362E37F
:101980008FE290E00E947C2220E040E0EACE48E630
:1019900060E080E003C04FEF60E08FEF0E94DB0764
:1019A0007ACD089581E0089508950C94D40C1F9386
:1019B000CF93DF9300D000D00F92CDB7DEB749832D
:1019C0005A836B833091D00789819A8131111DC070
:1019D0006623B9F02223A9F00E94143C182F682F27
:1019E00089819A810E94C03B69817A81812F0F9001
:1019F0000F900F900F900F90DF91CF911F910C944B
:101A00003E0E0E94EC3B182FEFCF0E94143C6981E0
:101A10007A81EDCFFC01262F408151816281738153
:101A200084810C94D70CCF93DF93EC0160E00E948B
:101A30000A0DBE01DF91CF910C94D50CCF93DF93AB
:101A4000C1E0D0E002C0CC0FDD1F8A95E2F78C2FF9
:101A50000E94E83DBE0190E080E0DF91CF910C94C0
:101A6000C43A8F929F92AF92BF92CF92DF92EF9241
:101A7000FF920F931F936B017C0181E090E0A0E047
:101A8000B0E04C015D0104C0880C991CAA1CBB1C71
:101A90004A95D2F7B501A4014C015D0104C0880C40
:101AA000991CAA1CBB1C2A95D2F7482959296A29D6
:101AB0007B2904C0880F991FAA1FBB1F0A95D2F764
:101AC0008A019B010C211D212E213F21041715079E
:101AD0002607370789F48C299D29AE29BF29BC0127
:101AE000CD011F910F91FF90EF90DF90CF90BF90AD
:101AF000AF909F908F90089580959095A095B09508
:101B00008C219D21AE21BF21EACF0E942B400E9453
:101B1000D53D811102C00E94803E0E94FC160E94A9
:101B2000E02A0C94E9060E943A1C0E9457290C9462
:101B3000FA060895CF93DF930E9429370E94CE1BA7
:101B40000E94FF1B0E949E3FEC0140E063E070E0BA
:101B500082E492E00E9479160E94990DCE010E94C3
:101B6000B63F8A3F910530F00E946D17DF91CF910B
:101B70000C9405408FE99FE00197F1F700C0000049
:101B8000EDCF0F931F93CF93DF93EC0161E00E94A1
:101B90000A0D8C01BE010E94C4288823D1F1BE0128
:101BA000C8010E94ED068823A1F1BE01C8010E9470
:101BB000D411882371F1BE01C8010E94961C8823AC
:101BC00041F1BE01C8010E94922F882311F1BE018C
:101BD000C8010E94E42F8823E1F0BE01C8010E94E1
:101BE00032318823B1F0BE01C8010E94A92E88239A
:101BF00081F08A81882341F101308CE5180779F062
:101C00000E3D8CE51807E9F001151C45E9F40E942A
:101C10009A0D80E0DF91CF911F910F9108959091DF
:101C20005408892F8E7F90FF81608093540880FF35
:101C300005C085E494E00E947505EBCF83E394E052
:101C4000FACF0E94803EE5CFCE01DF91CF911F9168
:101C50000F910C94D20C08950C942B0E81E00895F2
:101C60000C942E0ECF93C82F0E942C0E8C2FCF9148
:101C70000C94300E90E080E008950895972F70E066
:101C80002CE0929F600D711D1124FB0190E3899F50
:101C9000E00DF11D1124EE0FFF1FED5CFE4F85914D
:101CA00094910895FC01EE0FFF1FEA5AFB4F8591B6
:101CB00094910895CF93DF930E943E0E0E94660F89
:101CC000EC01811520E5920708F041C0811530E450
:101CD000930708F0B4C0803E910518F5803C91054B
:101CE00008F09DC0883A910570F4853A910508F096
:101CF0008EC081309105F9F00097E9F00497D8F48F
:101D0000D0E0C0E018C08F3B9105D0F7C85AD0E0B2
:101D1000CC0FDD1FC651DA4F0990D881C02DD46495
:101D20000AC08115904258F4C11581E0D80718F413
:101D3000C83ED10528F7CE01DF91CF910895C11596
:101D400090E3D90708F071C0CE019F706AC0811579
:101D500025E5920758F5811534E5930708F09EC0F4
:101D6000811542E5940750F4C11581E5D80708F4C0
:101D700069C0DC2FCC27C16FD06ADDCF982F969534
:101D800096959E0123703327C115D34508F077C07F
:101D9000C1E0D0E002C0CC0FDD1F2A95E2F720E2BF
:101DA000929FC0011124C82BD92B67C0C11589E5AA
:101DB000D807A8F4C11598E5D90708F074C0C11573
:101DC00026E5D20708F09CCF8C2F0E94FD0FC82F6C
:101DD000D0E0DC2FCC27CC27DF71D062ACCFC1158F
:101DE0003AE5D30708F464C0CE01905681159042BD
:101DF00008F086CF8D2F8F710E94FD0F90E0982FF5
:101E0000882788279F719C012C2BE901E6CFC55AB2
:101E1000D0E0C85ED94FC881D0E0D0648CCF805C60
:101E200091090E94520EEC0186CFCE019927D3FF73
:101E300003C0EC01D86C7FCFEC01D06C7CCFDF709D
:101E4000D06A79CFCE01E4E096958795EA95E1F7DF
:101E500083702C2F26952695237090E2299F900160
:101E60001124382B8C2F8370C1E0D0E002C0CC0F3E
:101E7000DD1F8A95E2F7C22BD32BDC685CCFC1E073
:101E8000D0E002C0CC0FDD1F2A95E2F730E2939F2D
:101E9000C0011124C82BD92BDA684DCFD82FCC27FD
:101EA000C46FD06A48CFDC2FCC27C06FD06A43CF35
:101EB0008C2F8F700E94FD0F34E0D695C7953A9510
:101EC000E1F7CF709C2FEC01D06935CF82389105B6
:101ED000B1F1B0F48133910509F475C048F4893249
:101EE000910509F469C08A32910509F473C0089517
:101EF0008533910509F459C08933910501F108959D
:101F0000833E9105A9F138F4803E9105F9F0823EB7
:101F1000910549F10895863E9105A9F1873E910505
:101F2000C9F1843E910519F52091FE0921FF1FC0DA
:101F30008091FD0984FD14C087EE90E00895209102
:101F4000FD092370A1F080EE90E008952091FD0935
:101F500020FD47C03091FE0930FF09C024FF44C076
:101F600090E080E004C02091FD0922FDF7CF0895A4
:101F70002091FD0922FD3BC03091FE0930FDE3CFE9
:101F800024FFF5CFEDCF2091FD0923FFF0CF24FDF5
:101F9000E7CFD2CF2091FD0923FD2CC03091FE095F
:101FA00031FFEECF84EE90E008952091FD0925FFEA
:101FB000DECF89E290E008952091FD0925FFD7CF7B
:101FC00085E390E008952091FD0926FFD0CF8AE2B5
:101FD00090E008952091FD0926FFC9CF81E390E0AC
:101FE000089589E390E0089583EE90E0089582EEED
:101FF00090E0089586EE90E008959091FD0992FF9B
:1020000006C0282F28712830F9F4877F846093FF59
:1020100006C0282F28712831F1F4877E8461209131
:10202000FE0920FF06C0382F38713830D9F4877F79
:10203000816021FF06C0282F28712831D1F4877EC6
:10204000816194FD877E0895282F24712430F9F64C
:102050008B7F8860DCCF282F2471243101F78B7EA1
:102060008861DDCF382F3171313019F78E7F88606C
:10207000E0CF282F2171213121F78E7E8861E1CFB9
:102080000895E82FF0E0EE0FFF1FED57F74F808126
:1020900091810895CF92DF92EF92FF920F931F9359
:1020A000CF93DF9386E694E00E94750583E8E82EDF
:1020B00088E0F82ED0E0C0E091E6C92E94E0D92E59
:1020C00008E514E0DF93CF93DF92CF920E940E06D3
:1020D0008EE594E00E947505F701819191917F0151
:1020E0000E94C23D9F938F931F930F930E940E06F1
:1020F00086E594E00E94750521968DB79EB70896F7
:102100000FB6F8949EBF0FBE8DBFC430D105D1F677
:10211000DF91CF911F910F91FF90EF90DF90CF90C3
:10212000089580EA8A95F1F70895CF93DF93A7E2A7
:10213000B6E04BE256E0C1E0D0E08D91E82FE295A9
:10214000EF70F0E061A18F709E0101C0220F8A95AF
:10215000EAF7922F9095962391A382A1822B82A3D6
:102160004A175B0751F7ABE1B6E047E256E0C1E042
:10217000D0E08D91E82FE295EF70F0E061A18F70D3
:102180009E0101C0220F8A95EAF7922F909596231F
:1021900091A382A1822B82A34A175B0751F7109269
:1021A0007C0810927B081092840810928308109289
:1021B0007E0810927D081092860810928508109271
:1021C000800810927F081092880810928708109259
:1021D00082081092810810928A081092890884E07F
:1021E0000E947D11DF91CF910C94850D8F929F926B
:1021F000AF92BF92CF92DF92EF92FF920F931F9315
:10220000CF93DF9387E2E82E86E0F82E0BE718E005
:10221000912CAA24A394B12CF70181917F01C82F9E
:10222000C295CF70D0E099A18F70650101C0CC0C30
:102230008A95EAF7892F8C2989A38AA18C2C80940E
:1022400088218AA30E949110EBE1F6E050E040E083
:1022500030E020E06191A62FA295AF70B0E090969B
:102260008C9190E06F7002C0959587956A95E2F722
:1022700080FD3EC0C501042E02C0880F991F0A943C
:10228000E2F7282B392B4F5F5F4F4C30510511F788
:1022900089A1882289A28AA1C82ACAA2F8018081BC
:1022A00091812817390739F13183208381E0982AF9
:1022B0000E5F1F4FFBE2EF16F6E0FF0609F0ACCF12
:1022C000292D44E063E878E08BE798E00E947E11D6
:1022D0000E94930D892DDF91CF911F910F91FF9057
:1022E000EF90DF90CF90BF90AF909F908F90089528
:1022F00090E080E0C6CF80E0DACF0895FF920F93A0
:102300001F93CF93DF93F82E092F162FD72FC42FAB
:10231000222349F081E08093F4060E949E3F90932F
:10232000F3068093F2068091F4068823A1F0809151
:10233000F2069091F3060E94B63F069760F0EF2DEB
:10234000F02FA12FBD2F90E080E0D0E08C179D07EB
:1023500044F01092F406DF91CF911F910F91FF90FE
:102360000895219131912D933D930196EFCF85549E
:10237000990BBC01990F880B990B0E94724D20E0BC
:1023800030E040E451E40E94C84C9B01AC0160E0A5
:1023900070E080E090E40E94F64E20E030E04CEDEA
:1023A00053E40E94894E0895FB018D312CE592077C
:1023B00039F482818823A1F10E94091980E00895EF
:1023C0008E312CE5920731F48281882349F10E94F5
:1023D0001919F4CF8F312CE5920741F482818823BB
:1023E000F9F00E9405198111F2CFE6CF8A322CE56F
:1023F000920769F48281882399F00E94321940E0A3
:1024000064E070E08AE592E00E947916D7CF8B32C3
:102410009C4531F48281882319F00E943B19EFCF4B
:1024200081E008950E94B7114FE050E00C947818B5
:102430000E94B7110C94BE170C946D1708951F924B
:102440000F920FB60F9211240BB60F924F925F921C
:102450006F927F928F929F92AF92BF92CF92DF92B4
:10246000EF92FF922F933F934F935F936F937F93DE
:102470008F939F93AF93BF93EF93FF93809109073F
:10248000882309F4B1C1E0904B07F0904C071E146B
:102490001F040CF0A9C121E0E216F10409F4DEC02A
:1024A00020E030E0A9016091F8067091F906809172
:1024B000FA069091FB060E94C34C8111C6C2F70137
:1024C000EE0FFF1FEE0FFF1FE95EF84F8080918037
:1024D000A280B3808091B202882309F4ADC2C0907B
:1024E0004107D0904207E0904307F090440720E076
:1024F00030E0A901C701B6010E94C34C882309F44A
:102500009BC2A5019401C701B6010E94C34C87FF7D
:102510005CC2A501940160E070E08CED93EC0E9438
:10252000C84C20E030E040E451E40E94C84C20E078
:1025300030E040E05FE30E94894E9B01AC0160E027
:1025400070E080E090E40E94F64EA50194010E94A4
:10255000894E9B01AC01C701B6010E94C34C87FFA5
:1025600034C2A701960160E070E08CED93E40E9414
:10257000C84C20E030E040E451E40E94C84C20E028
:1025800030E040E05FE30E94894E9B01AC0160E0D7
:1025900070E080E090E40E94F64E9B01AC01C70120
:1025A000B6010E94894E6093410770934207809361
:1025B00043079093440760914107709142078091CF
:1025C0004307909144072091F5063091F6062F3F7E
:1025D000320731F02F5F3F4F3093F6062093F50618
:1025E0000E9444196B017C0120E034E244EF51E485
:1025F0000E94C34C87FF08C086EFC82E88E2D82E01
:1026000084EFE82E81E4F82E20E030E040E051E451
:10261000C701B6010E94894E9B01AC0160E074E2E3
:1026200084E79BE40E94C84C6B017C010E94414DF1
:1026300070938700609386002091B3023091B402BA
:102640004091B5025091B602C701B6010E94894E71
:102650000E94414D70938900609388004090F80675
:102660005090F9066090FA067090FB06E0904B07D8
:10267000F0904C0720E030E0A901C301B2010E94B4
:10268000844E18160CF0E5C182E0E816F1040CF453
:1026900052C08091490790914A07B7010E948D501E
:1026A0006C0190934A078093490780900B079090A4
:1026B0000C07A0900D07B0900E0720E030E040E836
:1026C0005FE3C501B4010E94574C60930B07709300
:1026D0000C0780930D0790930E07F601EE0FFF1F76
:1026E000EE0FFF1FE15EF84FA3019201608171813F
:1026F000828193810E94C84C20E030E040E05EE39C
:102700000E94894E9B01AC01C501B4010E94844E18
:1027100018168CF4C6010196B7010E948D50909353
:102720004A078093490710920B0710920C071092EA
:102730000D0710920E07E0914907F0914A07EE0F3E
:10274000FF1FEE0FFF1FE15EF84F608171818281F4
:1027500093812091F5063091F6062F3F320731F034
:102760002F5F3F4F3093F6062093F5060E944419E1
:102770006B017C0120E034E244EF51E40E94C34C41
:1027800087FF08C066EFC62E68E2D62E64EFE62EFD
:1027900061E4F62E20E030E040E051E4C701B601EC
:1027A0000E94894E9B01AC0160E074E284E79BE4E7
:1027B0000E94C84C6B017C010E94414D70939700B0
:1027C000609396002091B3023091B4024091B5021B
:1027D0005091B602C701B6010E94894E0E94414D38
:1027E000709399006093980080910A07882309F4F8
:1027F00006C2C0900507D0900607E0900707F0904A
:10280000080720E030E0A901C701B6010E94844E0C
:1028100018160CF0E3C18091F5069091F6068F3FF3
:10282000980729F001969093F6068093F506C70164
:10283000B6010E94441920E030E040E051E40E94DB
:10284000894E9B01AC0160E074E284E79BE40E9446
:10285000C84C6B017C010E94414D709397006093BE
:1028600096002091B3023091B4024091B50250918C
:10287000B602C701B6010E94894E0E94414D709375
:102880009900609398006091FF06709100076F5F58
:102890007F4F709300076093FF06E0909600F090E2
:1028A000970090E080E00E94704D4B015C014090E9
:1028B0000107509002076090030770900407EF280B
:1028C00009F495C18091FE06811191C16091960035
:1028D0007091970090E080E00E94704D9B01AC01E8
:1028E000C301B2010E94C84C20E03FEF4FE757E41C
:1028F0000E94894E20E030E040E85FE30E94564CA1
:10290000A50194010E94C34C18160CF478C1809163
:10291000FC069091FD0601969093FD068093FC06BF
:1029200020918B0830918C088217930748F0809192
:102930009208882309F46CC11092FD061092FC06DF
:10294000E0918D08F0918E088091FC069091FD0633
:102950004091FE069C0153E0220F331F5A95E1F788
:1029600041118AC141E04093FE0601979093FD0614
:102970008093FC06E20FF31FDF011897CD90DD90E6
:10298000ED90FC902081318142815381C701B601D5
:102990000E94C34C811167C110920507109206076F
:1029A000109207071092080780E090E0A0E8BFE3CC
:1029B0008093010790930207A0930307B093040745
:1029C000109200071092FF061AC1A5019401C701D9
:1029D000B6010E94844E18167CF5A501940160E0B2
:1029E00070E08CED93E40E94C84C20E030E040E4BD
:1029F00051E40E94C84C20E030E040E05FE30E94D8
:102A0000894E9B01AC0160E070E080E090E40E94A0
:102A1000F64EA50194010E94894E9B01AC01C701AD
:102A2000B6010E94844E18163CF4A701960160E09E
:102A300070E08CED93EC9BCD809241079092420721
:102A4000A0924307B0924407B6CD60E070E0CB019E
:102A5000BACDF701EE0FFF1FEE0FFF1FE55EF84F37
:102A600080809180A280B3808091B202882309F493
:102A7000ACC0C0904507D0904607E0904707F09063
:102A8000480720E030E0A901C701B6010E94C34C0D
:102A9000882309F49AC0A5019401C701B6010E94D8
:102AA000C34C87FF5BC0A501940160E070E08CED32
:102AB00093EC0E94C84C20E030E040E451E40E94D6
:102AC000C84C20E030E040E05FE30E94894E9B016B
:102AD000AC0160E070E080E090E40E94F64EA50159
:102AE00094010E94894E9B01AC01C701B6010E946E
:102AF000C34C87FF33C0A701960160E070E08CED06
:102B000093E40E94C84C20E030E040E451E40E948D
:102B1000C84C20E030E040E05FE30E94894E9B011A
:102B2000AC0160E070E080E090E40E94F64E9B0112
:102B3000AC01C701B6010E94894E609345077093AE
:102B40004607809347079093480760914507709127
:102B500046078091470790914807FBCDA501940156
:102B6000C701B6010E94844E18167CF5A501940198
:102B700060E070E08CED93E40E94C84C20E030E00F
:102B800040E451E40E94C84C20E030E040E05FE3C4
:102B90000E94894E9B01AC0160E070E080E090E40F
:102BA0000E94F64EA50194010E94894E9B01AC0142
:102BB000C701B6010E94844E18163CF4A701960185
:102BC00060E070E08CED93EC9CCF80924507909292
:102BD0004607A0924707B0924807B7CF10929700D8
:102BE0001092960010929900109298004CCEA3017A
:102BF0009201C501B4010E94844E87FF88CE809166
:102C00008F0880FD11C010920A07109209070CC0AE
:102C1000809171008D7F80937100809190008F73FF
:102C20008093900010920A07FF91EF91BF91AF91AE
:102C30009F918F917F916F915F914F913F912F91D4
:102C4000FF90EF90DF90CF90BF90AF909F908F90CC
:102C50007F906F905F904F900F900BBE0F900FBEC4
:102C60000F901F901895C0920507D0920607E0922A
:102C70000707F092080798CE1092FE061092F6060B
:102C80001092F506E20FF31F80819181A281B3813A
:102C90008093050790930607A0930707B093080752
:102CA00020E030E040E85EE36481758186819781B1
:102CB0000E94894E6B017C016091B70270E090E048
:102CC00080E00E94704D20E030E048EC52E40E9429
:102CD000C84C9B01AC01C701B6010E94894E6093AC
:102CE000010770930207809303079093040768CE4F
:102CF0001895CF92DF92EF92FF92CF93DF93EC0182
:102D00006B01F42E8091F706811102C00E94FC161F
:102D100080918F0880FF69C0809171008D7F8093C2
:102D2000710080916F008D7F80936F008091090703
:102D300081110E946D1781E080930A07D0938E085D
:102D4000C0938D08D0928C08C0928B08F0929208A4
:102D500010920B0710920C0710920D0710920E079D
:102D60001092FD061092FC0688819981AA81BB8190
:102D70008093050790930607A0930707B093080771
:102D800020E030E040E85EE36C817D818E819F81B0
:102D90000E94894E6B017C016091B70270E090E067
:102DA00080E00E94704D20E030E048EC52E40E9448
:102DB000C84C9B01AC01C701B6010E94894E6093CB
:102DC0000107709302078093030790930407109202
:102DD00000071092FF06809171008260809371005D
:102DE00080919000806880939000DF91CF91FF9058
:102DF000EF90DF90CF9008950F931F93CF93DF93C1
:102E00000E94D53D811102C00E94803E0E94083E72
:102E100080938F088091F70681114BC03E9A809174
:102E200071008D7F80937100259A80916F008D7F56
:102E300080936F0002E0009390001AE110939100DC
:102E4000C1ECD1E1D0939700C093960023EA3BE018
:102E50004EE855E46091B3027091B4028091B502DE
:102E60009091B6020E94894E0E94414D7093990044
:102E7000609398000093800010938100D0938700A6
:102E8000C093860023EA3BE04EE855E46091B3022C
:102E90007091B4028091B5029091B6020E94894E61
:102EA0000E94414D709389006093880081E0809377
:102EB000F70680918F0880FF0BC040E063E070E070
:102EC0008AE992E0DF91CF911F910F910C947916CE
:102ED000DF91CF911F910F9108958091540880FF49
:102EE00008C084EB94E09F938F930E940E060F908E
:102EF0000F908091F706811102C00E94FC1610927B
:102F00004C0710924B07809171008D7F8093710068
:102F1000809190008F738093900080916F008D7FDF
:102F200080936F00809180008F7380938000109257
:102F30000A0710920907109245071092460710924F
:102F400047071092480710924107109242071092CB
:102F50004307109244071092400710923F07EFE199
:102F6000F7E0AFE0B7E011921192119211921D9229
:102F70001D9287E0EF33F807B1F70895CF92DF9203
:102F8000EF92FF920F931F93CF93DF936B017C011E
:102F90008091540880FF0FC0C7010E943A4D7F9373
:102FA0006F938CE994E09F938F930E940E060F908D
:102FB0000F900F900F9080910907882309F471C03A
:102FC0008091F706811102C00E94FC160FE117E004
:102FD000C7E0D0E0A7019601F801648D758D868D5C
:102FE000978D0E94C34C811176C0FE01EE0FFF1F2A
:102FF000EE0FFF1FE15EF84F1082118212821382E2
:10300000CC0FDD1FC15FD84F1982188287E0EB33E8
:10301000F80709F04FC080914B0790914C0701973A
:1030200097FD61C090934C0780934B0780914B07AD
:1030300090914C072091490730914A07281739078A
:1030400024F010924A0710924907892B51F580917C
:1030500071008D7F80937100809190008F738093B9
:10306000900080916F008D7F80936F008091800031
:103070008F7380938000109245071092460710923C
:10308000470710924807109241071092420710928A
:103090004307109244071092400710923F07109286
:1030A0000907DF91CF911F910F91FF90EF90DF9073
:1030B000CF90089584819581A681B7818193919362
:1030C000A193B19310821182128213828A819B8113
:1030D0008993999399CF219704501109CF3FDC0729
:1030E00009F078CF98CF10924C0710924B079ECFE3
:1030F000CF92DF92EF92FF92CF93DF936B017C012F
:10310000D42FC52F8091540880FF13C05F934F9335
:10311000C7010E943A4D7F936F938DE794E09F9390
:103120008F930E940E060F900F900F900F900F90AC
:103130000F908091F706811102C00E94FC168091C9
:103140008F0880FF5BC080914B0790914C070897D8
:103150000CF054C0809171008D7F8093710080913C
:103160006F008D7F80936F0080910A0781110E940C
:103170006D1781E0809309071092F6061092F5060C
:1031800020E030E0A901C701B6010E94844E181664
:10319000DCF480914B0790914C07FC01EE0FFF1F70
:1031A000EE0FFF1FE15EF84FC082D182E282F38210
:1031B000FC01EE0FFF1FE15FF84FD083C183019642
:1031C00090934C0780934B078091710082608093AD
:1031D00071008091900080688093900080914B07EF
:1031E00090914C07029754F080916F008260809319
:1031F0006F0080918000806880938000DF91CF9184
:10320000FF90EF90DF90CF90089580918F088170AC
:10321000089580918F08816080938F080E940C3EF2
:103220000E941E1240E062E070E08AE892E00C9496
:10323000791640E062E070E08AE792E00E94791639
:103240002FEF81EE94E0215080409040E1F700C0E4
:1032500000000E946D1780918F088E7F80938F08E9
:103260000C940C3E80914D0790E001968770992751
:1032700080934D07089580914D0790E007968770E1
:10328000992780934D0708958F929F92AF92BF9296
:10329000CF92DF92EF92FF92CF93DF936B017C018D
:1032A000C091F506D091F606BE0190E080E00E9444
:1032B000704D4B015C01A701960160E070E08CE568
:1032C00094E40E94C84C9B01AC01C501B4010E946A
:1032D000894E0E94414D9B01E0914D07E830D8F4A2
:1032E000F0E0E353FE4A0C94C0501092B20280E02A
:1032F00090E0A0E0BFE38093B3029093B402A09368
:10330000B502B093B6021092F8061092F906109228
:10331000FA061092FB06C701B601DF91CF91FF902C
:10332000EF90DF90CF90BF90AF909F908F900895D7
:103330001092B2021092F8061092F9061092FA0654
:103340001092FB066431710580F46A30710580F0DB
:1033500080E090E0A0E8BEE38093B3029093B402D3
:10336000A093B502B093B602D6CF693C710580F345
:1033700080E090E0A0E0BEE3EFCF1092B2021092A6
:10338000F8061092F9061092FA061092FB0620E059
:1033900030E040EA52E4C701B6010E94C34C87FD09
:1033A000BACF20E030E040E253E4C701B6010E940A
:1033B000C34C87FF3EC00E94365168E270E00E9415
:1033C0008D50BC01645C7F4F072E000C880B990B5D
:1033D0000E94724D6B017C018091F5069091F6067A
:1033E0008B30910508F18531910508F04AC065E1FF
:1033F00070E0681B790B90E080E00E94704D20E047
:1034000030E040E05FE30E94894E20E030E040E29F
:1034100051E40E94C84C6093B3027093B40280934D
:10342000B5029093B60277CF80E090E0A0E0BFE3D2
:1034300093CF20E030E040EA53E4C701B6010E9498
:10344000C34C87FF27C00E94365168EE73E00E948C
:103450008D50BC0168517C4F072E000C880B990BD6
:103460000E94724D6B017C018091F5069091F606E9
:1034700086309105C8F265E170E08531910508F468
:103480006BC01092B3021092B4021092B502109267
:10349000B60241CF20E030E040E254E4C701B6017B
:1034A0000E94C34C87FF2FC00E94365160ED77E029
:1034B0000E948D50BC016854744F072E000C880B7D
:1034C000990B0E94724D6B017C018091F5069091E1
:1034D000F6068031910508F4A7CF8531910588F66D
:1034E00065E170E0681B790B90E080E00E94704D10
:1034F00020E030E040E05FE30E94894E20E030E0D1
:1035000040EA50E486CF20E030E040EA54E4C701CE
:10351000B6010E94C34C87FFFECE0E94365160ED7B
:1035200077E00E948D50BC016854744F072E000C48
:10353000880B990B0E94724D6B017C018091F506FE
:103540009091F6068432910508F46ECF833391058D
:1035500008F097CF63E370E0681B790B90E080E0A0
:103560000E94704D20E030E040E05FE30E94894E11
:1035700020E030E040E751E44CCF41E04093B2021C
:103580001092F8061092F9061092FA061092FB06B5
:103590006431710540F46A30710560F120E030E07B
:1035A00040E05FE32BC0693C710508F06ACF90E012
:1035B00080E00E94704D20E030E040EA51E40E943B
:1035C000564C20E030E044E353E40E94C84C9B0199
:1035D000AC010E94894E20E030E040E05EE30E94B2
:1035E000894E9B01AC0160E070E080E09EE30E94A8
:1035F000564C11CF20E030E040E85EE3C701B60151
:103600000E94894E6B017C01B3CE21E02093B2026F
:103610001092F8061092F9061092FA061092FB0624
:103620004AE0469F9001479F300D1124C90168EB85
:103630007BE00E947950BC016C5D754077FF03C050
:10364000719561957109072E000C880B990B0E94EA
:10365000724D2EE333EC4EE259E30E94894E20E096
:1036600030E040EC5EE30E94574CD5CE81E0809381
:10367000B2021092F8061092F9061092FA06109211
:10368000FB06CE0183709927892B09F1BE01617079
:10369000772790E080E00E94704D20E030E040E02D
:1036A0005EE30E94894E20E030E040E45FE30E9448
:1036B000574C6093B3027093B4028093B502909319
:1036C000B602C770DD27CD2B09F025CEDACE80E01B
:1036D00090E0A0E0BFE38093B3029093B402A09384
:1036E000B502B093B602EDCF41E04093B202109222
:1036F000F8061092F9061092FA061092FB06812C39
:10370000912CA12C9FE3B92E8092B3029092B40227
:10371000A092B502B092B6022739310508F4FBCD6C
:1037200090E080E00E94704D20E030E047E153E4FB
:103730000E94564C20E030E04AE754E40E94C84C16
:1037400020E030E048E452E40E94894E20E030E07E
:1037500040EA51E40E94B84D0E943A4D660F771F2F
:10376000660F771F655D794FFB01208131814281B2
:103770005381C701B6010E94894E6B017C01CBCDFC
:103780002FE7482F60E08FEF99E00C949E4020E0F7
:10379000482F60E08FEF99E00C94AE4020E04BE7BB
:1037A00060E08FEF99E00C948E408FEF99E00C94DD
:1037B0009D42CF93C82F80916607882319F08C2FE4
:1037C0000E94121280916507882321F08C2FCF91DF
:1037D0000C94C01BCF910895CF93C82F809166079A
:1037E000882319F08C2F0E94181280916507882376
:1037F00021F08C2FCF910C94C71BCF91089580910D
:10380000660781110E941C128091650781110C943A
:10381000CE1B08950C94D2070E94FF1B10926607DE
:1038200040E068E070E088E393E00C9479160E9431
:10383000CE1B1092650740E068E070E088EB92E0F4
:103840000C9479160E94FF1B20915A0430E02F5FE0
:103850003F4F2370332720935A0448E2429FC00110
:10386000439F900D112440E065E070E088549C4F28
:103870000C947916CF93809162078823F1F08091A0
:103880004E0790914F07009779F40E949E3F9093C6
:103890004F0780934E0780915007282F30E08823F0
:1038A00071F0C90101970FC00E94B63F20915804E2
:1038B000309159042817390740F3CF91089580912A
:1038C00051078150990B2E5A384FF901C0818E5AF9
:1038D000984FFC0180810E94EC1B8C2F0E94D91B09
:1038E0008091500790E001966091510770E00E942E
:1038F0008D5080935007E1CF089581E08093660753
:1039000040E068E070E088E793E00E9479160C944C
:103910007C1C089581E08093650740E068E070E0DA
:1039200088EF92E00E9479160C94891CEF92FF9226
:103930001F93CF93DF93CDB7DEB7A3970FB6F8945D
:10394000DEBF0FBECDBF7C0186323CE59307A9F4F4
:10395000DB0112968C91882309F458C00E947D1CCB
:1039600080E0A3960FB6F894DEBF0FBECDBFDF9107
:10397000CF911F91FF90EF9008958732BCE59B0790
:1039800041F4FB018281882309F440C00E940C1C91
:10399000E7CF8832FCE59F0751F480916607DB0191
:1039A00012969C91992391F18111F0CFD7CF8C324F
:1039B000BCE59B0739F4FB018281882339F10E9421
:1039C0008A1CCECF8D32FCE59F0741F4DB011296B5
:1039D0008C918823D9F00E94171CC2CF8E32BCE58F
:1039E0009B0749F4FB018281882381F08091650760
:1039F0008111F1CFE4CF89329C4541F4DB0112966D
:103A00008C91882319F00E94221CAACF809166070E
:103A1000811105C080916507882309F4D5C0FB0199
:103A20002281222309F450C0F0EEEF16F10461F474
:103A30000E94FF1B81E0809364071092630710923D
:103A40006207109251078CCF32EEE316F10471F445
:103A50000E94FF1B80916407882319F081E0809306
:103A6000630710926407109262077ACF83EEE8161C
:103A7000F10491F480916307882331F10E94FF1BC8
:103A80001092640781E080936207109250071092B1
:103A90004F0710924E0764CF92E5E916F10451F4F6
:103AA00080915804909159040A97909359048093F7
:103AB000580456CFA1E5EA16F10431F48091580478
:103AC000909159040A96F1CF80915A0410915D04A7
:103AD000811111C0135080915B04180FFB0180818C
:103AE000180F318184E090E0831B9109FCE08F9FE7
:103AF000100D112414C0813061F5105E80915B04BB
:103B0000180FDB018C91180F11963C9184E090E026
:103B1000831B9109982F990F990F890F180F812FE7
:103B2000222309F44EC00E94D91B80916407882388
:103B300051F080915107E82FF0E0EE5AF84F1083D2
:103B40008F5F80935107C7010E940A1C91E089276B
:103B500008CF823071F4105E80915B04180FFB0176
:103B60008081180F318184E090E0831B9109F7E098
:103B7000BECF8330A1F683E2E0E0F5E0DE011196EE
:103B800001900D928A95E1F7DB01EC9181E090E0E4
:103B90008C0F9D1F8E0F911DFC0180915B049091F5
:103BA0005C04E80FF91F13508081180F11963C91A7
:103BB00084E090E0831B9109ACE08A9F100D1124F2
:103BC000AECF0E94EC1BBFCF81E0CBCEEF92FF9235
:103BD0000F931F93CF93DF93EB01E82FD11110C008
:103BE000442321F0F0E0EB52F94FE4916E2F7E2F49
:103BF0008E2FDF91CF911F910F91FF90EF9008953D
:103C00000D2F10E0282F30E0442329F02B52394F9C
:103C1000F901249130E0F6E0CF9FC0011124EFEFCD
:103C2000F0E0BF010E947950AB018C2F90E0880F2B
:103C3000991FA5E5A49FB001A59F700D1124861BB7
:103C4000970B982F990F980FBF01601B710B629F04
:103C5000D001639FB00D729FB00D11248B2F9D9FDB
:103C6000B0011124672F7727EF01C61BD70BBE01C8
:103C7000629FE001639FD00D729FD00D11247F01E0
:103C8000E91AF108E09EB001E19E700DF09E700D02
:103C90001124672F7727E61BF70BE29F8001E39F34
:103CA000100DF29F100D1124E12F722F423051059B
:103CB00099F048F44115510569F04130510581F002
:103CC000EB2F8D2F07C04430510569F080F046304E
:103CD0005105B1F76E2F8DCFE22F7B2F812FFACFB9
:103CE000E22F7D2FF7CFEB2F822F712FF3CF7B2F7A
:103CF000822FED2FEFCF41E00C94E61D30E020E065
:103D0000869F212D969F200D311D1124C9010895F4
:103D1000AC018230910508F408959FEF413E8EE199
:103D2000580740F49A0195E0369527959A95E1F762
:103D300098E0920F61E0E62FE90FFF27FF1F9F0138
:103D400035952795822F229FF001239FF00DF00DCE
:103D500011244E175F0738F49FEF920F961758F70C
:103D60008FEF860F08952F3FE9F361E0620FF6CFE2
:103D7000E82F86FDE0952E2F2F7086FD2F5FE695AC
:103D8000E695E695E670F0E0EC57F94F9181929F49
:103D9000902D212D112492959F702295207F922B9A
:103DA0002081920F87FD919580E8890F0895E42F77
:103DB000F0E0EE0FFF1FE45BFE4F408134EE439FC7
:103DC000412D1124E72FF0E050E0445E5F4FDA010F
:103DD000A21BB1099D01B7FF03C03195219531099F
:103DE00093E0220F331F9A95E1F7AF01421B530B6B
:103DF0009A0157FD20E0279F212D1124722F08954D
:103E0000E42FF0E0EE0FFF1FE45BFE4F408134EE45
:103E1000439F412D1124E82FF0E050E0445E5F4FB6
:103E2000DA01A21BB1099D01B7FF03C031952195AD
:103E3000310993E0220F331F9A95E1F7AF01421B3E
:103E4000530B9A0157FD20E0582F259F212D112457
:103E5000822F0895622F0895E42FF0E0EE0FFF1FE8
:103E6000E45BFE4F6081621B0895E42FF0E0EE0FEB
:103E7000FF1FE45EFE4F61A9621B0895322F50E0E0
:103E8000FA01EE0FFF1FE45EFE4F91A9905297FDDD
:103E90009195440F551FFA01E45BFE4F2081231BCF
:103EA000330B290F311D97FD3A95620F0895EF925C
:103EB0000F93972F23E0029FB0011124759567950A
:103EC0006E0D792F0F91EF9008950F93CF93DF939D
:103ED000D72FC82F47FD419588E390E0841B9109B7
:103EE00047FD9395889FB001899F700D700D112437
:103EF000229FC001239F900D900D1124860F971FC4
:103F00000E94881E982F990F890F682F600F7D2FB0
:103F10008C2FDF91CF910F9108950F931F93522F04
:103F200010E0F801EE0FFF1FE45EFE4FA1A9A052C2
:103F3000BB0B9D015203F001539FF00D1124000FA4
:103F4000111FD801A45BBE4F0C910057110B400309
:103F50009001419F300D11242E0F3F1F37FF02C0EB
:103F600021583F4F220F232F221F330B620F1F9127
:103F70000F9108950F931F93522F10E0F801EE0F49
:103F8000FF1FE45EFE4FA1A9A052BB0B9D0152038F
:103F9000F001539FF00D1124000F111FD801A45BF5
:103FA000BE4F0C910057110B40039001419F300D03
:103FB00011242E0F3F1F37FF02C0215C3F4F96E0B8
:103FC000359527959A95E1F7620F1F910F91089506
:103FD0000F931F9310E0F801EE0FFF1FE45BFE4FFD
:103FE0009081905797FD9195000F111FF801E45EA5
:103FF000FE4F01A90052110B2003F001219FF00D8B
:10400000112408E310E0091B110997FD13954003E3
:104010009001419F300D1124E20FF31F9F01220FE9
:10402000331F2E0F3F1F37FF02C021583F4F220F73
:10403000232F221F330B620F1F910F91089540957C
:10404000282F429F412D1124842F089522E8241BFC
:1040500008F420E0620F0895EF92FF920F9397010A
:1040600095E0099F200D311D11242F3F310519F0D6
:1040700010F02FEF30E02095382F320F08F43FEF8B
:10408000832F0F91FF90EF900895EF92FF920F937F
:104090001F930E0D1F2D111DF90137FF03C0F19560
:1040A000E195F10924E0EE0FFF1F2A95E1F7EF3FBC
:1040B000F10519F014F0EFEFF0E09A0157FF03C09B
:1040C00031952195310994E0220F331F9A95E1F73C
:1040D0002E173F070CF4F901E00FF11FEF3FF10538
:1040E00019F010F0EFEFF0E0E095282F3E2F230FAE
:1040F00008F42FEF822F1F910F91FF90EF900895FA
:10410000EF92FF920F93972F093438F4B701601B99
:1041100071096F3F710519F010F06FEF70E0485FA3
:104120005F4F4131510540F0A901485F5F4F413178
:10413000510510F06FEF70E06095482F460F08F4BE
:104140004FEF842F37FF02C02D5F3F4F35952795E6
:104150003595279560919408620F792F0F91FF9004
:10416000EF900895EF92FF920F939701201B310972
:104170002F3F310519F010F02FEF30E0322F30953E
:10418000482F430F08F44FEF842F620F0F91FF90D9
:10419000EF900895EF92FF920F939701201B310942
:1041A0002F3F310519F010F02FEF30E02095382F18
:1041B000320F08F43FEF832F0F91FF90EF90089597
:1041C000FC019B01009729F480E077FF2BC080E879
:1041D0000895AC0197FF04C044275527481B590B8D
:1041E000B901640F751F37FD10C0241B350BC901C1
:1041F000A5E0880F991FAA95E1F70E948D5080E2F3
:10420000861BF7FF0FC081950895CB0165E0880FED
:10421000991F6A95E1F7BA01621B730B0E948D50DA
:1042200080E6EECF08950F931F93CF93DF93D62FA1
:10423000172FC82FC901272F201B022FBA010E9458
:10424000E020982F990F990F782F791B700F719F8D
:10425000712D11246D2F8C2FDF91CF911F910F9114
:1042600008950F931F93CF93DF93D62FC72F182F47
:10427000C901212F201B022FBA010E94E020982F94
:10428000990F990F891B800F282F219F212D112411
:10429000822F6D2F7C2FDF91CF911F910F91089569
:1042A000EF920F931F93CF93DF93D62F172FC82F23
:1042B000C9010E19070FBA010E94E020702F781B68
:1042C000719F712D11246D2F8C2FDF91CF911F9134
:1042D0000F91EF900895EF920F931F93CF93DF9379
:1042E000D62FC72F182FC9010E19010FBA010E942E
:1042F000E020081B202F219F212D1124822F6D2FBC
:104300007C2FDF91CF911F910F91EF9008950F9324
:10431000CF93DF93D72FC82FC901BA010E94E020A5
:10432000682F600F7D2F8C2FDF91CF910F91089513
:10433000EF920F93CF93DF93D72FC82FC9010E1998
:10434000BA010E94E020602F681B7D2F8C2FDF9127
:10435000CF910F91EF90089545E050E06CE170E04F
:1043600083E998E00C944E5145E050E06CE170E038
:1043700083E998E00C946C518091540880FF08C048
:1043800081EB96E09F938F930E940E060F900F9003
:1043900085E3809393088091230590912405A09153
:1043A00025058093940890939508A09396088FE72D
:1043B000809397080C94B4218091540880FF77C0B3
:1043C00087E996E09F938F930E940E068091540890
:1043D0000F900F9080FF6BC08091930883701F92A5
:1043E0008F9388E796E09F938F930E940E068091AB
:1043F00054080F900F900F900F9080FF58C080913D
:104400009308869586951F928F938BE596E09F93F0
:104410008F930E940E06809154080F900F900F907A
:104420000F9080FF44C0809194081F928F938DE37A
:1044300096E09F938F930E940E06809154080F90F0
:104440000F900F900F9080FF32C0809195081F92BF
:104450008F938FE196E09F938F930E940E06809139
:1044600054080F900F900F900F9080FF20C0809104
:1044700096081F928F9381E096E09F938F930E94FE
:104480000E06809154080F900F900F900F9080FFB0
:104490000EC0809197081F928F9383EE95E09F93B3
:1044A0008F930E940E060F900F900F900F9008951B
:1044B0000F931F93CF93DF93C82FD62F8A010E94AB
:1044C000EF069CE0C99FB0011124645E7E4F6D0F22
:1044D000711DFB0190819F3F29F0F801E80FF11D4C
:1044E00090838F5FDF91CF911F910F910895E0919D
:1044F0009206F09193060994E0918E06F0918F0652
:1045000009943F924F925F926F927F928F929F9207
:10451000AF92BF92CF92DF92EF92FF920F931F93D1
:10452000CF93DF933C012B01FC01C0818AE0C89F3F
:10453000C02D11241AE01C0FF12E123310F031E3BC
:10454000F32E60919708669580919808909199084C
:104550000E947E1E382ED0E0CE01880F991F9C014C
:10456000245E3E4F6901CF15B0F081E0113308F0B1
:1045700080E0DF91CF911F910F91FF90EF90DF903E
:10458000CF90BF90AF909F908F907F906F905F90F3
:104590004F903F900895FE01E255FE4F8081F30158
:1045A0009181892379F1F60180A9282F2057330BB7
:1045B000590181A9E82FE052FF0B4F01AA9C9001FD
:1045C000AB9C300D300D1124EE9FC001EF9F900D7C
:1045D000900D1124820F931F0E94881E082F609156
:1045E00094087091950880919608E32C9401A50198
:1045F000F20109950E947B1E462F282F672FCE01BE
:104600000E947C22F2E0CF0ED11C2196ACCF60E557
:1046100071E20C9481226BE671E20C94812267E5D1
:104620007FE10C94812268E971E20C9481228F92DF
:104630009F92AF92BF92CF92DF92EF92FF920F9331
:104640001F93CF93DF935C016B01FC01C0818AE073
:10465000C89FC02D11241AE01C0F912E123310F0A8
:1046600031E3932E60919708669580919808909118
:1046700099080E947E1E882ED0E0CE01880F991FD7
:104680009C01245E3E4F7901C91588F081E0113309
:1046900008F080E0DF91CF911F910F91FF90EF9094
:1046A000DF90CF90BF90AF909F908F900895FE01C4
:1046B000E255FE4F8081F50191818923C1F0F70118
:1046C00021A92052330B40A94057550B6091940803
:1046D0007091950880919608082DF60109950E9421
:1046E0007B1E462F282F672FCE010E947C22F2E0EE
:1046F000EF0EF11C2196C8CF63E171E20C941723F1
:1047000061E371E20C94172365E67FE10C941723B3
:1047100067E871E20C941723BF92CF92DF92EF9279
:10472000FF920F931F93CF93DF936C017B01FC01EA
:10473000C0818AE0C89FC02D11241AE01C0F012FF0
:10474000123308F001E360919708669566958091B1
:104750009808909199080E947E1EB82ED0E0C0174C
:1047600070F081E0113308F080E0DF91CF911F916C
:104770000F91FF90EF90DF90CF90BF900895FE01D2
:10478000E255FE4F8081F6019181892391F060917D
:10479000940870919508809196082B2D4C2FF70165
:1047A00009950E947B1E462F282F672FCE010E945D
:1047B0007C222196D4CF67ED7EE10C948C2360E0BF
:1047C0007FE10C948C236AE27FE10C948C236CE2F1
:1047D0007FE10C948C2365E37FE10C948C236EE3E2
:1047E0007FE10C948C237F928F929F92AF92BF9225
:1047F000CF92DF92EF92FF920F931F93CF93DF93AD
:104800005C016B01FC01C0818AE0C89FC02D1124AE
:104810001AE01C0F912E123310F031E3932E6091A9
:1048200097086695669580919808909199080E94DE
:104830007E1EF82E80E48F0D0E94B81E90E8892E0F
:10484000880E8F2D0E94B81E20E8722E780ED0E0C0
:10485000C91590F081E0113308F080E0DF91CF912D
:104860001F910F91FF90EF90DF90CF90BF90AF908E
:104870009F908F907F900895FE01E255FE4F8081BA
:10488000F50191818923A1F06091940870919508B8
:1048900080919608EF2C0C2F272D482DF6010995B5
:1048A0000E947B1E462F282F672FCE010E947C225C
:1048B0002196CECF6DE87FE10C94F3236AEB7FE184
:1048C0000C94F32368EE7FE10C94F323AF92BF9234
:1048D000CF92DF92EF92FF920F931F93CF93DF93CC
:1048E0007C016B01FC01C0818AE0C89FC02D1124AE
:1048F0002AE0B22EBC0EAB2CF1E3FB1510F491E3D1
:10490000A92E2091970830E050E040E06FEF7FEF54
:1049100080E090E00E94A1508901D0E02C2FCA15C0
:1049200080F081E0F0E3FB1508F480E0DF91CF91A7
:104930001F910F91FF90EF90DF90CF90BF90AF90BD
:104940000895FE01E255FE4F8081F7019181892390
:10495000F1F040919C084150042E000C550B47FF8C
:1049600018C0C801609197080E947E1EAC0160913A
:1049700094087091950880919608F60109950E9417
:104980007B1E462F282F672FCE010E947C22219666
:10499000C5CFFA01E456F74F818982130AC0FA01A4
:1049A000EE0FFF1FE456F74F818D928D8017910710
:1049B000C8F241505109D3CF6FE170E20C946624E4
:1049C00066E270E20C9466242F923F924F925F92BF
:1049D0006F927F928F929F92AF92BF92CF92DF920F
:1049E000EF92FF920F931F93CF93DF93CDB7DEB774
:1049F0002B970FB6F894DEBF0FBECDBF8C832B0173
:104A00005F834E83FB01F0818AE0F89F802D1124A3
:104A10008983865F8A838B83823310F021E32B8323
:104A200030919C083D839981892F90E09B878A87EC
:104A3000880F991FFC01E45EFE4F6F01FC818F2FF0
:104A400090E09C012F5F3F4F39872887EB81FA85E3
:104A5000FE17F0F081E02A81213308F080E02B96E8
:104A60000FB6F894DEBF0FBECDBFDF91CF911F917F
:104A70000F91FF90EF90DF90CF90BF90AF909F90FD
:104A80008F907F906F905F904F903F902F90089500
:104A9000EA85FB85E255FE4F8081F20191818923F1
:104AA00001F1209094083090950828853985245686
:104AB000374F39013C81398310E029813D8123172B
:104AC000C8F020919608129F112D1124B101812F59
:104AD0000E947B1E462F282F672F8A859B850E9468
:104AE0007C228A859B8501969B878A8792E0C90EE6
:104AF000D11CACCFF30181913F01F601A0A8A81A07
:104B0000BB0881A8F3018781881A9908AA9C9001A3
:104B1000AB9C300D300D1124889CC001899C900DF8
:104B2000900D1124820F931F0E94881E082FF301FD
:104B3000EE0FFF1FEC59F840609197088589968920
:104B40000E947E1E7C019401A501B101812FEE819E
:104B5000FF8109951B01F981FF5FF983182FADCF04
:104B600020919C0831E0231B08F420E04CE250E245
:104B7000BC01822F0C94E4244CE250E2BC0180E0A2
:104B80000C94E42420919C0831E0231B08F420E0DD
:104B900045E450E2BC01822F0C94E42445E450E249
:104BA000BC0180E00C94E42420919C0831E0231B9C
:104BB00008F420E040E850E2BC01822F0C94E42489
:104BC00040E850E2BC0180E00C94E42420919C0871
:104BD00031E0231B08F420E042EB50E2BC01822FBD
:104BE0000C94E42442EB50E2BC0180E00C94E424F9
:104BF00020919C0831E0231B08F420E04AEC50E2AD
:104C0000BC01822F0C94E4244AEC50E2BC0180E009
:104C10000C94E424BF92CF92DF92EF92FF920F9315
:104C20001F93CF93DF937C01FC01C0818AE0C89F72
:104C3000C02D11241AE01C0F012F123308F001E3DC
:104C40006091940870919508809196080E947B1E4F
:104C5000D62EC72EB82ED0E0C01770F081E01133E9
:104C600008F080E0DF91CF911F910F91FF90EF90BE
:104C7000DF90CF90BF900895FE01E255FE4F8081F6
:104C8000F7019181892331F02B2D4D2D6C2DCE0113
:104C90000E947C222196E0CF8F929F92AF92BF928A
:104CA000CF92DF92EF92FF920F931F93CF93DF93F8
:104CB0007C01FC01C0818AE0C89FC02D11241AE04C
:104CC0001C0F012F123308F001E3C0909508D0901B
:104CD0009608D09194086D2F7C2D8D2D0E947B1EFF
:104CE000B62EA72E982E609197086D0F7C2D8D2DD6
:104CF0000E947B1ED62EC72E882ED0E0C01788F0CB
:104D000081E0113308F080E0DF91CF911F910F9186
:104D1000FF90EF90DF90CF90BF90AF909F908F90DB
:104D20000895FE01E255FE4F9081F70181818923AC
:104D300059F0282D4D2D6C2D90FD03C0292D4B2DA4
:104D40006A2DCE010E947C222196D8CFBF92CF92AD
:104D5000DF92EF92FF920F931F93CF93DF937C012B
:104D6000FC01C0818AE0C89FC02D11241AE01C0FED
:104D7000D12E123310F091E3D92EC0909508B09047
:104D800096082091970800E4029F012D1124D0E09D
:104D9000CD1570F081E0113308F080E0DF91CF9104
:104DA0001F910F91FF90EF90DF90CF90BF900895EB
:104DB000FE01E255FE4F8081F70191818923B9F010
:104DC000FE01EE0FFF1FE45EFE4F81A982958F70FA
:104DD00060919408809F600D11247C2D8B2D0E9482
:104DE0007B1E462F282F672FCE010E947C22219602
:104DF000CFCFBF92CF92DF92EF92FF920F931F938C
:104E0000CF93DF938C01FC01C0818AE0C89FC02D45
:104E100011245AE0F52EFC0EDF2CF1E3FF1510F4FF
:104E200041E3D42EC0909508B09096082091970841
:104E300030E4E32E3E2D329F312D1124E32ED0E0BD
:104E4000CD1578F081E030E33F1508F480E0DF9184
:104E5000CF911F910F91FF90EF90DF90CF90BF9077
:104E60000895FE01E255FE4F8081F801918189236A
:104E7000D9F0FE01EE0FFF1FE45EFE4F60A9E69E33
:104E8000B001112495E0759567959A95E1F78091A9
:104E90009408680F7C2D8B2D0E947B1E462F282F97
:104EA000672FCE010E947C222196CACFBF92CF925B
:104EB000DF92EF92FF920F931F93CF93DF938C01BA
:104EC000FC01C0818AE0C89FC02D11249AE0F92E10
:104ED000FC0EEF2CF1E3FF1510F481E3E82ED090E7
:104EE0009408D0919508C0909608609197086695AF
:104EF0006695669580919808909199080E947E1E0B
:104F00000E94B81E805887FD8195880F282F3C2D60
:104F1000239F212D1124822F6D2D7D2F0E947B1E1A
:104F2000D62EC72EB82ED0E0CE1578F081E020E343
:104F30002F1508F480E0DF91CF911F910F91FF9022
:104F4000EF90DF90CF90BF900895FE01E255FE4FA5
:104F50008081F8019181892331F02B2D4D2D6C2D0D
:104F6000CE010E947C222196DFCFDF92EF92FF924A
:104F70000F931F93CF93DF938C01FC01E255FE4FFB
:104F80008081682381F1D0909508D0919608C091D6
:104F90009408EC2EF12C0E943651282FC7018C5416
:104FA0009F4F68E671E00E948D508E199F0997FD12
:104FB0000396959587959595879523706C2F289FD7
:104FC000600D11247D2D8D2F0E947B1E462F282FD2
:104FD000672FC801DF91CF911F910F91FF90EF9044
:104FE000DF900C947C22DF91CF911F910F91FF9065
:104FF000EF90DF900895DF92EF92FF920F931F934F
:10500000CF93DF938C01FC01C281C11125C0609157
:10501000970820E1620F08F46FEF80919808909153
:1050200099080E947E1E6AE070E00E947950892BE8
:1050300051F40E94365161E370E00E948D50F801F6
:1050400061810E94B5278C2FDF91CF911F910F9125
:10505000FF90EF90DF900895C0818AE0C89FC02D37
:1050600011248AE0D82EDC0E8D2DF1E3FD1508F415
:1050700081E3D0E0E82EF12CCE15DF0534F0C1E05D
:10508000F0E3FD1500F7C0E0DECFF8016181CE014D
:105090000E94B5272196F0CF1F93CF93DF93EC01A9
:1050A000FC01E255FE4F80816823A1F00E94365139
:1050B000182F0E943651612F782F809196080E94F8
:1050C0007B1E462F282F672FCE01DF91CF911F9196
:1050D0000C947C22DF91CF911F910895DF92EF9283
:1050E000FF920F931F93CF93DF938C01FC01C2813A
:1050F000C11125C06091970820E1620F08F46FEF9D
:1051000080919808909199080E947E1E65E070E059
:105110000E947950892B51F40E94365161E370E06E
:105120000E948D50F80161810E944C288C2FDF91E4
:10513000CF911F910F91FF90EF90DF900895C08164
:105140008AE0C89FC02D11248AE0D82EDC0E8D2D58
:10515000F1E3FD1508F481E3D0E0E82EF12CCE1543
:10516000DF0534F0C1E0F0E3FD1500F7C0E0DECF6D
:10517000F8016181CE010E944C282196F0CFE09188
:105180009006F09191060994CF92DF92EF92FF92F0
:105190000F931F93CF93DF93CDB7DEB728970FB64A
:1051A000F894DEBF0FBECDBFFB018281F12C8823B6
:1051B00041F0AE014F5F5F4F608181810E945822B4
:1051C000F82EE09067070F2D10E0C8018E0D911D9D
:1051D000099764F188E090E06C01C01AD10AB80127
:1051E0006859784FA60188E697E00E944551B801BA
:1051F0006059784FA60180E797E00E944551A601CB
:10520000440F551FB801660F771F6058784F80E82C
:1052100097E00E944551B8016858784FA60188E789
:1052200097E00E944551EA94E09267071091670762
:10523000DE01119640E0842F810FF41212C080939A
:10524000670781E028960FB6F894DEBF0FBECDBF8A
:10525000DF91CF911F910F91FF90EF90DF90CF9052
:1052600008955D91252F30E090E0BC016959784F99
:10527000F901EE0FFF1FE45BFE4F0081FB0101838C
:10528000220F331FF901E45EFE4F21A9FB012187A4
:10529000518B880F991FFC01E959F84F128E118E1E
:1052A0004F5FC9CF08950E9400080C9452294F9275
:1052B0005F926F927F928F929F92AF92BF92CF92A6
:1052C000DF92EF92FF92CF936091900770919107D8
:1052D00080919207909193070E94C53F6B017C01DA
:1052E0000E94AA3F4B015C01809290079092910727
:1052F000A0929207B0929307A0916707E7E6F7E0C4
:105300008A2F90E04FEF5FEF60E070E04C195D098D
:105310006E097F09A91326C08093670780919308BF
:10532000C82FC37019F0C82FC695C69590915E041A
:10533000913009F441C0992341F1923009F425C11B
:10534000933009F42AC1CF91FF90EF90DF90CF9076
:10535000BF90AF909F908F907F906F905F904F9095
:105360000C945329218D328D2901712C612C441507
:1053700055056605770520F481509F5F3296CACFA8
:105380002C0D3D1D328F218FF8CF10925F0480923B
:10539000980890929908A0929A08B0929B0889E286
:1053A000E7E6F7E0ACE9B8E001900D928A95E1F705
:1053B00081E080935E04C7CF90916204C91315C049
:1053C000982F93702091630430E081E092171306C8
:1053D00009F480E0817080936104C53278F4EC2F89
:1053E000F0E0EB52FE4A0C94C05081E0F3CF8823EA
:1053F00059F040E060E080E00E94BF2880E004C0F7
:105400008FE594E00E940A2690915F049F5F90933D
:105410005F04811198CF82E080935E0480916104E3
:10542000811191CFC1118FCF83E0C3CF8FE594E07D
:105430000E944C26E9CF8FE594E00E94A626E4CF97
:105440008FE594E00E94F926DFCF8FE594E00E947B
:105450005627DACF8FE594E00E94DB23D5CF8FE586
:1054600094E00E94DF23D0CF8FE594E00E947C235C
:10547000CBCF8FE594E00E948023C6CF8FE594E0E8
:105480000E940723C1CF8FE594E00E940B23BCCF7D
:105490008FE594E00E94E323B7CF8FE594E00E946C
:1054A000E723B2CF8FE594E00E94EB23ADCF8FE5E9
:1054B00094E00E94EF23A8CF8FE594E00E940F2391
:1054C000A3CF8FE594E00E9484239ECF8FE594E0E4
:1054D0000E94882399CF8FE594E00E94132394CFF4
:1054E0008FE594E00E945A248FCF8FE594E00E94CC
:1054F0005E248ACF8FE594E00E94622485CF8FE5F9
:1055000094E00E94FB2780CF8FE594E00E946E28F4
:105510007BCF8FE594E00E94DC2476CF8FE594E08A
:105520000E94E02471CF8FE594E00E94B0256CCFFB
:105530008FE594E00E94BC2567CF8FE594E00E9440
:10554000C22562CF8FE594E00E94CE255DCF8FE526
:1055500094E00E94D42558CF8FE594E00E94E02586
:1055600053CF8FE594E00E94E6254ECF8FE594E07F
:105570000E94F22549CF8FE594E00E94F82544CFA0
:105580008FE594E00E9404263FCFC09362048370AD
:10559000809363040E94772247CF609198087091AE
:1055A000990880919A0890919B080E94C53F6031AC
:1055B00071058105910508F4C6CE10925E04C3CE34
:1055C000E0918C06F0918D06099510929C088FEF62
:1055D0009FEF9093B6088093B5089093B808809396
:1055E000B7089093BA088093B9089093BC08809349
:1055F000BB089093BE088093BD089093C008809329
:10560000BF089093C2088093C1089093C408809308
:10561000C308109267079093810780938007909347
:1056200083078093820790938507809384079093E4
:1056300087078093860790938907809388079093C4
:105640008B0780938A0790938D0780938C079093A4
:105650008F0780938E070E94D53D811110C08091E5
:10566000540880FF08C081EB95E09F938F930E94C0
:105670000E060F900F900E94803E0E94BC210E9457
:10568000AC21809193088C7F71F48091540880FF45
:1056900008C08CE595E09F938F930E940E060F90B3
:1056A0000F900E94BC210C94DC21809394070895F4
:1056B000CF93C82F8091930891E089278093930816
:1056C00010925E04C1110E94B4218091540880FFA1
:1056D00019C02091930823708BE796E0CC2311F03A
:1056E0008DE796E01F922F939F938F9385E295E02D
:1056F0009F938F930E940E060F900F900F900F9024
:105700000F900F90CF91089581E00C94582BCF9378
:10571000C62F90919308937041F1811128C0946035
:105720009093930810925E04C1110E94B42180915D
:10573000540880FF1AC020919308269526958BE780
:1057400096E0CC2311F08DE796E01F922F939F9364
:105750008F938BE095E09F938F930E940E060F909E
:105760000F900F900F900F900F90CF91089585326A
:1057700010F09069D5CF880F880F982BD1CF61E0BA
:105780000C94872B682F909193089695969581E0BD
:10579000890F853208F081E00C94872B81E00C940E
:1057A000C22B682F90919308969596958FEF890F4D
:1057B00009F484E20C94872B81E00C94D12BCF93D5
:1057C000C22F90919308937079F18093940860931D
:1057D00095084093960821110E94B42180915408A5
:1057E00080FF22C04091960830919508209194083E
:1057F0008BE796E0CC2311F08DE796E01F924F9354
:105800001F923F931F922F939F938F9388EE94E064
:105810009F938F930E940E068DB79EB70A960FB680
:10582000F8949EBF0FBE8DBFCF910895A3E9B8E055
:105830001196EC911197F0E0282F13964C91139745
:1058400012966C91CF0108960C94DF2B81E00C949A
:10585000162CE3E9F8E09181282F43816281E92F3A
:10586000E850FF0BCF010C94DF2B81E00C94292C26
:10587000E3E9F8E0628120E1620F08F46FEF9181C3
:10588000282F4381892F90E00C94DF2B81E00C942A
:10589000382CE3E9F8E0628120E1621B08F460E063
:1058A0009181282F4381892F90E00C94DF2B81E098
:1058B0000C94492CE3E9F8E0438120E1420F08F41D
:1058C0004FEF9181282F6281892F90E00C94DF2B7C
:1058D00081E00C945A2CE3E9F8E0438120E1421B7B
:1058E00008F440E09181282F6281892F90E00C9488
:1058F000DF2B81E00C946B2CCF93C62F80939708FD
:1059000061110E94B4218091540880FF18C0209139
:1059100097088BE796E0CC2311F08DE796E01F9275
:105920002F939F938F9389EC94E09F938F930E9482
:105930000E060F900F900F900F900F900F90CF9139
:1059400008952091970830E1230F08F42FEF682F76
:10595000822F0C947C2C81E00C94A12C2091970830
:1059600030E1231B08F420E0682F822F0C947C2C5C
:1059700081E00C94AE2C60E084E70E94672E61E029
:1059800086E70C94672ECF930E945C3184E70E94D7
:10599000102D86E70E94102DC0E021E041E061E07B
:1059A0008C2F0E94A52DCF5FC133B9F760E084E74B
:1059B0000E947C2E61E086E7CF910C947C2EE5EE70
:1059C000F9E06083418324E630E042E050E0BF012B
:1059D000880F0C94ED310F931F93CF93DF93082F13
:1059E000000FEB0114E21093E509E6EEF9E0DE01A9
:1059F0008D91819389E0E63FF807D1F724E630E006
:105A000041E150E065EE79E0802F0E94ED31105FBA
:105A10006096143B41F7DF91CF911F910F9108954C
:105A2000CF93DF93C82F4BE06DEF0E94DF2C40E057
:105A30006AE08C2F0E94DF2C8FE39CE90197F1F73D
:105A400000C0000040E060E08C2F0E94DF2C40E0AE
:105A500061E08C2F0E94DF2C40E066E08C2F0E94DA
:105A6000DF2C40E06DEF8C2F0E94DF2CD0E040E077
:105A70006D2F8C2F0E94DF2CDF5FD231C1F740E009
:105A80006D2F8C2F0E94DF2CDF5FD432C1F740E0F6
:105A90006D2F8C2F0E94DF2CDF5FD43BC1F74BE0D2
:105AA0006DEF8C2F0E94DF2C41E06AE08C2F0E946A
:105AB000DF2C40E06DEF8C2FDF91CF910C94DF2C29
:105AC0008133910538F5880F991F880F991FFC01C4
:105AD000EA5DFA4F5281338180818370E181A82F82
