:100000000C94DF040C9428050C9428050C94280506
:100010000C9428050C9428050C9428050C942805AC
:100020000C9428050C9428050C94563F0C942C40F5
:100030000C9401350C9428050C9428050C94280583
:100040000C9428050C946C0F0C9428050C9428052E
:100050000C9428050C9476350C9428050C942805EE
:100060000C9428050C9428050C9428050C9428055C
:100070000C9428050C9428050C9428050C9428054C
:100080000C94E80A0C9428050C9428050C94280577
:100090000C9428050C9428057E129512B012A81312
:1000A000BD14F4132D147314751F7E1F831F881F36
:1000B0008D1F921F971F9C1FA11FA61FAB1FB01F54
:1000C000B51FBA1FBF1FC41FC91FCE1FD31FD81F04
:1000D000DD1FE21FE71FEC1FF11FF323F623FB23B5
:1000E000022407240C24112416241B242024252454
:1000F0002A242C242E243024362436243624362454
:1001000036247B2A7B2AAD2AAD2AFA2A2E2C2E2CC5
:100110002E2C182BAD2BBE2BBE2B1E2C2E2C2E2C9A
:10012000272CCA2CCA2CDC2CDC2CD32CDC2CDC2C71
:10013000DC2CCA2CCA2CD82CDC2CDC2CD82C9D40D6
:10014000C440BC41C440BC4110413341BC418A4120
:10015000994107634236B79BD8A71A39685618AE3B
:10016000BAAB558C1D3CB7CC5763BD6DEDFD753EEC
:10017000F6177231BF000000803F08000000BE92F9
:100180002449123EABAAAA2ABECDCCCC4C3E0000DC
:100190000080BEABAAAAAA3E00000000BF0000007B
:1001A000803F0000000000084178D3BB4387D11393
:1001B0003D190E3CC3BD4282AD2B3E68EC8276BE3B
:1001C000D98FE1A93E4C80EFFFBE01C4FF7F3F0005
:1001D00000000000290014001A0008001500170094
:1001E0001C0018000C00120013002A002B00040051
:1001F0001600070009000A000B000D000E000F009A
:1002000033003400E1001D001B000600190005004A
:100210001100100036003700520028000451E000A1
:10022000E300E20001512C002C0002513800500084
:1002300051004F0035001E001F0020002100220049
:10024000230024002500260027002A002B002E0270
:100250002D002E00000000000000210022002300DD
:100260002E022D00E1000000000000000000000050
:1002700000001E001F002000A90028000000E00070
:10028000E200E30001002C002C00035127002E00A7
:10029000AA00A80035021E021F022002210222022B
:1002A000230224022502260227024C002B003A00DA
:1002B0003B003C003D003E003F002D002E022F027F
:1002C00030023102E100400041004200430044009E
:1002D00045002D0235022F00300028000000E0000C
:1002E000E300E20003512C002C0001003800500014
:1002F00051004F000000005C000000000000000002
:1003000000000000C55CC65C0000000000001D5C31
:100310001E5C00000000000000000000C75CC85C1C
:10032000000000000000265C275C295C0000000043
:1003300000000000C95CCA5C0000000000002B5CEB
:100340002A5C00000100000000000100C25CC35CE8
:10035000000000003A003B003C003D003E003F0032
:1003600040004100420043004400450000000000FE
:10037000000000000000000000000000000000007D
:10038000000000000000000000000000000000006D
:10039000000000000000000000000000010000005C
:1003A000000000000000000000000000000000004D
:1003B0000000000044454255473A20646973616279
:1003C0006C65642E0A0044454255473A20656E61CB
:1003D000626C65642E0A000A002530313662003AEC
:1003E000200025303258000A722F6320303132331A
:1003F0003435363738394142434445460A00617541
:1004000064696F20706C6179206E6F74652066720C
:1004100065713D256420766F6C3D256400617564CF
:10042000696F2073746F70206E6F746520667265DB
:10043000713D256400617564696F2073746F70206D
:10044000616C6C206E6F74657300726762206D6101
:100450007472697820736574207370656564205BBD
:1004600025735D3A2025750A00726762206D6174FC
:100470007269782073657420687376205B25735DDC
:100480003A2025752C25752C25750A007267622087
:100490006D6174726978206D6F6465205B25735D92
:1004A0003A2025750A00726762206D61747269785E
:1004B00020746F67676C65205B25735D3A207267F7
:1004C000625F6D61747269785F636F6E6669672ED3
:1004D000656E61626C65203D2025750A0072676259
:1004E0005F6D61747269785F696E69745F64726967
:1004F00076657273207267625F6D61747269785F8E
:10050000636F6E6669672E6D6F6465203D20302EC7
:100510002057726974652064656661756C74207615
:10052000616C75657320746F20454550524F4D2E98
:100530000A007267625F6D61747269785F696E69E3
:10054000745F64726976657273206565636F6E6649
:100550006967206973206E6F7420656E61626C65D7
:10056000642E0A007267625F6D61747269785F63FE
:100570006F6E6669672E7370656564203D20256423
:100580000A007267625F6D61747269785F636F6E93
:100590006669672E6873762E76203D2025640A00F2
:1005A0007267625F6D61747269785F636F6E6669AE
:1005B000672E6873762E73203D2025640A007267CB
:1005C000625F6D61747269785F636F6E6669672ED2
:1005D0006873762E68203D2025640A007267625F8A
:1005E0006D61747269785F636F6E6669672E6D6F97
:1005F0006465203D2025640A007267625F6D617446
:100600007269785F636F6E6669672E656E61626C92
:1006100065203D2025640A007267625F6D61747217
:1006200069785F636F6E66696720454550524F4D2C
:100630000A006565636F6E6669675F7570646174F3
:10064000655F7267625F6D61747269785F64656629
:1006500061756C740A0000010101010101010101D1
:100660000202020202020202020303030303030363
:100670000304040404040404050505050506060630
:100680000606070707070708080808090909090AED
:100690000A0A0B0B0B0C0C0C0D0D0D0E0E0E0F0F92
:1006A0000F10101111111212131314141515161620
:1006B0001717181819191A1A1B1B1C1D1D1E1E1F8F
:1006C0002020212222232424252626272829292ADE
:1006D0002B2C2D2D2E2F3031323233343536373806
:1006E000393A3B3C3D3E3F40414243444546474802
:1006F000494A4C4D4E4F50515354555658595A5BD8
:100700005D5E5F616264656668696B6C6D6F707277
:10071000737577787A7B7D7E8082838587888A8CE3
:100720008E8F91939596989A9C9EA0A2A3A5A7A917
:10073000ABADAFB1B3B5B7BABCBEC0C2C4C6C9CB0E
:10074000CDCFD1D4D6D8DBDDDFE2E4E7E9EBEEF0C4
:10075000F3F5F8FAFDFF0A002530325820006B65EA
:1007600079626F6172645F7265706F72743A2000B3
:100770000A0025303258006B6579626F6172645FE0
:100780007365745F6C65643A200064656C5F6B65CB
:10079000795F6269743A2063616E27742064656CC6
:1007A0003A20253032580A006164645F6B65795FD6
:1007B0006269743A2063616E2774206164643A2030
:1007C000253032580A004B6579626F61726420737C
:1007D000746172742E0A005B575D005B535D005BB1
:1007E000525D005B445D005B435D0004033000002C
:1007F000001A0350006C0061006E0063006B002063
:10080000004C00690067006800740000000A034F94
:10081000004C004B0042000000040309040902BF21
:1008200000050100A0FA090400000103010100090C
:1008300021110100012240000705810308000A0977
:100840000401000103000000092111010001226DD3
:10085000000705820320000A0904020002030000C9
:100860000009211101000122220007058303200055
:100870000107050303200001080B0302010100002A
:10088000090403000001010000092401000109001E
:10089000010409040400020103000007240100010F
:1008A000410006240201010006240202020009247C
:1008B00003010301020100092403020401010100F4
:1008C0000905050240000500000525010101090593
:1008D00084024000050000052501010312011001FA
:1008E00000000008EDFE6560010001020301063111
:1008F000FF0974A1010975150026FF0095207508F0
:1009000081020976150026FF00952075089102C026
:1009100005010980A101850319012AB700150126E7
:10092000B700950175108100C0050C0901A1018572
:100930000419012AA002150126A002950175108153
:1009400000C005010906A1018505050719E029E791
:10095000150025019508750181020507190029EF89
:100960001500250195F07501810205081901290579
:10097000950575019102950175039101C005010965
:1009800006A101050719E029E7150025019508755D
:100990000181029501750881010507190029FF15DC
:1009A0000026FF0095067508810005081901290534
:1009B000950575019102950175039101C0001124FF
:1009C0001FBECFEFD0E2DEBFCDBF04B603FE27C00F
:1009D0008091FD099091FE09A091FF09B091000A54
:1009E0008730904BA740B04BD1F41092FD09109284
:1009F000FE091092FF091092000A14BE84B7877F87
:100A000084BF0FB6F894A8958091600088618093A8
:100A10006000109260000FBEE0E0F0EF099516E074
:100A2000A0E0B1E0E8EAFEE800E00BBF02C00790FA
:100A30000D92A634B107D9F729E0A6E4B6E001C0CB
:100A40001D92AD3FB207E1F70E94663C0C945247FD
:100A50000C940000FF93EF93E0914606F091470657
:100A6000309709F00995EF91FF910895FC01859168
:100A7000803011F0EFDFFBCF0895FF27E0E230E296
:100A800047FF0CC0419597FF09C0EDE26095709556
:100A900080959095611D711D811D911D27FF02C0DC
:100AA000219530E350E2AA27660F771F881F991F10
:100AB000AA1FA41710F0A41B63955A95A9F7AA3092
:100AC00008F0A95FA05DAF93F395611571058105ED
:100AD000910541F7ED3211F4EF93F395F21718F405
:100AE0003F93F395FBCF8F91B5DFFA95E1F708952A
:100AF000E991F9918591803021F0853219F0AADFD2
:100B0000F9CF089520E0E89455915532C1F3503360
:100B100011F4689455915A3348F4505390F3220FCE
:100B2000022E220F220F200D250FF4CF0EF4219557
:100B300089919991533619F3533729F1533559F166
:100B4000BC0188279927E8945C3621F48991999112
:100B500068945591543639F446EF7EF077FF0DC016
:100B60008FEF9FEF0AC055374AE039F0583540E122
:100B700021F0523642E009F00895FF93EF937DDFB4
:100B8000EF91FF91B7CFFF93EF93FC0181918030FC
:100B9000B9F360DFFBCFFF93EF9368DFF1CFDF9313
:100BA000CF93CDB7DEB72596A3DFCF91DF91089520
:100BB000569A5E9A0C9450090C94E7050C944E09D1
:100BC00080E00E9457200C94F83481E0089581E081
:100BD000089508950C94E9051F93CF93DF9300D0F7
:100BE00000D01F92CDB7DEB749835A836B83309113
:100BF000FD0689819A81311114C0662359F02223A0
:100C000049F00E940632182F682F89819A810E942C
:100C1000AF3103C00E94DA31182F69817A81812FA8
:100C200004C00E94063269817A810F900F900F9064
:100C30000F900F90DF91CF911F910C94F506FC015E
:100C4000262F408151816281738184810C94EC054F
:100C5000CF93DF93EC0160E00E941F06BE01DF919D
:100C6000CF910C94EA050E94C2350E94683381112D
:100C700002C00E9411340E94F90F0E9428200C9497
:100C8000D8050E9409150E94281F0C94DE050895BE
:100C90000C94470681E008950C944A06CF93C82F20
:100CA0000E9448068C2F0E944C06CF91089508950B
:100CB000CF93DF930E94B82C0E94CE140E9433354C
:100CC000EC0140E063E070E087EC91E00E94760F79
:100CD0000E945706CE010E944B358A3F910538F499
:100CE0008FE99FE00197F1F700C00000F3CF0E9469
:100CF0006A10DF91CF910C949C350F931F93CF9383
:100D0000DF93EC0161E00E941F068C01BE010E948E
:100D10001F1F882309F45EC0BE01C8010E94DC05C4
:100D2000882309F457C0BE01C8010E949D0A882388
:100D300009F450C0BE01C8010E946D15882309F452
:100D400049C0BE01C8010E94D424882309F442C0CE
:100D5000BE01C8010E9426258823E1F1BE01C80119
:100D60000E947E268823B1F1BE01C8010E94DC23C7
:100D7000882381F18A81882331F101308CE51807BD
:100D800051F00E3D8CE51807D9F001151C45D9F43A
:100D90000E9458061FC080918107C82FC095C1705E
:100DA000C0FB80F980938107CC2329F086EC93E087
:100DB0000E9436050FC084EB93E00E9436050BC0FD
:100DC0000E94113407C0CE01DF91CF911F910F9186
:100DD0000C94E505C0E08C2FDF91CF911F910F910E
:100DE000089580E090E00895089520E3829FC00177
:100DF0001124FC012CE0729FE00DF11D1124E60F7F
:100E0000F11DEE0FFF1FEC52FE4F85919491089556
:100E1000880F991FFC01E952FC4F85919491089528
:100E2000CF93DF930E94F5060E942208EC01811502
:100E3000904508F043C0C11580E4D80708F0CBC046
:100E4000C03ED10528F5C03CD10508F0B3C0C83A72
:100E5000D10578F4C53AD10508F0A4C0C130D10558
:100E600009F4ECC008F4E8C0C430D10508F0E6C0CD
:100E7000E3C0CF3BD10508F0DFC0C85AD0E0CC0FAB
:100E8000DD1FC45BDA4F0990D881C02DD464D6C071
:100E9000C11590E2D90750F4C11521E0D20708F03E
:100EA000CDC0C83ED10508F4C9C0C6C0C11580E395
:100EB000D80708F086C0CE019F707FC0C11595E5A8
:100EC000D90708F043C0C11524E5D20708F09AC03D
:100ED000C11582E5D80708F5C11591E5D90708F0D5
:100EE0007DC0CE0174E0969587957A95E1F7837081
:100EF0009C2F937021E030E002C0220F331F9A959F
:100F0000E2F73C68382BCF70C695C69580E2C89F43
:100F1000E0011124C22BD32B91C09E0123703327F3
:100F20008C2F86958695C115D34508F05CC0C1E02D
:100F3000D0E002C0CC0FDD1F2A95E2F720E2829FAD
:100F4000C0011124C82BD92BDC6878C0C11529E554
:100F5000D207A0F4C11588E5D80708F058C0C1151C
:100F600096E5D90708F068C08C2F0E94B6088F71EB
:100F7000C82FD0E0DC2FCC27D06260C0C1152AE595
:100F8000D20708F449C0CE0190568115904208F06E
:100F900053C08D2F8F710E94B608DD27D0628F71EC
:100FA000D82B4CC0C55AD0E0C658DA4FC881D0E023
:100FB000D06444C0CE01805C91090E940807EC0116
:100FC0003DC0CE019927D3FF03C0EC01D86C36C0D9
:100FD000EC01D06C33C0DF70D06A30C0DC2FCC277E
:100FE000C16FD06A2BC0C1E0D0E002C0CC0FDD1FC2
:100FF0002A95E2F720E2829FC0011124C82BD92B49
:10100000DA681CC0DC2FCC27C46FD06A17C0DC2F75
:10101000CC27C06FD06A12C08C2F8F700E94B60888
:1010200094E0D695C7959A95E1F7CF70D0E0DC2F84
:10103000CC27D069C82B02C0C0E0D0E0CE01DF9140
:10104000CF9108958238910569F1B0F4813391050B
:1010500009F46DC048F48932910509F463C08A32FD
:10106000910509F469C008958533910509F455C0C7
:1010700089339105B9F00895833E910569F138F4FB
:10108000803E9105B1F0823E910509F10895863EBA
:101090009105A9F1873E9105B9F1843E910509F0CA
:1010A00064C023C02091010920FD4FC021FD4DC027
:1010B00008958091010980FD44C08091020980FF5C
:1010C00044C08091010984FD42C083EE4DC08091EF
:1010D000010982FF38C0F5CF8091010982FD33C03C
:1010E0008091020980FD31C0ECCF8091020981FF1F
:1010F00032C08091010984FD2AC087EE35C08091FD
:10110000010983FF26C0F5CF8091010983FD21C02D
:101110008091020981FD1FC0ECCF8091010985FDFE
:101120001CC01DC08091010985FD19C016C08091A9
:10113000010986FD16C017C08091010986FD13C004
:1011400010C089E311C082EE0FC080EE0DC080E0B8
:101150000BC086EE09C084EE07C089E205C085E3B6
:1011600003C08AE201C081E390E0089590910109F3
:1011700092FF0DC0282F2871283019F4877F8460D2
:1011800006C0282F2471243011F48B7F886093FFD0
:101190000DC0282F2871283119F4877E846106C07C
:1011A000282F2471243111F48B7E8861209102094B
:1011B00020FF0DC0382F3871383019F4877F8160D7
:1011C00006C0382F3171313011F48E7F886021FFD5
:1011D0000DC0282F2871283119F4877E816106C03F
:1011E000282F2171213111F48E7E886194FD877E34
:1011F0000895E82FF0E0EE0FFF1FE055F84F8081D3
:1012000091810895CF92DF92EF92FF920F931F93F7
:10121000CF93DF9387EE93E00E94360580EBE82EB4
:1012200087E0F82EC0E0D0E092EEC92E93E0D92EF0
:1012300009ED13E0DF93CF93DF92CF920E94CF05A9
:101240008FED93E00E943605F701819191917F0126
:101250000E944F339F938F931F930F930E94CF054C
:1012600087ED93E00E94360521968DB79EB70896CC
:101270000FB6F8949EBF0FBE8DBFC430D105D1F616
:10128000DF91CF911F910F91FF90EF90DF90CF9062
:10129000089580EA8A95F1F7089508950C944D0910
:1012A0000C944D09CF93DF93A9E8B5E04DE855E0E4
:1012B00061E070E08D91E82FE295EF70F0E021A100
:1012C0008F70EB0102C0CC0FDD1F8A95E2F7CE01D3
:1012D0009C2F9095922391A392A1892B82A34A17C8
:1012E0005B0741F7ADE7B5E041E050E08D91E82FB5
:1012F000E295EF70F0E021A18F70BA0102C0660F95
:10130000771F8A95E2F7CB01962F9095922391A3B0
:1013100092A1892B82A375E0A938B70739F71092FB
:10132000A9071092A8071092B1071092B007109267
:10133000AB071092AA071092B3071092B20710924F
:10134000AD071092AC071092B5071092B407109237
:10135000AF071092AE071092B7071092B60784E05D
:101360000E94430ADF91CF910C9433066F927F92D3
:101370008F929F92AF92BF92CF92DF92EF92FF92A5
:101380000F931F93CF93DF9389E8C82E85E0D82E63
:1013900008EA17E090EBA92E97E0B92E712C88246B
:1013A0008394912CF60181916F01C82FC295CF7063
:1013B000D0E099A18F70740101C0EE0C8A95EAF714
:1013C000892F8E2989A38AA16E2C609486218AA3F5
:1013D0000E944909EDE7F5E040E050E020E030E010
:1013E0006191A62FA295AF70B0E090968C9190E09D
:1013F0006F7002C0959587956A95E2F780FD08C0E9
:10140000C401042E02C0880F991F0A94E2F702C09B
:1014100080E090E0282B392B4F5F5F4F4C30510517
:10142000F9F689A1682269A28AA1E82AEAA2F8014C
:10143000808191812817390721F03183208381E051
:1014400001C080E0782A0E5F1F4FA016B10609F098
:10145000A9CF272D44E060EB77E088EA97E00E946F
:10146000440A0E944106872DDF91CF911F910F9171
:10147000FF90EF90DF90CF90BF90AF909F908F90B4
:101480007F906F9008950895FF920F931F93CF93CD
:10149000DF93F82E092F162FD72FC42F222349F0C0
:1014A00081E080934A060E943335909349068093E9
:1014B000480680914A068823D9F080914806909189
:1014C00049060E944B35069798F0EF2DF02FA12F7B
:1014D000BD2F80E090E04C2F50E08417950734F446
:1014E000219131912D933D930196F7CF10924A06A9
:1014F000DF91CF911F910F91FF900895682F70E0B9
:1015000065547109072E000C880B990B0E940B4340
:1015100020E030E040E451E40E9461429B01AC01D4
:1015200060E070E080E090E40E948F4420E030E0D2
:101530004CED53E40E9422440895FB018D312CE5CB
:10154000920731F482818823A1F10E940D122FC0ED
:101550008E312CE5920731F48281882351F10E946B
:101560001D1225C08F312CE5920741F4828188231A
:1015700001F10E9409128111F2CFE7CF8A322CE5E6
:10158000920731F482818823A1F00E94361208C0AC
:101590008B329C4571F48281882359F00E943F125E
:1015A00040E064E070E08FED91E00E94760F80E013
:1015B000089581E008950E947E0A4FE050E00C9467
:1015C0007B110E947E0A0C94BB100C946A10089543
:1015D0001F920F920FB60F9211240BB60F924F92DB
:1015E0005F926F927F928F929F92AF92BF92CF92B3
:1015F000DF92EF92FF922F933F934F935F936F93FE
:101600007F938F939F93AF93BF93CF93DF93EF938A
:10161000FF9380915F06882309F4DAC2C091A10686
:10162000D091A2061C161D060CF0D2C2C130D10505
:1016300009F433C120E030E0A90160914E067091B9
:101640004F0680915006909151060E945C42811194
:10165000D5C0809137022297882309F4B4C0C09086
:101660009706D0909806E0909906F0909A0620E0B0
:1016700030E0A901C701B6010E945C42882309F449
:10168000A2C0FE01EE0FFF1FEE0FFF1FEB58F94F38
:1016900080809180A280B380A5019401C701B6012A
:1016A0000E945C4287FF31C0A501940160E070E0B8
:1016B0008CED93EC0E94614220E030E040E451E484
:1016C0000E94614220E030E040E05FE30E9422445B
:1016D0009B01AC0160E070E080E090E40E948F44E8
:1016E0009B01AC01C501B4010E9422449B01AC01E5
:1016F000C701B6010E945C4287FF07C0A70196019F
:1017000060E070E08CED93E439C0A5019401C7015D
:10171000B6010E941D4418160CF055C0A501940195
:1017200060E070E08CED93E40E94614220E030E0E4
:1017300040E451E40E94614220E030E040E05FE399
:101740000E9422449B01AC0160E070E080E090E4E4
:101750000E948F449B01AC01C501B4010E94224448
:101760009B01AC01C701B6010E941D4418165CF52F
:10177000A701960160E070E08CED93EC0E9461425D
:1017800020E030E040E451E40E94614220E030E09B
:1017900040E05FE30E9422449B01AC0160E070E006
:1017A00080E090E40E948F449B01AC01C701B60128
:1017B0000E9422446093970670939806809399063E
:1017C00090939A0612C0CC0FDD1FCC0FDD1FCB58B3
:1017D000D94F88819981AA81BB8180939706909384
:1017E0009806A0939906B0939A0660919706709117
:1017F00098068091990690919A0603C060E070E087
:10180000CB0120914B0630914C062F3F4FEF340710
:1018100031F02F5F3F4F30934C0620934B060E94D0
:1018200048126B017C0120E034E244EF51E40E9455
:101830005C4287FF08C0B6EFCB2EB8E2DB2EB4EFD8
:10184000EB2EB1E4FB2E20E030E040E051E4C70194
:10185000B6010E9422449B01AC0160E074E284E77F
:101860009BE40E9461426B017C010E94DA4270930A
:1018700087006093860020913802309139024091B0
:101880003A0250913B02C701B6010E9422440E94D5
:10189000DA42709389006093880040904E06509021
:1018A0004F06609050067090510620E030E0A9018C
:1018B000C301B2010E941D44C091A106D091A206AD
:1018C00018160CF065C0C230D1050CF452C08091DE
:1018D0009F069091A006BE010E9426467C0190932F
:1018E000A00680939F068090610690906206A0906B
:1018F0006306B090640620E030E040E85FE3C50195
:10190000B4010E94F0416093610670936206809377
:10191000630690936406F701EE0FFF1FEE0FFF1FA3
:10192000EB58F94FA301920160817181828193810B
:101930000E94614220E030E040E05EE30E942244E9
:101940009B01AC01C501B4010E941D4418168CF422
:10195000C7010196BE010E9426469093A00680937F
:101960009F06109261061092620610926306109212
:101970006406E0919F06F091A006EE0FFF1FEE0FA8
:10198000FF1FEB58F94F6081718182819381D4C030
:1019900080913702882309F4B4C0C0909B06D09090
:1019A0009C06E0909D06F0909E0620E030E0A901A4
:1019B000C701B6010E945C42882309F4A2C0FE015F
:1019C000EE0FFF1FEE0FFF1FEF58F94F8080918041
:1019D000A280B380A5019401C701B6010E945C42B8
:1019E00087FF31C0A501940160E070E08CED93ECBD
:1019F0000E94614220E030E040E451E40E946142F4
:101A000020E030E040E05FE30E9422449B01AC0113
:101A100060E070E080E090E40E948F449B01AC01A4
:101A2000C501B4010E9422449B01AC01C701B6016B
:101A30000E945C4287FF07C0A701960160E070E04A
:101A40008CED93E439C0A5019401C701B6010E9451
:101A50001D4418160CF055C0A501940160E070E01B
:101A60008CED93E40E94614220E030E040E451E4D8
:101A70000E94614220E030E040E05FE30E942244A7
:101A80009B01AC0160E070E080E090E40E948F4434
:101A90009B01AC01C501B4010E9422449B01AC0131
:101AA000C701B6010E941D4418165CF5A7019601F6
:101AB00060E070E08CED93EC0E94614220E030E049
:101AC00040E451E40E94614220E030E040E05FE306
:101AD0000E9422449B01AC0160E070E080E090E451
:101AE0000E948F449B01AC01C701B6010E942244B1
:101AF00060939B0670939C0680939D0690939E0630
:101B000013C0FE01EE0FFF1FEE0FFF1FEF58F94F3E
:101B100080819181A281B38180939B0690939C06E2
:101B2000A0939D06B0939E0660919B0670919C06C3
:101B300080919D0690919E0620914B0630914C0617
:101B40002F3F4FEF340731F02F5F3F4F30934C065C
:101B500020934B060E9448126B017C0120E034E286
:101B600044EF51E40E945C4287FF08C046EFC42E58
:101B700048E2D42E44EFE42E41E4F42E20E030E09D
:101B800040E051E4C701B6010E9422449B01AC0130
:101B900060E074E284E79BE40E9461426B017C0197
:101BA0000E94DA4270939700609396002091380269
:101BB0003091390240913A0250913B02C701B6017F
:101BC0000E9422440E94DA42709399006093980028
:101BD00080916006882309F456C1C0905B06D090BE
:101BE0005C06E0905D06F0905E0620E030E0A90122
:101BF000C701B6010E941D441816D4F580914B060A
:101C000090914C068F3F2FEF920729F00196909309
:101C10004C0680934B06C701B6010E94481220E093
:101C200030E040E051E40E9422449B01AC0160E0BE
:101C300074E284E79BE40E9461426B017C010E9494
:101C4000DA427093970060939600209138023091A9
:101C5000390240913A0250913B02C701B6010E94FD
:101C600022440E94DA42709399006093980008C061
:101C7000109297001092960010929900109298007E
:101C800060915506709156066F5F7F4F70935606B0
:101C900060935506209196003091970080E090E087
:101CA000232B71F12091540621112AC0C091960076
:101CB000D09197000E9409436B017C01BE0180E036
:101CC00090E00E9409439B01AC016091570670911E
:101CD00058068091590690915A060E94614220E070
:101CE0003FEF4FE757E40E94224420E030E040E815
:101CF0005FE30E94EF419B01AC01C701B6010AC03E
:101D00000E94094320915706309158064091590688
:101D100050915A060E941D4487FDB5C0809152061D
:101D2000909153060196909353068093520620910A
:101D3000B8073091B90782179307B0F08091BF07B9
:101D4000882329F010925306109252060DC08091FC
:101D500071008D7F80937100809190008F738093CC
:101D600090001092600697C0209154068091520610
:101D700090915306E091BA07F091BB0721113FC043
:101D800021E0209354069C012150310930935306E1
:101D90002093520633E0880F991F3A95E1F7E80F38
:101DA000F91FDF011897CD90DD90ED90FC90208118
:101DB000318142815381C701B6010E945C42811189
:101DC00009C010925B0610925C0610925D0610929C
:101DD0005E0608C0C0925B06D0925C06E0925D068B
:101DE000F0925E0680E090E0A0E8BFE380935706A3
:101DF00090935806A0935906B0935A0640C010928B
:101E0000540610924C0610924B0623E0880F991F3F
:101E10002A95E1F7E80FF91F80819181A281B381B2
:101E200080935B0690935C06A0935D06B0935E067C
:101E300020E030E040E85EE364817581868197812F
:101E40000E9422446B017C0160913C0270E080E0C2
:101E500090E00E94094320E030E048EC52E40E9408
:101E600061429B01AC01C701B6010E94224460930C
:101E70005706709358068093590690935A0610920D
:101E80005606109255068091BC0780FD04C0109242
:101E9000600610925F06FF91EF91DF91CF91BF91A5
:101EA000AF919F918F917F916F915F914F913F91F2
:101EB0002F91FF90EF90DF90CF90BF90AF909F90C9
:101EC0008F907F906F905F904F900F900BBE0F9010
:101ED0000FBE0F901F9018951F920F920FB60F9282
:101EE00011240F900FBE0F901F901895CF92DF9284
:101EF000EF92FF92CF93DF93EC016B01F42E809170
:101F00004D06811102C00E94F90F8091BC0780FF2D
:101F100069C0809171008D7F8093710080916F0006
:101F20008D7F80936F0080915F0681110E946A10FF
:101F300081E080936006D093BB07C093BA07D0922C
:101F4000B907C092B807F092BF07109261061092CD
:101F50006206109263061092640610925306109265
:101F6000520688819981AA81BB8180935B069093F8
:101F70005C06A0935D06B0935E0620E030E040E88A
:101F80005EE36C817D818E819F810E9422446B0182
:101F90007C0160913C0270E080E090E00E94094387
:101FA00020E030E048EC52E40E9461429B01AC0129
:101FB000C701B6010E9422446093570670935806E9
:101FC0008093590690935A06109256061092550621
:101FD0008091710082608093710080919000806890
:101FE00080939000DF91CF91FF90EF90DF90CF90A2
:101FF00008950F931F93CF93DF930E94683381114D
:1020000002C00E9411340E9499338093BC078091D2
:102010004D0681114BC03E9A809171008D7F809357
:102020007100259A80916F008D7F80936F0002E090
:10203000009390001AE110939100C1ECD1E1D0938C
:102040009700C093960023EA3BE04EE855E4609188
:1020500038027091390280913A0290913B020E94BD
:1020600022440E94DA427093990060939800009392
:10207000800010938100D0938700C093860023EAEC
:102080003BE04EE855E4609138027091390280914E
:102090003A0290913B020E9422440E94DA427093DD
:1020A00089006093880081E080934D068091BC0791
:1020B00080FF0BC040E063E070E08FE192E0DF91D1
:1020C000CF911F910F910C94760FDF91CF911F91BB
:1020D0000F9108958091810780FF08C085E394E007
:1020E0009F938F930E94CF050F900F9080914D0684
:1020F000811102C00E94F90F1092A2061092A1064F
:10210000809171008D7F80937100809190008F731A
:102110008093900080916F008D7F80936F008091FD
:1021200080008F73809380001092600610925F068B
:1021300010929B0610929C0610929D0610929E068D
:1021400010929706109298061092990610929A068D
:102150001092960610929506E5E7F6E0A5E6B6E041
:1021600011921192119211921D921D9286E0E53901
:10217000F807B1F70895CF92DF92EF92FF920F9395
:102180001F93CF93DF936B017C018091810780FFC8
:1021900010C0C701B6010E94D3427F936F938DE1B7
:1021A00094E09F938F930E94CF050F900F900F9014
:1021B0000F9080915F06882309F494C080914D06AA
:1021C000811102C00E94F90F05E916E0C7E0D0E0D6
:1021D000F80152914291329122918F01C701B601CB
:1021E0000E945C42811131C0FE01EE0FFF1FEE0F15
:1021F000FF1FEB58F94F1082118212821382DE0109
:10220000AA0FBB1FAB59B94F11961C921E92C73033
:10221000D105E9F02196448155816681778140831B
:1022200051836283738314821582168217821296F9
:102230008D919C91139711969C938E9313961C925B
:102240001E92129734961296E2CF219708F680914B
:10225000A1069091A206019797FD05C09093A20652
:102260008093A10604C01092A2061092A10680914C
:10227000A1069091A20620919F063091A0062817F2
:10228000390724F01092A00610929F06892B51F571
:10229000809171008D7F80937100809190008F7389
:1022A0008093900080916F008D7F80936F0080916C
:1022B00080008F738093800010929B0610929C0682
:1022C00010929D0610929E06109297061092980604
:1022D0001092990610929A06109296061092950600
:1022E00010925F06DF91CF911F910F91FF90EF90B9
:1022F000DF90CF900895CF92DF92EF92FF92CF932D
:10230000DF936B017C01D42FC52F8091810780FF63
:1023100014C05F934F93C701B6010E94D3427F93CD
:102320006F938EEF93E09F938F930E94CF050F9052
:102330000F900F900F900F900F9080914D0681118C
:1023400002C00E94F90F8091BC0780FF5BC08091A2
:10235000A1069091A20608970CF054C080917100DC
:102360008D7F8093710080916F008D7F80936F00CF
:102370008091600681110E946A1081E080935F065F
:1023800010924C0610924B0620E030E0A901C701E4
:10239000B6010E941D441816DCF48091A1069091AC
:1023A000A206FC01EE0FFF1FEE0FFF1FEB58F94FC7
:1023B000C082D182E282F382FC01EE0FFF1FEB5953
:1023C000F94FD083C18301969093A2068093A10612
:1023D000809171008260809371008091900080688C
:1023E000809390008091A1069091A206029754F0EC
:1023F00080916F00826080936F0080918000806880
:1024000080938000DF91CF91FF90EF90DF90CF908D
:1024100008958091BC07817008958091BC07816008
:102420008093BC070E949D330E94E70A40E062E06F
:1024300070E08FE092E00C94760F40E062E070E094
:102440008FEF91E00E94760F2FEF81EE94E0215004
:1024500080409040E1F700C000000E946A10809127
:10246000BC078E7F8093BC070C949D338091A3069C
:1024700090E00196877099278093A3060895809134
:10248000A30690E00796877099278093A306089586
:102490008F929F92AF92BF92CF92DF92EF92FF9274
:1024A000CF93DF936B017C01C0914B06D0914C061A
:1024B000BE0180E090E00E9409434B015C01A7014E
:1024C000960160E070E08CE594E40E9461429B011B
:1024D000AC01C501B4010E9422440E94DA429B0172
:1024E000E091A3068E2E912C48E08416910408F00A
:1024F00044C2F401E45BFF4F0C943A461092370259
:1025000080E090E0A0E0BFE380933802909339022E
:10251000A0933A02B0933B0210924E0610924F06DF
:10252000109250061092510628C210923702109253
:102530004E0610924F0610925006109251066431CA
:10254000710528F46A30710508F449C104C0693C7A
:10255000710508F044C180E090E0A0E8BEE373C0DC
:102560001092370210924E0610924F0610925006AB
:102570001092510620E030E040EA52E4C701B60173
:102580000E945C4287FDF9C120E030E040E253E464
:10259000C701B6010E945C4287FF2FC00E948E4691
:1025A00068E270E00E942646BC01645C7F4F072E03
:1025B000000C880B990B0E940B436B017C018091EE
:1025C0004B0690914C068B309105C8F185319105F1
:1025D00008F080C165E170E0681B790B80E090E055
:1025E0000E94094320E030E040E05FE30E94224483
:1025F00020E030E040E251E4A8C020E030E040EAD2
:1026000053E4C701B6010E945C4287FF2CC00E94C0
:102610008E4668EE73E00E942646BC0168517C4FEE
:10262000072E000C880B990B0E940B436B017C0159
:1026300080914B0690914C068630910568F480E0BD
:1026400090E0A0E0BFE38093380290933902A0931A
:102650003A02B0933B0291C18531910508F03AC12D
:1026600065E170E062C020E030E040E254E4C70180
:10267000B6010E945C4287FF2FC00E948E4660ED2B
:1026800077E00E942646BC016854744F072E000C68
:10269000880B990B0E940B436B017C0180914B06C8
:1026A00090914C068031910550F28531910508F0EA
:1026B00011C165E170E0681B790B80E090E00E9439
:1026C000094320E030E040E05FE30E94224420E044
:1026D00030E040EA50E439C020E030E040EA54E421
:1026E000C701B6010E945C4287FF47C10E948E4627
:1026F00060ED77E00E942646BC016854744F072EB7
:10270000000C880B990B0E940B436B017C0180919C
:102710004B0690914C068432910508F490CF833398
:10272000910508F0D7C063E370E0681B790B80E087
:1027300090E00E94094320E030E040E05FE30E9427
:10274000224420E030E040E751E40E9461427CC036
:1027500041E04093370210924E0610924F061092BD
:102760005006109251066431710540F46A307105CB
:1027700060F520E030E040E85EE32BC0693C710585
:1027800008F0A8C080E090E00E94094320E030E01B
:1027900040EA51E40E94EF4120E030E044E353E49A
:1027A0000E9461429B01AC010E94224420E030E083
:1027B00040E05EE30E9422449B01AC0160E070E0D7
:1027C00080E09EE30E94EF413FC020E030E040E027
:1027D0005FE3C701B6010E9422446B017C0180E0E7
:1027E00090E0A0E0BEE32FCF21E0209337021092CB
:1027F0004E0610924F0610925006109251064AE073
:10280000469F9001479F300D1124C90168EB7BE082
:102810000E941246BC016C5D754077FF03C0719544
:1028200061957109072E000C880B990B0E940B43D0
:102830002EE333EC4EE259E30E94224420E030E0E4
:1028400040EC5EE30E94F0416093380270933902DD
:1028500080933A0290933B0290C081E080933702CC
:1028600010924E0610924F0610925006109251068A
:10287000CE0183709927892BE1F0BE016170772723
:1028800080E090E00E94094320E030E040E05EE319
:102890000E94224420E030E040E45FE30E94F041E7
:1028A000609338027093390280933A0290933B020E
:1028B0000CC080E090E0A0E0BFE3809338029093EA
:1028C0003902A0933A02B0933B02C770DD27CD2BAB
:1028D00009F053C0109238021092390210923A0255
:1028E00010923B024AC041E04093370210924E06DC
:1028F00010924F061092500610925106812C912C86
:10290000A12C9FE3B92E8092380290923902A092B6
:102910003A02B0923B022739310578F180E090E02D
:102920000E94094320E030E047E153E40E94EF4178
:1029300020E030E04AE754E40E94614220E030E0C9
:1029400048E452E40E94224420E030E040EA51E4AE
:102950000E9451430E94D342660F771F660F771F74
:10296000FB01E357FA4F2081318142815381C70136
:10297000B6010E9422446B017C01C701B601DF91C0
:10298000CF91FF90EF90DF90CF90BF90AF909F904E
:102990008F90089583E099E00C941E388091BC06D6
:1029A00081110C94E50A089521E08F3F910508F00C
:1029B00020E0822F08950C94D4140E94CE1410921B
:1029C000BC0640E068E070E08DEB92E00C94760F7E
:1029D0001092BB0640E068E070E08DE392E00C945A
:1029E000760F0E94CE142091DF0330E02F5F3F4F1F
:1029F000237033272093DF0348E2429FC001439FA7
:102A0000900D112440E065E070E0835C9C4F0C94D5
:102A1000760FCF938091B806882309F442C0809145
:102A2000A4069091A506009781F40E9433359093F7
:102A3000A5068093A4062091A60630E02115310555
:102A400071F48091A70690E00BC00E944B35209155
:102A5000DD033091DE032817390738F322C0C9019E
:102A60000197F901E855F94FC0812091BC06222356
:102A700031F0FC01E855F94F80810E94E10A809114
:102A8000BC06882319F08C2F0E94DB0A8091A606D1
:102A900090E001966091A70670E00E942646809320
:102AA000A606CF910895089581E08093BC0640E08A
:102AB00068E070E08DEF92E00E94760F0C94531561
:102AC000089581E08093BB0640E068E070E08DE708
:102AD00092E00E94760F0C946015EF92FF921F9384
:102AE000CF93DF93CDB7DEB7A3970FB6F894DEBFD1
:102AF0000FBECDBF7C0186E2E8168CE5F80641F4F6
:102B0000FB018281882309F450C00E945415AAC099
:102B1000F7E2EF16FCE5FF0641F4FB018281882312
:102B200009F443C00E94DD149DC0F8E2EF16FCE5F5
:102B3000FF0649F4FB0182818823B9F18091BC062C
:102B40008111F0CFE2CFFCE2EF16FCE5FF0639F48D
:102B5000FB018281882349F10E94611583C0FDE257
:102B6000EF16FCE5FF0639F4FB0182818823E9F0CA
:102B70000E94E81477C0FEE2EF16FCE5FF0649F478
:102B8000FB018281882389F08091BB068111F0CFFF
:102B9000E3CFF9E2EF16FCE5FF0639F4FB01828191
:102BA000882319F00E94F1145DC09091BC06911128
:102BB00005C08091BB06882309F4D8C0FB0142817F
:102BC000442309F451C0F0EEEF16F10461F40E94C1
:102BD000CE1481E08093BA061092B9061092B8061E
:102BE0001092A7063FC082EEE816F10471F40E942D
:102BF000CE148091BA06882319F081E08093B9063B
:102C00001092BA061092B8062DC0E3EEEE16F1044B
:102C100091F48091B906882339F10E94CE14109264
:102C2000BA0681E08093B8061092A6061092A50617
:102C30001092A40617C0F2E5EF16F10431F480916A
:102C4000DD039091DE030A9709C081E5E816F104DF
:102C500059F48091DD039091DE030A969093DE0390
:102C60008093DD0380E083C08091DF0381110AC07F
:102C7000FB0110818091E203180F13508091E00353
:102C8000180F4AC08130A1F4FB0110818091E2034A
:102C9000180F105E2091E003120F818124E030E0D4
:102CA000281B3109822F880F880F280F120F3DC073
:102CB000823099F4FB0110818091E203180F105EBD
:102CC0008091E003180F818124E030E0281B310956
:102CD000F7E02F9F100D112428C0833021F583E2E7
:102CE000E2E6F4E0DE01119601900D928A95E1F79B
:102CF000FB01808121E030E02C0F3D1F280F311DAA
:102D0000E091E003F091E103E20FF31F1091E20381
:102D100013508081180FFB01818124E030E0281BD3
:102D20003109FCE0D6CF1091E2034423A1F09923AE
:102D300019F0812F0E94DB0A8091BA06882381F066
:102D40008091A706E82FF0E0E855F94F10838F5FD8
:102D50008093A70605C0992319F0812F0E94E10AEC
:102D6000C7010E94DB1491E0892701C081E0A3968E
:102D70000FB6F894DEBF0FBECDBFDF91CF911F918C
:102D8000FF90EF900895EF92FF920F931F93CF93D0
:102D9000DF938B01682F11110AC0442329F0E82F1B
:102DA000F0E0EA5AF94F6491762F862F75C0212FF3
:102DB00030E0E82FF0E0442321F0EA5AF94FE491A3
:102DC000F0E046E0049FC0011124CFEFD0E0BE0147
:102DD0000E9412464BEA4603C001479F900D112402
:102DE000800F911D800F911D982F990F890FAE01B3
:102DF000421B530B4E9FD0014F9FB00D5E9FB00DF5
:102E000011249B2F189FA0011124452F55278E01B7
:102E1000041B150B0E9FA0010F9F500D1E9F500D00
:102E200011247E01E81AF108E29E8001E39E100D54
:102E3000F29E100D1124212F3327C21BD30BCE9FDE
:102E40009001CF9F300DDE9F300D1124623071054F
:102E5000A9F048F46115710569F061307105C9F494
:102E60008B2F752F0DC06430710581F058F06630DE
:102E7000710579F47E2F8B2F932F0DC0832F7B2F1D
:102E80009E2F09C08E2F7B2F952F05C08E2F732F5D
:102E900002C07E2F852F692FDF91CF911F910F9157
:102EA000FF90EF90089541E00E94C316089520E03E
:102EB00030E0869F212D969F200D311D1124C901E0
:102EC0000895BC018230910508F40895613E8EE1B9
:102ED000780748F49B0195E0369527959A95E1F798
:102EE00048E0420F01C04FEF91E0242F30E0290F5E
:102EF000311D35952795229FF001239FF00DF00D90
:102F000011246E177F0718F44FEF420F04C02F3FB4
:102F100039F091E0920F491740F78FEF890F08952C
:102F20008FEF0895482F982F46FD9095E92FEF7366
:102F30009F7046FD9F5FE295EF70EE0FF0E0EA5163
:102F4000FA4F2181299F802D212D112482958F7088
:102F50002295207F822B3081982F930F892F47FD58
:102F6000819580580895E42FF0E0EE0FFF1FEC5C90
:102F7000FE4F408134EE439F412D1124E72FF0E0B6
:102F800050E0445E5F4FDA01A21BB1099D01B7FF1B
:102F900003C031952195310993E0220F331F9A9593
:102FA000E1F7AF01421B530B9A0157FF02C020E02B
:102FB00030E0279F212D1124722F0895E42FF0E097
:102FC000EE0FFF1FEC5CFE4F408134EE439F412D1E
:102FD0001124E82FF0E050E0445E5F4FDA01A21BBD
:102FE000B1099D01B7FF03C031952195310993E0E7
:102FF000220F331F9A95E1F7AF01421B530B9A0141
:1030000057FF02C020E030E0582F259F212D1124CA
:10301000822F0895622F0895E42FF0E0EE0FFF1F36
:10302000EC5CFE4F6081621B0895E42FF0E0EE0F30
:10303000FF1FEC5FFE4F61A9621B0895A22F50E0B5
:10304000FA01EE0FFF1FEC5FFE4F91A9905297FD22
:103050009195440F551FFA01EC5CFE4F3081232FF0
:1030600030E02A1B3109290F311D97FD3A95620F77
:103070000895EF920F931F9393E0099F800111240D
:10308000159507956E2D600F1F910F91EF90089584
:103090000F93CF93DF93D72FC82F47FD4195E8E3D8
:1030A000F0E0CF01841B910947FD9395889FB00103
:1030B000899F700D700D1124229FC001239F900DD8
:1030C000900D1124860F971F0E946117682F660FBD
:1030D000860F682F600F7D2F8C2FDF91CF910F917E
:1030E00008950F931F93522F10E0F801EE0FFF1F6A
:1030F000EC5FFE4FE1A9F0E0B0979F015203D001D1
:10310000539FB00D1124000F111FF801EC5CFE4F0E
:10311000008110E00057110940039001419F300DDC
:1031200011242A0F3B1F37FF02C021583F4F220FA7
:10313000232F221F330B620F1F910F9108950F93BE
:103140001F93522F10E0F801EE0FFF1FEC5FFE4FB0
:10315000E1A9F0E0B097EE0FFF1F9F015203D001ED
:10316000539FB00D1124000F111FF801EC5CFE4FAE
:10317000008110E000571109000F111F400390015A
:10318000419F300D11242A0F3B1F37FF02C02158E9
:103190003F4F220F232F221F330B620F1F910F91DE
:1031A00008950F931F9310E0F801EE0FFF1FEC5CE2
:1031B000FE4F9081905797FD9195000F111FF801D8
:1031C000EC5FFE4FE1A9F0E0B097DF01AA0FBB1F53
:1031D0008D010E0F1F1F2003D001219FB00D112460
:1031E000E8E3F0E0E91BF10997FDF3959F01220F59
:1031F000331F89010E0F1F1F40039001419F300DA7
:1032000011242A0F3B1F37FF02C021583F4F220FC6
:10321000232F221F330B620F1F910F910895FC0182
:103220009B01009721F477FF2BC080E80895AC0143
:1032300097FF04C044275527481B590BB901640F59
:10324000751F37FD0CC0241B350BC901A5E0880F85
:10325000991FAA95E1F70E94264680E20CC0CB0197
:1032600065E0880F991F6A95E1F7BA01621B730B3D
:103270000E94264680E6861BF7FF03C081950895CD
:1032800080E00895FF920F931F93CF93DF93F62E64
:10329000172FD82FC901C72FC01BBA010E940F19C1
:1032A000982F990F890F7C2F781B719F712D1124F6
:1032B0006F2D8D2FDF91CF911F910F91FF9008956A
:1032C000FF920F931F93CF93DF93F62ED72F182FD4
:1032D000C901C12FC01BBA010E940F19982F990F65
:1032E000890FC81B2C2F219F212D1124822F6F2D78
:1032F0007D2FDF91CF911F910F91FF900895EF9255
:103300000F931F93CF93DF93D62F172FC82FC90189
:103310000E19070FBA010E940F19702F781B719FA9
:10332000712D11246D2F8C2FDF91CF911F910F9153
:10333000EF900895EF920F931F93CF93DF93D62FC3
:10334000C72F182FC9010E19010FBA010E940F19BA
:10335000081B202F219F212D1124822F6D2F7C2FC0
:10336000DF91CF911F910F91EF9008950F93CF931D
:10337000DF93D72FC82FC901BA010E940F19682FF8
:10338000600F7D2F8C2FDF91CF910F910895EF92D9
:103390000F93CF93DF93D72FC82FC9010E19BA010E
:1033A0000E940F19602F681B7D2F8C2FDF91CF910A
:1033B0000F91EF90089545E050E06CE170E080ECF3
:1033C00097E00C949D4645E050E06CE170E080ECA5
:1033D00097E00C94BB468091810780FF08C082E390
:1033E00096E09F938F930E94CF050F900F9085E3F7
:1033F0008093C0078091850490918604A0918704F2
:103400008093C1079093C207A093C3078FE780936F
:10341000C4070C94E3198091810780FF08C088E1FC
:1034200096E09F938F930E94CF050F900F9080910D
:10343000810780FF0FC08091C00783701F928F9318
:1034400089EF95E09F938F930E94CF050F900F9087
:103450000F900F908091810780FF10C08091C0076E
:10346000869586951F928F938CED95E09F938F9311
:103470000E94CF050F900F900F900F9080918107C1
:1034800080FF0EC08091C1071F928F938EEB95E055
:103490009F938F930E94CF050F900F900F900F90E6
:1034A0008091810780FF0EC08091C2071F928F9389
:1034B00080EA95E09F938F930E94CF050F900F9025
:1034C0000F900F908091810780FF0EC08091C307FD
:1034D0001F928F9382E895E09F938F930E94CF0570
:1034E0000F900F900F900F908091810780FF0EC07A
:1034F0008091C4071F928F9384E695E09F938F93EA
:103500000E94CF050F900F900F900F900895E091BB
:10351000F405F091F5050994E091F005F091F105BD
:1035200009944F925F926F927F928F929F92AF9287
:10353000BF92CF92DF92EF920F931F93CF93DF93BF
:103540002C013B01FC01C081CC0F8C2F880F880F10
:10355000C80FDAE0DC0FD23308F0D1E36091C40782
:1035600066958091C5079091C6070E945717182F3E
:10357000CD1708F044C08C2E912CF401EA56FE4F72
:103580009081F20181818923C1F1F401EE0FFF1FC7
:10359000EC5CFE4FC080D12CF0E7CF1AD108F401CB
:1035A000EE0FFF1FEC5FFE4FA1A8B12C80E2A81A1E
:1035B000B108CC9C9001CD9C300D300D1124AA9CFB
:1035C000C001AB9C900D900D1124820F931F0E949F
:1035D0006117082F6091C1077091C2078091C307DE
:1035E000E12E9501A601F30109950E945317462F7C
:1035F000282F672FC4010E948C1ACF5FB9CF81E0BA
:10360000D13308F080E0DF91CF911F910F91EF90BF
:10361000DF90CF90BF90AF909F908F907F906F90F2
:103620005F904F9008956FE779E10C94911A6AE9E1
:1036300079E10C94911A69E378E10C94911A67ECA2
:1036400079E10C94911AAF92BF92CF92DF92EF92F0
:10365000FF920F931F93CF93DF936C015B01FC01EB
:10366000C081CC0F8C2F880F880FC80FDAE0DC0FD9
:10367000D23308F0D1E36091C40766958091C50705
:103680009091C6070E945717182FCD1778F5EC2E8A
:10369000F12CF701EA56FE4F9081F60181818923D2
:1036A00019F1F701EE0FFF1FEC5FFE4F21A930E08B
:1036B00020523109F701EE0FFF1FEC5CFE4F4081F5
:1036C00050E0405751096091C1077091C207809145
:1036D000C307012FF50109950E945317462F282F84
:1036E000672FC7010E948C1ACF5FCFCF81E0D13303
:1036F00008F080E0DF91CF911F910F91FF90EF9044
:10370000DF90CF90BF90AF90089562E479E10C9480
:10371000231B60E679E10C94231B68E478E10C94A8
:10372000231B66EB79E10C94231BBF92CF92DF92AF
:10373000EF92FF920F931F93CF93DF938C017B0146
:10374000FC01C081CC0F8C2F880F880FC80FDAE0E6
:10375000DC0FD23308F0D1E36091C407669566951B
:103760008091C5079091C6070E945717B82ECD17B4
:10377000F0F4CC2ED12CF601EA56FE4F9081F801E0
:103780008181892391F06091C1077091C207809176
:10379000C3072B2D4C2FF70109950E945317462F75
:1037A000282F672FC6010E948C1ACF5FE0CF81E0DF
:1037B000D13308F080E0DF91CF911F910F91FF90FE
:1037C000EF90DF90CF90BF90089563EB77E10C947A
:1037D000951B6EED77E10C94951B6AE078E10C94F3
:1037E000951B6CE078E10C94951B65E178E10C94F5
:1037F000951B6EE178E10C94951B7F928F929F92BE
:10380000AF92BF92CF92DF92EF92FF920F931F93EE
:10381000CF93DF936C015B01FC01C081CC0F8C2F37
:10382000880F880FC80FDAE0DC0FD23308F0D1E33D
:103830006091C407669566958091C5079091C6070B
:103840000E945717182F80E4810F0E94921790E86A
:10385000F92EF80E812F0E94921720E8722E780E12
:10386000CD1700F58C2E912CF401EA56FE4F908175
:10387000F60181818923A1F06091C1077091C2078F
:103880008091C307E12E0C2F272D4F2DF5010995AF
:103890000E945317462F282F672FC4010E948C1AAD
:1038A000CF5FDECF81E0D13308F080E0DF91CF91B0
:1038B0001F910F91FF90EF90DF90CF90BF90AF904E
:1038C0009F908F907F90089561E778E10C94FD1BA5
:1038D0006FE978E10C94FD1B61ED78E10C94FD1B20
:1038E000DF92EF92FF920F931F93CF93DF938C01A0
:1038F000DC01CC91CC0F8C2F880F880FC80FDAE039
:10390000DC0FD23308F0D1E36091C1077091C20798
:103910008091C3070E945317F62EE72ED82ECD179D
:1039200098F4EC2FF0E0DF01AA56BE4F8C91D8013D
:1039300011969C91982331F02D2D4F2D6E2DCF0196
:103940000E948C1ACF5FEBCF81E0D13308F080E08A
:10395000DF91CF911F910F91FF90EF90DF9008952D
:10396000AF92BF92CF92DF92EF92FF920F931F938D
:10397000CF93DF938C01FC01C081CC0F8C2F880F7B
:10398000880FC80FDAE0DC0FD23308F0D1E3E09003
:10399000C207F090C307D090C1076D2D7E2D8F2DEB
:1039A0000E945317C62EB72EA82E6091C4076D0D26
:1039B0007E2D8F2D0E945317F62EE72ED82ECD1771
:1039C000B8F48C2F90E0FC01EA56FE4F3081F801EC
:1039D0002181232359F030FF04C02D2D4F2D6E2D52
:1039E00003C02A2D4C2D6B2D0E948C1ACF5FE7CF80
:1039F00081E0D13308F080E0DF91CF911F910F91EA
:103A0000FF90EF90DF90CF90BF90AF900895BF925E
:103A1000CF92DF92EF92FF920F931F93CF93DF939A
:103A20006C01FC01C081CC0F8C2F880F880FC80F50
:103A3000DAE0DC0FD23308F0D1E30091C207B09096
:103A4000C3072091C40710E4129F112D1124CD1734
:103A500018F5EC2EF12CF701EA56FE4F9081F60195
:103A600081818923B9F0F701EE0FFF1FEC5FFE4F54
:103A700081A982958F706091C107819F600D11248B
:103A8000702F8B2D0E945317462F282F672FC701A9
:103A90000E948C1ACF5FDBCF81E0D13308F080E049
:103AA000DF91CF911F910F91FF90EF90DF90CF901A
:103AB000BF900895BF92CF92DF92EF92FF920F9343
:103AC0001F93CF93DF937C01FC01C081CC0F8C2F1F
:103AD000880F880FC80FDAE0DC0FD23308F0D1E38B
:103AE000C090C207B090C3072091C40730E4D32E22
:103AF0003D2D329F312D1124D32ECD1738F50C2FAB
:103B000010E0F801EA56FE4F9081F7018181892388
:103B1000D9F0F801EE0FFF1FEC5CFE4F6081D69EDE
:103B2000B001112495E0759567959A95E1F780911C
:103B3000C107680F7C2D8B2D0E945317462F282F0D
:103B4000672FC8010E948C1ACF5FD7CF81E0D13395
:103B500008F080E0DF91CF911F910F91FF90EF90DF
:103B6000DF90CF90BF900895DF92EF92FF920F9376
:103B70001F93CF93DF938C01DC01CC91CC0F8C2F62
:103B8000880F880FC80FDAE0DC0FD23308F0D1E3DA
:103B9000E090C107F090C207D090C3076091C407BE
:103BA0006695669566958091C5079091C6070E94B7
:103BB00057170E949217805887FD8195880F282FEC
:103BC0003D2D239F212D1124822FB7010E945317D1
:103BD000F62EE72ED82ECD1798F4EC2FF0E0DF016B
:103BE000AA56BE4F8C91D80111969C91982331F022
:103BF0002D2D4F2D6E2DCF010E948C1ACF5FEBCF54
:103C000081E0D13308F080E0DF91CF911F910F91D7
:103C1000FF90EF90DF900895DF92EF92FF920F9365
:103C20001F93CF93DF93EC01FC01EA56FE4F908186
:103C3000692381F1D090C2070091C3071091C10799
:103C4000E12EF12C0E948E46282FC7018C549F4FE5
:103C500068E671E00E9426468E199F0997FD03963B
:103C600095958795959587952370612F289F600D71
:103C700011247D2D802F0E945317462F282F672F48
:103C8000CE01DF91CF911F910F91FF90EF90DF90C8
:103C90000C948C1ADF91CF911F910F91FF90EF90B0
:103CA000DF900895CF92DF92FF920F931F93CF93EF
:103CB000DF938C01FC01C281C1111DC06091C4075A
:103CC00020E1620F08F46FEF8091C5079091C6075D
:103CD0000E9457176AE070E00E941246892B61F536
:103CE0000E948E4661E370E00E942646F8016181E1
:103CF0000E940C1E21C0FC01C081CC0F8C2F880FAC
:103D0000880FC80F9AE0F92EFC0EF1E3FF1510F4AE
:103D100081E3F82ED0E0CF2CD12CCC15DD053CF47E
:103D2000F8016181CE010E940C1E2196F6CFC1E000
:103D3000F0E3FF1508F4C0E08C2FDF91CF911F91C5
:103D40000F91FF90DF90CF9008951F93CF93DF9353
:103D5000FC01EA56FE4F20816223A9F0EC010E948B
:103D60008E46182F0E948E46612F782F8091C307B0
:103D70000E945317462F282F672FCE01DF91CF9136
:103D80001F910C948C1ADF91CF911F910895CF92BF
:103D9000DF92FF920F931F93CF93DF938C01FC016F
:103DA000C281C1111DC06091C40720E1620F08F4F7
:103DB0006FEF8091C5079091C6070E94571765E085
:103DC00070E00E941246892B61F50E948E4661E3E5
:103DD00070E00E942646F80161810E94A51E21C064
:103DE000FC01C081CC0F8C2F880F880FC80F9AE080
:103DF000F92EFC0EF1E3FF1510F481E3F82ED0E06C
:103E0000CF2CD12CCC15DD053CF4F8016181CE011D
:103E10000E94A51E2196F6CFC1E0F0E3FF1508F43D
:103E2000C0E08C2FDF91CF911F910F91FF90DF9019
:103E3000CF900895E091F205F091F305099481E0A7
:103E4000089508950C94211F0E94221F0C94211F95
:103E5000CF930E943F356093BD067093BE0680935A
:103E6000BF069093C0063091C007232F237021F026
:103E7000C32FC695C69501C0C0E02091E303213051
:103E8000A1F038F0223009F4C3C0233009F4CCC0CB
:103E9000DCC01092E4036093C5077093C60780935B
:103EA000C7079093C80781E0BCC09091E703C9138E
:103EB0000DC0832F837090E04091E80350E021E033
:103EC0008417950709F420E0822F01C081E08170FA
:103ED0008093E6034C2F50E04931510508F086C02D
:103EE000FA01EC5AFF4F0C943A46882309F47EC03D
:103EF00040E060E080E00E941A1F78C084EE93E00A
:103F00000E94701C74C084EE93E00E94B01C6FC0CD
:103F100084EE93E00E94071D6AC084EE93E00E9445
:103F20005A1D65C084EE93E00E94B41D60C084EE0B
:103F300093E00E94E51B5BC084EE93E00E94E91BC6
:103F400056C084EE93E00E94851B51C084EE93E03E
:103F50000E94891B4CC084EE93E00E94131B47C053
:103F600084EE93E00E94171B42C084EE93E00E940F
:103F7000ED1B3DC084EE93E00E94F11B38C084EE3F
:103F800093E00E94F51B33C084EE93E00E94F91B7E
:103F90002EC084EE93E00E941B1B29C084EE93E0A8
:103FA0000E948D1B24C084EE93E00E94911B1FC0D1
:103FB00084EE93E00E941F1B1AC084EE93E00E94DF
:103FC000641C15C084EE93E00E94681C10C084EE4F
:103FD00093E00E946C1C0BC084EE93E00E94521E82
:103FE00006C084EE93E00E94C71E01C080E090915D
:103FF000E4039F5F9093E403811127C082E08093E4
:10400000E3038091E603811120C0CC2349F01DC059
:10401000C093E703832F83708093E8030E94871A7D
:1040200083E08093E30311C06091C5077091C607D8
:104030008091C7079091C8070E945A356031710579
:104040008105910510F01092E303CF910C94241F89
:10405000E091EE05F091EF0509950E94683381111A
:1040600010C08091810780FF08C082E395E09F9394
:104070008F930E94CF050F900F900E9411340E94E1
:10408000EB190E94DB198091C0078C7F71F480913D
:10409000810780FF08C08DED94E09F938F930E946D
:1040A000CF050F900F900E94EB190C940B1A809380
:1040B000C1060895CF93C82F9091C00781E089274A
:1040C0008093C0071092E303C1110E94E31980910D
:1040D000810780FF1AC02091C0072370C11103C05F
:1040E0008DED95E002C08FED95E01F922F939F9389
:1040F0008F9386EA94E09F938F930E94CF050F9051
:104100000F900F900F900F900F90CF91089581E036
:104110000C945A20CF939091C007937091F1811124
:1041200002C0946007C0893110F0906603C0880F08
:10413000880F982B9093C007C62F1092E30361114C
:104140000E94E3198091810780FF1BC02091C00766
:1041500026952695C11103C08DED95E002C08FED27
:1041600095E01F922F939F938F938CE894E09F93F9
:104170008F930E94CF050F900F900F900F900F908C
:104180000F90CF91089561E00C948A20682F909150
:10419000C007969596959F5F993110F4892F01C0BD
:1041A00081E00C948A2081E00C94C620682F9091C5
:1041B000C00796959695915011F0892F01C088E11E
:1041C0000C948A2081E00C94D620CF939091C00764
:1041D000937089F1C22F8093C1076093C207409307
:1041E000C30721110E94E3198091810780FF23C03A
:1041F0004091C3073091C2072091C107C11103C08C
:104200008DED95E002C08FED95E01F924F931F92C8
:104210003F931F922F939F938F9389E694E09F93F0
:104220008F930E94CF058DB79EB70A960FB6F8946C
:104230009EBF0FBE8DBFCF910895A0ECB7E0119641
:10424000EC911197F0E0282F13964C91139712964A
:104250006C91CF0108960C94E52081E00C941D210F
:10426000A0ECB7E01196EC911197F0E0282F13968F
:104270004C91139712966C91CF0108970C94E520FE
:1042800081E00C943021E0ECF7E0628120E1620FE4
:1042900008F46FEF9181282F4381892F90E00C94CF
:1042A000E52081E00C944321E0ECF7E0628120E11D
:1042B000621B08F460E09181282F4381892F90E0F0
:1042C0000C94E52081E00C945421E0ECF7E043816C
:1042D00020E1420F08F44FEF9181282F6281892F4E
:1042E00090E00C94E52081E00C946521E0ECF7E08F
:1042F000438120E1421B08F440E09181282F628134
:10430000892F90E00C94E52081E00C947621CF93E6
:10431000C62F8093C40761110E94E3198091810721
:1043200080FF19C02091C407C11103C08DED95E035
:1043300002C08FED95E01F922F939F938F938AE495
:1043400094E09F938F930E94CF050F900F900F9052
:104350000F900F900F90CF9108952091C40730E1F6
:10436000230F08F42FEF682F822F0C94872181E010
:104370000C94AD212091C40730E1231B08F420E008
:10438000682F822F0C94872181E00C94BA2160E081
:1043900084E70E94962361E086E70C949623CF93EE
:1043A0000E94AF2684E70E941C2286E70E941C22FE
:1043B000C0E021E041E061E08C2F0E94B222CF5F9B
:1043C000C133B9F760E084E70E94AE2361E086E77D
:1043D000CF910C94AE23E9EEF8E06083418324E6AC
:1043E00030E042E050E0BF01880F0C943C270F936F
:1043F0001F93CF93DF93082F000FEB0114E210936C
:10440000E908EAEEF8E0DE018D91819388E0EA3F69
:10441000F807D1F724E630E041E150E069EE78E0BA
:10442000802F0E943C27105F6096143B41F7DF917C
:10443000CF911F910F910895CF93DF93C82F4BE039
:104440006DEF0E94EB2140E06AE08C2F0E94EB218F
:104450008FE39CE90197F1F700C0000040E060E0C5
:104460008C2F0E94EB2140E061E08C2F0E94EB2119
:1044700040E066E08C2F0E94EB2140E06DEF8C2F36
:104480000E94EB21D0E040E06D2F8C2F0E94EB21A9
:10449000DF5FD231C1F740E06D2F8C2F0E94EB21FE
:1044A000DF5FD432C1F740E06D2F8C2F0E94EB21EB
:1044B000DF5FD43BC1F74BE06DEF8C2F0E94EB2107
:1044C00041E06AE08C2F0E94EB2140E06DEF8C2FE1
:1044D000DF91CF910C94EB218133910540F5880F4A
:1044E000991F880F991FFC01E857FB4F52813381B8
:1044F000808183707181A82FB0E0E0E98E9FC001B8
:1045000011248753984FFC01E70FF11DB497608386
:10451000FC01E50FF11DB4974083830F911DFC0151
:10452000B4972083FD01E851F94F81E0808308951D
:10453000FF920F931F93CF93DF93182F062FF42E24
:10454000C0E0D0E02F2D402F612FCE010E946C22C1
:104550002196C133D105B1F7DF91CF911F910F9112
:10456000FF9008957F928F929F92AF92BF92CF92C9
:10457000DF92EF92FF920F931F93CF93DF93362F2B
:1045800054E0859FC0011124FC01E857FB4F608176
:104590006370762E618170E0CB0184978C0197FF68
:1045A00002C0095F1F4FA3E015950795AA95E1F793
:1045B000628170E07B0154E2E51AF108E701F7FC43
:1045C000279673E0D595C7957A95E1F7638170E0FA
:1045D0004B0154E2851A9108F40197FC379653E099
:1045E000F595E7955A95E1F768E0A62EB12CB5014F
:1045F0000E9426466C01C701B5010E9426467C0137
:10460000C401B5010E9426461127672D70E0DD2404
:10461000332399F032E1369FD001379FB00D11243A
:10462000AC53B94FA00FB11F01E010E001C0000F63
:10463000CA94EAF73C91032B13C032E1369FD001B4
:10464000379FB00D1124AC53B94FA00FB11F01E03B
:1046500010E001C0000FCA94EAF700953C910323D3
:104660000C93DD27FF2432E1442391F0369FA00113
:10467000379F500D11244C53594FC40FD51F41E0A3
:1046800050E001C0440FEA94EAF73881432B12C08E
:10469000369FA001379F500D11244C53594FC40F22
:1046A000D51F41E050E001C0440FEA94EAF740957D
:1046B000388143234883AF015527992792E1969F7C
:1046C000F001979FF00D1124EC53F94FE40FF51F03
:1046D000222361F021E030E0A90102C0440F551F00
:1046E0008A95E2F7CA019081892B0CC021E030E065
:1046F000A90102C0440F551F8A95E2F7CA018095AF
:10470000908189238083FB01EE53F94F81E0808300
:10471000DF91CF911F910F91FF90EF90DF90CF909D
:10472000BF90AF909F908F907F900895CF93DF932D
:10473000262F30E0E901C851D94F9881992351F0D3
:1047400090E9929FB001939F700D11246753784FA9
:104750000E94F7211882DF91CF910895FF920F9365
:104760001F93CF93DF93E62FF0E0EE53F94F908144
:104770009923B1F0F82E82E1689FE001112400E056
:1047800010E0F801EC0FFD1FEC53F94F4081602F52
:104790008F2D0E94EB210F5F1F4F0231110589F70A
:1047A000DF91CF911F910F91FF900895882311F011
:1047B000FA0101C0FB0109940F931F93CF93FB01F2
:1047C000C281CC2309F450C08C010E9487328272CE
:1047D000F801E25CFC45E431F10508F048C0E3591A
:1047E000FF4F0C943A460E94872040C042EE50E2B0
:1047F00063ED70E204C043ED50E262EE70E20E94AD
:10480000D62334C040E451E26DE271E2F8CF4DE2CC
:1048100051E260E471E2F3CF42E651E261E571E218
:10482000EECF41E551E262E671E2E9CF44E851E2C0
:1048300063E771E2E4CF43E751E264E871E2DFCF7E
:1048400044EC51E267EB71E2DACF47EB51E264EC02
:1048500071E2D5CF81E005C085E003C08DE001C0E5
:1048600082E10E94C32002C0C1E001C0C0E08C2FE1
:10487000CF911F910F910895AF92BF92CF92DF9287
:10488000EF92FF920F931F93CF93DF937C015B0115
:10489000C42FD22FFC0182818823F9F04093EC06CB
:1048A0000E9433359093EB068093EA0680E28C0FEA
:1048B000883008F06EC0C77081E001C0880FCA95CB
:1048C000EAF7DF91CF911F910F91FF90EF90DF906A
:1048D000CF90BF90AF900C94372A8091EC0648138C
:1048E00035C08091EA069091EB060E944B356C0131
:1048F000B701C5010E94712FC816D90638F510E21C
:104900001D0FCD17B9F080E28C0F883040F4C770CE
:1049100081E001C0880FCA95EAF70E943E2A18304C
:1049200058F581E09D2F977001C0880F9A95EAF79E
:104930000E94372A802F0E94242A183050F5D77001
:1049400081E001C0880FDA95EAF70AC080E28C0F97
:104950008830F8F4C77081E001C0880FCA95EAF783
:10496000DF91CF911F910F91FF90EF90DF90CF904B
:10497000BF90AF900C943E2A802FDF91CF911F9172
:104980000F91FF90EF90DF90CF90BF90AF900C947D
:10499000242ADF91CF911F910F91FF90EF90DF902C
:1049A000CF90BF90AF9008950F939C01CB01233F10
:1049B0004CE5340731F188F4283DFCE53F07D9F098
:1049C000293D4CE5340779F1273D3C45A9F506E240
:1049D00021EE41EE67ED7CE52BC0253FFCE53F076E
:1049E000E1F0A8F0263F3C4539F507E225EE46EE1A
:1049F00066EF7CE51DC007E225EE45EE68ED7CE53F
:104A000017C006E221EE40EE63EF7CE511C007E23D
:104A100025EE44EE64EF7CE50BC006E221EE42EEAB
:104A200065EF7CE505C008E221E045EE69ED7CE537
:104A30000E943C2480E008C0FC018281882319F098
:104A40001092EC0601C081E00F910895CF93DF939F
:104A5000EC01FB018281882309F44CC1C230FCE5E2
:104A6000DF0708F448C1C6319CE5D90738F09E013C
:104A70002A5F3C452930310508F03DC10E947B3357
:104A80009093020980930109C031ECE5DE0709F437
:104A9000CCC008F042C0C8308CE5D80709F4A1C0EA
:104AA000F0F4C430ECE5DE0709F487C068F4C230E6
:104AB0008CE5D80709F47DC0C330DC4509F010C18E
:104AC0008091010982607CC0C630ECE5DE0709F404
:104AD00080C008F082C080910109886071C0CC302C
:104AE0008CE5D80709F48DC068F4CA30ECE5DE0720
:104AF00009F47BC008F081C00E94B82C80910109A4
:104B000080685EC0CE308CE5D80709F47EC008F01E
:104B100088C0809101098B7F53C0CB3FECE5DE0755
:104B200009F451C020F5C3318CE5D80709F485C0DC
:104B300078F4C131ECE5DE0709F47BC0C231DC4515
:104B400009F0CEC00E94B82C809101098F7738C03F
:104B5000C5318CE5D80709F480C008F4B2C0CA3F5B
:104B6000DC4509F0BDC08091020981602FC0CF3FB4
:104B7000FCE5DF0709F469C078F4CD3F9CE5D9076F
:104B800009F44BC008F445C080910209826081603D
:104B90008093020940E08BC0C130FDE5DF0709F4D6
:104BA0009CC008F476C0C230DD4509F099C080E0B1
:104BB00095C080910109816003C0809101098460E2
:104BC000809301098DC0809102098260809302095F
:104BD00087C0809101098061F3CF809101098062D3
:104BE000EFCF809101098064EBCF8091010988604B
:104BF00084608093010940E040C0809101098E7F6C
:104C0000DFCF809101098D7FDBCF80910109877F04
:104C1000D7CF809102098E7FD9CF809102098D7FF5
:104C2000D5CF809101098F7ECBCF809101098F7DF7
:104C3000C7CF809101098F7BC3CF80910109877F06
:104C40008B7F8093010940E01FC0809102098D7F16
:104C50008E7F8093020940E02FC08091010982FB82
:104C6000222720F991E040E0922790FB82F990FB07
:104C700083F980930109992339F064E070E089E1B8
:104C800094E00E94760F2CC062E070E089E394E02B
:104C9000F8CF80910209982F909591708E7F892B83
:104CA00090FB81F98093020940E0992329F064E0A8
:104CB00070E089EE93E0E5CF62E070E089E094E097
:104CC000E0CF0E94B82C8091010987FB222720F9B0
:104CD00091E0922790FB87F973CF81E00E94133413
:104CE00080910109909102090E948C330E94B82C96
:104CF00080E001C081E0DF91CF910895CF93DF93F1
:104D000086319C4541F5EB010E948732982F8A81BC
:104D10002091490430914A04882379F09A7A81E0FD
:104D200009F480E08093ED06911102C069E201C0B0
:104D300065E3C9010E94D0340AC08091ED0681115B
:104D400002C069E201C065E3C9010E94DB340E9430
:104D5000D53280E001C081E0DF91CF9108951092BB
:104D6000B9008CE08093B8000895EF92FF920F9302
:104D70001F93CF93DF93182FEB011092BC0084EAAE
:104D80008093BC000E9433357C018091BC0087FD7C
:104D90000EC0CF3F8FEFD807C1F30E9433358E1975
:104DA0009F098C179D0788F38EEF9FEF2EC080918F
:104DB000B900887F883041F08091B900887F8031C8
:104DC00019F08FEF9FEF21C01093BB0084E8809310
:104DD000BC000E9433358C018091BC0087FD0CC063
:104DE000CF3F8FEFD807C1F30E943335801B910B63
:104DF0008C179D0788F3D8CF8091B900887F8831C0
:104E000011F08034F1F680E090E0DF91CF911F91B6
:104E10000F91FF90EF9008950F931F93CF93DF931F
:104E2000EB018093BB0084E88093BC000E94333583
:104E30008C018091BC0087FD0EC0CF3F8FEFD8075B
:104E4000C1F30E943335801B910B8C179D0788F3AB
:104E50008EEF9FEF0CC02091B900287F81E090E099
:104E6000283211F480E090E0919581959109DF91CD
:104E7000CF911F910F910895CF92DF92EF92FF9201
:104E80000F931F93CF93DF936B018A017901B901CF
:104E90000E94B526E6010C0D1D1DC017D10761F457
:104EA00024E92093BC00DF91CF911F910F91FF90D7
:104EB000EF90DF90CF90089597FDF2CFB7018991E1
:104EC0000E940C27EACF9093F3068093F206089590
:104ED000E091F206F091F306309721F00190F08115
:104EE000E02D099480E00895EF92FF921F93CF93F5
:104EF000DF93FC01A091F206B091F306109709F43C
:104F000042C080916104882341F08091010987FFAC
:104F100004C08081818385E08083EF011296ED914A
:104F2000FC911397CE0109958091810782FF2BC0D8
:104F300080FF04C08EE597E00E94360518E088E502
:104F4000E82E87E0F82E8091810780FF0BC08881D2
:104F50001F928F93FF92EF920E94CF050F900F90B8
:104F60000F900F90115021961111EDCF8091810774
:104F700080FF09C086E597E0DF91CF911F91FF90F8
:104F8000EF900C943605DF91CF911F91FF90EF9039
:104F900008952091F0063091F1062817390771F035
:104FA0009093F1068093F006E091F206F091F306FB
:104FB000309721F00680F781E02D09940895209123
:104FC000EE063091EF062817390771F09093EF063F
:104FD0008093EE06E091F206F091F306309721F00F
:104FE0000084F185E02D0994089585B7806885BF18
:104FF00085B7806885BF089508950C94FC270C94AC
:10500000FD270C94FC270C94FC270E94F5270E9496
:1050100001280C94FF2781E008950C940B280E942E
:105020002A350E9452090E94D6350C940328CF934A
:10503000C82F8091810782FF1EC080FF04C087E7D0
:1050400097E00E9436058091810780FF0CC01F9277
:10505000CF9382E797E09F938F930E94CF050F90A5
:105060000F900F900F908091810780FF04C080E720
:1050700097E00E9436058C2FCF910C944E067F92BC
:105080008F929F92AF92BF92CF92DF92EF92FF9258
:105090000F931F93CF93DF93CDB7DEB72A970FB649
:1050A000F894DEBF0FBECDBF0E94B6090E940D2846
:1050B000811111C08FEF89838A831B820E9433354F
:1050C0008160782F9D838C8349815A816B818D818A
:1050D0000E94EF284FC045EFA42E46E0B42E00E01A
:1050E00010E0702E802F0E94F9086C01F50181906C
:1050F00091905F01882699268114910431F40F5F05
:105100001F4F0430110569F7D5CF8091810781FDCC
:105110000E94020980E0EE24E394F12C94012E21F8
:105120003F21232B09F18E837F82CE20DF2081E077
:10513000CD2809F480E088870E9433358160782F7C
:105140009A8789874E815F8168858A850E94EF28CA
:10515000000F111FF801EB50F94F80819181E82673
:10516000F926F182E08206C08F5FEE0CFF1C8C30C6
:10517000A9F6C5CF0E94CA140E9468279091F40630
:105180008917C9F00E9468278093F4062A960FB603
:10519000F894DEBF0FBECDBFDF91CF911F910F916D
:1051A000FF90EF90DF90CF90BF90AF909F908F9047
:1051B0007F900C9417282A960FB6F894DEBF0FBE86
:1051C000CDBFDF91CF911F910F91FF90EF90DF90B6
:1051D000CF90BF90AF909F908F907F900895CF9386
:1051E000DF93CDB7DEB72B970FB6F894DEBF0FBEB7
:1051F000CDBF4F83588769877A878B87DE011196E9
:1052000086E0FD0111928A95E9F785E0FE01379667
:1052100001900D928A95E1F749815A816B817C81D9
:105220008D819E810E94742F2B960FB6F894DEBF5D
:105230000FBECDBFDF91CF910895FC018081918198
:105240000E9448320895CF93882309F49CC0C82F48
:105250008238C1F40E94682781FD95C069E380917E
:10526000490490914A040E94D0340E94D5322FEF15
:1052700081EE94E0215080409040E1F700C00000B2
:1052800069E319C0833801F50E94682780FD7BC05F
:1052900063E58091490490914A040E94D0340E94B1
:1052A000D5322FEF81EE94E0215080409040E1F71D
:1052B00000C0000063E58091490490914A040E9477
:1052C000DB34CF910C94D5328438C1F40E94682726
:1052D00082FD59C067E48091490490914A040E947C
:1052E000D0340E94D5322FEF81EE94E021508040DF
:1052F0009040E1F700C0000067E4DDCF8CEF8C0F39
:10530000813AD0F46C2F8091490490914A040E9414
:105310002E34882349F06C2F8091490490914A04DF
:105320000E94DB340E94D5326C2F80914904909109
:105330004A040E94D034C5CF80E28C0F883048F4F4
:10534000C77081E001C0880FCA95EAF70E948A32CF
:10535000B8CFEBE5EC0FE33040F4F0E0EC5DF94F53
:10536000808190E0CF910C94C927C85AC73158F476
:10537000EC2FF0E0EE0FFF1FEA50FA4F8081918191
:10538000CF910C94DF27CF910895882309F45BC057
:10539000682F823879F40E94682781FF54C069E33E
:1053A0008091490490914A040E94D0340E94D532E1
:1053B00069E310C08338B1F40E94682780FF43C0BE
:1053C00063E58091490490914A040E94D0340E9480
:1053D000D53263E58091490490914A040E94DB3400
:1053E0000C94D532843879F40E94682782FF2BC050
:1053F00067E48091490490914A040E94D0340E944D
:10540000D53267E4E7CF8CEF860F813A18F380E25C
:10541000860F883048F4677081E001C0880F6A9574
:10542000EAF70E949032DCCF8BE5860F833020F4C0
:1054300080E090E00C94C927685A673120F480E03E
:1054400090E00C94DF270895CF93C82F0E94232962
:10545000C93349F42FEF87EE93E02150804090400C
:10546000E1F700C000008C2FCF910C94C529882350
:1054700021F00E948A320C94D5320895882321F0BD
:105480000E9490320C94D5320895CF92DF92EF9221
:10549000FF920F931F93CF93DF937C01062FC72FAB
:1054A000FC01158112951F70D281D1110E94A73283
:1054B0000E948032882399F0DD2389F08C2F807F31
:1054C000803421F080E2800F883048F082E00E9432
:1054D0001F330E94803291E0D82ED92601C0D12CF2
:1054E000CC2EC2948FE0C8228C2D90E0FC01EF57A7
:1054F000FF4F0C943A468C2F807FCF70882311F099
:10550000C295C07FDD2399F0CC2309F482C180E2EB
:10551000800F883010F0011104C08C2F0E948A3255
:1055200003C08C2F0E949A320E94D53272C1802F04
:105530000E94C529CC2309F491C180E2800F8830F4
:1055400010F0011104C08C2F0E94903203C08C2FE8
:105550000E94A0320E94D53281C18C2F807FCF70F3
:10556000803211F0C295C07F002319F00130C9F0DC
:1055700022C0DD2371F0112341F0113031F40E947B
:10558000BA328C2B0E94C23269C10E94BA328C2B73
:105590001DC0112319F0113009F460C10E94CB32F3
:1055A00025C0DD2321F0163008F058C10EC015309B
:1055B00008F054C11BC0DD2361F0112331F0F70165
:1055C000858180FF26C18F7085838C2F0E94372AAA
:1055D00045C1112359F0093309F02CC1FFEF27EE23
:1055E00083E0F15020408040E1F722C18C2F0E94DF
:1055F0003E2A34C18C2F86958695837019F08130B0
:1056000061F02CC1DD2321F0802F9C2F937002C00C
:1056100080E090E00E94C92729C1DD2321F0802F7E
:105620009C2F937002C080E090E00E94DF271EC193
:105630008C2F837009F045C0D11114C1402F4295C1
:1056400046954770440F440F602F6F70862F90E08F
:10565000A0E0B0E0042E04C0880F991FAA1FBB1F52
:105660000A94D2F704FF10C00FE010E020E030E011
:1056700004C0000F111F221F331F4A95D2F7009557
:1056800010952095309503C000E010E09801C69574
:10569000C695C370BC01CD01602B712B822B932B5F
:1056A000C23049F058F4C13019F00E94C530DAC058
:1056B0000E94B330D7C00E94D730D4C00E94B1300E
:1056C000D1C0DD2319F08C2F817001C0869588230D
:1056D00009F4C8C0402F429546954770440F440FC7
:1056E000602F6F70862F90E0A0E0B0E0042E04C021
:1056F000880F991FAA1FBB1F0A94D2F704FF10C07E
:105700000FE010E020E030E004C0000F111F221F66
:10571000331F4A95D2F7009510952095309503C018
:1057200000E010E09801C695C695C370BC01CD019C
:10573000602B712B822B932BC23049F058F4C1306F
:1057400019F00E948A318EC00E9478318BC00E946D
:105750009C3188C00E94EB3085C0CF70DD2339F0CA
:105760008C2F0E941131802F0E94372A7BC0802FFE
:105770000E943E2A8C2F0E94323174C0023F01F1F8
:1057800028F4003F41F0013FA1F03FC0033FF9F092
:10579000043F39F13AC0DD2341F0153008F05EC016
:1057A0008C2F8F710E94573159C0163008F056C0A7
:1057B000F7CFDD2339F08C2F8F710E9411314EC04D
:1057C000DD23C9F38C2F8F710E94323147C0DD2356
:1057D00029F08C2F8F710E94FC3040C00E94F7305E
:1057E0003DC0DD2349F0CF718C2F0E94113163E061
:1057F0008C2F0E940A3332C081E00E941F33123086
:1058000068F182E00E941F3329C0DD2331F01123AB
:1058100091F2802F0E94232921C0112399F209338C
:1058200049F49FEFE7EEF3E09150E040F040E1F7FC
:1058300000C00000802F0E94C52910C04C2F4F705F
:10584000602FC7010E94F1060E9422300FC04C2F2A
:105850004F70602FC7010E94F40608C088EF8C0DBE
:10586000843020F40E9468270E944E06DD20C9F093
:105870000E947C3280FD15C0F70112820E947632B0
:105880000E941131C7010E94722C0E947632DF9172
:10589000CF911F910F91FF90EF90DF90CF900C94DC
:1058A0003231DF91CF911F910F91FF90EF90DF90F8
:1058B000CF9008950F931F93CF93DF93EC016881EE
:1058C00079818A810E9453328C010E94AE310E94FC
:1058D0009F30B801CE010E94452ADF91CF911F91E0
:1058E0000F910895CF93DF93EC01988189812B81EB
:1058F0003C81232B31F08F3F31F481E09F3F19F43D
:1059000003C081E001C080E080FD19C0CE010E948B
:105910007D0681110CC00E948032882381F08A812B
:10592000882369F082E0DF91CF910C941F33CE0180
:105930000E945A2CCE01DF91CF910C942806DF9162
:10594000CF9108950E94A7320E94B7320E94D532AB
:1059500080E090E00E94C92780E090E00C94DF276F
:105960008091490490914A040E94E6340C94A22C40
:105970000E9497320C94B02CE92FE295EF704E2FD5
:1059800050E0FA013297EE30F105B0F4EF56FF4FD8
:105990000C943A46803F91F018F4883E68F40EC0AB
:1059A000843F51F40BC0883E48F0813F29F406C083
:1059B00093FB882780F9089580E0089581E0089599
:1059C0000E9448320E94BC2C0895CF93DF9300D0F0
:1059D00000D01F92CDB7DEB70F900F900F900F90B1
:1059E0000F90DF91CF910895CF93DF9300D000D037
:1059F00000D0CDB7DEB726960FB6F894DEBF0FBE47
:105A0000CDBFDF91CF9108951F93CF93DF93C091C6
:105A1000FE0616E08091FF06C81799F0D0E01C9FA3
:105A2000F0011D9FF00D1124E050F94F408151818C
:105A300062817381848195810E94F42C2196C770C4
:105A4000E9CFDF91CF911F91089540913007509198
:105A5000310760913207709133078091340790913C
:105A600035070C94F42C0F931F93CF93DF93809101
:105A7000350782958F7009F05DC0809132078823C9
:105A800009F458C08091FE061091FF06609130071E
:105A900070913107C0913307D091340791E06F3F87
:105AA00009F090E0292F06E0811709F443C0209700
:105AB00021F07F3F21F030E003C031E001C0322F00
:105AC00090E030FD34C0089FF001099FF00D1124D3
:105AD000DF01A050B94F11963C911197371327C0A1
