:100000000C941E050C9467050C9467050C94670509
:100010000C9467050C9467050C9467050C946705B0
:100020000C9467050C9467050C94624A0C943A4B47
:100030000C9407400C9467050C9467050C946705B5
:100040000C9467050C9411170C9467050C946705C4
:100050000C9467050C947A400C9467050C94670522
:100060000C9467050C9467050C9467050C94670560
:100070000C9467050C9467050C9467050C94670550
:100080000C94B8120C9467050C9467050C946705E2
:100090000C9467050C94670507634236B79BD8A795
:1000A0001A39685618AEBAAB558C1D3CB7CC57639D
:1000B000BD6DEDFD753EF6177231BF000000803F4B
:1000C00008000000BE922449123EABAAAA2ABECD67
:1000D000CCCC4C3E00000080BEABAAAAAA3E0000D9
:1000E0000000BF000000803F0000000000084178D1
:1000F000D3BB4387D1133D190E3CC3BD4282AD2B08
:100100003E68EC8276BED98FE1A93E4C80EFFFBEFF
:1001100001C4FF7F3F00000000006D6F6465207325
:100120007769746368656420746F20515745525431
:10013000590A00290014001A000800150017001CB5
:100140000018000C00120013002A002B00040016F7
:1001500000070009000A000B000D000E000F00331D
:10016000003400E1001D001B00060019000500110D
:1001700000100036003700520028000751E000E36D
:1001800000E20003512C002C0004513800500051B3
:10019000004F002B0014001A00090013000A000D84
:1001A000000F0018001C0033002A0029000400156D
:1001B000001600170007000B00110008000C0012C9
:1001C000003400E1001D001B000600190005000EB0
:1001D00000100036003700380028002C5DE000E2F7
:1001E00000E30003512C002C000451500051005238
:1001F000004F002B0034003600370013001C0009AC
:10020000000A00060015000F002A00290004001251
:1002100000080018000C0007000B00170011001662
:10022000003800E100330014000D000E001B000533
:100230000010001A0019001D0028002C5DE000E2EB
:1002400000E30003512C002C0004515000510052D7
:10025000004F0035001E001F002000210022002357
:100260000024002500260027002A000100010001CB
:100270000001000100010001002100220023002EE6
:10028000022D000100010001000100010001000138
:10029000001E001F002000A900280001000100012D
:1002A000000100010001000100010027002E00AA4A
:1002B00000A80035021E021F022002210222022392
:1002C0000224022502260227024C0001003A003BCC
:1002D000003C003D003E003F002D002E022F02306A
:1002E0000231020100400041004200430044004549
:1002F000002D0264022F00300001000100390001CE
:1003000000010001000100010001000100010001E5
:100310000001001E001E001E001E001E001E001E0A
:10032000001E001E001E001E001E00000014001A09
:10033000000800150017001C0018000C0012001324
:10034000002F00000004001600070009000A000B3F
:10035000000D000E000F00330034002D5D00000082
:10036000000600190000000000110010000000004D
:100370000000000100005C0100010001000100011B
:10038000000100C55CC65C0100285D01001D5C1E0B
:100390005C01000100010001000100C75CC85C01B4
:1003A00000295D0100265C275C295C010001000139
:1003B000000100C95CCA5C01002A5D01002B5C2AB7
:1003C0005C01000100010001000100C25CC35C018E
:1003D000002B5D3A003B003C003D003E003F0040EA
:1003E00000410042004300440045000100010001BB
:1003F00000010001000100010001000100010001F5
:1004000000010001000100010001000100010001E4
:1004100000010001000100010001000100010001D4
:1004200000010001000100010001000100010001C4
:1004300000010044454255473A2064697361626C8B
:1004400065642E0A0044454255473A20656E616254
:100450006C65642E0A000A002530313662003A20AD
:100460000025303258000A722F6320303132333485
:1004700035363738394142434445460A0061756490
:10048000696F20706C6179206E6F7465206672658B
:10049000713D256420766F6C3D256400617564694B
:1004A0006F2073746F70206E6F7465206672657153
:1004B0003D256400617564696F2073746F702061FD
:1004C0006C6C206E6F74657300726762206D61746E
:1004D00072697820736574207370656564205B258C
:1004E000735D3A2025750A00726762206D6174722F
:1004F00069782073657420687376205B25735D3A94
:100500002025752C25752C25750A00726762206DD3
:100510006174726978206D6F6465205B25735D3A44
:100520002025750A00726762206D617472697820F7
:10053000746F67676C65205B25735D3A2072676234
:100540005F6D61747269785F636F6E6669672E654F
:100550006E61626C65203D2025750A007267625FDE
:100560006D61747269785F696E69745F64726976CF
:10057000657273207267625F6D61747269785F6320
:100580006F6E6669672E6D6F6465203D20302E208A
:1005900057726974652064656661756C7420766154
:1005A0006C75657320746F20454550524F4D2E0A6F
:1005B000007267625F6D61747269785F696E6974F9
:1005C0005F64726976657273206565636F6E6669D4
:1005D00067206973206E6F7420656E61626C65645C
:1005E0002E0A007267625F6D61747269785F636F73
:1005F0006E6669672E7370656564203D2025640A08
:10060000007267625F6D61747269785F636F6E66B6
:1006100069672E6873762E76203D2025640A007265
:1006200067625F6D61747269785F636F6E66696738
:100630002E6873762E73203D2025640A007267624F
:100640005F6D61747269785F636F6E6669672E684B
:1006500073762E68203D2025640A007267625F6D04
:1006600061747269785F636F6E6669672E6D6F641F
:1006700065203D2025640A007267625F6D617472B7
:1006800069785F636F6E6669672E656E61626C651F
:10069000203D2025640A007267625F6D6174726993
:1006A000785F636F6E66696720454550524F4D0A0B
:1006B000006565636F6E6669675F75706461746518
:1006C0005F7267625F6D61747269785F64656661AD
:1006D000756C740A000001010101010101010102B0
:1006E00002020202020202020303030303030303E2
:1006F00004040404040404050505050506060606AD
:1007000006070707070708080808090909090A0A68
:100710000A0B0B0B0C0C0C0D0D0D0E0E0E0F0F0F0C
:100720001010111111121213131414151516161797
:1007300017181819191A1A1B1B1C1D1D1E1E1F2005
:1007400020212222232424252626272829292A2B52
:100750002C2D2D2E2F303132323334353637383977
:100760003A3B3C3D3E3F4041424344454647484971
:100770004A4C4D4E4F50515354555658595A5B5D43
:100780005E5F616264656668696B6C6D6F707273E1
:100790007577787A7B7D7E8082838587888A8C8E48
:1007A0008F91939596989A9C9EA0A2A3A5A7A9AB7A
:1007B000ADAFB1B3B5B7BABCBEC0C2C4C6C9CBCD6C
:1007C000CFD1D4D6D8DBDDDFE2E4E7E9EBEEF0F31E
:1007D000F5F8FAFDFF0A002530325820006B6579E4
:1007E000626F6172645F7265706F72743A20000AA2
:1007F0000025303258006B6579626F6172645F73F7
:1008000065745F6C65643A200064656C5F6B657944
:100810005F6269743A2063616E27742064656C3A84
:1008200020253032580A006164645F6B65795F622D
:1008300069743A2063616E2774206164643A2025EC
:100840003032580A004B6579626F617264207374AC
:100850006172742E0A005B575D005B535D005B5252
:100860005D005B445D005B435D00040330000000FD
:100870001A0350006C0061006E0063006B002000E2
:100880004C00690067006800740000000A034F0014
:100890004C004B0042000000040309040902BF00A1
:1008A000050100A0FA09040000010301010009216B
:1008B000110100012240000705810308000A090414
:1008C00001000103000000092111010001226D0057
:1008D0000705820320000A09040200020300000049
:1008E00009211101000122220007058303200001D4
:1008F00007050303200001080B03020101000009A2
:1009000004030000010100000924010001090001A5
:10091000040904040002010300000724010001414E
:100920000006240201010006240202020009240339
:10093000010301020100092403020401010100096D
:100940000505024000050000052501010109058497
:1009500002400005000005250101031201100100FD
:10096000000008EDFE65600100010203010631FF91
:100970000974A1010975150026FF009520750881ED
:10098000020976150026FF00952075089102C00522
:10099000010980A101850319012AB700150126B7B5
:1009A00000950175108100C0050C0901A1018504A5
:1009B00019012AA002150126A002950175108100D7
:1009C000C005010906A1018505050719E029E715FC
:1009D0000025019508750181020507190029EF1509
:1009E00000250195F0750181020508190129059579
:1009F0000575019102950175039101C00501090674
:100A0000A101050719E029E71500250195087501E1
:100A100081029501750881010507190029FF15005C
:100A200026FF00950675088100050819012905951E
:100A30000575019102950175039101C011241FBE36
:100A4000CFEFD0E2DEBFCDBF04B603FE27C080915A
:100A5000610C9091620CA091630CB091640C873092
:100A6000904BA740B04BD1F41092610C1092620CE5
:100A70001092630C1092640C14BE84B7877F84BFFD
:100A80000FB6F894A895809160008861809360000B
:100A9000109260000FBEE0E0F0EF099516E0A0E0D4
:100AA000B1E0EEE9F5EA00E00BBF02C007900D925D
:100AB000AC3CB107D9F72CE0ACECB6E001C01D921C
:100AC000A136B207E1F70E946C470C945B520C947C
:100AD0000000FF93EF93E091CC06F091CD063097A4
:100AE00009F00995EF91FF910895FC0185918030FF
:100AF00011F0EFDFFBCF0895FF27E0E230E247FF80
:100B00000CC0419597FF09C0EDE260957095809506
:100B10009095611D711D811D911D27FF02C02195BA
:100B200030E350E2AA27660F771F881F991FAA1F7C
:100B3000A41710F0A41B63955A95A9F7AA3008F0E2
:100B4000A95FA05DAF93F3956115710581059105CE
:100B500041F7ED3211F4EF93F395F21718F43F9348
:100B6000F395FBCF8F91B5DFFA95E1F70895E99101
:100B7000F9918591803021F0853219F0AADFF9CF03
:100B8000089520E0E89455915532C1F3503311F4A3
:100B9000689455915A3348F4505390F3220F022E23
:100BA000220F220F200D250FF4CF0EF421958991ED
:100BB0009991533619F3533729F1533559F1BC0143
:100BC00088279927E8945C3621F489919991689453
:100BD0005591543639F446EF7EF077FF0DC08FEF14
:100BE0009FEF0AC055374AE039F0583540E121F00F
:100BF000523642E009F00895FF93EF937DDFEF91C5
:100C0000FF91B7CFFF93EF93FC0181918030B9F34F
:100C100060DFFBCFFF93EF9368DFF1CFDF93CF93DC
:100C2000CDB7DEB72596A3DFCF91DF910895E82FEA
:100C3000F0E0893020F5E35AFD4A0C94595181E0E7
:100C400008958091D50608958091D2068170089507
:100C50008091D2068695817008958091D20682FB9C
:100C6000882780F908958091D20683FB882780F930
:100C700008958091D406EACF8091D406EBCF3997BE
:100C800041E050E060E070E004C0440F551F661F73
:100C9000771FEA95D2F78091CE069091CF06A0916A
:100CA000D006B091D106482359236A237B2381E0E3
:100CB000452B462B472B09F480E008950F931F9393
:100CC000CF93DF93C091D506C1115FC0809104011D
:100CD0000E941706D82F809105010E941706182F31
:100CE000809106010E941706082F809107010E943B
:100CF0001706412F50E0440F551F24E0029F80014A
:100D00001124E8E08E9FC00111249A01245F3E4F18
:100D10002D0F311D200F311F280F391FF901408180
:100D20008091D306811109C02091D40630E02F5F55
:100D30003F4F237033272093D40690E0019663E061
:100D400070E00E9426518093D3068091D20690E0F5
:100D500001968F7099278093D2068091CE0690914C
:100D6000CF06A091D006B091D106880F991FAA1F77
:100D7000BB1F840F911DA11DB11D8093CE069093C2
:100D8000CF06A093D006B093D106CF5FC170C093B9
:100D9000D506809108010E941706C82F809109018D
:100DA0000E941706D82F80910A010E941706DD0FB6
:100DB000880F880FD80FCD0F80910B010E94170666
:100DC000880F880F880F8C0FDF91CF911F910F91A3
:100DD0000895569A5E9A0C94D9100C9409078330A2
:100DE00039F4653029F48AE2FA01808381E00895BC
:100DF00080E008950C947D0780E00E94EE2B0C9417
:100E0000FE3F0F9306E024E043E00E94CA0D0F91DD
:100E10000895CF93FB018A322DE5920799F158F49A
:100E200088322DE59207E9F089329D4531F1C1E024
:100E30008C2FCF9108958C322DE5920741F188F1E6
:100E40008D329D45A1F7C281CC2391F340E066E04D
:100E500070E082EE91E00E94121785E00E94DE3B76
:100E60000AC0C281CC2321F38AE191E00E9475057A
:100E700080E00E94AA0DC0E0DBCFC281CC23C1F28A
:100E800081E0F7CFC28182E0CC2391F2F2CFC28120
:100E900085EECC2319F00E946934EDCF0E94F33423
:100EA000C7CFC281CC2321F20E94061840E066E041
:100EB00070E082E192E00E94121784E00E94DE3B23
:100EC00083E00E94DE3B86E00E94DE3B85E00E94DC
:100ED000BD3B0E946E3E811102C00E94193F0E94DC
:100EE000863E9093660B80688093650B8091650BBE
:100EF0009091660B0E94943EBECF1F93CF93DF93D9
:100F0000CDB7DEB7A3970FB6F894DEBF0FBECDBF47
:100F10008091D9068823E1F18091D6069091D70679
:100F2000892B39F583E2E5ECF4E0DE0111960190BE
:100F30000D928A95E1F70E945E0621E030E02C0FC9
:100F40003D1F280F311DF90110818091E101180F1B
:100F50008091D806811769F00E9450120E9457189C
:100F6000812F0E9450124FE050E00E9411191093FF
:100F7000D8068091D6069091D70601966091DF0140
:100F80007091E0010E9412519093D7068093D6068B
:100F9000A3960FB6F894DEBF0FBECDBFDF91CF9101
:100FA0001F9108959C012350314581E02230310585
:100FB00008F480E00895DF92EF92FF920F931F9361
:100FC000CF93DF93F82EE62ED42E0EEA11E0D0E078
:100FD000C0E0F80181918F0180FF06C02D2D4E2DBC
:100FE0006F2DCE010E9415232196C133D10589F7BB
:100FF000DF91CF911F910F91FF90EF90DF900895B7
:1010000060918F0970919009809191099091920956
:101010000E94F63D843009F4DEC2C8F4833009F43E
:101020006FC1609193097091940980919509909195
:1010300096090E94F63D813009F439C5882309F4E8
:1010400032C5823009F0B3C240E06FEF2EC5863062
:1010500009F415C4873029F722E442E864EF90E0F0
:1010600080E00E94152322E44CE864EF81E090E0E8
:101070000E94152322E446E964EF82E090E00E949A
:10108000152322E440EA64EF83E090E00E941523F8
:1010900022E44AEA64EF84E090E00E94152322E40F
:1010A00044EB64EF85E090E00E94152322E44EEBD0
:1010B00064EF86E090E00E94152322E448EC64EFA0
:1010C00087E090E00E94152322E442ED64EF88E07F
:1010D00090E00E94152322E44CED64EF89E090E05B
:1010E0000E94152322E446EE64EF8AE090E00E941D
:1010F000152322E440EF64EF8BE090E00E9415237B
:1011000020E645EF62E48CE090E00E94152322E3A4
:1011100042E362E38DE090E00E94152322E342E384
:1011200062E38EE090E00E94152322E342E362E353
:101130008FE090E00E94152322E342E362E380E126
:1011400090E00E94152322E342E362E381E190E014
:101150000E94152322E342E362E382E190E00E94D1
:10116000152322E342E362E383E190E00E9415232A
:1011700022E342E362E384E190E00E94152322E34C
:1011800042E362E385E190E00E94152322E342E31B
:1011900062E386E190E00E94152320E645EF62E4D9
:1011A00087E190E00E94152320E645EF62E488E1A4
:1011B00090E00E94152322E342E362E389E190E09C
:1011C0000E94152322E342E362E38AE190E00E9459
:1011D000152322E342E362E38BE190E00E941523B2
:1011E00022E342E362E38CE190E00E94152322E3D4
:1011F00042E362E38DE190E00E94152322E342E3A3
:1012000062E38EE190E00E94152322E342E362E371
:101210008FE190E00E94152322E342E362E380E243
:1012200090E00E94152322E342E362E381E290E032
:101230000E94152322E342E362E382E290E00E94EF
:10124000152320E645EF62E483E290E00E94152337
:1012500020E645EF62E484E290E00E94152320E658
:1012600045EF62E485E290E00E94152320E645EF19
:1012700062E486E290E00E94152320E645EF62E4F6
:1012800087E290E00E94152320E645EF62E488E2C1
:1012900090E00E94152320E645EF62E489E290E0A9
:1012A0000E94152320E645EF62E48AE290E00E9466
:1012B000152320E040E060E08BE290E00E941523DF
:1012C00020E645EF62E48CE290E00E94152320E6E0
:1012D00045EF62E48DE290E00E94152320E645EFA1
:1012E00062E48EE290E00E94152320E645EF62E47E
:1012F0008FE290E00E94152320E645EF62E453C19F
:1013000022E342E362E390E080E00E9415232FEFA6
:1013100040E060E081E090E00E9415232FEF40E084
:1013200060E082E090E00E9415232FEF40E060E053
:1013300083E090E00E9415232FEF40E060E084E01E
:1013400090E00E9415232FEF40E060E085E090E000
:101350000E9415232FEF40E060E086E090E00E94BD
:1013600015232FEF40E06EEB87E090E00E941523FD
:101370002FEF40E06EEB88E090E00E9415232FEF06
:1013800040E06EEB89E090E00E9415232FEF40E0F3
:1013900060E08AE090E00E94152322E342E362E3EA
:1013A0008BE090E00E94152322E342E362E38CE0AD
:1013B00090E00E94152322E342E362E38DE090E097
:1013C0000E94152322E342E362E38EE090E00E9454
:1013D000152322E342E362E38FE090E00E941523AD
:1013E00022E342E362E380E190E00E94152322E3DE
:1013F00042E362E381E190E00E94152322E342E3AD
:1014000062E382E190E00E9415232FEF40E06EEB53
:1014100083E190E00E9415232FEF40E06EEB84E122
:1014200090E00E9415232FEF40E06EEB85E190E005
:101430000E94152322E342E362E386E190E00E94EA
:10144000152322E342E362E387E190E00E94152343
:1014500022E342E362E388E190E00E94152322E365
:1014600042E362E389E190E00E94152322E342E334
:1014700062E38AE190E00E94152322E342E362E303
:101480008BE190E00E94152322E342E362E38CE1CA
:1014900090E00E94152322E342E362E38DE190E0B5
:1014A0000E94152322E342E362E38EE190E00E9472
:1014B00015232FEF40E06EEB8FE190E00E941523A3
:1014C0002FEF40E06EEB80E290E00E9415232FEFBB
:1014D00040E06EEB81E290E00E94152326E04AEFA7
:1014E0006AEE82E290E00E94152322E342E362E387
:1014F00083E290E00E94152322E342E362E384E268
:1015000090E00E94152322E342E362E385E290E04B
:101510000E94152322E342E362E386E290E00E9408
:10152000152322E342E362E387E290E00E94152361
:1015300022E342E362E388E290E00E94152322E383
:1015400042E362E389E290E00E94152322E342E352
:1015500062E38AE290E00E94152320E040E060E030
:101560008BE290E00E94152322E342E362E38CE2E7
:1015700090E00E9415232FEF40E06EEB8DE290E0AB
:101580000E94152322E342E362E38EE290E00E9490
:10159000152326E04AEF6AEE8FE290E00E941523C1
:1015A00022E342E362E380E390E00E94152360912E
:1015B00093097091940980919509909196090E94E0
:1015C000F63D833008F079C220E040E060E08AE236
:1015D00090E00C94152320E04FE66FEF90E080E060
:1015E0000E94152320E04FEF60E081E090E00E9430
:1015F000152320E04FEF60E082E090E00E94152389
:1016000020E04FEF60E083E090E00E94152320E0AF
:101610004FEF60E084E090E00E94152320E04FEF60
:1016200060E085E090E00E94152320E04FEF60E04D
:1016300086E090E00E94152320E04FEF60E087E015
:1016400090E00E94152320E04FEF60E088E090E0FA
:101650000E9415232FEF40E06FEF89E090E00E9499
:1016600015232FEF40E06FEF8AE090E00E941523F2
:1016700020E04FE66FEF8BE090E00E94152320E022
:101680004FE66FEF8CE090E00E94152320E040E0F1
:101690006FEF8DE090E00E94152320E040E06FEFB7
:1016A0008EE090E00E94152320E040E06FEF8FE095
:1016B00090E00E94152320E040E06FEF80E190E091
:1016C0000E94152320E040E06FEF81E190E00E944E
:1016D000152320E040E06FEF82E190E00E941523A7
:1016E00020E04FEF60E083E190E00E94152320E0CE
:1016F0004FEF60E084E190E00E9415232FEF40E07F
:101700006FEF85E190E00E9415232FEF40E06FEF2F
:1017100086E190E00E94152320E04FE66FEF87E11D
:1017200090E00E94152320E04FE66FEF88E190E003
:101730000E94152320E040E06FEF89E190E00E94D5
:10174000152320E040E06FEF8AE190E00E9415232E
:1017500020E040E06FEF8BE190E00E94152320E055
:1017600040E06FEF8CE190E00E94152320E040E024
:101770006FEF8DE190E00E94152320E040E06FEFD5
:101780008EE190E00E94152320E04FEF60E08FE1B2
:1017900090E00E94152320E04FEF60E080E290E0AF
:1017A0000E9415232FEF40E06FEF81E290E00E944E
:1017B00015232FEF40E06FEF82E290E00E941523A7
:1017C00020E04FE66FEF83E290E00E94152320E0D7
:1017D0004FE66FEF84E290E00E94152320E04FE691
:1017E0006FEF85E290E00E94152320E04FE66FEF57
:1017F00086E290E00E94152320E04FE66FEF87E23B
:1018000090E00E94152320E04FE66FEF88E290E021
:101810000E94152320E040E060E089E290E00E9411
:10182000152320E040E060E08AE290E00E9415236A
:1018300020E040E060E08BE290E00E94152320E091
:101840004FE66FEF8CE290E00E94152320E04FE618
:101850006FEF8DE290E00E94152320E04FE66FEFDE
:101860008EE290E00E94152320E04FE66FEF8FE2BA
:1018700090E00E94152320E04FE66FEF94CE22E324
:1018800042E362E390E080E00E94152320E040E024
:101890006FEF81E090E00E94152322E342E362E3D0
:1018A00082E090E00E94152322E342E362E383E0BA
:1018B00090E00E94152322E342E362E384E090E09B
:1018C0000E94152322E342E362E387E090E00E9456
:1018D00015232CEB4FEF60E088E090E00E94152389
:1018E0002CEB4FEF60E089E090E00E94152322E3AB
:1018F00042E362E38AE090E00E94152320E040E0AA
:101900006FEF8BE090E00E94152322E342E362E355
:101910008CE090E00E9415232FEF4EEB67E08DE006
:1019200090E00E9415232FEF4EEB67E08EE090E0F1
:101930000E94152322E342E362E38FE090E00E94DD
:10194000152322E342E362E380E190E00E94152345
:1019500022E342E362E383E190E00E94152325E560
:101960004FEF60E084E190E00E94152325E54FEF02
:1019700060E085E190E00E94152322E342E362E308
:1019800086E190E00E94152320E040E06FEF87E1C0
:1019900090E00E94152322E342E362E388E190E0B5
:1019A0000E9415232FEF4EEB67E089E190E00E9443
:1019B00015232FEF4EEB67E08AE190E00E9415239C
:1019C0002FEF4EEB67E08BE190E00E94152322E3BE
:1019D00042E362E38CE190E00E94152322E342E3BC
:1019E00062E38FE190E00E94152320E04FEF6FE665
:1019F00080E290E00E94152320E04FEF6FE681E245
:101A000090E00E94152322E342E362E382E290E049
:101A10000E94152320E040E06FEF83E290E00E94F7
:101A2000152322E342E362E384E290E00E9415235F
:101A30002FEF4EEB67E085E290E00E9415232FEF39
:101A40004EEB67E086E290E00E94152322E342E33A
:101A500062E387E290E00E94152322E342E362E31F
:101A600088E290E00E94152322E342E362E38CE2E5
:101A700090E00E94152320E04FEF6DEC8DE290E0A6
:101A80000E94152320E04FEF6DEC8EE290E00E9463
:101A9000152322E342E362E38FE290E00E941523E4
:101AA00020E040E0EACE48E660E080E003C04FEF8F
:101AB00060E08FEF0E94DB077ACD089581E0089502
:101AC00008950C94600D1F93CF93DF9300D000D046
:101AD0000F92CDB7DEB749835A836B8330913809B3
:101AE00089819A8131111DC06623B9F02223A9F0A2
:101AF0000E94AD3C182F682F89819A810E94593C21
:101B000069817A81812F0F900F900F900F900F9025
:101B1000DF91CF911F910C94D70E0E94853C182F16
:101B2000EFCF0E94AD3C69817A81EDCFFC01262F79
:101B3000408151816281738184810C94630DCF93C4
:101B4000DF93EC0160E00E94960DBE01DF91CF9122
:101B50000C94610DCF93DF93C82F20E8829FC001C2
:101B6000112440E060E170E08652994F0E94121704
:101B700061E070E0CB0102C0880F991FCA95E2F7BF
:101B8000EC010E94813EBE0190E080E0DF91CF91A8
:101B90000C945D3B8F929F92AF92BF92CF92DF9257
:101BA000EF92FF920F931F936B017C0181E090E015
:101BB000A0E0B0E04C015D0104C0880C991CAA1C97
:101BC000BB1C4A95D2F7B501A4014C015D0104C0CC
:101BD000880C991CAA1CBB1C2A95D2F748295929A4
:101BE0006A297B2904C0880F991FAA1FBB1F0A9569
:101BF000D2F78A019B010C211D212E213F210417C0
:101C000015072607370789F48C299D29AE29BF2996
:101C1000BC01CD011F910F91FF90EF90DF90CF900D
:101C2000BF90AF909F908F90089580959095A095CC
:101C3000B0958C219D21AE21BF21EACF0E94C440E6
:101C40000E946E3E811102C00E94193F0E949517AA
:101C50000E94792B0C94E9060E94D31C0E94F02963
:101C60000C94FA060895CF93DF930E94C2370E9426
:101C7000671C0E94981C0E943740EC0140E063E022
:101C800070E082E492E00E9412170E94320ECE01B0
:101C90000E944F408A3F910530F00E940618DF9164
:101CA000CF910C949E408FE99FE00197F1F700C01F
:101CB0000000EDCF0F931F93CF93DF93EC0161E012
:101CC0000E94960D8C01BE010E945D298823D1F1EE
:101CD000BE01C8010E94ED068823A1F1BE01C80122
:101CE0000E946D12882371F1BE01C8010E942F1D50
:101CF000882341F1BE01C8010E942B30882311F1D5
:101D0000BE01C8010E947D308823E1F0BE01C801F8
:101D10000E94CB318823B1F0BE01C8010E94422F3E
:101D2000882381F08A81882341F101308CE51807EE
:101D300079F00E3D8CE51807E9F001151C45E9F432
:101D40000E94330E80E0DF91CF911F910F91089593
:101D50009091BC09892F8E7F90FF81608093BC0990
:101D600080FF05C085E494E00E947505EBCF83E316
:101D700094E0FACF0E94193FE5CFCE01DF91CF91D9
:101D80001F910F910C945E0D08950C94C40E81E088
:101D900008950C94C70ECF93C82F0E94C50E8C2FA8
:101DA000CF910C94C90E90E080E008950895972F8C
:101DB00070E02CE0929F600D711D1124FB0190E3F7
:101DC000899FE00DF11D1124EE0FFF1FED5CFE4F0A
:101DD000859194910895FC01EE0FFF1FEA5AFB4F85
:101DE000859194910895CF93DF930E94D70E0E941E
:101DF000FF0FEC01811520E5920708F041C0811525
:101E000030E4930708F0B4C0803E910518F5803C9B
:101E1000910508F09DC0883A910570F4853A9105C6
:101E200008F08EC081309105F9F00097E9F0049731
:101E3000D8F4D0E0C0E018C08F3B9105D0F7C85A65
:101E4000D0E0CC0FDD1FCE52DA4F0990D881C02DE3
:101E5000D4640AC08115904258F4C11581E0D807B6
:101E600018F4C83ED10528F7CE01DF91CF9108952F
:101E7000C11590E3D90708F071C0CE019F706AC008
:101E8000811525E5920758F5811534E5930708F08B
:101E90009EC0811542E5940750F4C11581E5D8072D
:101EA00008F469C0DC2FCC27C16FD06ADDCF982F32
:101EB000969596959E0123703327C115D34508F05A
:101EC00077C0C1E0D0E002C0CC0FDD1F2A95E2F759
:101ED00020E2929FC0011124C82BD92B67C0C115E5
:101EE00089E5D807A8F4C11598E5D90708F074C0AA
:101EF000C11526E5D20708F09CCF8C2F0E949610C2
:101F0000C82FD0E0DC2FCC27CC27DF71D062ACCF3C
:101F1000C1153AE5D30708F464C0CE019056811587
:101F2000904208F086CF8D2F8F710E94961090E01E
:101F3000982F882788279F719C012C2BE901E6CFD9
:101F4000C55AD0E0C050DA4FC881D0E0D0648CCF01
:101F5000805C91090E94EB0EEC0186CFCE0199279F
:101F6000D3FF03C0EC01D86C7FCFEC01D06C7CCFE9
:101F7000DF70D06A79CFCE01E4E096958795EA9537
:101F8000E1F783702C2F26952695237090E2299FE8
:101F900090011124382B8C2F8370C1E0D0E002C057
:101FA000CC0FDD1F8A95E2F7C22BD32BDC685CCF08
:101FB000C1E0D0E002C0CC0FDD1F2A95E2F730E28D
:101FC000939FC0011124C82BD92BDA684DCFD82F8D
:101FD000CC27C46FD06A48CFDC2FCC27C06FD06A23
:101FE00043CF8C2F8F700E94961034E0D695C79502
:101FF0003A95E1F7CF709C2FEC01D06935CF82384C
:102000009105B1F1B0F48133910509F475C048F43C
:102010008932910509F469C08A32910509F473C0C7
:1020200008958533910509F459C08933910501F16B
:102030000895833E9105A9F138F4803E9105F9F0A9
:10204000823E910549F10895863E9105A9F1873EAA
:102050009105C9F1843E910519F52091660B21FF88
:102060001FC08091650B84FD14C087EE90E0089539
:102070002091650B2370A1F080EE90E008952091EF
:10208000650B20FD47C03091660B30FF09C024FF6F
:1020900044C090E080E004C02091650B22FDF7CFA2
:1020A00008952091650B22FD3BC03091660B30FDF9
:1020B000E3CF24FFF5CFEDCF2091650B23FFF0CFC9
:1020C00024FDE7CFD2CF2091650B23FD2CC03091AA
:1020D000660B31FFEECF84EE90E008952091650B02
:1020E00025FFDECF89E290E008952091650B25FF62
:1020F000D7CF85E390E008952091650B26FFD0CFE0
:102100008AE290E008952091650B26FFC9CF81E314
:1021100090E0089589E390E0089583EE90E00895BB
:1021200082EE90E0089586EE90E008959091650B20
:1021300092FF06C0282F28712830F9F4877F846029
:1021400093FF06C0282F28712831F1F4877E84611F
:102150002091660B20FF06C0382F38713830D9F433
:10216000877F816021FF06C0282F28712831D1F494
:10217000877E816194FD877E0895282F2471243005
:10218000F9F68B7F8860DCCF282F2471243101F78A
:102190008B7E8861DDCF382F3171313019F78E7F1A
:1021A0008860E0CF282F2171213121F78E7E886150
:1021B000E1CF0895E82FF0E0EE0FFF1FE551F64F55
:1021C000808191810895CF92DF92EF92FF920F93D9
:1021D0001F93CF93DF9386E694E00E9475058BEE04
:1021E000E82E89E0F82ED0E0C0E091E6C92E94E018
:1021F000D92E08E514E0DF93CF93DF92CF920E94AF
:102200000E068EE594E00E947505F701819191918B
:102210007F010E945B3E9F938F931F930F930E94B9
:102220000E0686E594E00E94750521968DB79EB74F
:1022300008960FB6F8949EBF0FBE8DBFC430D1056F
:10224000D1F6DF91CF911F910F91FF90EF90DF902A
:10225000CF90089580EA8A95F1F70895CF93DF93A0
:10226000AFE0B6E043E156E0C1E0D0E08D91E82F69
:10227000E295EF70F0E061A18F709E0101C0220F26
:102280008A95EAF7922F9095962391A382A1822BAB
:1022900082A34A175B0751F7A3E0B6E04FE056E090
:1022A000C1E0D0E08D91E82FE295EF70F0E061A100
:1022B0008F709E0101C0220F8A95EAF7922F9095A8
:1022C000962391A382A1822B82A34A175B0751F721
:1022D0001092E4091092E3091092EC091092EB09B4
:1022E0001092E6091092E5091092EE091092ED099C
:1022F0001092E8091092E7091092F0091092EF0984
:102300001092EA091092E9091092F2091092F1096B
:1023100084E00E941612DF91CF910C941E0E8F92D2
:102320009F92AF92BF92CF92DF92EF92FF920F9364
:102330001F93CF93DF938FE0E82E86E0F82E03EE15
:1023400019E0912CAA24A394B12CF70181917F016B
:10235000C82FC295CF70D0E099A18F70650101C0E0
:10236000CC0C8A95EAF7892F8C2989A38AA18C2C19
:10237000809488218AA30E942A11E3E0F6E050E0CD
:1023800040E030E020E06191A62FA295AF70B0E070
:1023900090968C9190E06F7002C0959587956A95A4
:1023A000E2F780FD3EC0C501042E02C0880F991FD0
:1023B0000A94E2F7282B392B4F5F5F4F4C305105C1
:1023C00011F789A1882289A28AA1C82ACAA2F80184
:1023D000808191812817390739F13183208381E089
:1023E000982A0E5F1F4FF3E1EF16F6E0FF0609F0A3
:1023F000ACCF292D44E06BEE79E083EE99E00E94AA
:1024000017120E942C0E892DDF91CF911F910F91F1
:10241000FF90EF90DF90CF90BF90AF909F908F9004
:10242000089590E080E0C6CF80E0DACF0895FF9273
:102430000F931F93CF93DF93F82E092F162FD72FCB
:10244000C42F222349F081E080935C080E9437402A
:1024500090935B0880935A0880915C088823A1F0D0
:1024600080915A0890915B080E944F40069760F057
:10247000EF2DF02FA12FBD2F90E080E0D0E08C1742
:102480009D0744F010925C08DF91CF911F910F914E
:10249000FF900895219131912D933D930196EFCFB7
:1024A0008554990BBC01990F880B990B0E940B4E18
:1024B00020E030E040E451E40E94614D9B01AC011A
:1024C00060E070E080E090E40E948F4F20E030E018
:1024D0004CED53E40E94224F0895FB018D312CE511
:1024E000920739F482818823A1F10E94A21980E029
:1024F00008958E312CE5920731F48281882349F1C9
:102500000E94B219F4CF8F312CE5920741F48281F9
:102510008823F9F00E949E198111F2CFE6CF8A320A
:102520002CE5920769F48281882399F00E94CB19E7
:1025300040E064E070E08AE592E00E941217D7CF95
:102540008B329C4531F48281882319F00E94D41982
:10255000EFCF81E008950E9450124FE050E00C94BC
:1025600011190E9450120C9457180C9406180895D3
:102570001F920F920FB60F9211240BB60F924F922B
:102580005F926F927F928F929F92AF92BF92CF9203
:10259000DF92EF92FF922F933F934F935F936F934E
:1025A0007F938F939F93AF93BF93EF93FF9380910C
:1025B0007108882309F4B1C1E090B308F090B40821
:1025C0001E141F040CF0A9C121E0E216F10409F465
:1025D000DEC020E030E0A9016091600870916108E0
:1025E00080916208909163080E945C4D8111C6C27F
:1025F000F701EE0FFF1FEE0FFF1FE158F74F80802E
:102600009180A280B38080919A02882309F4ADC2A0
:10261000C090A908D090AA08E090AB08F090AC0850
:1026200020E030E0A901C701B6010E945C4D88237B
:1026300009F49BC2A5019401C701B6010E945C4D3B
:1026400087FF5CC2A501940160E070E08CED93EC23
:102650000E94614D20E030E040E451E40E94614D71
:1026600020E030E040E05FE30E94224F9B01AC019C
:1026700060E070E080E090E40E948F4FA50194013B
:102680000E94224F9B01AC01C701B6010E945C4D24
:1026900087FF34C2A701960160E070E08CED93E4FF
:1026A0000E94614D20E030E040E451E40E94614D21
:1026B00020E030E040E05FE30E94224F9B01AC014C
:1026C00060E070E080E090E40E948F4F9B01AC01DD
:1026D000C701B6010E94224F6093A9087093AA080F
:1026E0008093AB089093AC086091A9087091AA08F8
:1026F0008091AB089091AC0820915D0830915E0804
:102700002F3F320731F02F5F3F4F30935E08209309
:102710005D080E94DD196B017C0120E034E244EF8A
:1027200051E40E945C4D87FF08C086EFC82E88E206
:10273000D82E84EFE82E81E4F82E20E030E040E04F
:1027400051E4C701B6010E94224F9B01AC0160E039
:1027500074E284E79BE40E94614D6B017C010E945E
:10276000DA4D709387006093860020919B02309130
:102770009C0240919D0250919E02C701B6010E94A9
:10278000224F0E94DA4D7093890060938800409038
:102790006008509061086090620870906308E09053
:1027A000B308F090B40820E030E0A901C301B20101
:1027B0000E941D4F18160CF0E5C182E0E816F104E6
:1027C0000CF452C08091B1089091B208B7010E94F8
:1027D00026516C019093B2088093B10880907308E1
:1027E00090907408A0907508B090760820E030E0D2
:1027F00040E85FE3C501B4010E94F04C60937308A8
:10280000709374088093750890937608F601EE0F24
:10281000FF1FEE0FFF1FE957F74FA30192016081E1
:102820007181828193810E94614D20E030E040E01F
:102830005EE30E94224F9B01AC01C501B4010E94DE
:102840001D4F18168CF4C6010196B7010E9426513F
:102850009093B2088093B108109273081092740894
:102860001092750810927608E091B108F091B208C4
:10287000EE0FFF1FEE0FFF1FE957F74F60817181C9
:102880008281938120915D0830915E082F3F32074D
:1028900031F02F5F3F4F30935E0820935D080E9418
:1028A000DD196B017C0120E034E244EF51E40E9429
:1028B0005C4D87FF08C066EFC62E68E2D62E64EF37
:1028C000E62E61E4F62E20E030E040E051E4C7015E
:1028D000B6010E94224F9B01AC0160E074E284E7E4
:1028E0009BE40E94614D6B017C010E94DA4D709364
:1028F00097006093960020919B0230919C0240913A
:102900009D0250919E02C701B6010E94224F0E9473
:10291000DA4D709399006093980080917208882333
:1029200009F406C2C0906D08D0906E08E0906F0860
:10293000F090700820E030E0A901C701B6010E94C4
:102940001D4F18160CF0E3C180915D0890915E0850
:102950008F3F980729F0019690935E0880935D0859
:10296000C701B6010E94DD1920E030E040E051E4EB
:102970000E94224F9B01AC0160E074E284E79BE47B
:102980000E94614D6B017C010E94DA4D70939700AB
:102990006093960020919B0230919C0240919D0291
:1029A00050919E02C701B6010E94224F0E94DA4D4B
:1029B000709399006093980060916708709168081F
:1029C0006F5F7F4F7093680860936708E090960090
:1029D000F090970090E080E00E94094E4B015C016E
:1029E0004090690850906A0860906B0870906C087D
:1029F000EF2809F495C180916608811191C1609119
:102A000096007091970090E080E00E94094E9B0133
:102A1000AC01C301B2010E94614D20E03FEF4FE7DE
:102A200057E40E94224F20E030E040E85FE30E943C
:102A3000EF4CA50194010E945C4D18160CF478C16E
:102A40008091640890916508019690936508809341
:102A500064082091F3093091F4098217930748F034
:102A60008091FA09882309F46CC1109265081092CC
:102A70006408E091F509F091F6098091640890915D
:102A80006508409166089C0153E0220F331F5A9558
:102A9000E1F741118AC141E04093660801979093A4
:102AA000650880936408E20FF31FDF011897CD904B
:102AB000DD90ED90FC902081318142815381C701EE
:102AC000B6010E945C4D811167C110926D08109291
:102AD0006E0810926F081092700880E090E0A0E8F5
:102AE000BFE38093690890936A08A0936B08B09342
:102AF0006C0810926808109267081AC1A501940129
:102B0000C701B6010E941D4F18167CF5A50194015E
:102B100060E070E08CED93E40E94614D20E030E0D5
:102B200040E451E40E94614D20E030E040E05FE38A
:102B30000E94224F9B01AC0160E070E080E090E4D5
:102B40000E948F4FA50194010E94224F9B01AC016E
:102B5000C701B6010E941D4F18163CF4A70196014B
:102B600060E070E08CED93EC9BCD8092A908909290
:102B7000AA08A092AB08B092AC08B6CD60E070E0B5
:102B8000CB01BACDF701EE0FFF1FEE0FFF1FED5780
:102B9000F74F80809180A280B38080919A02882331
:102BA00009F4ACC0C090AD08D090AE08E090AF087A
:102BB000F090B00820E030E0A901C701B6010E9402
:102BC0005C4D882309F49AC0A5019401C701B601A0
:102BD0000E945C4D87FF5BC0A501940160E070E03E
:102BE0008CED93EC0E94614D20E030E040E451E434
:102BF0000E94614D20E030E040E05FE30E94224F00
:102C00009B01AC0160E070E080E090E40E948F4F97
:102C1000A50194010E94224F9B01AC01C701B6019E
:102C20000E945C4D87FF33C0A701960160E070E011
:102C30008CED93E40E94614D20E030E040E451E4EB
:102C40000E94614D20E030E040E05FE30E94224FAF
:102C50009B01AC0160E070E080E090E40E948F4F47
:102C60009B01AC01C701B6010E94224F6093AD08E1
:102C70007093AE088093AF089093B0086091AD0850
:102C80007091AE088091AF089091B008FBCDA5017E
:102C90009401C701B6010E941D4F18167CF5A501CD
:102CA000940160E070E08CED93E40E94614D20E0BF
:102CB00030E040E451E40E94614D20E030E040E02B
:102CC0005FE30E94224F9B01AC0160E070E080E076
:102CD00090E40E948F4FA50194010E94224F9B0116
:102CE000AC01C701B6010E941D4F18163CF4A701A4
:102CF000960160E070E08CED93EC9CCF8092AD0883
:102D00009092AE08A092AF08B092B008B7CF1092E0
:102D100097001092960010929900109298004CCE55
:102D2000A3019201C501B4010E941D4F87FF88CE07
:102D30008091F70980FD11C01092720810927108FD
:102D40000CC0809171008D7F809371008091900004
:102D50008F738093900010927208FF91EF91BF9152
:102D6000AF919F918F917F916F915F914F913F9123
:102D70002F91FF90EF90DF90CF90BF90AF909F90FA
:102D80008F907F906F905F904F900F900BBE0F9041
:102D90000FBE0F901F901895C0926D08D0926E08CC
:102DA000E0926F08F092700898CE10926608109228
:102DB0005E0810925D08E20FF31F80819181A2816D
:102DC000B38180936D0890936E08A0936F08B093C1
:102DD000700820E030E040E85EE364817581868120
:102DE00097810E94224F6B017C0160919F0270E0ED
:102DF00090E080E00E94094E20E030E048EC52E490
:102E00000E94614D9B01AC01C701B6010E94224F97
:102E10006093690870936A0880936B0890936C08BC
:102E200068CE1895CF92DF92EF92FF92CF93DF9307
:102E3000EC016B01F42E80915F08811102C00E94A9
:102E400095178091F70980FF69C0809171008D7F8F
:102E50008093710080916F008D7F80936F008091CF
:102E6000710881110E94061881E080937208D09346
:102E7000F609C093F509D092F409C092F309F092D3
:102E8000FA09109273081092740810927508109243
:102E90007608109265081092640888819981AA8149
:102EA000BB8180936D0890936E08A0936F08B093D8
:102EB000700820E030E040E85EE36C817D818E8127
:102EC0009F810E94224F6B017C0160919F0270E004
:102ED00090E080E00E94094E20E030E048EC52E4AF
:102EE0000E94614D9B01AC01C701B6010E94224FB7
:102EF0006093690870936A0880936B0890936C08DC
:102F00001092680810926708809171008260809327
:102F1000710080919000806880939000DF91CF9144
:102F2000FF90EF90DF90CF9008950F931F93CF9372
:102F3000DF930E946E3E811102C00E94193F0E94E1
:102F4000A13E8093F70980915F0881114BC03E9AA2
:102F5000809171008D7F80937100259A80916F0020
:102F60008D7F80936F0002E0009390001AE1109330
:102F70009100C1ECD1E1D0939700C093960023EA71
:102F80003BE04EE855E460919B0270919C02809179
:102F90009D0290919E020E94224F0E94DA4D7093F2
:102FA0009900609398000093800010938100D09363
:102FB0008700C093860023EA3BE04EE855E4609129
:102FC0009B0270919C0280919D0290919E020E94B2
:102FD000224F0E94DA4D709389006093880081E04F
:102FE00080935F088091F70980FF0BC040E070E09C
:102FF00060E08DE598E0DF91CF911F910F910C94E7
:103000001217DF91CF911F910F9108958091BC0904
:1030100080FF08C084EB94E09F938F930E940E067C
:103020000F900F9080915F08811102C00E94951748
:103030001092B4081092B308809171008D7F809334
:103040007100809190008F738093900080916F0049
:103050008D7F80936F00809180008F7380938000BC
:1030600010927208109271081092AD081092AE087A
:103070001092AF081092B0081092A9081092AA08F6
:103080001092AB081092AC081092A8081092A708F2
:10309000E7E8F8E0A7E7B8E01192119211921192D7
:1030A0001D921D9288E0E73AF807B1F70895CF9294
:1030B000DF92EF92FF920F931F93CF93DF936B01F9
:1030C0007C018091BC0980FF0FC0C7010E94D34DD5
:1030D0007F936F938CE994E09F938F930E940E06E9
:1030E0000F900F900F900F9080917108882309F432
:1030F00071C080915F08811102C00E94951707E896
:1031000018E0C7E0D0E0A7019601F801648D758D45
:10311000868D978D0E945C4D811176C0FE01EE0F69
:10312000FF1FEE0FFF1FE957F74F10821182128227
:103130001382CC0FDD1FC958D74F1982188288E03F
:10314000E33AF80709F04FC08091B3089091B408B2
:10315000019797FD61C09093B4088093B308809164
:10316000B3089091B4082091B1083091B2082817A3
:10317000390724F01092B2081092B108892B51F54A
:10318000809171008D7F80937100809190008F738A
:103190008093900080916F008D7F80936F0080916D
:1031A00080008F73809380001092AD081092AE085B
:1031B0001092AF081092B0081092A9081092AA08B5
:1031C0001092AB081092AC081092A8081092A708B1
:1031D00010927108DF91CF911F910F91FF90EF90A6
:1031E000DF90CF90089584819581A681B7818193E6
:1031F0009193A193B19310821182128213828A81DA
:103200009B818993999399CF219704501109CF3FBE
:10321000DC0709F078CF98CF1092B4081092B30869
:103220009ECFCF92DF92EF92FF92CF93DF936B010D
:103230007C01D42FC52F8091BC0980FF13C05F9300
:103240004F93C7010E94D34D7F936F938DE794E016
:103250009F938F930E940E060F900F900F900F90E8
:103260000F900F9080915F08811102C00E94951706
:103270008091F70980FF5BC08091B3089091B408FA
:1032800008970CF054C0809171008D7F809371007D
:1032900080916F008D7F80936F0080917208811103
:1032A0000E94061881E08093710810925E081092C7
:1032B0005D0820E030E0A901C701B6010E941D4F62
:1032C0001816DCF48091B3089091B408FC01EE0F5D
:1032D000FF1FEE0FFF1FE957F74FC082D182E28236
:1032E000F382FC01EE0FFF1FE958F74FD083C18333
:1032F00001969093B4088093B30880917100826026
:1033000080937100809190008068809390008091FC
:10331000B3089091B408029754F080916F008260D6
:1033200080936F0080918000806880938000DF919F
:10333000CF91FF90EF90DF90CF9008958091F709A3
:10334000817008958091F70981608093F7090E9448
:10335000A53E0E94B71240E062E070E08AE892E089
:103360000C94121740E062E070E08AE792E00E945D
:1033700012172FEF81EE94E0215080409040E1F74A
:1033800000C000000E9406188091F7098E7F80938C
:10339000F7090C94A53E8091B50890E001968770DE
:1033A00099278093B50808958091B50890E0079615
:1033B000877099278093B50808958F929F92AF9256
:1033C000BF92CF92DF92EF92FF92CF93DF936B0188
:1033D0007C01C0915D08D0915E08BE0190E080E064
:1033E0000E94094E4B015C01A701960160E070E06C
:1033F0008CE594E40E94614D9B01AC01C501B401D0
:103400000E94224F0E94DA4D9B01E091B508E830FE
:10341000D8F4F0E0EA59FD4A0C94595110929A02FE
:1034200080E090E0A0E0BFE380939B0290939C0239
:10343000A0939D02B0939E021092600810926108C2
:103440001092620810926308C701B601DF91CF9114
:10345000FF90EF90DF90CF90BF90AF909F908F90B4
:10346000089510929A0210926008109261081092CA
:103470006208109263086431710580F46A30710546
:1034800080F080E090E0A0E8BEE380939B02909300
:103490009C02A0939D02B0939E02D6CF693C710519
:1034A00080F380E090E0A0E0BEE3EFCF10929A02BC
:1034B00010926008109261081092620810926308DE
:1034C00020E030E040EA52E4C701B6010E945C4DC2
:1034D00087FDBACF20E030E040E253E4C701B601F7
:1034E0000E945C4D87FF3EC00E94CF5168E270E0B1
:1034F0000E942651BC01645C7F4F072E000C880B94
:10350000990B0E940B4E6B017C0180915D0890919C
:103510005E088B30910508F18531910508F04AC0AD
:1035200065E170E0681B790B90E080E00E94094E35
:1035300020E030E040E05FE30E94224F20E030E0F6
:1035400040E251E40E94614D60939B0270939C02A3
:1035500080939D0290939E0277CF80E090E0A0E060
:10356000BFE393CF20E030E040EA53E4C701B60167
:103570000E945C4D87FF27C00E94CF5168EE73E028
:103580000E942651BC0168517C4F072E000C880B0D
:10359000990B0E940B4E6B017C0180915D0890910C
:1035A0005E0886309105C8F265E170E085319105CD
:1035B00008F46BC010929B0210929C0210929D0224
:1035C00010929E0241CF20E030E040E254E4C70177
:1035D000B6010E945C4D87FF2FC00E94CF5160ED65
:1035E00077E00E942651BC016854744F072E000CEE
:1035F000880B990B0E940B4E6B017C0180915D083A
:1036000090915E088031910508F4A7CF853191052E
:1036100088F665E170E0681B790B90E080E00E941D
:10362000094E20E030E040E05FE30E94224F20E0BE
:1036300030E040EA50E486CF20E030E040EA54E455
:10364000C701B6010E945C4D87FFFECE0E94CF519C
:1036500060ED77E00E942651BC016854744F072E3C
:10366000000C880B990B0E940B4E6B017C01809122
:103670005D0890915E088432910508F46ECF833323
:10368000910508F097CF63E370E0681B790B90E039
:1036900080E00E94094E20E030E040E05FE30E94BD
:1036A000224F20E030E040E751E44CCF41E040932E
:1036B0009A021092600810926108109262081092AB
:1036C00063086431710540F46A30710560F120E0EF
:1036D00030E040E05FE32BC0693C710508F06ACF41
:1036E00090E080E00E94094E20E030E040EA51E4A2
:1036F0000E94EF4C20E030E044E353E40E94614D2F
:103700009B01AC010E94224F20E030E040E05EE3EC
:103710000E94224F9B01AC0160E070E080E09EE3DC
:103720000E94EF4C11CF20E030E040E85EE3C7019B
:10373000B6010E94224F6B017C01B3CE21E02093A1
:103740009A0210926008109261081092620810921A
:1037500063084AE0469F9001479F300D1124C9013C
:1037600068EB7BE00E941251BC016C5D754077FFF5
:1037700003C0719561957109072E000C880B990B98
:103780000E940B4E2EE333EC4EE259E30E94224F8F
:1037900020E030E040EC5EE30E94F04CD5CE81E0CA
:1037A00080939A0210926008109261081092620849
:1037B00010926308CE0183709927892B09F1BE010D
:1037C0006170772790E080E00E94094E20E030E0B1
:1037D00040E05EE30E94224F20E030E040E45FE3FF
:1037E0000E94F04C60939B0270939C0280939D0218
:1037F00090939E02C770DD27CD2B09F025CEDACE3F
:1038000080E090E0A0E0BFE380939B0290939C0255
:10381000A0939D02B0939E02EDCF41E040939A02A7
:10382000109260081092610810926208109263086A
:10383000812C912CA12C9FE3B92E80929B02909217
:103840009C02A0929D02B0929E022739310508F495
:10385000FBCD90E080E00E94094E20E030E047E19F
:1038600053E40E94EF4C20E030E04AE754E40E9429
:10387000614D20E030E048E452E40E94224F20E015
:1038800030E040EA51E40E94514E0E94D34D660F51
:10389000771F660F771F6D5E794FFB0120813181A5
:1038A00042815381C701B6010E94224F6B017C0106
:1038B000CBCD2FE7482F60E087E69BE00C943741A3
:1038C00020E0482F60E087E69BE00C94474120E031
:1038D0004BE760E087E69BE00C94274187E69BE09E
:1038E0000C943643CF93C82F8091CE08882319F0CB
:1038F0008C2F0E94AB128091CD08882321F08C2F51
:10390000CF910C94591CCF910895CF93C82F8091DB
:10391000CE08882319F08C2F0E94B1128091CD0817
:10392000882321F08C2FCF910C94601CCF910895A7
:103930008091CE0881110E94B5128091CD0881112D
:103940000C94671C08950C94D2070E94981C109246
:10395000CE0840E068E070E080E293E00C9412173B
:103960000E94671C1092CD0840E068E070E080EA99
:1039700092E00C9412170E94981C2091420430E0AF
:103980002F5F3F4F237033272093420448E2429F2A
:10399000C001439F900D112440E065E070E0805627
:1039A0009C4F0C941217CF938091CA088823F1F092
:1039B0008091B6089091B708009779F40E9437403B
:1039C0009093B7088093B6088091B808282F30E00C
:1039D000882371F0C90101970FC00E944F402091C8
:1039E0004004309141042817390740F3CF910895DE
:1039F0008091B9088150990B2654374FF901C08145
:103A00008654974FFC0180810E94851C8C2F0E9458
:103A1000721C8091B80890E001966091B90870E03E
:103A20000E9426518093B808E1CF089581E08093E9
:103A3000CE0840E068E070E080E693E00E94121754
:103A40000C94151D089581E08093CD0840E068E056
:103A500070E080EE92E00E9412170C94221DEF920B
:103A6000FF921F93CF93DF93CDB7DEB7A3970FB627
:103A7000F894DEBF0FBECDBF7C0186323CE59307D4
:103A8000A9F4DB0112968C91882309F458C00E9496
:103A9000161D80E0A3960FB6F894DEBF0FBECDBF13
:103AA000DF91CF911F91FF90EF9008958732BCE591
:103AB0009B0741F4FB018281882309F440C00E94E6
:103AC000A51CE7CF8832FCE59F0751F48091CE0812
:103AD000DB0112969C91992391F18111F0CFD7CF00
:103AE0008C32BCE59B0739F4FB018281882339F1D4
:103AF0000E94231DCECF8D32FCE59F0741F4DB01F0
:103B000012968C918823D9F00E94B01CC2CF8E32BD
:103B1000BCE59B0749F4FB018281882381F08091F9
:103B2000CD088111F1CFE4CF89329C4541F4DB010E
:103B300012968C91882319F00E94BB1CAACF809109
:103B4000CE08811105C08091CD08882309F4D5C025
:103B5000FB012281222309F450C0F0EEEF16F1049C
:103B600061F40E94981C81E08093CC081092CB08ED
:103B70001092CA081092B9088CCF32EEE316F10405
:103B800071F40E94981C8091CC08882319F081E080
:103B90008093CB081092CC081092CA087ACF83EE9B
:103BA000E816F10491F48091CB08882331F10E944A
:103BB000981C1092CC0881E08093CA081092B80833
:103BC0001092B7081092B60864CF92E5E916F10496
:103BD00051F480914004909141040A9790934104DC
:103BE0008093400456CFA1E5EA16F10431F48091A8
:103BF0004004909141040A96F1CF809142041091C3
:103C00004504811111C0135080914304180FFB012A
:103C10008081180F318184E090E0831B9109FCE0E2
:103C20008F9F100D112414C0813061F5105E8091BA
:103C30004304180FDB018C91180F11963C9184E01E
:103C400090E0831B9109982F990F990F890F180FF6
:103C5000812F222309F44EC00E94721C8091CC084F
:103C6000882351F08091B908E82FF0E0E654F74F2F
:103C700010838F5F8093B908C7010E94A31C91E055
:103C8000892708CF823071F4105E80914304180FA9
:103C9000FB018081180F318184E090E0831B910942
:103CA000F7E0BECF8330A1F683E2E8EEF4E0DE0178
:103CB000119601900D928A95E1F7DB01EC9181E07C
:103CC00090E08C0F9D1F8E0F911DFC01809143048D
:103CD00090914404E80FF91F13508081180F11963A
:103CE0003C9184E090E0831B9109ACE08A9F100D29
:103CF0001124AECF0E94851CBFCF81E0CBCEEF92C6
:103D0000FF920F931F93CF93DF93EB01E82FD11115
:103D100010C0442321F0F0E0EB52F94FE4916E2FF4
:103D20007E2F8E2FDF91CF911F910F91FF90EF90FB
:103D300008950D2F10E0282F30E0442329F02B5256
:103D4000394FF901249130E0F6E0CF9FC0011124F2
:103D5000EFEFF0E0BF010E941251AB018C2F90E019
:103D6000880F991FA5E5A49FB001A59F700D112490
:103D7000861B970B982F990F980FBF01601B710B33
:103D8000629FD001639FB00D729FB00D11248B2FE5
:103D90009D9FB0011124672F7727EF01C61BD70B1A
:103DA000BE01629FE001639FD00D729FD00D112470
:103DB0007F01E91AF108E09EB001E19E700DF09ECE
:103DC000700D1124672F7727E61BF70BE29F800108
:103DD000E39F100DF29F100D1124E12F722F42303E
:103DE000510599F048F44115510569F041305105EC
:103DF00081F0EB2F8D2F07C04430510569F080F022
:103E000046305105B1F76E2F8DCFE22F7B2F812FDA
:103E1000FACFE22F7D2FF7CFEB2F822F712FF3CF29
:103E20007B2F822FED2FEFCF41E00C947F1E30E0EF
:103E300020E0869F212D969F200D311D1124C90160
:103E40000895AC018230910508F408959FEF413E3A
:103E50008EE1580740F49A0195E0369527959A959A
:103E6000E1F798E0920F61E0E62FE90FFF27FF1FCF
:103E70009F0135952795822F229FF001239FF00DFA
:103E8000F00D11244E175F0738F49FEF920F96172D
:103E900058F78FEF860F08952F3FE9F361E0620F27
:103EA000F6CFE82F86FDE0952E2F2F7086FD2F5F31
:103EB000E695E695E695E670F0E0E459F94F9181D4
:103EC000929F902D212D112492959F702295207FF5
:103ED000922B2081920F87FD919580E8890F08959C
:103EE000E42FF0E0EE0FFF1FE45BFE4F408134EE65
:103EF000439F412D1124E72FF0E050E0445E5F4FD7
:103F0000DA01A21BB1099D01B7FF03C031952195CC
:103F1000310993E0220F331F9A95E1F7AF01421B5D
:103F2000530B9A0157FD20E0279F212D1124722F5A
:103F30000895E42FF0E0EE0FFF1FE45BFE4F408199
:103F400034EE439F412D1124E82FF0E050E0445E11
:103F50005F4FDA01A21BB1099D01B7FF03C0319584
:103F60002195310993E0220F331F9A95E1F7AF01B4
:103F7000421B530B9A0157FD20E0582F259F212DFE
:103F80001124822F0895622F0895E42FF0E0EE0FA0
:103F9000FF1FE45BFE4F6081621B0895E42FF0E099
:103FA000EE0FFF1FE45EFE4F61A9621B0895322FE2
:103FB00050E0FA01EE0FFF1FE45EFE4F91A9905210
:103FC00097FD9195440F551FFA01E45BFE4F208148
:103FD000231B330B290F311D97FD3A95620F08956E
:103FE000EF920F93972F23E0029FB0011124759554
:103FF00067956E0D792F0F91EF9008950F93CF93E2
:10400000DF93D72FC82F47FD419588E390E0841BAD
:10401000910947FD9395889FB001899F700D700DA0
:104020001124229FC001239F900D900D1124860F13
:10403000971F0E94211F982F990F890F682F600FDB
:104040007D2F8C2FDF91CF910F9108950F931F93A8
:10405000522F10E0F801EE0FFF1FE45EFE4FA1A902
:10406000A052BB0B9D015203F001539FF00D112490
:10407000000F111FD801A45BBE4F0C910057110B0C
:1040800040039001419F300D11242E0F3F1F37FF39
:1040900002C021583F4F220F232F221F330B620FE4
:1040A0001F910F9108950F931F93522F10E0F80165
:1040B000EE0FFF1FE45EFE4FA1A9A052BB0B9D01B6
:1040C0005203F001539FF00D1124000F111FD8016E
:1040D000A45BBE4F0C910057110B40039001419F10
:1040E000300D11242E0F3F1F37FF02C0215C3F4FC0
:1040F00096E0359527959A95E1F7620F1F910F91FC
:1041000008950F931F9310E0F801EE0FFF1FE45B7B
:10411000FE4F9081905797FD9195000F111FF80168
:10412000E45EFE4F01A90052110B2003F001219F14
:10413000F00D112408E310E0091B110997FD1395F8
:1041400040039001419F300D1124E20FF31F9F01A6
:10415000220F331F2E0F3F1F37FF02C021583F4F42
:10416000220F232F221F330B620F1F910F910895EF
:104170004095282F429F412D1124842F089522E835
:10418000241B08F420E0620F0895EF92FF920F9332
:10419000970195E0099F200D311D11242F3F310516
:1041A00019F010F02FEF30E02095382F320F08F47F
:1041B0003FEF832F0F91FF90EF900895EF92FF92C2
:1041C0000F931F930E0D1F2D111DF90137FF03C013
:1041D000F195E195F10924E0EE0FFF1F2A95E1F733
:1041E000EF3FF10519F014F0EFEFF0E09A0157FFFF
:1041F00003C031952195310994E0220F331F9A9520
:10420000E1F72E173F070CF4F901E00FF11FEF3F24
:10421000F10519F010F0EFEFF0E0E095282F3E2FB8
:10422000230F08F42FEF822F1F910F91FF90EF9033
:104230000895EF92FF920F93972F093438F4B70146
:10424000601B71096F3F710519F010F06FEF70E09E
:10425000485F5F4F4131510540F0A901485F5F4F12
:104260004131510510F06FEF70E06095482F460F17
:1042700008F44FEF842F37FF02C02D5F3F4F359575
:104280002795359527956091FC09620F792F0F913D
:10429000FF90EF900895EF92FF920F939701201BEC
:1042A00031092F3F310519F010F02FEF30E0322F98
:1042B0003095482F430F08F44FEF842F620F0F9172
:1042C000FF90EF900895EF92FF920F939701201BBC
:1042D00031092F3F310519F010F02FEF30E0209514
:1042E000382F320F08F43FEF832F0F91FF90EF909C
:1042F0000895FC019B01009729F480E077FF2BC013
:1043000080E80895AC0197FF04C044275527481B57
:10431000590BB901640F751F37FD10C0241B350BF5
:10432000C901A5E0880F991FAA95E1F70E942651BF
:1043300080E2861BF7FF0FC081950895CB0165E0F1
:10434000880F991F6A95E1F7BA01621B730B0E94EF
:10435000265180E6EECF08950F931F93CF93DF93FE
:10436000D62F172FC82FC901272F201B022FBA01C4
:104370000E947921982F990F990F782F791B700F30
:10438000719F712D11246D2F8C2FDF91CF911F9173
:104390000F9108950F931F93CF93DF93D62FC72FBD
:1043A000182FC901212F201B022FBA010E94792149
:1043B000982F990F990F891B800F282F219F212D4E
:1043C0001124822F6D2F7C2FDF91CF911F910F91A0
:1043D0000895EF920F931F93CF93DF93D62F172F4C
:1043E000C82FC9010E19070FBA010E947921702F39
:1043F000781B719F712D11246D2F8C2FDF91CF9120
:104400001F910F91EF900895EF920F931F93CF9309
:10441000DF93D62FC72F182FC9010E19010FBA012C
:104420000E947921081B202F219F212D1124822FEA
:104430006D2F7C2FDF91CF911F910F91EF900895F9
:104440000F93CF93DF93D72FC82FC901BA010E94D2
:104450007921682F600F7D2F8C2FDF91CF910F91E5
:104460000895EF920F93CF93DF93D72FC82FC901F1
:104470000E19BA010E947921602F681B7D2F8C2FA5
:10448000DF91CF910F91EF90089545E050E06CE1FE
:1044900070E08BEF99E00C94E75145E050E06CE15F
:1044A00070E08BEF99E00C9405528091BC0980FF7D
:1044B00008C081EB96E09F938F930E940E060F90A9
:1044C0000F9085E38093FB0980910B0590910C057B
:1044D000A0910D058093FC099093FD09A093FE091E
:1044E0008FE78093FF090C944D228091BC0980FFD7
:1044F00077C087E996E09F938F930E940E06809184
:10450000BC090F900F9080FF6BC08091FB098370F6
:104510001F928F9388E796E09F938F930E940E06D9
:104520008091BC090F900F900F900F9080FF58C0A2
:104530008091FB09869586951F928F938BE596E077
:104540009F938F930E940E068091BC090F900F904D
:104550000F900F9080FF44C08091FC091F928F93B1
:104560008DE396E09F938F930E940E068091BC0985
:104570000F900F900F900F9080FF32C08091FD0937
:104580001F928F938FE196E09F938F930E940E0668
:104590008091BC090F900F900F900F9080FF20C06A
:1045A0008091FE091F928F9381E096E09F938F93F5
:1045B0000E940E068091BC090F900F900F900F90F3
:1045C00080FF0EC08091FF091F928F9383EE95E0CC
:1045D0009F938F930E940E060F900F900F900F9055
:1045E00008950F931F93CF93DF93C82FD62F8A017F
:1045F0000E94EF069CE0C99FB0011124645E7E4FCB
:104600006D0F711DFB0190819F3F29F0F801E80FAC
:10461000F11D90838F5FDF91CF911F910F910895CE
:10462000E0917A06F0917B060994E0917606F0918C
:10463000770609943F924F925F926F927F928F928A
:104640009F92AF92BF92CF92DF92EF92FF920F9321
:104650001F93CF93DF933C012B01FC01C0818AE0C3
:10466000C89FC02D11241AE01C0FF12E123310F038
:1046700031E3F32E6091FF0966958091000A9091D5
:10468000010A0E94171F382ED0E0CE01880F991F13
:104690009C01245E3E4F6901CF15B0F081E01133DB
:1046A00008F080E0DF91CF911F910F91FF90EF9084
:1046B000DF90CF90BF90AF909F908F907F906F9042
:1046C0005F904F903F900895FE01E255FE4F80812C
:1046D000F3019181892379F1F60180A9282F2057D0
:1046E000330B590181A9E82FE052FF0B4F01AA9C1F
:1046F0009001AB9C300D300D1124EE9FC001EF9F57
:10470000900D900D1124820F931F0E94211F082FDE
:104710006091FC097091FD098091FE09E32C9401E0
:10472000A501F20109950E94141F462F282F672F1B
:10473000CE010E941523F2E0CF0ED11C2196ACCF02
:1047400069EE71E20C941A2364E072E20C941A236D
:1047500060EF7FE10C941A2361E372E20C941A2358
:104760008F929F92AF92BF92CF92DF92EF92FF9281
:104770000F931F93CF93DF935C016B01FC01C0810A
:104780008AE0C89FC02D11241AE01C0F912E12330D
:1047900010F031E3932E6091FF0966958091000A35
:1047A0009091010A0E94171F882ED0E0CE01880F39
:1047B000991F9C01245E3E4F7901C91588F081E064
:1047C000113308F080E0DF91CF911F910F91FF909E
:1047D000EF90DF90CF90BF90AF909F908F90089513
:1047E000FE01E255FE4F8081F50191818923C1F0E0
:1047F000F70121A92052330B40A94057550B609176
:10480000FC097091FD098091FE09082DF6010995BA
:104810000E94141F462F282F672FCE010E941523B8
:10482000F2E0EF0EF11C2196C8CF6CEA71E20C9415
:10483000B0236AEC71E20C94B0236EEF7FE10C942C
:10484000B02360E272E20C94B023BF92CF92DF9269
:10485000EF92FF920F931F93CF93DF936C017B0135
:10486000FC01C0818AE0C89FC02D11241AE01C0FF2
:10487000012F123308F001E36091FF0966956695F8
:104880008091000A9091010A0E94171FB82ED0E073
:10489000C01770F081E0113308F080E0DF91CF9114
:1048A0001F910F91FF90EF90DF90CF90BF900895F0
:1048B000FE01E255FE4F8081F6019181892391F03E
:1048C0006091FC097091FD098091FE092B2D4C2F00
:1048D000F70109950E94141F462F282F672FCE013C
:1048E0000E9415232196D4CF60E77FE10C94252404
:1048F00069E97FE10C94252463EC7FE10C94252485
:1049000065EC7FE10C9425246EEC7FE10C9425246A
:1049100067ED7FE10C9425247F928F929F92AF9256
:10492000BF92CF92DF92EF92FF920F931F93CF939C
:10493000DF935C016B01FC01C0818AE0C89FC02D40
:1049400011241AE01C0F912E123310F031E3932E34
:104950006091FF09669566958091000A9091010A21
:104960000E94171FF82E80E48F0D0E94511F90E8BF
:10497000892E880E8F2D0E94511F20E8722E780EEE
:10498000D0E0C91590F081E0113308F080E0DF91AC
:10499000CF911F910F91FF90EF90DF90CF90BF903C
:1049A000AF909F908F907F900895FE01E255FE4F4B
:1049B0008081F50191818923A1F06091FC097091BA
:1049C000FD098091FE09EF2C0C2F272D482DF601B3
:1049D00009950E94141F462F282F672FCE010E9491
:1049E00015232196CECF66E270E20C948C2463E509
:1049F00070E20C948C2461E870E20C948C24AF92E9
:104A0000BF92CF92DF92EF92FF920F931F93CF93BB
:104A1000DF937C016B01FC01C0818AE0C89FC02D3F
:104A200011242AE0B22EBC0EAB2CF1E3FB1510F4DE
:104A300091E3A92E2091FF0930E050E040E06FEFB4
:104A40007FEF80E090E00E943A518901D0E02C2F66
:104A5000CA1580F081E0F0E3FB1508F480E0DF91F7
:104A6000CF911F910F91FF90EF90DF90CF90BF906B
:104A7000AF900895FE01E255FE4F8081F7019181CC
:104A80008923F1F04091040A4150042E000C550B8B
:104A900047FF18C0C8016091FF090E94171FAC01B1
:104AA0006091FC097091FD098091FE09F60109955C
:104AB0000E94141F462F282F672FCE010E94152316
:104AC0002196C5CFFA01EC5FF54F818982130AC0A8
:104AD000FA01EE0FFF1FEC5FF54F818D928D80176D
:104AE0009107C8F241505109D3CF68EB70E20C94A2
:104AF000FF246FEB70E20C94FF242F923F924F92B1
:104B00005F926F927F928F929F92AF92BF92CF925D
:104B1000DF92EF92FF920F931F93CF93DF93CDB766
:104B2000DEB72B970FB6F894DEBF0FBECDBF8C83D8
:104B30002B015F834E83FB01F0818AE0F89F802D7B
:104B400011248983865F8A838B83823310F021E36B
:104B50002B833091040A3D839981892F90E09B87B4
:104B60008A87880F991FFC01E45EFE4F6F01FC816C
:104B70008F2F90E09C012F5F3F4F39872887EB8173
:104B8000FA85FE17F0F081E02A81213308F080E0F9
:104B90002B960FB6F894DEBF0FBECDBFDF91CF913D
:104BA0001F910F91FF90EF90DF90CF90BF90AF904B
:104BB0009F908F907F906F905F904F903F902F903D
:104BC0000895EA85FB85E255FE4F8081F2019181CF
:104BD000892301F12090FC093090FD092885398551
:104BE0002C5F354F39013C81398310E029813D81AB
:104BF0002317C8F02091FE09129F112D1124B10135
:104C0000812F0E94141F462F282F672F8A859B858E
:104C10000E9415238A859B8501969B878A8792E04F
:104C2000C90ED11CACCFF30181913F01F601A0A8C0
:104C3000A81ABB0881A8F3018781881A9908AA9C41
:104C40009001AB9C300D300D1124889CC001899CD3
:104C5000900D900D1124820F931F0E94211F082F89
:104C6000F301EE0FFF1FE450FA406091FF098589C0
:104C700096890E94171F7C019401A501B101812F23
:104C8000EE81FF8109951B01F981FF5FF983182FE0
:104C9000ADCF2091040A31E0231B08F420E045EC5D
:104CA00050E2BC01822F0C947D2545EC50E2BC0102
:104CB00080E00C947D252091040A31E0231B08F448
:104CC00020E04EED50E2BC01822F0C947D254EED8C
:104CD00050E2BC0180E00C947D252091040A31E073
:104CE000231B08F420E049E151E2BC01822F0C941F
:104CF0007D2549E151E2BC0180E00C947D252091A5
:104D0000040A31E0231B08F420E04BE451E2BC012B
:104D1000822F0C947D254BE451E2BC0180E00C9481
:104D20007D252091040A31E0231B08F420E043E6AE
:104D300051E2BC01822F0C947D2543E651E2BC0177
:104D400080E00C947D25BF92CF92DF92EF92FF928C
:104D50000F931F93CF93DF937C01FC01C0818AE006
:104D6000C89FC02D11241AE01C0F012F123308F028
:104D700001E36091FC097091FD098091FE090E9498
:104D8000141FD62EC72EB82ED0E0C01770F081E0C9
:104D9000113308F080E0DF91CF911F910F91FF90C8
:104DA000EF90DF90CF90BF900895FE01E255FE4F47
:104DB0008081F7019181892331F02B2D4D2D6C2DB0
:104DC000CE010E9415232196E0CF8F929F92AF9241
:104DD000BF92CF92DF92EF92FF920F931F93CF93E8
:104DE000DF937C01FC01C0818AE0C89FC02D1124A3
:104DF0001AE01C0F012F123308F001E3C090FD09E7
:104E0000D090FE09D091FC096D2F7C2D8D2D0E9434
:104E1000141FB62EA72E982E6091FF096D0F7C2DC2
:104E20008D2D0E94141FD62EC72E882ED0E0C017BD
:104E300088F081E0113308F080E0DF91CF911F917D
:104E40000F91FF90EF90DF90CF90BF90AF909F9029
:104E50008F900895FE01E255FE4F9081F701818108
:104E6000892359F0282D4D2D6C2D90FD03C0292D3F
:104E70004B2D6A2DCE010E9415232196D8CFBF92CB
:104E8000CF92DF92EF92FF920F931F93CF93DF9316
:104E90007C01FC01C0818AE0C89FC02D11241AE06A
:104EA0001C0FD12E123310F091E3D92EC090FD09C2
:104EB000B090FE092091FF0900E4029F012D11240A
:104EC000D0E0CD1570F081E0113308F080E0DF9183
:104ED000CF911F910F91FF90EF90DF90CF90BF90F7
:104EE0000895FE01E255FE4F8081F70191818923EB
:104EF000B9F0FE01EE0FFF1FE45EFE4F81A982951F
:104F00008F706091FC09809F600D11247C2D8B2D8A
:104F10000E94141F462F282F672FCE010E941523B1
:104F20002196CFCFBF92CF92DF92EF92FF920F9355
:104F30001F93CF93DF938C01FC01C0818AE0C89F4F
:104F4000C02D11245AE0F52EFC0EDF2CF1E3FF15E5
:104F500010F441E3D42EC090FD09B090FE092091D9
:104F6000FF0930E4E32E3E2D329F312D1124E32E34
:104F7000D0E0CD1578F081E030E33F1508F480E013
:104F8000DF91CF911F910F91FF90EF90DF90CF9025
:104F9000BF900895FE01E255FE4F8081F801918196
:104FA0008923D9F0FE01EE0FFF1FE45EFE4F60A9DA
:104FB000E69EB001112495E0759567959A95E1F705
:104FC0008091FC09680F7C2D8B2D0E94141F462FA9
:104FD000282F672FCE010E9415232196CACFBF929A
:104FE000CF92DF92EF92FF920F931F93CF93DF93B5
:104FF0008C01FC01C0818AE0C89FC02D11249AE079
:10500000F92EFC0EEF2CF1E3FF1510F481E3E82EEE
:10501000D090FC09D091FD09C090FE096091FF0974
:105020006695669566958091000A9091010A0E94A6
:10503000171F0E94511F805887FD8195880F282FC8
:105040003C2D239F212D1124822F6D2D7D2F0E9419
:10505000141FD62EC72EB82ED0E0CE1578F081E0E2
:1050600020E32F1508F480E0DF91CF911F910F917D
:10507000FF90EF90DF90CF90BF900895FE01E25532
:10508000FE4F8081F8019181892331F02B2D4D2D28
:105090006C2DCE010E9415232196DFCFDF92EF9277
:1050A000FF920F931F93CF93DF938C01FC01E25586
:1050B000FE4F8081682381F1D090FD09D091FE09D7
:1050C000C091FC09EC2EF12C0E94CF51282FC70172
:1050D0008C549F4F68E671E00E9426518E199F09FB
:1050E00097FD0396959587959595879523706C2FD9
:1050F000289F600D11247D2D8D2F0E94141F462F97
:10510000282F672FC801DF91CF911F910F91FF903A
:10511000EF90DF900C941523DF91CF911F910F91A9
:10512000FF90EF90DF900895DF92EF92FF920F9340
:105130001F93CF93DF938C01FC01C281C11125C065
:105140006091FF0920E1620F08F46FEF8091000A7F
:105150009091010A0E94171F6AE070E00E941251AC
:10516000892B51F40E94CF5161E370E00E942651D7
:10517000F80161810E944E288C2FDF91CF911F9101
:105180000F91FF90EF90DF900895C0818AE0C89F53
:10519000C02D11248AE0D82EDC0E8D2DF1E3FD15F3
:1051A00008F481E3D0E0E82EF12CCE15DF0534F0D1
:1051B000C1E0F0E3FD1500F7C0E0DECFF80161814A
:1051C000CE010E944E282196F0CF1F93CF93DF93FC
:1051D000EC01FC01E255FE4F80816823A1F00E94A2
:1051E000CF51182F0E94CF51612F782F8091FE0947
:1051F0000E94141F462F282F672FCE01DF91CF91D9
:105200001F910C941523DF91CF911F910895DF9288
:10521000EF92FF920F931F93CF93DF938C01FC01CA
:10522000C281C11125C06091FF0920E1620F08F41D
:105230006FEF8091000A9091010A0E94171F65E0AC
:1052400070E00E941251892B51F40E94CF5161E30A
:1052500070E00E942651F80161810E94E5288C2FA0
:10526000DF91CF911F910F91FF90EF90DF90089504
:10527000C0818AE0C89FC02D11248AE0D82EDC0EA0
:105280008D2DF1E3FD1508F481E3D0E0E82EF12C3B
:10529000CE15DF0534F0C1E0F0E3FD1500F7C0E006
:1052A000DECFF8016181CE010E94E5282196F0CF82
:1052B000E0917806F09179060994CF92DF92EF920F
:1052C000FF920F931F93CF93DF93CDB7DEB728974D
:1052D0000FB6F894DEBF0FBECDBFFB018281F12C6B
:1052E000882341F0AE014F5F5F4F608181810E9452
:1052F000F122F82EE090CF080F2D10E0C8018E0D9E
:10530000911D099764F188E090E06C01C01AD10A00
:10531000B8016053774FA60180ED98E00E94DE51FE
:10532000B8016852774FA60188ED98E00E94DE51DF
:10533000A601440F551FB801660F771F6851774FBC
:1053400088EE98E00E94DE51B8016052774FA601C6
:1053500080EE98E00E94DE51EA94E092CF0810912E
:10536000CF08DE01119640E0842F810FF41212C0A5
:105370008093CF0881E028960FB6F894DEBF0FBE69
:10538000CDBFDF91CF911F910F91FF90EF90DF90F4
:10539000CF9008955D91252F30E090E0BC016153DE
:1053A000774FF901EE0FFF1FE45BFE4F0081FB0119
:1053B0000183220F331FF901E45EFE4F21A9FB0197
:1053C0002187518B880F991FFC01E153F74F128EF3
:1053D000118E4F5FC9CF08950E9400080C94EB29ED
:1053E0004F925F926F927F928F929F92AF92BF92F5
:1053F000CF92DF92EF92FF92CF936091F808709175
:10540000F9088091FA089091FB080E945E406B01B8
:105410007C010E9443404B015C018092F80890920D
:10542000F908A092FA08B092FB08A091CF08EFEC1F
:10543000F8E08A2F90E04FEF5FEF60E070E04C19EA
:105440005D096E097F09A91326C08093CF0880915A
:10545000FB09C82FC37019F0C82FC695C695909147
:105460004604913009F441C0992341F1923009F486
:1054700025C1933009F42AC1CF91FF90EF90DF90BE
:10548000CF90BF90AF909F908F907F906F905F90E4
:105490004F900C94EC29218D328D2901712C612CB7
:1054A000441555056605770520F481509F5F3296B7
:1054B000CACF2C0D3D1D328F218FF8CF109247049B
:1054C0008092000A9092010AA092020AB092030A06
:1054D00089E2EFECF8E0A4E0BAE001900D928A9541
:1054E000E1F781E080934604C7CF90914A04C91345
:1054F00015C0982F937020914B0430E081E09217F3
:10550000130609F480E0817080934904C53278F471
:10551000EC2FF0E0E259FD4A0C94595181E0F3CFB1
:10552000882359F040E060E080E00E94582980E044
:1055300004C087E494E00E94A326909147049F5FF3
:1055400090934704811198CF82E080934604809124
:105550004904811191CFC1118FCF83E0C3CF87E47C
:1055600094E00E94E526E9CF87E494E00E943F277B
:10557000E4CF87E494E00E949227DFCF87E494E0B1
:105580000E94EF27DACF87E494E00E947424D5CFFD
:1055900087E494E00E947824D0CF87E494E00E94CE
:1055A0001524CBCF87E494E00E941924C6CF87E46A
:1055B00094E00E94A023C1CF87E494E00E94A4233A
:1055C000BCCF87E494E00E947C24B7CF87E494E0CA
:1055D0000E948024B2CF87E494E00E948424ADCF5F
:1055E00087E494E00E948824A8CF87E494E00E9496
:1055F000A823A3CF87E494E00E941D249ECF87E4D4
:1056000094E00E94212499CF87E494E00E94AC2387
:1056100094CF87E494E00E94F3248FCF87E494E052
:105620000E94F7248ACF87E494E00E94FB2485CF70
:1056300087E494E00E94942880CF87E494E00E945D
:1056400007297BCF87E494E00E94752576CF87E415
:1056500094E00E94792571CF87E494E00E94492666
:105660006CCF87E494E00E94552667CF87E494E0EE
:105670000E945B2662CF87E494E00E9467265DCF9C
:1056800087E494E00E946D2658CF87E494E00E945E
:10569000792653CF87E494E00E947F264ECF87E49B
:1056A00094E00E948B2649CF87E494E00E949126E3
:1056B00044CF87E494E00E949D263FCFC0934A04E4
:1056C000837080934B040E94102347CF6091000A9F
:1056D0007091010A8091020A9091030A0E945E4033
:1056E000603171058105910508F4C6CE109246041B
:1056F000C3CEE0917406F091750609951092040AE4
:105700008FEF9FEF90931E0A80931D0A9093200ABB
:1057100080931F0A9093220A8093210A9093240A6F
:105720008093230A9093260A8093250A9093280A4F
:105730008093270A90932A0A8093290A90932C0A2F
:1057400080932B0A1092CF089093E9088093E80881
:105750009093EB088093EA089093ED088093EC080F
:105760009093EF088093EE089093F1088093F008EF
:105770009093F3088093F2089093F5088093F408CF
:105780009093F7088093F6080E946E3E811110C036
:105790008091BC0980FF08C081EB95E09F938F93B7
:1057A0000E940E060F900F900E94193F0E945522F2
:1057B0000E9445228091FB098C7F71F48091BC0985
:1057C00080FF08C08CE595E09F938F930E940E06A2
:1057D0000F900F900E9455220C9475228093FC0824
:1057E0000895CF93C82F8091FB0991E0892780937A
:1057F000FB0910924604C1110E944D228091BC0900
:1058000080FF19C02091FB09237083E696E0CC232A
:1058100011F085E696E01F922F939F938F9385E278
:1058200095E09F938F930E940E060F900F900F901C
:105830000F900F900F90CF91089581E00C94F12B71
:10584000CF93C62F9091FB09937041F1811128C02D
:1058500094609093FB0910924604C1110E944D225E
:105860008091BC0980FF1AC02091FB0926952695DE
:1058700083E696E0CC2311F085E696E01F922F9305
:105880009F938F938BE095E09F938F930E940E06DA
:105890000F900F900F900F900F900F90CF91089551
:1058A000853210F09069D5CF880F880F982BD1CF13
:1058B00061E00C94202C682F9091FB0996959695A9
:1058C00081E0890F853208F081E00C94202C81E082
:1058D0000C945B2C682F9091FB09969596958FEF11
:1058E000890F09F484E20C94202C81E00C946A2C3A
:1058F000CF93C22F9091FB09937079F18093FC09AB
:105900006093FD094093FE0921110E944D22809170
:10591000BC0980FF22C04091FE093091FD09209111
:10592000FC0983E696E0CC2311F085E696E01F9211
:105930004F931F923F931F922F939F938F9388EEC5
:1059400094E09F938F930E940E068DB79EB70A96A0
:105950000FB6F8949EBF0FBE8DBFCF910895ABEFE9
:10596000B9E01196EC911197F0E0282F13964C9125
:10597000139712966C91CF0108960C94782C81E0C5
:105980000C94AF2CEBEFF9E09181282F43816281D9
:10599000E92FE850FF0BCF010C94782C81E00C9498
:1059A000C22CEBEFF9E0628120E1620F08F46FEFA7
:1059B0009181282F4381892F90E00C94782C81E0ED
:1059C0000C94D12CEBEFF9E0628120E1621B08F42A
:1059D00060E09181282F4381892F90E00C94782CEE
:1059E00081E00C94E22CEBEFF9E0438120E1420FDF
:1059F00008F44FEF9181282F6281892F90E00C9459
:105A0000782C81E00C94F32CEBEFF9E0438120E15A
:105A1000421B08F440E09181282F6281892F90E099
:105A20000C94782C81E00C94042DCF93C62F809396
:105A3000FF0961110E944D228091BC0980FF18C0AE
:105A40002091FF0983E696E0CC2311F085E696E0ED
:105A50001F922F939F938F9389EC94E09F938F9342
:105A60000E940E060F900F900F900F900F900F90C6
:105A7000CF9108952091FF0930E1230F08F42FEF13
:105A8000682F822F0C94152D81E00C943A2D2091D3
:105A9000FF0930E1231B08F420E0682F822F0C94CB
:105AA000152D81E00C94472D60E084E70E94002FC3
:105AB00061E086E70C94002FCF930E94F53184E7D4
:105AC0000E94A92D86E70E94A92DC0E021E041E0B7
:105AD00061E08C2F0E943E2ECF5FC133B9F760E0AA
