:100000000C949B050C94E4050C94E4050C94E40515
:100010000C94E4050C94E4050C94E4050C94E405BC
:100020000C94E4050C94E4050C94D24C0C94AA4D69
:100030000C9477420C94E4050C94E4050C94E405CC
:100040000C94E4050C947E170C94E4050C94E405E0
:100050000C94E4050C94EA420C94E4050C94E40539
:100060000C94E4050C94E4050C94E4050C94E4056C
:100070000C94E4050C94E4050C94E4050C94E4055C
:100080000C9425130C94E4050C94E4050C94E405FD
:100090000C94E4050C94E40507634236B79BD8A79B
:1000A0001A39685618AEBAAB558C1D3CB7CC57639D
:1000B000BD6DEDFD753EF6177231BF000000803F4B
:1000C00008000000BE922449123EABAAAA2ABECD67
:1000D000CCCC4C3E00000080BEABAAAAAA3E0000D9
:1000E0000000BF000000803F0000000000084178D1
:1000F000D3BB4387D1133D190E3CC3BD4282AD2B08
:100100003E68EC8276BED98FE1A93E4C80EFFFBEFF
:1001100001C4FF7F3F00000000006D6F6465207325
:100120007769746368656420746F20515745525431
:10013000590A00290014001A000800150017001CB5
:100140000018000C00120013002A002B00040016F7
:1001500000070009000A000B000D000E000F00331D
:10016000003400E1001D001B00060019000500110D
:1001700000100036003700520028000751E000E36D
:1001800000E20003512C002C0004513800500051B3
:10019000004F002B0014001A00090013000A000D84
:1001A000000F0018001C0033002A0029000400156D
:1001B000001600170007000B00110008000C0012C9
:1001C000003400E1001D001B000600190005000EB0
:1001D00000100036003700380028002C5DE000E2F7
:1001E00000E30003512C002C000451500051005238
:1001F000004F002B0034003600370013001C0009AC
:10020000000A00060015000F002A00290004001251
:1002100000080018000C0007000B00170011001662
:10022000003800E100330014000D000E001B000533
:100230000010001A0019001D0028002C5DE000E2EB
:1002400000E30003512C002C0004515000510052D7
:10025000004F0035001E001F002000210022002357
:100260000024002500260027002A000000000000CE
:100270000000000000000000002100220023002DEB
:10028000002E02000000000000000000000000003E
:10029000001E001F002000A9002800000000000030
:1002A000000000010001000100010027002E00AA4B
:1002B00000A80035021E021F022002210222022392
:1002C0000224022502260227024C00000000000042
:1002D0000000000000000000002D002E022F023060
:1002E000023102E10031003800000000000000008F
:1002F000002D0264022F00300000000000390000D1
:10030000000000010001000100010000003602377A
:100310000200001E001E001E001E001E001E001E09
:10032000001E001E001E001E001E00000014001A09
:10033000000800150017001C0018000C0012001324
:10034000002F00000004001600070009000A000B3F
:10035000000D000E000F00330034002D5D00000082
:10036000000600190000000000110010000000004D
:100370000000000100005C0100010001000100011B
:10038000000100C55CC65C0100285D01001D5C1E0B
:100390005C01000100010001000100C75CC85C01B4
:1003A00000295D0100265C275C295C010001000139
:1003B000000100C95CCA5C01002A5D01002B5C2AB7
:1003C0005C01000100010001000100C25CC35C018E
:1003D000002B5D3A003B003C003D003E003F0040EA
:1003E00000410042004300440045000000000000BE
:1003F00000000000000000000000000000035D0697
:100400005D00004C0500000000000000000000003E
:100410000000000000045D075D00000100060819EF
:1004200008000001000100010001000000000000C0
:1004300000000044454255473A2064697361626C8C
:1004400065642E0A0044454255473A20656E616254
:100450006C65642E0A000A002530313662003A20AD
:100460000025303258000A722F6320303132333485
:1004700035363738394142434445460A0061756490
:10048000696F20706C6179206E6F7465206672658B
:10049000713D256420766F6C3D256400617564694B
:1004A0006F2073746F70206E6F7465206672657153
:1004B0003D256400617564696F2073746F702061FD
:1004C0006C6C206E6F74657300726762206D61746E
:1004D00072697820736574207370656564205B258C
:1004E000735D3A2025750A00726762206D6174722F
:1004F00069782073657420687376205B25735D3A94
:100500002025752C25752C25750A00726762206DD3
:100510006174726978206D6F6465205B25735D3A44
:100520002025750A00726762206D617472697820F7
:10053000746F67676C65205B25735D3A2072676234
:100540005F6D61747269785F636F6E6669672E654F
:100550006E61626C65203D2025750A007267625FDE
:100560006D61747269785F696E69745F64726976CF
:10057000657273207267625F6D61747269785F6320
:100580006F6E6669672E6D6F6465203D20302E208A
:1005900057726974652064656661756C7420766154
:1005A0006C75657320746F20454550524F4D2E0A6F
:1005B000007267625F6D61747269785F696E6974F9
:1005C0005F64726976657273206565636F6E6669D4
:1005D00067206973206E6F7420656E61626C65645C
:1005E0002E0A007267625F6D61747269785F636F73
:1005F0006E6669672E7370656564203D2025640A08
:10060000007267625F6D61747269785F636F6E66B6
:1006100069672E6873762E76203D2025640A007265
:1006200067625F6D61747269785F636F6E66696738
:100630002E6873762E73203D2025640A007267624F
:100640005F6D61747269785F636F6E6669672E684B
:1006500073762E68203D2025640A007267625F6D04
:1006600061747269785F636F6E6669672E6D6F641F
:1006700065203D2025640A007267625F6D617472B7
:1006800069785F636F6E6669672E656E61626C651F
:10069000203D2025640A007267625F6D6174726993
:1006A000785F636F6E66696720454550524F4D0A0B
:1006B000006565636F6E6669675F75706461746518
:1006C0005F7267625F6D61747269785F64656661AD
:1006D000756C740A000001010101010101010102B0
:1006E00002020202020202020303030303030303E2
:1006F00004040404040404050505050506060606AD
:1007000006070707070708080808090909090A0A68
:100710000A0B0B0B0C0C0C0D0D0D0E0E0E0F0F0F0C
:100720001010111111121213131414151516161797
:1007300017181819191A1A1B1B1C1D1D1E1E1F2005
:1007400020212222232424252626272829292A2B52
:100750002C2D2D2E2F303132323334353637383977
:100760003A3B3C3D3E3F4041424344454647484971
:100770004A4C4D4E4F50515354555658595A5B5D43
:100780005E5F616264656668696B6C6D6F707273E1
:100790007577787A7B7D7E8082838587888A8C8E48
:1007A0008F91939596989A9C9EA0A2A3A5A7A9AB7A
:1007B000ADAFB1B3B5B7BABCBEC0C2C4C6C9CBCD6C
:1007C000CFD1D4D6D8DBDDDFE2E4E7E9EBEEF0F31E
:1007D000F5F8FAFDFF64796E616D6963206D616300
:1007E000726F3A20736C6F74202564207361766594
:1007F000642C206C656E6774683A2025640A006476
:10080000796E616D6963206D6163726F3A207472F5
:10081000696D6D696E67206120747261696C696EC3
:1008200067206B65792D646F776E206576656E74D1
:100830000D0A0064796E616D6963206D6163726F8A
:100840003A20736C6F74202564206C656E67746841
:100850003A2025642F25640A0064796E616D69630E
:10086000206D6163726F3A2069676E6F72696E679F
:100870002061206C656164696E67206B65792D75F8
:1008800070206576656E740D0A0064796E616D691D
:1008900063206D6163726F3A20736C6F74202564FE
:1008A00020706C61796261636B0A0064796E616DBE
:1008B0006963206D6163726F207265636F72646932
:1008C0006E673A20737461727465640D0A000A00E1
:1008D0002530325820006B6579626F6172645F72F7
:1008E00065706F72743A20000A0025303258006B30
:1008F0006579626F6172645F7365745F6C65643A99
:10090000200064656C5F6B65795F6269743A20638F
:10091000616E27742064656C3A20253032580A00D5
:100920006164645F6B65795F6269743A2063616ECC
:100930002774206164643A20253032580A004B65E0
:1009400079626F6172642073746172742E0A005B45
:10095000575D005B535D005B525D005B445D005B77
:10096000435D000403300000001A0350006C006176
:10097000006E0063006B0020004C00690067006897
:1009800000740000000A034F004C004B00420000BE
:1009900000040309040902BF00050100A0FA0904CC
:1009A00000000103010100092111010001224000A2
:1009B0000705810308000A09040100010300000083
:1009C000092111010001226D000705820320000AA0
:1009D00009040200020300000009211101000122A4
:1009E00022000705830320000107050303200001FF
:1009F000080B0302010100000904030000010100CB
:100A00000009240100010900010409040400020195
:100A10000300000724010001410006240201010037
:100A20000624020202000924030103010201000955
:100A3000240302040101010009050502400005002C
:100A4000000525010101090584024000050000059B
:100A5000250101031201100100000008EDFE656090
:100A60000100010203010631FF0974A10109751596
:100A70000026FF009520750881020976150026FFE3
:100A800000952075089102C005010980A101850328
:100A900019012AB700150126B700950175108100CC
:100AA000C0050C0901A101850419012AA002150144
:100AB00026A002950175108100C005010906A1015B
:100AC0008505050719E029E7150025019508750139
:100AD00081020507190029EF1500250195F0750120
:100AE00081020508190129059505750191029501F5
:100AF00075039101C005010906A101050719E02947
:100B0000E715002501950875018102950175088199
:100B1000010507190029FF150026FF009506750835
:100B200081000508190129059505750191029501B6
:100B300075039101C00011241FBECFEFD0E2DEBFCC
:100B4000CDBF04B603FE27C08091000E9091010E28
:100B5000A091020EB091030E8730904BA740B04B8E
:100B6000D1F41092000E1092010E1092020E10920B
:100B7000030E14BE84B7877F84BF0FB6F894A89580
:100B800080916000886180936000109260000FBEC9
:100B9000E0E0F0EF099516E0A0E0B1E0EEE7FAEA58
:100BA00000E00BBF02C007900D92A83EB107D9F735
:100BB0002EE0A8EEB6E001C01D92A030B207E1F72A
:100BC0000E94DC490C94CB540C940000FF93EF93EB
:100BD000E091E806F091E906309709F00995EF9168
:100BE000FF910895FC018591803011F0EFDFFBCF7C
:100BF0000895FF27E0E230E247FF0CC0419597FFE0
:100C000009C0EDE26095709580959095611D711D0C
:100C1000811D911D27FF02C0219530E350E2AA27D4
:100C2000660F771F881F991FAA1FA41710F0A41B17
:100C300063955A95A9F7AA3008F0A95FA05DAF9314
:100C4000F395611571058105910541F7ED3211F4B8
:100C5000EF93F395F21718F43F93F395FBCF8F9131
:100C6000B5DFFA95E1F70895E991F9918591803022
:100C700021F0853219F0AADFF9CF089520E0E89439
:100C800055915532C1F3503311F4689455915A334C
:100C900048F4505390F3220F022E220F220F200D02
:100CA000250FF4CF0EF4219589919991533619F3BC
:100CB000533729F1533559F1BC0188279927E89416
:100CC0005C3621F48991999168945591543639F4A0
:100CD00046EF7EF077FF0DC08FEF9FEF0AC05537CC
:100CE0004AE039F0583540E121F0523642E009F04F
:100CF0000895FF93EF937DDFEF91FF91B7CFFF93BF
:100D0000EF93FC0181918030B9F360DFFBCFFF935B
:100D1000EF9368DFF1CFDF93CF93CDB7DEB72596A2
:100D2000A3DFCF91DF910895E82FF0E0893020F51F
:100D3000E353FB4A0C94C95381E008958091F10676
:100D400008958091EE06817008958091EE06869553
:100D5000817008958091EE0682FB882780F90895BE
:100D60008091EE0683FB882780F908958091F00634
:100D7000EACF8091F006EBCF399741E050E060E098
:100D800070E004C0440F551F661F771FEA95D2F725
:100D90008091EA069091EB06A091EC06B091ED06E9
:100DA000482359236A237B2381E0452B462B472B7D
:100DB00009F480E008950F931F93CF93DF93C091C0
:100DC000F106C1115FC0809104010E949406D82FE2
:100DD000809105010E949406182F809106010E94BF
:100DE0009406082F809107010E949406412F50E03D
:100DF000440F551F24E0029F80011124E8E08E9FDC
:100E0000C00111249A01245F3E4F2D0F311D200F88
:100E1000311F280F391FF90140818091EF068111A0
:100E200009C02091F00630E02F5F3F4F2370332739
:100E30002093F00690E0019663E070E00E949653E4
:100E40008093EF068091EE0690E001968F709927CF
:100E50008093EE068091EA069091EB06A091EC0655
:100E6000B091ED06880F991FAA1FBB1F840F911D1B
:100E7000A11DB11D8093EA069093EB06A093EC06AA
:100E8000B093ED06CF5FC170C093F1068091080169
:100E90000E949406C82F809109010E949406D82FC1
:100EA00080910A010E949406DD0F880F880FD80FE9
:100EB000CD0F80910B010E949406880F880F880F38
:100EC0008C0FDF91CF911F910F910895569A5E9AE2
:100ED0000C9446110C948607833039F4653029F45C
:100EE0008AE2FA01808381E0089580E008950C94FD
:100EF000FA0780E00E945B2C0C946E420F9306E090
:100F000024E043E00E94300E0F910895CF93FB013F
:100F10008A322DE5920799F158F488322DE592072F
:100F2000E9F089329D4531F1C1E08C2FCF910895D0
:100F30008C322DE5920741F188F18D329D45A1F764
:100F4000C281CC2391F340E066E070E082EE91E054
:100F50000E947F1785E00E944E3E0AC0C281CC23CA
:100F600021F38AE191E00E94F20580E00E941D0ECB
:100F7000C0E0DBCFC281CC23C1F281E0F7CFC281D8
:100F800082E0CC2391F2F2CFC28185EECC2319F01E
:100F90000E94D936EDCF0E946337C7CFC281CC23E0
:100FA00021F20E94731840E066E070E082E192E076
:100FB0000E947F1784E00E944E3E83E00E944E3ED6
:100FC00086E00E944E3E85E00E942D3E0E94DE405B
:100FD000811102C00E9489410E94F6409093050D44
:100FE00080688093040D8091040D9091050D0E94FE
:100FF0000441BECF1F93CF93DF93CDB7DEB7A39746
:101000000FB6F894DEBF0FBECDBF8091F5068823E2
:10101000E1F18091F2069091F306892B39F583E294
:10102000E1EEF4E0DE01119601900D928A95E1F770
:101030000E94DB0621E030E02C0F3D1F280F311D00
:10104000F90110818091E101180F8091F406811758
:1010500069F00E94BD120E94C418812F0E94BD1227
:101060004FE050E00E947E191093F4068091F20642
:101070009091F30601966091DF017091E0010E946A
:1010800082539093F3068093F206A3960FB6F894DA
:10109000DEBF0FBECDBFDF91CF911F9108959C01A0
:1010A0002350314581E02230310508F480E0089575
:1010B000DF92EF92FF920F931F93CF93DF93F82E5F
:1010C000E62ED42E0EEA11E0D0E0C0E0F8018191C6
:1010D0008F0180FF06C02D2D4E2D6F2DCE010E9459
:1010E00082232196C133D10589F7DF91CF911F91DA
:1010F0000F91FF90EF90DF90089560912E0B70910B
:101100002F0B8091300B9091310B0E946640843000
:1011100009F4D7C2C8F4813009F468C1833009F4F6
:1011200065C16091320B7091330B8091340B9091BB
:10113000350B0E946640882309F42CC5823009F0E3
:10114000ACC240E06FEF28C5863009F40EC487308A
:1011500041F720E042E864EF90E080E00E948223C3
:1011600020E042E864EF81E090E00E94822320E0EA
:1011700042E864EF82E090E00E94822320E042E8AF
:1011800064EF83E090E00E94822322E840E064EF75
:1011900084E090E00E94822322E840E064EF85E052
:1011A00090E00E94822322E840E064EF86E090E035
:1011B0000E94822322E840E064EF87E090E00E94F2
:1011C000822324EF42E860E088E090E00E948223DE
:1011D00024EF42E860E089E090E00E94822324EF5F
:1011E00042E860E08AE090E00E94822324EF42E837
:1011F00060E08BE090E00E94822320E040E060E02D
:101200008CE090E00E94822320E040E060E08DE0EE
:1012100090E00E94822320E040E060E08EE090E0D9
:101220000E94822320E040E060E08FE090E00E9496
:10123000822320E040E060E080E190E00E94822391
:1012400020E040E060E081E190E00E94822320E025
:1012500040E060E082E190E00E94822320E040E0F4
:1012600060E083E190E00E94822320E040E060E0C3
:1012700084E190E00E94822328E740E06FEF85E15F
:1012800090E00E94822320E040E06FEF86E190E052
:101290000E94822320E040E060E087E190E00E942D
:1012A000822320E040E06FEF88E190E00E948223FB
:1012B00020E040E060E089E190E00E94822320E0AD
:1012C00040E060E08AE190E00E94822320E040E07C
:1012D00060E08BE190E00E94822320E040E060E04B
:1012E0008CE190E00E94822320E040E060E08DE10C
:1012F00090E00E94822320E040E060E08EE190E0F8
:101300000E94822320E040E060E08FE190E00E94B4
:10131000822320E040E060E080E290E00E948223AF
:101320002CEF46E663E081E290E00E9482232FEFFB
:1013300040E060E082E290E00E94822320E040E012
:1013400060E083E290E00E94822320E040E060E0E1
:1013500084E290E00E9482232FEF40E060E085E28B
:1013600090E00E94822320E04FEF60E086E290E070
:101370000E94822320E040E060E087E290E00E944B
:10138000822320E040E060E088E290E00E94822337
:1013900020E040E060E089E290E00E94822320E0CB
:1013A00040E060E08AE290E00E94822320E040E09A
:1013B00060E08BE290E00E94822320E040E060E069
:1013C0008CE290E00E94822320E040E060E08DE229
:1013D00090E00E94822320E040E060E08EE290E016
:1013E0000E94822320E040E060E0B7C220E040E0BD
:1013F0006FEF90E080E00E9482232FEF4EEB60E0E1
:1014000081E090E00E9482232FEF4EEB60E082E0CB
:1014100090E00E9482232FEF4EEB60E083E090E0AB
:101420000E9482232FEF4EEB60E084E090E00E9468
:1014300082232FEF4EEB60E085E090E00E94822354
:101440002FEF4EEB60E086E090E00E9482232FEFCA
:1014500040E06EEB87E090E00E9482232FEF40E0B7
:101460006EEB88E090E00E9482232FEF40E06EEB6D
:1014700089E090E00E9482232FEF4EEB60E08AE04B
:1014800090E00E94822320E040E060E08BE090E06A
:101490000E94822320E040E060E08CE090E00E9427
:1014A000822320E040E060E08DE090E00E94822313
:1014B00020E040E060E08EE090E00E94822320E0A7
:1014C00040E060E08FE090E00E94822320E040E076
:1014D00060E080E190E00E94822320E040E060E054
:1014E00081E190E00E94822320E040E060E082E120
:1014F00090E00E9482232FEF40E06EEB83E190E0CA
:101500000E9482232FEF40E06EEB84E190E00E9486
:1015100082232FEF40E06EEB85E190E00E94822372
:1015200020E040E06FEF86E190E00E9482232FEF01
:1015300040E060E087E190E00E94822320E040E00C
:1015400060E088E190E00E94822320E040E060E0DB
:1015500089E190E00E94822320E040E060E08AE19F
:1015600090E00E94822320E040E060E08BE190E088
:101570000E94822320E040E060E08CE190E00E9445
:10158000822320E040E060E08DE190E00E94822331
:1015900020E040E060E08EE190E00E9482232FEFA7
:1015A00040E06EEB8FE190E00E9482232FEF40E05D
:1015B0006EEB80E290E00E9482232FEF40E06EEB22
:1015C00081E290E00E94822326E04AEF6AEE82E206
:1015D00090E00E94822320E040E060E083E290E01F
:1015E0000E94822320E040E060E084E290E00E94DC
:1015F000822320E040E060E085E290E00E948223C8
:1016000020E040E060E086E290E00E94822320E05B
:1016100040E060E087E290E00E94822320E040E02A
:1016200060E088E290E00E94822320E040E060E0F9
:1016300089E290E00E94822320E040E060E08AE2BC
:1016400090E00E94822320E040E060E08BE290E0A6
:101650000E94822320E040E060E08CE290E00E9463
:1016600082232FEF40E06EEB8DE290E00E94822318
:1016700020E04FEF60E08EE290E00E94822326E0BF
:101680004AEF6AEE8FE290E00E94822326E04AEF62
:101690006AEE80E390E00E9482236091320B7091A9
:1016A000330B8091340B9091350B0E946640833050
:1016B00008F076C220E040E060E08AE290E00C941E
:1016C000822320E04FEF60E090E080E00E948223E0
:1016D00020E04FEF60E081E090E00E94822320E074
:1016E0004FEF60E082E090E00E94822320E04FEF25
:1016F00060E083E090E00E94822320E04FEF60E012
:1017000084E090E00E94822320E04FEF60E085E0DB
:1017100090E00E94822320E04FEF60E086E090E0BE
:101720000E94822320E04FEF60E087E090E00E947B
:10173000822320E04FEF60E088E090E00E94822367
:101740002FEF40E06FEF89E090E00E9482232FEFBF
:1017500040E06FEF8AE090E00E94822320E04FE6B5
:101760006FEF8BE090E00E94822320E040E060E099
:101770008CE090E00E94822320E040E060E08DE079
:1017800090E00E94822320E040E060E08EE090E064
:101790000E94822320E040E060E08FE090E00E9421
:1017A000822320E040E060E080E190E00E9482231C
:1017B00020E040E060E081E190E00E94822320E0B0
:1017C00040E060E082E190E00E94822320E040E07F
:1017D0006FEF83E190E00E9482232FEF40E060E012
:1017E00084E190E00E9482232FEF40E06FEF85E1DB
:1017F00090E00E9482232FEF40E06FEF86E190E0BF
:101800000E9482232FEF40E06FEF87E190E00E947B
:10181000822320E04FE66FEF88E190E00E94822370
:1018200020E04FEF60E089E190E00E94822320E019
:101830004FEF60E08AE190E00E94822320E040E0E8
:1018400060E08BE190E00E94822320E040E060E0D5
:101850008CE190E00E94822320E040E060E08DE196
:1018600090E00E94822320E040E060E08EE190E082
:101870000E94822320E04FEF60E08FE190E00E9421
:10188000822320E04FEF60E080E290E00E9482231C
:101890002FEF40E06FEF81E290E00E9482232FEF74
:1018A00040E06FEF82E290E00E94822320E040E07F
:1018B00060E083E290E00E94822320E040E060E06C
:1018C00084E290E00E94822320E04FE66FEF85E201
:1018D00090E00E94822320E040E060E086E290E019
:1018E0000E94822320E040E060E087E290E00E94D6
:1018F000822320E040E060E088E290E00E948223C2
:1019000020E040E060E089E290E00E94822320E055
:1019100040E060E08AE290E00E94822320E040E024
:1019200060E08BE290E00E94822320E040E060E0F3
:101930008CE290E00E94822320E040E060E08DE2B3
:1019400090E00E9482232FEF40E06FEF8EE290E064
:101950000E9482232FEF40E06FEF8FE290E00E9421
:10196000822320E040E060E094CE22E342E362E3A1
:1019700090E080E00E94822320E040E06FEF81E071
:1019800090E00E94822320E040E060E082E090E06E
:101990000E94822320E040E060E083E090E00E942B
:1019A000822320E040E060E084E090E00E94822317
:1019B00020E040E060E087E090E00E9482232CEB92
:1019C0004FEF60E088E090E00E9482232CEB4FEF25
:1019D00060E089E090E00E94822320E040E060E047
:1019E0008AE090E00E94822320E040E06FEF8BE0ED
:1019F00090E00E94822320E040E060E08CE090E0F4
:101A00000E9482232FEF4EEB67E08DE090E00E9472
:101A100082232FEF4EEB67E08EE090E00E9482235E
:101A200020E040E060E08FE090E00E94822320E030
:101A300040E060E080E190E00E94822320E040E00E
:101A400060E083E190E00E94822325E54FEF60E0B3
:101A500084E190E00E94822325E54FEF60E085E17C
:101A600090E00E94822320E040E060E086E190E088
:101A70000E94822320E040E06FEF87E190E00E9427
:101A8000822322E342E362E388E190E00E94822322
:101A90002FEF4EEB67E089E190E00E9482232FEF69
:101AA0004EEB67E08AE190E00E9482232FEF4EEB3D
:101AB00067E08BE190E00E94822320E040E060E05C
:101AC0008CE190E00E94822320E040E060E08FE122
:101AD00090E00E94822320E04FEF6FE680E290E0EA
:101AE0000E94822320E04FEF6FE681E290E00E94A7
:101AF000822320E040E060E082E290E00E948223C6
:101B000020E040E06FEF83E290E00E94822320E03B
:101B100040E060E084E290E00E9482232FEF4EEBF1
:101B200067E085E290E00E9482232FEF4EEB67E0B2
:101B300086E290E00E94822320E040E060E087E2BD
:101B400090E00E94822320E040E060E088E290E0A4
:101B50000E94822320E040E060E08CE290E00E945E
:101B6000822320E04FEF6DEC8DE290E00E94822313
:101B700020E04FEF6DEC8EE290E00E94822320E0A7
:101B800040E060E08FE290E00E94822320E040E0AD
:101B90006FEF7FCD48E668E680E00E9458087DCD73
:101BA000089581E0089508950C94D30D1F93CF9369
:101BB000DF9300D000D00F92CDB7DEB749835A83B0
:101BC0006B833091D70A89819A8131111DC06623B8
:101BD000B9F02223A9F00E941D3F182F682F898198
:101BE0009A810E94C93E69817A81812F0F900F905E
:101BF0000F900F900F90DF91CF911F910C94440F95
:101C00000E94F53E182FEFCF0E941D3F69817A8117
:101C1000EDCFFC01262F4081518162817381848147
:101C20000C94D60DCF93DF93EC0160E00E94090E77
:101C3000BE01DF91CF910C94D40DCF93DF93C1E01F
:101C4000D0E002C0CC0FDD1F8A95E2F78C2F0E94F6
:101C5000F140BE0190E080E0DF91CF910C94CD3D4A
:101C60008F929F92AF92BF92CF92DF92EF92FF92AC
:101C70000F931F936B017C0181E090E0A0E0B0E046
:101C80004C015D0104C0880C991CAA1CBB1C4A9520
:101C9000D2F7B501A4014C015D0104C0880C991C68
:101CA000AA1CBB1C2A95D2F7482959296A297B29E5
:101CB00004C0880F991FAA1FBB1F0A95D2F78A017B
:101CC0009B010C211D212E213F21041715072607FA
:101CD000370789F48C299D29AE29BF29BC01CD0184
:101CE0001F910F91FF90EF90DF90CF90BF90AF903A
:101CF0009F908F90089580959095A095B0958C2198
:101D00009D21AE21BF21EACF0E9434430E94DE40D4
:101D1000811102C00E9489410E9402180E94E62B94
:101D20000C9466070E94401D0E945D2A0C94770760
:101D30000895CF93DF930E94323A0E94D41C0E94F0
:101D4000051D0E94A742EC0140E063E070E082E4E0
:101D500092E00E947F170E94980ECE010E94BF421F
:101D60008A3F910530F00E947318DF91CF910C9457
:101D70000E438FE99FE00197F1F700C00000EDCF1F
:101D80000F931F93CF93DF93EC0161E00E94090E44
:101D90008C01BE010E94D833882309F440C0BE01E3
:101DA000C8010E94CA298823D1F1BE01C8010E943E
:101DB0006A078823A1F1BE01C8010E94DA128823B4
:101DC00071F1BE01C8010E949C1D882341F1BE0132
:101DD000C8010E949830882311F1BE01C8010E94F9
:101DE000EA308823E1F0BE01C8010E94383288231E
:101DF000B1F0BE01C8010E94AF2F882381F08A8113
:101E0000882341F101308CE5180779F00E3D8CE50F
:101E10001807E9F001151C45E9F40E94990E80E0CD
:101E2000DF91CF911F910F91089590915B0B892FB6
:101E30008E7F90FF816080935B0B80FF05C085E4FF
:101E400094E00E94F205EBCF83E394E0FACF0E9486
:101E50008941E5CFCE01DF91CF911F910F910C9475
:101E6000D10D08950C94310F81E008950C94340F36
:101E7000CF93C82F0E94320F8C2FCF910C94360F26
:101E800090E080E008950895972F70E02CE0929FF5
:101E9000600D711D1124FB0190E3899FE00DF11D80
:101EA0001124EE0FFF1FED5CFE4F85919491089574
:101EB000FC01EE0FFF1FEA5AFB4F859194910895A4
:101EC000CF93DF930E94440F0E946C10EC018115A8
:101ED00020E5920708F041C0811530E4930708F02F
:101EE000B4C0803E910518F5803C910508F09DC076
:101EF000883A910570F4853A910508F08EC08130DA
:101F00009105F9F00097E9F00497D8F4D0E0C0E02B
:101F100018C08F3B9105D0F7C85AD0E0CC0FDD1F19
:101F2000C251DA4F0990D881C02DD4640AC08115FE
:101F3000904258F4C11581E0D80718F4C83ED10585
:101F400028F7CE01DF91CF910895C11590E3D9070D
:101F500008F071C0CE019F706AC0811525E5920717
:101F600058F5811534E5930708F09EC0811542E5C8
:101F7000940750F4C11581E5D80708F469C0DC2F37
:101F8000CC27C16FD06ADDCF982F969596959E018C
:101F900023703327C115D34508F077C0C1E0D0E0E6
:101FA00002C0CC0FDD1F2A95E2F720E2929FC0010C
:101FB0001124C82BD92B67C0C11589E5D807A8F40F
:101FC000C11598E5D90708F074C0C11526E5D207F8
:101FD00008F09CCF8C2F0E940311C82FD0E0DC2F7B
:101FE000CC27CC27DF71D062ACCFC1153AE5D3073F
:101FF00008F464C0CE0190568115904208F086CF57
:102000008D2F8F710E94031190E0982F88278827C9
:102010009F719C012C2BE901E6CFC55AD0E0C45E2C
:10202000D94FC881D0E0D0648CCF805C91090E94E8
:10203000580FEC0186CFCE019927D3FF03C0EC01E6
:10204000D86C7FCFEC01D06C7CCFDF70D06A79CFB9
:10205000CE01E4E096958795EA95E1F783702C2F01
:1020600026952695237090E2299F90011124382B04
:102070008C2F8370C1E0D0E002C0CC0FDD1F8A95A9
:10208000E2F7C22BD32BDC685CCFC1E0D0E002C00A
:10209000CC0FDD1F2A95E2F730E2939FC001112497
:1020A000C82BD92BDA684DCFD82FCC27C46FD06A74
:1020B00048CFDC2FCC27C06FD06A43CF8C2F8F70D6
:1020C0000E94031134E0D695C7953A95E1F7CF7099
:1020D0009C2FEC01D06935CF82389105B1F1B0F475
:1020E0008133910509F475C048F48932910509F4EA
:1020F00069C08A32910509F473C00895853391054A
:1021000009F459C08933910501F10895833E910581
:10211000A9F138F4803E9105F9F0823E910549F12C
:102120000895863E9105A9F1873E9105C9F1843E47
:10213000910519F52091050D21FF1FC08091040D17
:1021400084FD14C087EE90E008952091040D237063
:10215000A1F080EE90E008952091040D20FD47C08D
:102160003091050D30FF09C024FF44C090E080E0AD
:1021700004C02091040D22FDF7CF08952091040D95
:1021800022FD3BC03091050D30FDE3CF24FFF5CF9C
:10219000EDCF2091040D23FFF0CF24FDE7CFD2CF68
:1021A0002091040D23FD2CC03091050D31FFEECFA1
:1021B00084EE90E008952091040D25FFDECF89E2A2
:1021C00090E008952091040D25FFD7CF85E390E09E
:1021D00008952091040D26FFD0CF8AE290E0089563
:1021E0002091040D26FFC9CF81E390E0089589E393
:1021F00090E0089583EE90E0089582EE90E00895D7
:1022000086EE90E008959091040D92FF06C0282F6D
:1022100028712830F9F4877F846093FF06C0282F47
:1022200028712831F1F4877E84612091050D20FF0B
:1022300006C0382F38713830D9F4877F816021FF8C
:1022400006C0282F28712831D1F4877E816194FD42
:10225000877E0895282F24712430F9F68B7F8860BB
:10226000DCCF282F2471243101F78B7E8861DDCFEC
:10227000382F3171313019F78E7F8860E0CF282FE9
:102280002171213121F78E7E8861E1CF0895E82FF9
:10229000F0E0EE0FFF1FE657F44F80819181089523
:1022A000CF92DF92EF92FF920F931F93CF93DF9322
:1022B00086E694E00E94F2058AE8E82E8BE0F82E8C
:1022C000D0E0C0E091E6C92E94E0D92E08E514E0F4
:1022D000DF93CF93DF92CF920E948B068EE594E03E
:1022E0000E94F205F701819191917F010E94CB40FC
:1022F0009F938F931F930F930E948B0686E594E024
:102300000E94F20521968DB79EB708960FB6F894F5
:102310009EBF0FBE8DBFC430D105D1F6DF91CF91E6
:102320001F910F91FF90EF90DF90CF90089580EA7A
:102330008A95F1F70895CF93DF93ABE2B6E04FE2D1
:1023400056E0C1E0D0E08D91E82FE295EF70F0E02B
:1023500061A18F709E0101C0220F8A95EAF7922F2A
:102360009095962391A382A1822B82A34A175B07A3
:1023700051F7AFE1B6E04BE256E0C1E0D0E08D911D
:10238000E82FE295EF70F0E061A18F709E0101C02F
:10239000220F8A95EAF7922F9095962391A382A116
:1023A000822B82A34A175B0751F71092830B10927E
:1023B000820B10928B0B10928A0B1092850B10924D
:1023C000840B10928D0B10928C0B1092870B109235
:1023D000860B10928F0B10928E0B1092890B10921D
:1023E000880B1092910B1092900B84E00E94831244
:1023F000DF91CF910C94840E8F929F92AF92BF92F7
:10240000CF92DF92EF92FF920F931F93CF93DF93C0
:102410008BE2E82E86E0F82E02E81BE0912CAA243D
:10242000A394B12CF70181917F01C82FC295CF7081
:10243000D0E099A18F70650101C0CC0C8A95EAF7B4
:10244000892F8C2989A38AA18C2C809488218AA326
:102450000E949711EFE1F6E050E040E030E020E02C
:102460006191A62FA295AF70B0E090968C9190E00C
:102470006F7002C0959587956A95E2F780FD3EC022
:10248000C501042E02C0880F991F0A94E2F7282B79
:10249000392B4F5F5F4F4C30510511F789A18822CE
:1024A00089A28AA1C82ACAA2F8018081918128172D
:1024B000390739F13183208381E0982A0E5F1F4F5D
:1024C000FFE2EF16F6E0FF0609F0ACCF292D44E05D
:1024D0006AE87BE082E89BE00E9484120E94920EF0
:1024E000892DDF91CF911F910F91FF90EF90DF9099
:1024F000CF90BF90AF909F908F90089590E080E034
:10250000C6CF80E0DACF0895FF920F931F93CF9349
:10251000DF93F82E092F162FD72FC42F222349F02F
:1025200081E08093F8060E94A7429093F70680937B
:10253000F6068091F8068823A1F08091F606909126
:10254000F7060E94BF42069760F0EF2DF02FA12FF3
:10255000BD2F90E080E0D0E08C179D0744F01092F2
:10256000F806DF91CF911F910F91FF90089521916F
:1025700031912D933D930196EFCF8554990BBC017A
:10258000990F880B990B0E947B5020E030E040E4CB
:1025900051E40E94D14F9B01AC0160E070E080E00B
:1025A00090E40E94FF5120E030E04CED53E40E94A3
:1025B00092510895FB018D312CE5920739F4828107
:1025C0008823A1F10E940F1A80E008958E312CE536
:1025D000920731F48281882349F10E941F1AF4CFB7
:1025E0008F312CE5920741F482818823F9F00E9413
:1025F0000B1A8111F2CFE6CF8A322CE5920769F4EB
:102600008281882399F00E94381A40E064E070E0EB
:102610008AE592E00E947F17D7CF8B329C4531F438
:102620008281882319F00E94411AEFCF81E008953A
:102630000E94BD124FE050E00C947E190E94BD1222
:102640000C94C4180C94731808951F920F920FB62F
:102650000F9211240BB60F924F925F926F927F925E
:102660008F929F92AF92BF92CF92DF92EF92FF92A2
:102670002F933F934F935F936F937F938F939F938A
:10268000AF93BF93EF93FF9380910D07882309F4D5
:10269000B1C1E0904F07F09050071E141F040CF0DA
:1026A000A9C121E0E216F10409F4DEC020E030E027
:1026B000A9016091FC067091FD068091FE06909143
:1026C000FF060E94CC4F8111C6C2F701EE0FFF1F1B
:1026D000EE0FFF1FE55EF84F80809180A280B380EF
:1026E0008091B202882309F4ADC2C0904507D09012
:1026F0004607E0904707F090480720E030E0A90146
:10270000C701B6010E94CC4F882309F49BC2A501E2
:102710009401C701B6010E94CC4F87FF5CC2A5019E
:10272000940160E070E08CED93EC0E94D14F20E0CA
:1027300030E040E451E40E94D14F20E030E040E03E
:102740005FE30E9492519B01AC0160E070E080E089
:1027500090E40E94FF51A50194010E9492519B01B7
:10276000AC01C701B6010E94CC4F87FF34C2A7015C
:10277000960160E070E08CED93E40E94D14F20E080
:1027800030E040E451E40E94D14F20E030E040E0EE
:102790005FE30E9492519B01AC0160E070E080E039
:1027A00090E40E94FF519B01AC01C701B6010E9459
:1027B0009251609345077093460780934707909323
:1027C00048076091450770914607809147079091AF
:1027D00048072091F9063091FA062F3F320731F071
:1027E0002F5F3F4F3093FA062093F9060E944A1A52
:1027F0006B017C0120E034E244EF51E40E94CC4FB5
:1028000087FF08C086EFC82E88E2D82E84EFE82E16
:1028100081E4F82E20E030E040E051E4C701B60149
:102820000E9492519B01AC0160E074E284E79BE45A
:102830000E94D14F6B017C010E944A507093870027
:10284000609386002091B3023091B4024091B502AA
:102850005091B602C701B6010E9492510E944A509F
:1028600070938900609388004090FC065090FD06AC
:102870006090FE067090FF06E0904F07F0905007C2
:1028800020E030E0A901C301B2010E948D51181669
:102890000CF0E5C182E0E816F1040CF452C080911E
:1028A0004D0790914E07B7010E9496536C0190938B
:1028B0004E0780934D0780900F0790901007A090CF
:1028C0001107B090120720E030E040E85FE3C50157
:1028D000B4010E94604F60930F07709310078093BC
:1028E000110790931207F601EE0FFF1FEE0FFF1F67
:1028F000ED5DF84FA3019201608171818281938126
:102900000E94D14F20E030E040E05EE30E9492510F
:102910009B01AC01C501B4010E948D5118168CF4C5
:10292000C6010196B7010E94965390934E0780937B
:102930004D0710920F071092100710921107109276
:102940001207E0914D07F0914E07EE0FFF1FEE0FBB
:10295000FF1FED5DF84F608171818281938120912D
:10296000F9063091FA062F3F320731F02F5F3F4FC3
:102970003093FA062093F9060E944A1A6B017C01F3
:1029800020E034E244EF51E40E94CC4F87FF08C0BE
:1029900066EFC62E68E2D62E64EFE62E61E4F62ED0
:1029A00020E030E040E051E4C701B6010E949251BE
:1029B0009B01AC0160E074E284E79BE40E94D14F8C
:1029C0006B017C010E944A507093970060939600BF
:1029D0002091B3023091B4024091B5025091B602F9
:1029E000C701B6010E9492510E944A50709399000B
:1029F0006093980080910E07882309F406C2C09066
:102A00000907D0900A07E0900B07F0900C0720E030
:102A100030E0A901C701B6010E948D5118160CF0D3
:102A2000E3C18091F9069091FA068F3F980729F04B
:102A300001969093FA068093F906C701B6010E94A9
:102A40004A1A20E030E040E051E40E9492519B019C
:102A5000AC0160E074E284E79BE40E94D14F6B011B
:102A60007C010E944A5070939700609396002091D9
:102A7000B3023091B4024091B5025091B602C70141
:102A8000B6010E9492510E944A507093990060933F
:102A9000980060910307709104076F5F7F4F7093F8
:102AA000040760930307E0909600F090970090E091
:102AB00080E00E9479504B015C01409005075090E6
:102AC00006076090070770900807EF2809F495C182
:102AD00080910207811191C16091960070919700D9
:102AE00090E080E00E9479509B01AC01C301B201EB
:102AF0000E94D14F20E03FEF4FE757E40E949251F0
:102B000020E030E040E85FE30E945F4FA5019401C0
:102B10000E94CC4F18160CF478C180910007909158
:102B20000107019690930107809300072091920B73
:102B30003091930B8217930748F08091990B88236B
:102B400009F46CC11092010710920007E091940BF8
:102B5000F091950B80910007909101074091020739
:102B60009C0153E0220F331F5A95E1F741118AC1AE
:102B700041E040930207019790930107809300077B
:102B8000E20FF31FDF011897CD90DD90ED90FC90E0
:102B90002081318142815381C701B6010E94CC4F0F
:102BA000811167C11092090710920A0710920B0752
:102BB00010920C0780E090E0A0E8BFE38093050747
:102BC00090930607A0930707B09308071092040795
:102BD000109203071AC1A5019401C701B6010E9412
:102BE0008D5118167CF5A501940160E070E08CED24
:102BF00093E40E94D14F20E030E040E451E40E9491
:102C0000D14F20E030E040E05FE30E9492519B0111
:102C1000AC0160E070E080E090E40E94FF51A5010B
:102C200094010E9492519B01AC01C701B6010E9420
:102C30008D5118163CF4A701960160E070E08CED10
:102C400093EC9BCD8092450790924607A092470750
:102C5000B0924807B6CD60E070E0CB01BACDF70185
:102C6000EE0FFF1FEE0FFF1FE15EF84F8080918097
:102C7000A280B3808091B202882309F4ACC0C090D6
:102C80004907D0904A07E0904B07F0904C0720E0AE
:102C900030E0A901C701B6010E94CC4F882309F496
:102CA0009AC0A5019401C701B6010E94CC4F87FFCD
:102CB0005BC0A501940160E070E08CED93EC0E9494
:102CC000D14F20E030E040E451E40E94D14F20E0B9
:102CD00030E040E05FE30E9492519B01AC0160E074
:102CE00070E080E090E40E94FF51A50194010E94F1
:102CF00092519B01AC01C701B6010E94CC4F87FFE6
:102D000033C0A701960160E070E08CED93E40E946F
:102D1000D14F20E030E040E451E40E94D14F20E068
:102D200030E040E05FE30E9492519B01AC0160E023
:102D300070E080E090E40E94FF519B01AC01C7016C
:102D4000B6010E9492516093490770934A0780939D
:102D50004B0790934C076091490770914A07809107
:102D60004B0790914C07FBCDA5019401C701B6011B
:102D70000E948D5118167CF5A501940160E070E069
:102D80008CED93E40E94D14F20E030E040E451E428
:102D90000E94D14F20E030E040E05FE30E9492517A
:102DA0009B01AC0160E070E080E090E40E94FF5184
:102DB000A50194010E9492519B01AC01C701B6018B
:102DC0000E948D5118163CF4A701960160E070E056
:102DD0008CED93EC9CCF8092490790924A07A09289
:102DE0004B07B0924C07B7CF109297001092960005
:102DF00010929900109298004CCEA3019201C50147
:102E0000B4010E948D5187FF88CE8091960B80FD82
:102E100011C010920E0710920D070CC08091710026
:102E20008D7F80937100809190008F7380939000CC
:102E300010920E07FF91EF91BF91AF919F918F91EB
:102E40007F916F915F914F913F912F91FF90EF9004
:102E5000DF90CF90BF90AF909F908F907F906F90BA
:102E60005F904F900F900BBE0F900FBE0F901F9072
:102E70001895C0920907D0920A07E0920B07F092CA
:102E80000C0798CE109202071092FA061092F906DB
:102E9000E20FF31F80819181A281B38180930907A2
:102EA00090930A07A0930B07B0930C0720E030E043
:102EB00040E85EE364817581868197810E9492512A
:102EC0006B017C016091B70270E090E080E00E94AD
:102ED000795020E030E048EC52E40E94D14F9B0151
:102EE000AC01C701B6010E9492516093050770932F
:102EF0000607809307079093080768CE1895CF922E
:102F0000DF92EF92FF92CF93DF93EC016B01F42EEF
:102F10008091FB06811102C00E9402188091960BDD
:102F200080FF69C0809171008D7F809371008091D6
:102F30006F008D7F80936F0080910D0781110E943B
:102F4000731881E080930E07D093950BC093940B78
:102F5000D092930BC092920BF092990B10920F07A4
:102F60001092100710921107109212071092010789
:102F70001092000788819981AA81BB8180930907FB
:102F800090930A07A0930B07B0930C0720E030E062
:102F900040E85EE36C817D818E819F810E94925129
:102FA0006B017C016091B70270E090E080E00E94CC
:102FB000795020E030E048EC52E40E94D14F9B0170
:102FC000AC01C701B6010E9492516093050770934E
:102FD0000607809307079093080710920407109242
:102FE000030780917100826080937100809190004E
:102FF000806880939000DF91CF91FF90EF90DF90F9
:10300000CF9008950F931F93CF93DF930E94DE40DC
:10301000811102C00E9489410E9411418093960B48
:103020008091FB0681114BC03E9A809171008D7F8B
:1030300080937100259A80916F008D7F80936F003F
:1030400002E0009390001AE110939100C1ECD1E1ED
:10305000D0939700C093960023EA3BE04EE855E4F6
:103060006091B3027091B4028091B5029091B60262
:103070000E9492510E944A50709399006093980068
:103080000093800010938100D0938700C093860046
:1030900023EA3BE04EE855E46091B3027091B4023C
:1030A0008091B5029091B6020E9492510E944A50BE
:1030B000709389006093880081E08093FB06809183
:1030C000960B80FF0BC040E063E070E08AE992E07D
:1030D000DF91CF911F910F910C947F17DF91CF91CA
:1030E0001F910F91089580915B0B80FF08C084EBC6
:1030F00094E09F938F930E948B060F900F90809186
:10310000FB06811102C00E94021810925007109213
:103110004F07809171008D7F8093710080919000A6
:103120008F738093900080916F008D7F80936F00EC
:10313000809180008F738093800010920E07109210
:103140000D071092490710924A0710924B071092F0
:103150004C071092450710924607109247071092AD
:1031600048071092440710924307E3E2F7E0A3E117
:10317000B7E011921192119211921D921D9287E067
:10318000E334F807B1F70895CF92DF92EF92FF9200
:103190000F931F93CF93DF936B017C0180915B0BA7
:1031A00080FF0FC0C7010E9443507F936F938CE94B
:1031B00094E09F938F930E948B060F900F900F9037
:1031C0000F9080910D07882309F471C08091FB0650
:1031D000811102C00E94021803E217E0C7E0D0E0AC
:1031E000A7019601F801648D758D868D978D0E94DB
:1031F000CC4F811176C0FE01EE0FFF1FEE0FFF1FB7
:10320000ED5DF84F1082118212821382CC0FDD1F08
:10321000CD5ED84F1982188287E0EF33F80709F0A6
:103220004FC080914F0790915007019797FD61C063
:103230009093500780934F0780914F0790915007CC
:1032400020914D0730914E072817390724F010922E
:103250004E0710924D07892B51F5809171008D7F9B
:1032600080937100809190008F7380939000809183
:103270006F008D7F80936F00809180008F738093AB
:1032800080001092490710924A0710924B07109243
:103290004C0710924507109246071092470710926C
:1032A0004807109244071092430710920D07DF91D0
:1032B000CF911F910F91FF90EF90DF90CF900895E5
:1032C00084819581A681B78181939193A193B193D4
:1032D00010821182128213828A819B818993999331
:1032E00099CF219704501109CF3FDC0709F078CF1F
:1032F00098CF1092500710924F079ECFCF92DF9237
:10330000EF92FF92CF93DF936B017C01D42FC52FF7
:1033100080915B0B80FF13C05F934F93C7010E94A6
:1033200043507F936F938DE794E09F938F930E9418
:103330008B060F900F900F900F900F900F90809131
:10334000FB06811102C00E9402188091960B80FF3B
:103350005BC080914F079091500708970CF054C0C4
:10336000809171008D7F8093710080916F008D7FBF
:1033700080936F0080910E0781110E94731881E085
:1033800080930D071092FA061092F90620E030E0C3
:10339000A901C701B6010E948D511816DCF4809175
:1033A0004F0790915007FC01EE0FFF1FEE0FFF1F1C
:1033B000ED5DF84FC082D182E282F382FC01EE0F14
:1033C000FF1FED5EF84FD083C183019690935007A5
:1033D00080934F078091710082608093710080918B
:1033E000900080688093900080914F0790915007E3
:1033F000029754F080916F00826080936F008091FB
:103400008000806880938000DF91CF91FF90EF90E3
:10341000DF90CF9008958091960B817008958091F0
:10342000960B81608093960B0E9415410E94241395
:1034300040E062E070E08AE892E00C947F1740E0A0
:1034400062E070E08AE792E00E947F172FEF81EE42
:1034500094E0215080409040E1F700C000000E94BD
:1034600073188091960B8E7F8093960B0C94154168
:103470008091510790E001968770992780935107BA
:1034800008958091510790E007968770992780935F
:10349000510708958F929F92AF92BF92CF92DF9281
:1034A000EF92FF92CF93DF936B017C01C091F906FD
:1034B000D091FA06BE0190E080E00E9479504B0165
:1034C0005C01A701960160E070E08CE594E40E9445
:1034D000D14F9B01AC01C501B4010E9492510E94E1
:1034E0004A509B01E0915107E830D8F4F0E0EA52ED
:1034F000FB4A0C94C9531092B20280E090E0A0E025
:10350000BFE38093B3029093B402A093B502B0934B
:10351000B6021092FC061092FD061092FE06109262
:10352000FF06C701B601DF91CF91FF90EF90DF90CA
:10353000CF90BF90AF909F908F9008951092B2025D
:103540001092FC061092FD061092FE061092FF06E5
:103550006431710580F46A30710580F080E090E09C
:10356000A0E8BEE38093B3029093B402A093B502A7
:10357000B093B602D6CF693C710580F380E090E04D
:10358000A0E0BEE3EFCF1092B2021092FC061092C0
:10359000FD061092FE061092FF0620E030E040EAA1
:1035A00052E4C701B6010E94CC4F87FDBACF20E09C
:1035B00030E040E253E4C701B6010E94CC4F87FFE0
:1035C0003EC00E943F5468E270E00E949653BC01E6
:1035D000645C7F4F072E000C880B990B0E947B5078
:1035E0006B017C018091F9069091FA068B30910570
:1035F00008F18531910508F04AC065E170E0681B6B
:10360000790B90E080E00E94795020E030E040E0CB
:103610005FE30E94925120E030E040E251E40E94DA
:10362000D14F6093B3027093B4028093B50290932C
:10363000B60277CF80E090E0A0E0BFE393CF20E038
:1036400030E040EA53E4C701B6010E94CC4F87FF47
:1036500027C00E943F5468EE73E00E949653BC015D
:1036600068517C4F072E000C880B990B0E947B50F1
:103670006B017C018091F9069091FA0686309105E4
:10368000C8F265E170E08531910508F46BC01092D5
:10369000B3021092B4021092B5021092B60241CF5A
:1036A00020E030E040E254E4C701B6010E94CC4F74
:1036B00087FF2FC00E943F5460ED77E00E94965331
:1036C000BC016854744F072E000C880B990B0E94A4
:1036D0007B506B017C018091F9069091FA06803154
:1036E000910508F4A7CF8531910588F665E170E072
:1036F000681B790B90E080E00E94795020E030E078
:1037000040E05FE30E94925120E030E040EA50E464
:1037100086CF20E030E040EA54E4C701B6010E94C1
:10372000CC4F87FFFECE0E943F5460ED77E00E94B1
:103730009653BC016854744F072E000C880B990BEC
:103740000E947B506B017C018091F9069091FA06F2
:103750008432910508F46ECF8333910508F097CF3A
:1037600063E370E0681B790B90E080E00E94795081
:1037700020E030E040E05FE30E94925120E030E042
:1037800040E751E44CCF41E04093B2021092FC0676
:103790001092FD061092FE061092FF06643171052C
:1037A00040F46A30710560F120E030E040E05FE312
:1037B0002BC0693C710508F06ACF90E080E00E9460
:1037C000795020E030E040EA51E40E945F4F20E071
:1037D00030E044E353E40E94D14F9B01AC010E94CE
:1037E000925120E030E040E05EE30E9492519B0164
:1037F000AC0160E070E080E09EE30E945F4F11CF7B
:1038000020E030E040E85EE3C701B6010E9492513B
:103810006B017C01B3CE21E02093B2021092FC0632
:103820001092FD061092FE061092FF064AE0469F97
:103830009001479F300D1124C90168EB7BE00E9485
:103840008253BC016C5D754077FF03C07195619533
:103850007109072E000C880B990B0E947B502EE3F8
:1038600033EC4EE259E30E94925120E030E040EC0C
:103870005EE30E94604FD5CE81E08093B202109249
:10388000FC061092FD061092FE061092FF06CE0175
:1038900083709927892B09F1BE016170772790E029
:1038A00080E00E94795020E030E040E05EE30E943A
:1038B000925120E030E040E45FE30E94604F60936B
:1038C000B3027093B4028093B5029093B602C770AE
:1038D000DD27CD2B09F025CEDACE80E090E0A0E008
:1038E000BFE38093B3029093B402A093B502B09368
:1038F000B602EDCF41E04093B2021092FC06109266
:10390000FD061092FE061092FF06812C912CA12C30
:103910009FE3B92E8092B3029092B402A092B502B6
:10392000B092B6022739310508F4FBCD90E080E073
:103930000E94795020E030E047E153E40E945F4F5D
:1039400020E030E04AE754E40E94D14F20E030E02C
:1039500048E452E40E94925120E030E040EA51E411
:103960000E94C1500E944350660F771F660F771F59
:10397000615D794FFB012081318142815381C70113
:10398000B6010E9492516B017C01CBCD2FE7482FED
:1039900060E086E09DE00C94A74320E0482F60E0C3
:1039A00086E09DE00C94B74320E04BE760E086E0C2
:1039B0009DE00C94974386E09DE00C94A645CF9340
:1039C000C82F80916A07882319F08C2F0E94181342
:1039D00080916907882321F08C2FCF910C94C61C0D
:1039E000CF910895CF93C82F80916A07882319F04B
:1039F0008C2F0E941E1380916907882321F08C2F41
:103A0000CF910C94CD1CCF91089580916A078111BC
:103A10000E9422138091690781110C94D41C08958F
:103A20000C944F080E94051D10926A0740E068E060
:103A300070E088E393E00C947F170E94D41C1092EE
:103A4000690740E068E070E088EB92E00C947F1733
:103A50000E94051D20915A0430E02F5F3F4F2370D4
:103A6000332720935A0448E2429FC001439F900DA0
:103A7000112440E065E070E088549C4F0C947F175F
:103A8000CF93809166078823F1F08091520790913F
:103A90005307009779F40E94A742909353078093AD
:103AA000520780915407282F30E0882371F0C90114
:103AB00001970FC00E94BF422091580430915904D1
:103AC0002817390740F3CF91089580915507815009
:103AD000990B2A5A384FF901C0818A5A984FFC0134
:103AE00080810E94F21C8C2F0E94DF1C8091540761
:103AF00090E001966091550770E00E949653809384
:103B00005407E1CF089581E080936A0740E068E0C0
:103B100070E088E793E00E947F170C94821D08955F
:103B200081E08093690740E068E070E088EF92E010
:103B30000E947F170C948F1DEF92FF921F93CF93DB
:103B4000DF93CDB7DEB7A3970FB6F894DEBF0FBEF5
:103B5000CDBF7C0186323CE59307A9F4DB011296C8
:103B60008C91882309F458C00E94831D80E0A3969D
:103B70000FB6F894DEBF0FBECDBFDF91CF911F917E
:103B8000FF90EF9008958732BCE59B0741F4FB015D
:103B90008281882309F440C00E94121DE7CF883239
:103BA000FCE59F0751F480916A07DB0112969C9116
:103BB000992391F18111F0CFD7CF8C32BCE59B07CF
:103BC00039F4FB018281882339F10E94901DCECF08
:103BD0008D32FCE59F0741F4DB0112968C9188231E
:103BE000D9F00E941D1DC2CF8E32BCE59B0749F45F
:103BF000FB018281882381F0809169078111F1CFD7
:103C0000E4CF89329C4541F4DB0112968C918823E4
:103C100019F00E94281DAACF80916A07811105C062
:103C200080916907882309F4D5C0FB0122812223F2
:103C300009F450C0F0EEEF16F10461F40E94051D86
:103C400081E08093680710926707109266071092D0
:103C500055078CCF32EEE316F10471F40E94051D76
:103C600080916807882319F081E08093670710929C
:103C70006807109266077ACF83EEE816F10491F494
:103C800080916707882331F10E94051D1092680713
:103C900081E08093660710925407109253071092A8
:103CA000520764CF92E5E916F10451F4809158046B
:103CB000909159040A97909359048093580456CFD1
:103CC000A1E5EA16F10431F4809158049091590469
:103CD0000A96F1CF80915A0410915D04811111C0B0
:103CE000135080915B04180FFB018081180F318104
:103CF00084E090E0831B9109FCE08F9F100D11245C
:103D000014C0813061F5105E80915B04180FDB01F7
:103D10008C91180F11963C9184E090E0831B9109DF
:103D2000982F990F990F890F180F812F222309F4CB
:103D30004EC00E94DF1C80916807882351F080915B
:103D40005507E82FF0E0EA5AF84F10838F5F809311
:103D50005507C7010E94101D91E0892708CF8230C6
:103D600071F4105E80915B04180FFB018081180FC5
:103D7000318184E090E0831B9109F7E0BECF83306E
:103D8000A1F683E2E4E0F5E0DE01119601900D92E8
:103D90008A95E1F7DB01EC9181E090E08C0F9D1FAB
:103DA0008E0F911DFC0180915B0490915C04E80FE3
:103DB000F91F13508081180F11963C9184E090E018
:103DC000831B9109ACE08A9F100D1124AECF0E9495
:103DD000F21CBFCF81E0CBCEEF92FF920F931F93E7
:103DE000CF93DF93EB01E82FD11110C0442321F0D2
:103DF000F0E0EB52F94FE4916E2F7E2F8E2FDF9182
:103E0000CF911F910F91FF90EF9008950D2F10E02B
:103E1000282F30E0442329F02B52394FF901249107
:103E200030E0F6E0CF9FC0011124EFEFF0E0BF01DA
:103E30000E948253AB018C2F90E0880F991FA5E55B
:103E4000A49FB001A59F700D1124861B970B982F7E
:103E5000990F980FBF01601B710B629FD001639F88
:103E6000B00D729FB00D11248B2F9D9FB0011124B6
:103E7000672F7727EF01C61BD70BBE01629FE001BA
:103E8000639FD00D729FD00D11247F01E91AF108B4
:103E9000E09EB001E19E700DF09E700D1124672F21
:103EA0007727E61BF70BE29F8001E39F100DF29F3F
:103EB000100D1124E12F722F4230510599F048F472
:103EC0004115510569F04130510581F0EB2F8D2FDF
:103ED00007C04430510569F080F046305105B1F714
:103EE0006E2F8DCFE22F7B2F812FFACFE22F7D2FE8
:103EF000F7CFEB2F822F712FF3CF7B2F822FED2F58
:103F0000EFCF41E00C94EC1E30E020E0869F212DA5
:103F1000969F200D311D1124C9010895AC018230F6
:103F2000910508F408959FEF413E8EE1580740F453
:103F30009A0195E0369527959A95E1F798E0920FCA
:103F400061E0E62FE90FFF27FF1F9F0135952795B9
:103F5000822F229FF001239FF00DF00D11244E17A8
:103F60005F0738F49FEF920F961758F78FEF860F81
:103F700008952F3FE9F361E0620FF6CFE82F86FD49
:103F8000E0952E2F2F7086FD2F5FE695E695E6953E
:103F9000E670F0E0E857F94F9181929F902D212D26
:103FA000112492959F702295207F922B2081920F51
:103FB00087FD919580E8890F0895E42FF0E0EE0FDA
:103FC000FF1FE45BFE4F408134EE439F412D1124DF
:103FD000E72FF0E050E0445E5F4FDA01A21BB10929
:103FE0009D01B7FF03C031952195310993E0220F60
:103FF000331F9A95E1F7AF01421B530B9A0157FD0E
:1040000020E0279F212D1124722F0895E42FF0E046
:10401000EE0FFF1FE45BFE4F408134EE439F412DC6
:104020001124E82FF0E050E0445E5F4FDA01A21B5C
:10403000B1099D01B7FF03C031952195310993E086
:10404000220F331F9A95E1F7AF01421B530B9A01E0
:1040500057FD20E0582F259F212D1124822F0895F0
:10406000622F0895E42FF0E0EE0FFF1FE45BFE4F98
:104070006081621B0895E42FF0E0EE0FFF1FE45E05
:10408000FE4F61A9621B0895322F50E0FA01EE0F36
:10409000FF1FE45EFE4F91A9905297FD9195440F4A
:1040A000551FFA01E45BFE4F2081231B330B290FC0
:1040B000311D97FD3A95620F0895EF920F93972F58
:1040C00023E0029FB0011124759567956E0D792F3D
:1040D0000F91EF9008950F93CF93DF93D72FC82FB1
:1040E00047FD419588E390E0841B910947FD939536
:1040F000889FB001899F700D700D1124229FC0010F
:10410000239F900D900D1124860F971F0E948E1FE4
:10411000982F990F890F682F600F7D2F8C2FDF91BB
:10412000CF910F9108950F931F93522F10E0F80134
:10413000EE0FFF1FE45EFE4FA1A9A052BB0B9D0135
:104140005203F001539FF00D1124000F111FD801ED
:10415000A45BBE4F0C910057110B40039001419F8F
:10416000300D11242E0F3F1F37FF02C021583F4F43
:10417000220F232F221F330B620F1F910F910895DF
:104180000F931F93522F10E0F801EE0FFF1FE45E14
:10419000FE4FA1A9A052BB0B9D015203F001539FFA
:1041A000F00D1124000F111FD801A45BBE4F0C911C
:1041B0000057110B40039001419F300D11242E0F29
:1041C0003F1F37FF02C0215C3F4F96E03595279592
:1041D0009A95E1F7620F1F910F9108950F931F9326
:1041E00010E0F801EE0FFF1FE45BFE4F9081905747
:1041F00097FD9195000F111FF801E45EFE4F01A994
:104200000052110B2003F001219FF00D112408E34F
:1042100010E0091B110997FD139540039001419F80
:10422000300D1124E20FF31F9F01220F331F2E0FB9
:104230003F1F37FF02C021583F4F220F232F221F5D
:10424000330B620F1F910F9108954095282F429FC5
:10425000412D1124842F089522E8241B08F420E026
:10426000620F0895EF92FF920F93970195E0099FD7
:10427000200D311D11242F3F310519F010F02FEFC3
:1042800030E02095382F320F08F43FEF832F0F9145
:10429000FF90EF900895EF92FF920F931F930E0DF2
:1042A0001F2D111DF90137FF03C0F195E195F109AB
:1042B00024E0EE0FFF1F2A95E1F7EF3FF10519F01B
:1042C00014F0EFEFF0E09A0157FF03C0319521950C
:1042D000310994E0220F331F9A95E1F72E173F071B
:1042E0000CF4F901E00FF11FEF3FF10519F010F0A8
:1042F000EFEFF0E0E095282F3E2F230F08F42FEF8B
:10430000822F1F910F91FF90EF900895EF92FF92EF
:104310000F93972F093438F4B701601B71096F3F71
:10432000710519F010F06FEF70E0485F5F4F413199
:10433000510540F0A901485F5F4F4131510510F030
:104340006FEF70E06095482F460F08F44FEF842F11
:1043500037FF02C02D5F3F4F35952795359527953F
:1043600060919B0B620F792F0F91FF90EF90089552
:10437000EF92FF920F939701201B31092F3F3105D8
:1043800019F010F02FEF30E0322F3095482F430F07
:1043900008F44FEF842F620F0F91FF90EF90089574
:1043A000EF92FF920F939701201B31092F3F3105A8
:1043B00019F010F02FEF30E02095382F320F08F46D
:1043C0003FEF832F0F91FF90EF900895FC019B0129
:1043D000009729F480E077FF2BC080E80895AC01B6
:1043E00097FF04C044275527481B590BB901640F98
:1043F000751F37FD10C0241B350BC901A5E0880FC0
:10440000991FAA95E1F70E94965380E2861BF7FF59
:104410000FC081950895CB0165E0880F991F6A95BB
:10442000E1F7BA01621B730B0E94965380E6EECF50
:1044300008950F931F93CF93DF93D62F172FC82F75
:10444000C901272F201B022FBA010E94E621982FB5
:10445000990F990F782F791B700F719F712D11246F
:104460006D2F8C2FDF91CF911F910F9108950F9396
:104470001F93CF93DF93D62FC72F182FC901212F5A
:10448000201B022FBA010E94E621982F990F990F45
:10449000891B800F282F219F212D1124822F6D2F02
:1044A0007C2FDF91CF911F910F910895EF920F9381
:1044B0001F93CF93DF93D62F172FC82FC9010E1943
:1044C000070FBA010E94E621702F781B719F712D92
:1044D00011246D2F8C2FDF91CF911F910F91EF90B1
:1044E0000895EF920F931F93CF93DF93D62FC72F8B
:1044F000182FC9010E19010FBA010E94E621081BED
:10450000202F219F212D1124822F6D2F7C2FDF91B1
:10451000CF911F910F91EF9008950F93CF93DF9359
:10452000D72FC82FC901BA010E94E621682F600F5A
:104530007D2F8C2FDF91CF910F910895EF920F93E4
:10454000CF93DF93D72FC82FC9010E19BA010E944C
:10455000E621602F681B7D2F8C2FDF91CF910F916B
:10456000EF90089545E050E06CE170E08AE99BE04F
:104570000C94575445E050E06CE170E08AE99BE010
:104580000C94755480915B0B80FF08C081EB96E022
:104590009F938F930E948B060F900F9085E38093DB
:1045A0009A0B8091270590912805A0912905809369
:1045B0009B0B90939C0BA0939D0B8FE780939E0B7E
:1045C0000C94BA2280915B0B80FF77C087E996E05C
:1045D0009F938F930E948B0680915B0B0F900F909F
:1045E00080FF6BC080919A0B83701F928F9388E736
:1045F00096E09F938F930E948B0680915B0B0F90A8
:104600000F900F900F9080FF58C080919A0B869565
:1046100086951F928F938BE596E09F938F930E94D0
:104620008B0680915B0B0F900F900F900F9080FF87
:1046300044C080919B0B1F928F938DE396E09F93D4
:104640008F930E948B0680915B0B0F900F900F90C1
:104650000F9080FF32C080919C0B1F928F938FE14F
:1046600096E09F938F930E948B0680915B0B0F9037
:104670000F900F900F9080FF20C080919D0B1F9294
:104680008F9381E096E09F938F930E948B06809199
:104690005B0B0F900F900F900F9080FF0EC08091DA
:1046A0009E0B1F928F9383EE95E09F938F930E94B2
:1046B0008B060F900F900F900F9008950F931F93FC
:1046C000CF93DF93C82FD62F8A010E946C079CE0FE
:1046D000C99FB0011124645E7E4F6D0F711DFB01F7
:1046E00090819F3F29F0F801E80FF11D90838F5FC3
:1046F000DF91CF911F910F910895E0919606F0916F
:1047000097060994E0919206F091930609943F92DE
:104710004F925F926F927F928F929F92AF92BF92D1
:10472000CF92DF92EF92FF920F931F93CF93DF937D
:104730003C012B01FC01C0818AE0C89FC02D1124DF
:104740001AE01C0FF12E123310F031E3F32E6091BA
:104750009E0B669580919F0B9091A00B0E94841FE9
:10476000382ED0E0CE01880F991F9C01245E3E4F69
:104770006901CF15B0F081E0113308F080E0DF91DE
:10478000CF911F910F91FF90EF90DF90CF90BF904E
:10479000AF909F908F907F906F905F904F903F90E1
:1047A0000895FE01E255FE4F8081F3019181892336
:1047B00079F1F60180A9282F2057330B590181A9DF
:1047C000E82FE052FF0B4F01AA9C9001AB9C300DEB
:1047D000300D1124EE9FC001EF9F900D900D11241C
:1047E000820F931F0E948E1F082F60919B0B709168
:1047F0009C0B80919D0BE32C9401A501F20109957E
:104800000E94811F462F282F672FCE010E948223EE
:10481000F2E0CF0ED11C2196ACCF66E572E20C948B
:10482000872361E772E20C9487236DE570E20C94B4
:1048300087236EE972E20C9487238F929F92AF9246
:10484000BF92CF92DF92EF92FF920F931F93CF937D
:10485000DF935C016B01FC01C0818AE0C89FC02D21
:1048600011241AE01C0F912E123310F031E3932E15
:1048700060919E0B669580919F0B9091A00B0E947A
:10488000841F882ED0E0CE01880F991F9C01245EE2
:104890003E4F7901C91588F081E0113308F080E0BE
:1048A000DF91CF911F910F91FF90EF90DF90CF900C
:1048B000BF90AF909F908F900895FE01E255FE4FFC
:1048C0008081F50191818923C1F0F70121A920524E
:1048D000330B40A94057550B60919B0B70919C0B7B
:1048E00080919D0B082DF60109950E94811F462F8E
:1048F000282F672FCE010E948223F2E0EF0EF11CD9
:104900002196C8CF69E172E20C941D2467E372E23C
:104910000C941D246BE670E20C941D246DE872E289
:104920000C941D24BF92CF92DF92EF92FF920F93CF
:104930001F93CF93DF936C017B01FC01C0818AE060
:10494000C89FC02D11241AE01C0F012F123308F04C
:1049500001E360919E0B6695669580919F0B909107
:10496000A00B0E94841FB82ED0E0C01770F081E029
:10497000113308F080E0DF91CF911F910F91FF90EC
:10498000EF90DF90CF90BF900895FE01E255FE4F6B
:104990008081F6019181892391F060919B0B709148
:1049A0009C0B80919D0B2B2D4C2FF70109950E949C
:1049B000811F462F282F672FCE010E948223219628
:1049C000D4CF6DED7FE10C94922466E070E20C94FC
:1049D000922460E370E20C94922462E370E20C94FF
:1049E00092246BE370E20C94922464E470E20C94E1
:1049F00092247F928F929F92AF92BF92CF92DF923A
:104A0000EF92FF920F931F93CF93DF935C016B01A3
:104A1000FC01C0818AE0C89FC02D11241AE01C0F40
:104A2000912E123310F031E3932E60919E0B669518
:104A3000669580919F0B9091A00B0E94841FF82E89
:104A400080E48F0D0E94BE1F90E8892E880E8F2D66
:104A50000E94BE1F20E8722E780ED0E0C91590F09B
:104A600081E0113308F080E0DF91CF911F910F9129
:104A7000FF90EF90DF90CF90BF90AF909F908F907E
:104A80007F900895FE01E255FE4F8081F5019181EE
:104A90008923A1F060919B0B70919C0B80919D0BE1
:104AA000EF2C0C2F272D482DF60109950E94811F10
:104AB000462F282F672FCE010E9482232196CECF2A
:104AC00063E970E20C94F92460EC70E20C94F92430
:104AD0006EEE70E20C94F924AF92BF92CF92DF9207
:104AE000EF92FF920F931F93CF93DF937C016B01A3
:104AF000FC01C0818AE0C89FC02D11242AE0B22E9B
:104B0000BC0EAB2CF1E3FB1510F491E3A92E209120
:104B10009E0B30E050E040E06FEF7FEF80E090E0F0
:104B20000E94AA538901D0E02C2FCA1580F081E0A1
:104B3000F0E3FB1508F480E0DF91CF911F910F9116
:104B4000FF90EF90DF90CF90BF90AF900895FE015F
:104B5000E255FE4F8081F70191818923F1F0409168
:104B6000A30B4150042E000C550B47FF18C0C80181
:104B700060919E0B0E94841FAC0160919B0B709111
:104B80009C0B80919D0BF60109950E94811F462F79
:104B9000282F672FCE010E9482232196C5CFFA01CC
:104BA000ED55F44F818982130AC0FA01EE0FFF1F01
:104BB000ED55F44F818D928D80179107C8F24150C9
:104BC0005109D3CF65E271E20C946C256CE271E27D
:104BD0000C946C252F923F924F925F926F927F922E
:104BE0008F929F92AF92BF92CF92DF92EF92FF92FD
:104BF0000F931F93CF93DF93CDB7DEB72B970FB6ED
:104C0000F894DEBF0FBECDBF8C832B015F834E8334
:104C1000FB01F0818AE0F89F802D11248983865F53
:104C20008A838B83823310F021E32B833091A30B93
:104C30003D839981892F90E09B878A87880F991FF0
:104C4000FC01E45EFE4F6F01FC818F2F90E09C0120
:104C50002F5F3F4F39872887EB81FA85FE17F0F0E9
:104C600081E02A81213308F080E02B960FB6F8947A
:104C7000DEBF0FBECDBFDF91CF911F910F91FF908F
:104C8000EF90DF90CF90BF90AF909F908F907F90EC
:104C90006F905F904F903F902F900895EA85FB852D
:104CA000E255FE4F8081F2019181892301F120902C
:104CB0009B0B30909C0B288539852D55344F39013D
:104CC0003C81398310E029813D812317C8F0209170
:104CD0009D0B129F112D1124B101812F0E94811F64
:104CE000462F282F672F8A859B850E9482238A85DD
:104CF0009B8501969B878A8792E0C90ED11CACCF19
:104D0000F30181913F01F601A0A8A81ABB0881A870
:104D1000F3018781881A9908AA9C9001AB9C300DF9
:104D2000300D1124889CC001899C900D900D112498
:104D3000820F931F0E948E1F082FF301EE0FFF1F9B
:104D4000E35AFB4060919E0B858996890E94841FDF
:104D50007C019401A501B101812FEE81FF810995AC
:104D60001B01F981FF5FF983182FADCF2091A30BB1
:104D700031E0231B08F420E042E351E2BC01822F22
:104D80000C94EA2542E351E2BC0180E00C94EA2550
:104D90002091A30B31E0231B08F420E04BE451E207
:104DA000BC01822F0C94EA254BE451E2BC0180E067
:104DB0000C94EA252091A30B31E0231B08F420E09A
:104DC00046E851E2BC01822F0C94EA2546E851E204
:104DD000BC0180E00C94EA252091A30B31E0231B59
:104DE00008F420E048EB51E2BC01822F0C94EA2544
:104DF00048EB51E2BC0180E00C94EA252091A30B22
:104E000031E0231B08F420E040ED51E2BC01822F89
:104E10000C94EA2540ED51E2BC0180E00C94EA25B7
:104E2000BF92CF92DF92EF92FF920F931F93CF9397
:104E3000DF937C01FC01C0818AE0C89FC02D112452
:104E40001AE01C0F012F123308F001E360919B0B55
:104E500070919C0B80919D0B0E94811FD62EC72EB6
:104E6000B82ED0E0C01770F081E0113308F080E078
:104E7000DF91CF911F910F91FF90EF90DF90CF9036
:104E8000BF900895FE01E255FE4F8081F7019181A8
:104E9000892331F02B2D4D2D6C2DCE010E948223C4
:104EA0002196E0CF8F929F92AF92BF92CF92DF92E6
:104EB000EF92FF920F931F93CF93DF937C01FC013E
:104EC000C0818AE0C89FC02D11241AE01C0F012F59
:104ED000123308F001E3C0909C0BD0909D0BD09151
:104EE0009B0B6D2F7C2D8D2D0E94811FB62EA72E22
:104EF000982E60919E0B6D0F7C2D8D2D0E94811F31
:104F0000D62EC72E882ED0E0C01788F081E011334E
:104F100008F080E0DF91CF911F910F91FF90EF900B
:104F2000DF90CF90BF90AF909F908F900895FE013B
:104F3000E255FE4F9081F7018181892359F0282D98
:104F40004D2D6C2D90FD03C0292D4B2D6A2DCE01CA
:104F50000E9482232196D8CFBF92CF92DF92EF9208
:104F6000FF920F931F93CF93DF937C01FC01C081CD
:104F70008AE0C89FC02D11241AE01C0FD12E1233D5
:104F800010F091E3D92EC0909C0BB0909D0B209116
:104F90009E0B00E4029F012D1124D0E0CD1570F08E
:104FA00081E0113308F080E0DF91CF911F910F91E4
:104FB000FF90EF90DF90CF90BF900895FE01E255F3
:104FC000FE4F8081F70191818923B9F0FE01EE0F38
:104FD000FF1FE45EFE4F81A982958F7060919B0B4D
:104FE000809F600D11247C2D8B2D0E94811F462FE8
:104FF000282F672FCE010E9482232196CFCFBF9208
:10500000CF92DF92EF92FF920F931F93CF93DF9394
:105010008C01FC01C0818AE0C89FC02D11245AE098
:10502000F52EFC0EDF2CF1E3FF1510F441E3D42E36
:10503000C0909C0BB0909D0B20919E0B30E4E32E12
:105040003E2D329F312D1124E32ED0E0CD1578F086
:1050500081E030E33F1508F480E0DF91CF911F91AC
:105060000F91FF90EF90DF90CF90BF900895FE01D9
:10507000E255FE4F8081F80191818923D9F0FE012C
:10508000EE0FFF1FE45EFE4F60A9E69EB001112403
:1050900095E0759567959A95E1F780919B0B680F60
:1050A0007C2D8B2D0E94811F462F282F672FCE012C
:1050B0000E9482232196CACFBF92CF92DF92EF92B5
:1050C000FF920F931F93CF93DF938C01FC01C0815C
:1050D0008AE0C89FC02D11249AE0F92EFC0EEF2C17
:1050E000F1E3FF1510F481E3E82ED0909B0BD091F3
:1050F0009C0BC0909D0B60919E0B66956695669586
:1051000080919F0B9091A00B0E94841F0E94BE1F54
:10511000805887FD8195880F282F3C2D239F212DB6
:105120001124822F6D2D7D2F0E94811FD62EC72E18
:10513000B82ED0E0CE1578F081E020E32F1508F4EA
:1051400080E0DF91CF911F910F91FF90EF90DF9062
:10515000CF90BF900895FE01E255FE4F8081F80187
:105160009181892331F02B2D4D2D6C2DCE010E9484
:1051700082232196DFCFDF92EF92FF920F931F934E
:10518000CF93DF938C01FC01E255FE4F80816823B1
:1051900081F1D0909C0BD0919D0BC0919B0BEC2E7C
:1051A000F12C0E943F54282FC7018C549F4F68E672
:1051B00071E00E9496538E199F0997FD039695956D
:1051C00087959595879523706C2F289F600D1124E6
:1051D0007D2D8D2F0E94811F462F282F672FC801FC
:1051E000DF91CF911F910F91FF90EF90DF900C9482
:1051F0008223DF91CF911F910F91FF90EF90DF906D
:105200000895DF92EF92FF920F931F93CF93DF9356
:105210008C01FC01C281C11125C060919E0B20E16F
:10522000620F08F46FEF80919F0B9091A00B0E948A
:10523000841F6AE070E00E948253892B51F40E941F
:105240003F5461E370E00E949653F80161810E942F
:10525000BB288C2FDF91CF911F910F91FF90EF9082
:10526000DF900895C0818AE0C89FC02D11248AE094
:10527000D82EDC0E8D2DF1E3FD1508F481E3D0E08E
:10528000E82EF12CCE15DF0534F0C1E0F0E3FD157A
:1052900000F7C0E0DECFF8016181CE010E94BB289B
:1052A0002196F0CF1F93CF93DF93EC01FC01E255E1
:1052B000FE4F80816823A1F00E943F54182F0E9466
:1052C0003F54612F782F80919D0B0E94811F462FA4
:1052D000282F672FCE01DF91CF911F910C9482234D
:1052E000DF91CF911F910895DF92EF92FF920F937C
:1052F0001F93CF93DF938C01FC01C281C11125C0A4
:1053000060919E0B20E1620F08F46FEF80919F0B7C
:105310009091A00B0E94841F65E070E00E94825370
:10532000892B51F40E943F5461E370E00E94965330
:10533000F80161810E9452298C2FDF91CF911F913A
:105340000F91FF90EF90DF900895C0818AE0C89F91
:10535000C02D11248AE0D82EDC0E8D2DF1E3FD1531
:1053600008F481E3D0E0E82EF12CCE15DF0534F00F
:10537000C1E0F0E3FD1500F7C0E0DECFF801618188
:10538000CE010E9452292196F0CFE0919406F0912F
:1053900095060994CF92DF92EF92FF920F931F939D
:1053A000CF93DF93CDB7DEB728970FB6F894DEBF63
:1053B0000FBECDBFFB018281F12C882341F0AE01ED
:1053C0004F5F5F4F608181810E945E23F82EE090E5
:1053D0006B070F2D10E0C8018E0D911D099764F128
:1053E00088E090E06C01C01AD10AB8016459784F86
:1053F000A6018CE697E00E944E54B8016C58784F95
:10540000A60184E797E00E944E54A601440F551F61
:10541000B801660F771F6C57784F84E897E00E94B9
:105420004E54B8016458784FA6018CE797E00E946B
:105430004E54EA94E0926B0710916B07DE011196CF
:1054400040E0842F810FF41212C080936B0781E03B
:1054500028960FB6F894DEBF0FBECDBFDF91CF9177
:105460001F910F91FF90EF90DF90CF9008955D9185
:10547000252F30E090E0BC016559784FF901EE0F1F
:10548000FF1FE45BFE4F0081FB010183220F331FEE
:10549000F901E45EFE4F21A9FB012187518B880FA2
:1054A000991FFC01E559F84F128E118E4F5FC9CF3D
:1054B00008950E947D080C94582A4F925F926F9233
:1054C0007F928F929F92AF92BF92CF92DF92EF9294
:1054D000FF92CF9360919407709195078091960702
:1054E000909197070E94CE426B017C010E94B342CB
:1054F0004B015C018092940790929507A0929607C9
:10550000B0929707A0916B07EBE6F7E08A2F90E047
:105510004FEF5FEF60E070E04C195D096E097F09A5
:10552000A91326C080936B0780919A0BC82FC37074
:1055300019F0C82FC695C69590915E04913009F474
:1055400041C0992341F1923009F425C1933009F407
:105550002AC1CF91FF90EF90DF90CF90BF90AF9096
:105560009F908F907F906F905F904F900C94592AEE
:10557000218D328D2901712C612C4415550566054C
:10558000770520F481509F5F3296CACF2C0D3D1DC8
:10559000328F218FF8CF10925F0480929F0B9092F0
:1055A000A00BA092A10BB092A20B89E2EBE6F7E070
:1055B000A3EABBE001900D928A95E1F781E0809328
:1055C0005E04C7CF90916204C91315C0982F9370E1
:1055D0002091630430E081E09217130609F480E023
:1055E000817080936104C53278F4EC2FF0E0E252D0
:1055F000FB4A0C94C95381E0F3CF882359F040E073
:1056000060E080E00E94C52980E004C08FE594E05E
:105610000E94102790915F049F5F90935F04811117
:1056200098CF82E080935E0480916104811191CFD4
:10563000C1118FCF83E0C3CF8FE594E00E94522742
:10564000E9CF8FE594E00E94AC27E4CF8FE594E0AA
:105650000E94FF27DFCF8FE594E00E945C28DACF1D
:105660008FE594E00E94E124D5CF8FE594E00E947D
:10567000E524D0CF8FE594E00E948224CBCF8FE544
:1056800094E00E948624C6CF8FE594E00E940D240A
:10569000C1CF8FE594E00E941124BCCF8FE594E048
:1056A0000E94E924B7CF8FE594E00E94ED24B2CFA9
:1056B0008FE594E00E94F124ADCF8FE594E00E9445
:1056C000F524A8CF8FE594E00E941524A3CF8FE5A1
:1056D00094E00E948A249ECF8FE594E00E948E245D
:1056E00099CF8FE594E00E94192494CF8FE594E040
:1056F0000E9460258FCF8FE594E00E9464258ACFB9
:105700008FE594E00E94682585CF8FE594E00E94A4
:10571000012980CF8FE594E00E9474297BCF8FE52B
:1057200094E00E94E22576CF8FE594E00E94E62582
:1057300071CF8FE594E00E94B6266CCF8FE594E0A0
:105740000E94C22667CF8FE594E00E94C82662CFF0
:105750008FE594E00E94D4265DCF8FE594E00E940F
:10576000DA2658CF8FE594E00E94E62653CF8FE5E6
:1057700094E00E94EC264ECF8FE594E00E94F8263C
:1057800049CF8FE594E00E94FE2644CF8FE594E058
:105790000E940A273FCFC093620483708093630402
:1057A0000E947D2347CF60919F0B7091A00B809149
:1057B000A10B9091A20B0E94CE4260317105810530
:1057C000910508F4C6CE10925E04C3CEE091900617
:1057D000F091910609951092A30B8FEF9FEF909394
:1057E000BD0B8093BC0B9093BF0B8093BE0B90932B
:1057F000C10B8093C00B9093C30B8093C20B90930B
:10580000C50B8093C40B9093C70B8093C60B9093EA
:10581000C90B8093C80B9093CB0B8093CA0B10924B
:105820006B079093850780938407909387078093F5
:105830008607909389078093880790938B078093BE
:105840008A0790938D0780938C0790938F0780939E
:105850008E0790939107809390079093930780937E
:1058600092070E94DE40811110C080915B0B80FF87
:1058700008C081EB95E09F938F930E948B060F9059
:105880000F900E9489410E94C2220E94B222809100
:105890009A0B8C7F71F480915B0B80FF08C08CE5C4
:1058A00095E09F938F930E948B060F900F900E941C
:1058B000C2220C94E222809398070895CF93C82FB8
:1058C00080919A0B91E0892780939A0B10925E0445
:1058D000C1110E94BA2280915B0B80FF19C02091F8
:1058E0009A0B23708FE796E0CC2311F081E896E0C5
:1058F0001F922F939F938F9385E295E09F938F93B1
:105900000E948B060F900F900F900F900F900F90AA
:10591000CF91089581E00C945E2CCF93C62F909187
:105920009A0B937041F1811128C0946090939A0B67
:1059300010925E04C1110E94BA2280915B0B80FF1D
:105940001AC020919A0B269526958FE796E0CC23D6
:1059500011F081E896E01F922F939F938F938BE035
:1059600095E09F938F930E948B060F900F900F905E
:105970000F900F900F90CF910895853210F090699D
:10598000D5CF880F880F982BD1CF61E00C948D2C48
:10599000682F90919A0B9695969581E0890F8532A4
:1059A00008F081E00C948D2C81E00C94C82C682FB9
:1059B00090919A0B969596958FEF890F09F484E252
:1059C0000C948D2C81E00C94D72CCF93C22F909106
:1059D0009A0B937079F180939B0B60939C0B40938F
:1059E0009D0B21110E94BA2280915B0B80FF22C087
:1059F00040919D0B30919C0B20919B0B8FE796E083
:105A0000CC2311F081E896E01F924F931F923F93B1
:105A10001F922F939F938F9388EE94E09F938F9381
:105A20000E948B068DB79EB70A960FB6F8949EBF5C
:105A30000FBE8DBFCF910895AAE9BBE01196EC91FE
:105A40001197F0E0282F13964C91139712966C91B2
:105A5000CF0108960C94E52C81E00C941C2DEAE90A
:105A6000FBE09181282F43816281E92FE850FF0BF1
:105A7000CF010C94E52C81E00C942F2DEAE9FBE09A
:105A8000628120E1620F08F46FEF9181282F43813A
:105A9000892F90E00C94E52C81E00C943E2DEAE9EE
:105AA000FBE0628120E1621B08F460E09181282F15
:105AB0004381892F90E00C94E52C81E00C944F2DCC
:105AC000EAE9FBE0438120E1420F08F44FEF9181C6
:105AD000282F6281892F90E00C94E52C81E00C94B2
